:020000040800F2
:10000000E85A0020810500080D320008E3280008A6
:100010000B32000841170008CD470008000000001F
:100020000000000000000000000000008D03000838
:10003000C517000800000000E90300088334000829
:100040009B0500089B0500089B0500089B05000810
:100050009B0500089B050008C1040008D90400089E
:100060009B0500089B0500089B0500084517000834
:100070009B0500089B0500089B0500089B050008E0
:100080009B0500089B0500089B0500089B050008D0
:100090009B0500089B0500089B0500089B050008C0
:1000A0009B0500089B0500089B0500089B050008B0
:1000B0009B0500089B050008F53600089B05000815
:1000C0009B0500089B0500089B0500089B05000890
:1000D0009B0500089B0500089B0500089B05000880
:1000E0009B0500089B050008000000009B05000818
:1000F0009B0500089B0500089B0500089B05000860
:100100009B0500089B0500089B0500089B0500084F
:100110009B0500089B0500084D3700089B0500085B
:100120009B0500089B0500089B0500089B0500082F
:100130009B0500089B0500089B0500089B0500081F
:1001400000000000000000000000000000000000AF
:100150009B0500089B0500089B0500089B050008FF
:100160009B0500089B0500089B0500089B050008EF
:100170009B050008113200089B05000800000000E4
:100180009B0500089B0500089B0500089B050008CF
:100190009B0500089B0500089B0500089B050008BF
:1001A0009B0500089B0500089B0500089B050008AF
:1001B0009B0500089B0500089B0500089B0500089F
:1001C0009B0500089B0500089B0500089B0500088F
:1001D0009B0500089B0500089B0500089B0500087F
:1001E0009B0500089B0500089B0500089B0500086F
:1001F0009B0500089B0500089B0500089B0500085F
:100200009B0500089B0500089B0500089B0500084E
:100210009B0500089B0500089B0500089B0500083E
:100220009B0500089B0500089B05000800000000D6
:100230009B0500089B050008000000009B050008C6
:100240009B0500089B0500089B0500089B0500080E
:100250009B0500089B0500089B0500089B050008FE
:100260009B0500089B0500089B0500089B050008EE
:100270009B0500089B0500089B0500080000000086
:100280009B0500089B0500089B0500080000000076
:10029000000000009B05000800F002F800F067F87D
:1002A0000AA090E8000C82448344AAF10107DA45D1
:1002B00001D100F05CF8AFF2090EBAE80F0013F0BC
:1002C000010F18BFFB1A43F001031847644B0000ED
:1002D000944B00000A4410F8014B14F00F0508BFBE
:1002E00010F8015B240908BF10F8014B6D1E05D002
:1002F00010F8013B6D1E01F8013BF9D1641E03D0DB
:10030000641E01F8015BFBD19142E4D37047000009
:10031000103A24BF78C878C1FAD8520724BF30C831
:1003200030C144BF04680C60704700000023002403
:1003300000250026103A28BF78C1FBD8520728BFF5
:1003400030C148BF0B607047752900F0458100201F
:1003500070471FB504F012FD9DE8030000F05CFD3E
:1003600000F082FB1FBD10B500F0E7FB10BD00F0F0
:100370001BFC1146FFF7EDFF04F0CDFA00F020FD65
:1003800003B4FFF7F0FF03BC00F0B8FE2C4B196874
:100390000868B0E8F04F80F30988BFF36F8F4FF023
:1003A000000080F3118870470000000008480068D2
:1003B000006880F308884FF0000080F3148862B66C
:1003C00061B6BFF34F8FBFF36F8F00DF00BF00BF79
:1003D00008ED00E0DFF80C00016841F470010160F5
:1003E000704700BF88ED00E0EFF30980BFF36F8F27
:1003F000134B1A681EF0100F08BF20ED108A20E979
:10040000F04F106009B44FF0500080F31188BFF333
:100410004F8FBFF36F8F04F015FB4FF0000080F398
:10042000118809BC19680868B0E8F04F1EF0100F79
:1004300008BFB0EC108A80F30988BFF36F8F704754
:1004400024000020EFF30580704700000246D2E848
:100450004F0F411CC2E8431F03B1F8E77047024643
:1004600052E8000F411C42E8001303B1F8E770475F
:10047000024652E8000F42E8001303B1F9E7704763
:10048000024652E8000F830103D3BFF32F8F0020F1
:10049000704700F00040084342E8000303B1F0E772
:1004A0007047024652E8000F800103D2BFF32F8F3E
:1004B0000020704742E8001303B1F3E701207047C2
:1004C000012010B502F054FA002804D04FF0B041DA
:1004D0000120C1F8880010BD1FB54FF0B0420021C7
:1004E00000910220D2F88830984332D10220C2F81D
:1004F00088001D481D4C0269022090432AD000F05C
:10050000D3FF1C481A4A111D03785958D8B2D35842
:1005100089B2D1F5806123F0010313500ED0154A42
:100520005069D26903920190207800238DF804006D
:100530006A46029101A9606804F0D0FA0098002888
:1005400007D00D494FF080500860BFF34F8FBFF3C5
:100550006F8F1FBD217000F093FF08484FF480613A
:1005600000F068FE1FBD00000010025818000020B7
:1005700000000240E04D000804ED00E00000003003
:100580000948804709480047FEE7FEE7FEE7FEE727
:10059000FEE7FEE7FEE7FEE7FEE7FEE70448054963
:1005A000054A064B704700001936000899020008FA
:1005B000E84E0020E85A0020E8520020E8520020CF
:1005C0000FB4044910B503AA029800F01FFA10BC3A
:1005D0005DF814FB180D00202DE9F04106460024BB
:1005E00010687529314616A510D0AFF30080002899
:1005F00002DA404213A507E031688A0701D512A547
:1006000002E0490704D511A5012401E0AFF3008001
:1006100000210A2206F1240709E0B0FBF2FCB0FB3E
:10062000F2F302FB1C00303078541846491C0028B5
:10063000F3D123462A463046BDE8F04100F08DB99B
:10064000000000002D0000002B0000002000000032
:100650002DE9F0474FF0000A89460446C0F820A073
:100660002046E1688847002876D0252806D0D4E9BE
:1006700001219047206A401C2062F1E7E168204692
:1006800000268847C4F81CA005460027C4F818A017
:100690002A2D09D0284604F0ABF838B304EB8708BC
:1006A000303DC8F8185019E059F8041B204604EBF7
:1006B00087029161E1688847012F054618D1E069FA
:1006C000002820DA26F020061DE0D8F8180000EBFC
:1006D000800005EB40003038C8F818002046E1687B
:1006E0008847054604F084F80028EED1012F0AD08F
:1006F0002E2D08D12046E16888477F1C0546022F31
:1007000046F02006C4DBA069002803DA404246F028
:100710000106A061F00701D026F010066C2D0AD06A
:10072000682D08D04C2D39D06A2D35D0742D35D098
:100730007A2D33D016E0E1682F4620468847B8422C
:1007400005460AD16C2F27D04FF48060E16806433C
:1007500020468847054605E027E06C2F1AD04FF465
:10076000807006430DB3A5F14100192802D8203549
:1007700046F400664A462946204626604E46FFF764
:10078000E3FD80B101280BD0F61D26F0070000F133
:10079000080965E74020E4E78020D7E70020D5E797
:1007A00006F104095CE7284661E7206ABDE8F087A6
:1007B000032A40F2308010F0030C00F0158011F88D
:1007C000013BBCF1020F624498BF11F801CB00F865
:1007D000013B38BF11F8013BA2F1040298BF00F8B9
:1007E00001CB38BF00F8013B11F0030300F0258076
:1007F000083AC0F0088051F8043B083A51F804CB9D
:10080000A0E80810F5E7121D5CBF51F8043B40F862
:10081000043BAFF30080D20724BF11F8013B11F86D
:1008200001CB48BF11F8012B24BF00F8013B00F8B1
:1008300001CB48BF00F8012B704710B5203AC0F03B
:100840000B80B1E81850203AA0E81850B1E81850D1
:10085000A0E81850BFF4F5AF5FEA027C24BFB1E80E
:100860001850A0E8185044BF18C918C0BDE810407F
:100870005FEA827C24BF51F8043B40F8043B08BF88
:100880007047D20728BF31F8023B48BF11F8012B4F
:1008900028BF20F8023B48BF00F8012B70474FF0FB
:1008A000000200B5134694469646203922BFA0E8C0
:1008B0000C50A0E80C50B1F12001BFF4F7AF0907CC
:1008C00028BFA0E80C5048BF0CC05DF804EB8900BD
:1008D00028BF40F8042B08BF704748BF20F8022B00
:1008E00011F0804F18BF00F8012B70474FF0013C0A
:1008F00050F8042B51F8043B9A4215D1A2EB0C039B
:10090000934313EACC130BD150F8042B51F8043B5A
:100910009A4209D1A2EB0C03934313EACC13E7D01C
:100920004FF00000704700BFD01A01BAB1FA81F150
:1009300001F0180122FA01F0CB40C1F12001DBB235
:10094000C0B2C01A2CFA01F3D11A914311EAC311B3
:10095000E6D170477047704770472DE9F0470D4664
:1009600099469246044600F124080168880604D599
:10097000E06921F01001216000E00120A84201DDC2
:10098000471B00E00027A1697A1902EB0900081A49
:10099000A0612078C00602D42046AFF30080002674
:1009A00008E0D4E901211AF806009047206A401CAB
:1009B000761C20624E45F4DB2078C0060AD520461E
:1009C000AFF3008006E0D4E9012130209047206A8F
:1009D000401C2062381EA7F10107F4DC07E0D4E9CF
:1009E000012118F805009047206A401C2062281E4B
:1009F000A5F10105F3DC2046AFF300802078000666
:100A000002D50220BDE8F0870120FBE7074B70B557
:100A10000D467B4400F011F80446284600F020F80B
:100A200010B14FF0FF3070BD204670BDF33E0000A6
:100A300001694A1C02610878704700B58FB0CDE9A2
:100A400001310021059105497944CDE90310114692
:100A50006846FFF7FDFD0FB000BD0000E5FFFFFF9A
:100A6000007B00F08000704710B542485421FFF72A
:100A700016FF41485421FFF712FF40485421FFF769
:100A80000EFF3F493B483C4A3F4B08603D490A60E6
:100A90003A491960531C0365481C1065012008651C
:100AA0003B48344A39A1784400F0EEF820B9384880
:100AB00078440A3800F08DF937482F4A35A1784438
:100AC00000F0E2F820B9344878440A3800F081F99F
:100AD00032482A4A2FA1784400F0D6F820B92F488E
:100AE00078440A3800F075F940232248DC000021E0
:100AF000224600F0A5F820B125487844543800F08B
:100B000068F91D4822464023002100F099F820B1E1
:100B100021487844543800F05CF9184822461023E4
:100B2000002100F08DF8002806D01C487844BDE86C
:100B30001040563800F04DB910BD104870B5006D2A
:100B400020F001040B4800F015F90B4800F012F9F1
:100B50000A4800F00FF909E0206D20F00105204659
:100B600000F008F9204600F044F82C46002CF3D1A0
:100B700070BD0000C40C0020180D00206C0D00207A
:100B80007C00002080000020840000207200000013
:100B90006E430000770000005D4300004D430000FD
:100BA00000487047C00D00207546FFF7F9FFAE46BC
:100BB00005006946534620F00700854618B020B569
:100BC000FFF7ECFCBDE820404FF000064FF00007B7
:100BD0004FF000084FF0000B21F00701AC46ACE8E5
:100BE000C009ACE8C009ACE8C009ACE8C0098D4652
:100BF000704770B50446051F00F0F2F80068002C3D
:100C000014BF446870BD002C18BFAC423CBF2046E6
:100C10006468F8D301680A18AA4218BF456003D176
:100C20002A6805461144016028684119A1421CBF89
:100C30006C6070BD6168696021680844286070BD9F
:100C400070B5C468A50713D0650211D4B2F5807FD2
:100C500009D0B2F5007F06D0B2F5806F08D101232C
:100C600000F1240106E05D1E6FF07F46B54201D31E
:100C7000012070BD0161C361416024F470611143C2
:100C8000C160002070BD00002DE9F0410C46074610
:100C90001646104600F06EF82078611C61280AD0D4
:100CA000722802D077283CD102E00125002405E01B
:100CB0000225042402E0082448F2020511F8010B81
:100CC0002B2806D0622809D011F8010C74280AD00C
:100CD0000BE045F0030544F00204EFE745F004059E
:100CE00044F00104EAE744F010043846214603F0DA
:100CF000A5FD411C15D00021316171604FF40071D8
:100D0000F560F1617061200704D5304602220021B0
:100D100000F0E0F8306D40F0010030653046BDE88D
:100D2000F0810020FBE72DE9F0410D460646104C0E
:100D3000206DC10704D0410804D020F00104F7E77A
:100D400022460EE0542000F096F807000ED0206DE9
:100D500047F001010843542120653846FFF79FFD05
:100D60003A4629463046BDE8F0418DE70020D6E7F7
:100D7000C40C00202DE9F04704464FF000094FF065
:100D8000FF37C568D4E90486A80707D0204600F0DD
:100D900051F9304603F033FD002802DA3846BDE849
:100DA000F087280502D54046FFF723FF4C21204657
:100DB000FFF775FD206D20F0010020654846EEE745
:100DC00010B50446AFF300802046BDE81040FFF7A1
:100DD000D7BA10B500F078F9BDE8104000F06EB950
:100DE00000487047C80D0020704770477047704733
:100DF00038B504460A4600206946AFF30080002853
:100E000008BF38BD02460099204600F084F9012051
:100E100038BD012000F0D3B9F8B5AFF30080054626
:100E200000200C46102000BF0646A819A0420DD98C
:100E3000324669460020AFF30080070008BF00F08B
:100E4000BEF90098A04218BF0546C419FFF7C8FFB5
:100E500005600746F01D20F007004619284600F0FF
:100E600053F9B44208BFF8BDA21B31463868BDE84B
:100E7000F84000F050B970B50646FFF7B1FF0568BD
:100E800006F10B0020F00704B4429CBF002070BDA7
:100E90002B466A68BAB11068A04210D304F1080169
:100EA00088423CBF5068586007D3516810194160B0
:100EB0001168091B016058601460101D70BD134655
:100EC0005268002AE7D121462846FFF791FF002803
:100ED000DED170BD2DE9F041044616460D46476946
:100EE000007B80072ED0384603F09BFC50BB3EB3FE
:100EF000012E02D0022E25D104E0204600F025F973
:100F000005441DE0384603F086FCE168002841F006
:100F10001001E16005DA204600F058F80120BDE834
:100F2000F081C9030BD56268E16A914200D811468D
:100F3000A26911442269891A814200DD08460544EC
:100F4000002D01DA0220EAE7E16A6068E268814286
:100F500006D29103E06203D522F4003141F0100281
:100F6000A6690027AE4213DCE16A814201D90B4633
:100F700000E0034603EB060C2369ACEB030CAC4525
:100F800006DD814201D98C4600E084469C4505D1AE
:100F9000A760276042F02000A5620DE0AD1BE66966
:100FA000AE1B8142A66000D90846C01A281A2060EC
:100FB0005819606022F0200003490840E0600020DA
:100FC00084F84870ABE70000BFCFD7FFC16821F4B9
:100FD000001141F08001C160002181600160704713
:100FE0002DE9F047814614460E464FF0FF3832484F
:100FF000D5685769054209D03846A16903F04CFC11
:10100000002811DB2C48C0430540E5602B463246E2
:101010004946384603F046FCA16920F00042B21A66
:1010200011440028A16103D02046FFF7CFFF4046BE
:10103000BDE8F08770B504460569C06A61688842FA
:1010400000D80846E16821F42011E160C90312D5F7
:10105000A84208D02246411B2846FFF7C1FF10B125
:101060004FF0FF3070BD0020E562C4E90150E06838
:1010700020F48030E060002070BD10B50446C068E8
:1010800020F02000E060A16AA06988420DD02046CF
:10109000FFF7D0FFE06820F4405040F01000E0601F
:1010A000A06AA0612069E062606044F24001E068EB
:1010B0008843E06010BD000010000200002801D04D
:1010C00000F01CB87047000010B5014602A000F007
:1010D0005DF8012010BD0000534947525452454469
:1010E0003A2052656469726563743A2063616E27C1
:1010F00074206F70656E3A200000000001491820CE
:10110000ABBEFEE72600020000210160C0E901102D
:10111000704710207047034640688C46002818BF6F
:1011200088423CBF03464068F8D318681844884298
:1011300007D00CF1030020F00700001D411A521ADD
:101140000146081D0A60FFF754BD10B50146C2688C
:10115000900703D0900607D5886A0AE000F03EF8B1
:1011600001210160881E10BD8B69486818440B6915
:10117000C01A91F848301BB191F84910401A10BDBF
:101180001103FCD50028FADD401E10BD70B50546E0
:101190000C460A2000E06D1C00F018F835B12878E4
:1011A0000028F8D102E0641C00F010F814B1207897
:1011B0000028F8D1BDE870400A2000F007B810B54B
:1011C00000F010F8BDE81040FFF778BF08B5694699
:1011D0008DF800000320ABBE08BD70470048704783
:1011E000C00D002010B5012805D0002103A0FFF795
:1011F000CDFF012010BD09A1F8E700005349475277
:10120000544D454D3A204F7574206F6620686561D6
:1012100070206D656D6F7279000000003A2048659E
:101220006170206D656D6F727920636F7272757079
:10123000746564002DE9F041234D0646214C0F46AC
:101240002878C1B2205820F001006050287820583A
:1012500010F0010FFAD10820A0602020A060042027
:10126000A0600120A0601020A0600022204611464E
:1012700001F074FB13494FF0C0402A7808315050F8
:10128000081D29780E5000213A46204601F05AFBED
:1012900028782058297840F010006050287820588D
:1012A000297840F0040060504FF0E0214FF40060D6
:1012B000C1F8000128782058297840F001006050DA
:1012C000BDE8F08100000240D84D000806490748FB
:1012D0000B68002243F080730B604260016841F0AC
:1012E0000101016070470000FCED00E0001000E02B
:1012F000074B4FF47A7205491B68B3FBF2F24B6857
:1013000042434868C01A9042FBD37047001000E087
:101310001000002000B587B018216846FFF7BFFA1B
:10132000042001F0EBFA08484FF4005282610021DA
:1013300001230092CDE9013103910491694601F046
:1013400021FB07B000BD000000080258802010B546
:1013500001F0D4FABDE81040012001F0CFBA00003E
:10136000F8B501F0F8FE414900200A68920311D453
:10137000BFF34F8FBFF36F8F3D4A1060BFF34F8FA6
:10138000BFF36F8F0A6842F400320A60BFF34F8FD9
:10139000BFF36F8F0A68D20323D4344A70321060CF
:1013A000BFF34F8F101F43F6FF740068304B1033AC
:1013B000C0F34E32C0F3C90504EA4216284600BF06
:1013C00046EA80771F60401EFAD2521EF4D2BFF365
:1013D0004F8F086840F480300860BFF34F8FBFF331
:1013E0006F8F00F001FB02F023F82248016841F002
:1013F0000201016000684FF6FF031F4A00F002007F
:1014000000901A4808380168194041F440711143AE
:1014100001600068C0F30220C0F10702042A00D96D
:101420000422011D072901D2002000E0C01E012175
:101430009140124A491E8140080182F8140D02F0C1
:101440002DF8FFF743FFFFF781FFFFF763FF00F081
:101450009DF800F011F94FF47A70FFF749FF00F0A2
:1014600033F8BDE8F84000F085B8000014ED00E066
:1014700050EF00E0F44402580000FA050FE000E0ED
:101480000848416941F0010141616FF001010161CA
:10149000016A41F001010162016841F0010101604E
:1014A00070470000000400400648016A21F0010175
:1014B0000162016821F0010101606FF00101016129
:1014C000704700000004004010B586B01421684643
:1014D000FFF7E5F9042001F029FA22480068C0F37B
:1014E0000220C0F10701042900D90421021D072AA6
:1014F00001D2002000E0C01E012300228B405B1EB1
:1015000003F00501184B8140080183F800044FF0F7
:10151000E0214FF08040C1F8000140F2E73140F691
:101520005F10ADF80000114CCDE90121694620465D
:10153000039201F00BFD206840F0800020600C4910
:10154000A0680840A060606820F070006060A0683B
:1015500020F08000A060E06840F00100E06006B08C
:1015600010BD00000CED00E01EE000E000080040AF
:10157000F8BFFEFF044800214162891E0161016835
:1015800041F00101016070470008004010B590B0C3
:1015900020216846FFF783F9182108A8FFF77FF993
:1015A000284801F0BBFC2848016841F010010160A7
:1015B000006800F010000E90012001F0ABF90DF171
:1015C000200C0024022103224FF4C0608CE8170095
:1015D00007231E4808A9CDE90C4301F0D3F91C48A4
:1015E0000C21029403940794CDE90040CDE9044115
:1015F00006946946174C204601F008FD002120465C
:1016000001F09EFD0021204601F08CFD206820F0B5
:1016100000502060606820F490406060A06820F076
:101620002A00A060206840F001002060E069C0F35B
:1016300040500028FAD0E069C0F380500028F5D06F
:1016400010B010BD08030007F04402580000025813
:10165000C0C62D00001001400649CA69C2F3C0127D
:10166000002AFAD08862CA69C2F38012002AFAD02E
:10167000704700000010014010B590B0202168466E
:10168000FFF70DF9182108A8FFF709F9284801F01C
:1016900045FC2848016841F480210160006800F49D
:1016A00080200E90042001F035F908AB00240221BF
:1016B0004FF4406083E8130007221F4808A90B94E9
:1016C000CDE90C4201F05EF94FF4E13002940C21B7
:1016D00003940794CDE90040CDE90441069469469E
:1016E000164C204601F092FC0021204601F028FD16
:1016F0000021204601F016FD206820F000502060F7
:10170000606820F490406060A06820F02A00A0602B
:10171000206840F001002060E069C0F340500028DC
:10172000FAD0E069C0F380500028F5D010B010BDA9
:1017300008000007E844025800080258004800402A
:10174000FEE700001FB50020009018480168C1F3B3
:101750004011002927D020218160164A01AB144C8A
:1017600007CA83E80700207800238DF8040001A948
:1017700060686A4603F0B2F920784FF48061C0F1E6
:1017800001002070207878B10B4800BFFFF752FDB0
:101790000098002807D009494FF080500860BFF337
:1017A0004F8FBFF36F8F1FBD0548EFE7000002406A
:1017B00018000020E84D00080008003004ED00E0AB
:1017C00000000030704772B6FEE700000749097854
:1017D00051B1C0F3C621C0F3022204488038405CF6
:1017E000D04000F00100704700207047C04E00203C
:1017F0002DE9F0410A4D05F11806AF6900F0E6F851
:10180000044601463046FEF733FEB842F5D1844225
:1018100003D203481030FEF722FE2046BDE8F081D7
:10182000C04E00202DE9FC475FEA0108144605463A
:1018300002D0B4F5807F02D90020BDE8FC87FFF715
:10184000C5FF48B1FFF7D4FF8146A8B2EFF3058189
:1018500021B14FF4002702E00120EEE70027074303
:10186000A4B1082C4FF0000A4FF4E02613D822460A
:1018700041466846CDF800A0CDF804A0FEF798FFD9
:1018800006EA0440384340F0407042E000234946F5
:101890001A46384640E02248FEF7D8FD0146D8F8FF
:1018A00000000090083CD8F8040006EA01463743DF
:1018B000009A08F1080503464946019047F08070F8
:1018C00000F030F80028B8D04FF6017006430FE062
:1018D000284655F8081B0091083C40680A464946CE
:1018E00001900346304600F01DF8761C0028A4D075
:1018F000082CEDD8224629466846CDF800A0CDF840
:1019000004A0FEF755FF26F47F4040EA042040F093
:1019100000704946DDE9002300F004F88DE700007F
:10192000C14E00202DE9FF5F93468A464FF080525A
:10193000994602EADA08510001EA9B0748000725A8
:1019400000EA59061F48FEF78AFD830AC0F3090220
:101950001D484FF4700100EB0214009801EA035196
:10196000084340EA08003843304340F0406104F146
:101970000C00FEF785FD41011CD580F0044101F00B
:10198000004029F0004202432AF000452BF00043BA
:10199000054325600343C4E9013204F10C00FEF75E
:1019A00080FD48B10748001DFEF759FD012004B035
:1019B000BDE8F09F6D1EC5D102480830FEF74FFD0F
:1019C0000020F4E7C44E0020400E0020014840688B
:1019D00070470000001000E002488168027811445E
:1019E0008160704704000020032010B500F0FEF86D
:1019F00000F090FD0F4A104914681368C4F30322E5
:101A000003F00F038A5CC95C02F01F0201F01F01A2
:101A1000D0400A4A20FA01F11160094908600F20FC
:101A200000F010F808B1012010BD00F09FF8002070
:101A300010BD000018440258C84D000814000020D2
:101A40001000002010B5102804468AB02CD20022C5
:101A50000146362000F0AAF8362000F099F8174821
:101A600004601748016841F010010160006809A98D
:101A700000F010000890684600F0EAFC0598B0B14C
:101A800000F036FD40000F4900220F4CB0FBF1F191
:101A90000E4840F2E7330460C0E90332491EC0E952
:101AA000011200F0D6FD28B101200AB010BD00F0EF
:101AB0001FFDE8E7054800F0FFFDF6E708000020FD
:101AC000E844025840420F00001000408800002007
:101AD000F0B5154C4378211D0A1D23600378F3B13E
:101AE00043680B60057BC67A817A437B2D07847B34
:101AF00045EA0665C77B90F809C0067A90F800E0D1
:101B000045EAC14040EA834040EA444040EA074099
:101B100040EA0C2040EA460040EA0E0001E00020C6
:101B200008601060F0BD000098ED00E0BFF35F8F2B
:101B3000044800210368034A23F4803303607032B1
:101B40001160704724ED00E0074A40F001000649AB
:101B500070321060086840F480300860BFF34F8F27
:101B6000BFF36F8F7047000024ED00E0074882B09C
:101B7000016841F002010160006800220F2100F0BD
:101B800002000090901E02B000F010B8F444025819
:101B9000002809DB410900F01F028900012001F142
:101BA000E0219040C1F80001704700000E4BF0B4F6
:101BB0001B680D46C3F30223C3F10706042E00D9A8
:101BC0000426191D072901D2002300E0DB1E012491
:101BD00004FA06F19C40491E2940641E99401440B5
:101BE0002143F0BC02F0F3BD0CED00E0064900F02B
:101BF000070210B54FF6FF040868044B204040EA86
:101C000002201843086010BD0CED00E00000FA054A
:101C10007047D0F8080501F083BF01EBC10200EB6B
:101C20008202D0F80805926C01F0D6BE01EBC10229
:101C300000EB8202D0F80805D2F8882201F028BF14
:101C4000D0F8080501F06EBF0A0601F00F0101EBA4
:101C5000C10100EB810101D53C3101E001F51F71AB
:101C6000006802F04DBC70B54268044601F00F00F8
:101C7000904201D9012070BD01F00F024FF0000524
:101C80000B0602EBC2014FF0010204EB810103D508
:101C900081F83D203C3103E081F87D5201F51F7150
:101CA0008D70087094F8BC04012808D084F8BC2416
:101CB000206802F0B1FA002084F8BC5470BD022004
:101CC00070BD2DE9F04101F00F0604460D064FF0FE
:101CD000010006EBC6014FF0000504EB810103D5BE
:101CE00081F83D003C3103E081F87D5201F51F7120
:101CF0004F788A600B710E7007B14E83022B00D1B2
:101D00004D7194F8BC24012A09D084F8BC042068E1
:101D100002F008FA284684F8BC54BDE8F08102209D
:101D2000FBE770B501F00F05002405EBC50100EBE2
:101D3000810101F5227181E81C0001F80B4C01F8CA
:101D40000C5DC368012B00D1CA61027B006802F000
:101D5000BBFA002070BD70B50D464168044605F021
:101D60000F00884201D9012070BD29064FF00006FE
:101D70004FF0010207D500EBC00104EB810181F8AF
:101D80003D203C3107E005EBC50104EB810181F802
:101D90007D6201F51F718A70087094F8BC040128F7
:101DA00007D084F8BC24206802F062FA280702D029
:101DB00007E0022070BD217B04F2C442206802F0DB
:101DC000FFF9002084F8BC6470BD70B501F00F0409
:101DD000002504EBC401012600EB8101483181E8B4
:101DE0002C0001F80B6C01F80C4DC368012B00D1DD
:101DF000CA61027B006802F067FA002070BD000033
:101E00002DE9FC5F05680446284602F0F6FB002831
:101E10007ED1206802F01DFC002879D0D5F8080892
:101E2000C0F30D20C4F8FC04206802F012FC800707
:101E300004D52068416901F002014161206802F087
:101E400008FCC10604F2C440009034D520688169C2
:101E500021F0100181612F6A07F00F01C7F34340A1
:101E600001EBC101022804EB810606F51F7602D0C2
:101E7000062811D01AE047F6F070074216D0C7F3D3
:101E80000A12F1681746284602F0E7FBF16870690C
:101E90003944F160384408E000990822284602F0ED
:101EA000DCFB7069C7F30A1108447061206881691E
:101EB00041F010018161206802F0CBFB00034FF07C
:101EC000000A4FF0020B4FF001097CD52068002674
:101ED00002F09EFB074674E0F80770D02068F1B26C
:101EE00002F0AFFB8046C00707D005EB4611C1F8F2
:101EF000089B3146204601F091F95FEA087025D52C
:101F000005EB46110820C1F8080BFC49206800E0E9
:101F100042E2026C00EB461001928A42D0F8081BA4
:101F200005D9090403D54FF40041C0F8081B204629
:101F300000F06EFAF1490198884207D9E06801285B
:101F400004D120680121009A02F03AF95FEAC860E2
:101F500004D505EB46111020C1F8080B5FEA887024
:101F60001CD56869000605D5D5F8040840F48061E1
:101F7000C5F8041806EBC60004EB800090F87F1249
:101F800000F51F70012905D180F803A02046F1B2A9
:101F900000F008FA05EB4611C1F808BB5FEA88605B
:101FA00004D505EB46112020C1F8080B5FEA8840F4
:101FB00005D505EB46114FF40050C1F8080B7F081A
:101FC000761C002F88D1206802F043FB40036FD5B8
:101FD000206802F016FB0026074667E0F80763D08A
:101FE0002068F1B202F01BFB8046C00723D0D5F871
:101FF000342806F00F0C05EB461309FA0CF0824367
:10200000C5F83428C3F80899E06801280FD106EB19
:10201000C60004EB8000D0E911121144816436B986
:10202000E06C20B920680121009A02F0C9F820462E
:10203000F1B2FFF7F2FD5FEA087004D505EB461137
:102040000820C1F808095FEAC86004D505EB46110D
:102050001020C1F808095FEA486004D505EB461175
:102060004020C1F808095FEA887016D53146284635
:1020700002F096FA06EBC60004EB800090F83F10E1
:102080003C30012905D180F803A02046F1B200F0D0
:1020900085F905EB4611C1F808B95FEA086003D578
:1020A0003146204601F020F97F08761C002F95D19B
:1020B000206802F0CEFA002811DAD5F8040820F0E2
:1020C0000101C5F8041894F8F40401283BD0204617
:1020D00000F082F92068416901F000414161206807
:1020E00002F0B7FA00050BD5D5F80808C00702D0F2
:1020F000204600F095F92068416901F400614161D2
:10210000206802F0A6FA00010AD52068416901F0B2
:102110000061416194F8F404E0B1204600F080F9D8
:10212000206802F096FAC00472D5D5F8040820F0B1
:102130000101C5F804182068102102F031FA0021CD
:102140004FF67F322DE00021204684F8F4A4FFF7FB
:102150005FFDBFE784F8F4942068406D0121C0F36F
:102160008300C4F8F8042046FFF752FDD8E700BF0B
:1021700005EB4110C0F80829D0F8003923F400130A
:10218000C0F80039C0F8082BD0F8003B23F4001346
:10219000C0F8003BD0F8003B43F00063C0F8003BC0
:1021A000491C60688842E3D8D5F81C0840F001114A
:1021B000C5F81C18206B68B1D5F8840840F00B01F5
:1021C000C5F88418D5F8440840F00B012846C5F836
:1021D00044180DE0D5F8140842F22B010843C5F865
:1021E0001408D5F8100840F00B012846C5F810185F
:1021F000D0F8000820F4FE61C5F80018217B2068A3
:10220000009A01F0DDFF2068416901F480514161CD
:10221000206802F01EFA800417D5206801F0C2FF82
:10222000206802F0DDF9206100F040F9217C23688C
:10223000CAB20146184602F041FA204600F0B6F84C
:102240002068416901F400514161206802F001FAFF
:10225000000707D5204600F0C3F82068416901F067
:1022600008014161206802F0F4F9000616D5A8695A
:10227000012620F08001A9610DE000BF06EBC60039
:1022800004EB800090F87F02012803D12046F1B2D0
:10229000FFF7DAFC761C6068B042EFD8206802F0E5
:1022A000D8F9C00221D501264F4616E006EBC6013B
:1022B00005EB461004EB8101D0F8000991F84020AD
:1022C000012A09D1002807DAF0B281F83F7040F006
:1022D00080012046FFF7B8FC761C6068B042E5D864
:1022E0002068416901F480114161206802F0B1F970
:1022F000800234D501204B4629E000000A30544FBB
:1023000000EBC00205EB401104EB8202D1F8001B88
:1023100092F88062012E19D1002917DA94F8FC6432
:1023200001F4803106F00106B1420FD182F87F320C
:10233000A96941F08002AA616969090606D4D5F845
:10234000040840F40070C5F8040803E0401C61680C
:102350008142D5D82068416901F4001141612068AB
:1023600002F077F9400007D52046FFF752FC2068BD
:10237000416901F080414161206802F06AF940073B
:102380000AD520684568680702D52046FFF758FC43
:102390002068416829434160BDE8FC9FD0F80805EA
:1023A00001F0E0BBD0F8080501F0F0BB70B50446C1
:1023B0000069012570B1022801D0FFF704FAD4F8B2
:1023C0000805294601F051FCD4F80805BDE8704025
:1023D00001F005BC0025F2E7D0F8080501F02EBC9D
:1023E000D0F8080501F034BC10B5044690F8BC04E0
:1023F00001280BD0012084F8381084F8BC04206830
:1024000002F04BF9002084F8BC0410BD022010BD7E
:10241000D0F8082500F2C441104601F032BC00009B
:1024200010B50446D0F8080501F064FC2068D0F827
:10243000001E41F00101C0F8001E206A002804D0EF
:102440000248016841F00601016010BD10ED00E096
:1024500070B5144C3F220260124A24680832131DE2
:10246000114D04F00704446016681C1D06F47066E4
:102470008660166806F00F06C660126802F07002E9
:1024800002611A6802F0700242611A6802F4E062A6
:102490008261226802F07002C261286800F00F00B9
:1024A000086070BD104402580020005230B500F0A2
:1024B00031F80B4A0B490C4B15681468C5F303221D
:1024C00004F00F048A5C095D02F01F0201F01F0195
:1024D000D040064A20FA01F119601060084630BD6C
:1024E00018440258C84D00081400002010000020B5
:1024F00000B5FFF7DBFF05490968054AC1F3021182
:10250000515C01F01F01C84000BD00001C4402588E
:10251000C84D0008454970B545480968434B103B14
:1025200011F0380208D00111082A03D0102A0BD06C
:10253000182A0BD0084670BD19688906FBD51968A2
:10254000C1F3C101C84070BD3A4870BD3749374D2D
:1025500018310C1D24350A68096826682D6802F0B8
:10256000030406F00102C1F30511C5F3CC0515FB08
:1025700002F200EE102AB8EE400AE9B32F4ADFED6E
:102580002E0AB7EE001A6CB1DFED2D1A012C01D026
:10259000022C43D002EE101A1068F8EE422A81EEA7
:1025A000A22A1EE01C68A40611D51B6801EE901A31
:1025B0001168C3F3C103F8EE612AD84001EE900A16
:1025C000C1F30800F8EE611A81EEA22A0BE001EED9
:1025D000901ADFED1C2A00BFF8EE611A106882EE37
:1025E000A12AC0F3080001EE900AF8EE611A40EE4D
:1025F000201A31EE810A00E015E022EE000A106890
:10260000C0F34620401C00EE900AF8EE600A80EE0F
:10261000201ABCEEC10A10EE100A70BD01EE901A2D
:10262000DFED092AD8E7002070BD000010440258F1
:102630000090D00340787D010000003930440258FA
:102640000024744A0024744C20BCBE4B7047704771
:10265000704710B5040003D094F83D0010B107E0B6
:10266000012010BD002084F83C00204600F022F834
:10267000022084F83D002068211D01F06DF8012042
:1026800084F8480084F83E0084F83F0084F8400055
:1026900084F8410084F8420084F8430084F8440040
:1026A00084F8450084F8460084F8470084F83D002B
:1026B000002010BD7047000090F83D10012901D0A6
:1026C00001207047174A022180F83D100168CB684D
:1026D00043F00103CB600068904214D0B0F1804F0A
:1026E00011D0114988420ED0104988420BD01049B0
:1026F000884208D00F49884205D00F49884202D04D
:102700000E49884207D181680D4A1140062906D03A
:10271000B1F5803F03D0016841F001010160002064
:102720007047000000000140000400400008004025
:10273000000C00400004014000180040004001402F
:1027400007000100704770B5044600680025016964
:10275000C943890715D4C168C943890711D4EA1E42
:10276000026101212177206880698007204602D01C
:10277000FFF7E8FF04E000F0A7F8204600F0A5F816
:10278000257720680169C943490717D4C168C9433F
:10279000490713D402216FF00402026121772068F7
:1027A000806910F4407F204602D0FFF7CBFF04E0A1
:1027B00000F08AF8204600F088F825772068016943
:1027C000C943090716D4C168C943090712D40421B3
:1027D0006FF00802026121772068C06980072046F7
:1027E00002D0FFF7AFFF04E000F06EF8204600F0E3
:1027F0006CF8257720680169C943C90617D4C168F8
:10280000C943C90613D408216FF010020261217771
:102810002068C06910F4407F204602D0FFF792FF85
:1028200004E000F051F8204600F04FF825772068CA
:102830000169C943C90708D1C168C943C90704D19F
:10284000891E0161204600F041F820680169C943F2
:10285000090609D4C168C943090605D46FF080018F
:1028600001612046FFF7F3FE20680169C943C905ED
:1028700009D4C168C943090605D46FF480710161A8
:102880002046FFF7E3FE20680169C943490609D4E1
:10289000C168C943490605D46FF040010161204673
:1028A00000F01EF820680169C94389060BD4C1688D
:1028B000C943890607D46FF0200101612046BDE8B5
:1028C0007040FFF7C5BE70BD704770470068034990
:1028D000884201D1FFF780B8704700000010004027
:1028E0007047FEE7044908B50A6802430A600968B0
:1028F0000140009108BD0000DC440258044908B5BD
:102900000A6802430A6009680140009108BD00009E
:10291000E0440258044908B50A6802430A6009689D
:102920000140009108BD0000E0440258044908B588
:102930000A6802430A6009680140009108BD00006E
:10294000E8440258044B001D595C0B586FF30F0309
:1029500013430B5070470000D84D0008034B595CDF
:10296000435823F49073134343507047D84D0008E5
:102970004FF0B041D1F88810884301D00020704753
:1029800001207047F0B50A6892FAA2F2B2FA82F416
:102990004CE00125A54013EA050246D04B68012B07
:1029A00001D0022B10D1856802FB02F38E685E43D2
:1029B00003EB43039D43354385604568CE680B6850
:1029C0009D435E4335434560C56802FB02F30E69D3
:1029D00003FB06F703EB4306B5433D43C5604D6873
:1029E000022D1CD1FF2A0BD803FB02F5076A5543C1
:1029F0004A696A43C5EB0515AF43174307620EE00A
:102A0000476A120AD1F814C002FB02F55543554338
:102A100005FB0CF2C5EB0515AF431743476205688C
:102A20004A68B54353431D430560641C0A68134656
:102A3000E240AED10020F0BD02480068C0F30020A3
:102A4000704700000044025800EE100A00EE901A91
:102A500001EE102A9DED002AB8EE403AF8EE600A29
:102A6000B8EE410AB8EE421A01EE903A83EE202AFF
:102A7000F8EE611ADFED062A01EEA20A22EE000A44
:102A8000C0EE010ABCEEE00A10EE100A704700002A
:102A9000000000390649030EC0F3042251FA80F108
:102AA000934009681940D14040EA01407047000056
:102AB0004C4402582DE9F84F364F00250446A846ED
:102AC000386810F0030004D001280BD0022812D17E
:102AD0000DE000F0F9F970B100F0EEF92E4DC008EC
:102AE000C54008E0FFF7A8FF28B12C4D03E000F037
:102AF000DBF900B12A4D00202060264E6060A06006
:102B000008363868311F33680A68C0F30517C3F305
:102B1000080012F0010F00F1010A03D0301D006817
:102B2000C0F3CC08002F33D008688946C0F30040BA
:102B300058B13068434652463946C0F34620401CDF
:102B400000902846FFF780FF2060D9F80000C0F30E
:102B5000404058B13068434652463946C0F30640BB
:102B6000401C00902846FFF76FFF6060D9F8000016
:102B7000C0F3804000280BD03068434652463946A7
:102B8000C0F30660401C00902846FFF75DFFA06080
:102B9000BDE8F88F284402580090D00300093D009A
:102BA00040787D012DE9F84F374F00250446A846AF
:102BB000386810F0030004D001280BD0022812D18D
:102BC0000DE000F081F970B100F076F92F4DC008EA
:102BD000C54008E0FFF730FF28B12D4D03E000F0BD
:102BE00063F900B12B4D00202060274E606026491C
:102BF0001036A0603868091D33680A68C0F30537CD
:102C0000C3F3080000F1010AC2F300121AB1301D2B
:102C10000068C0F3CC08002F33D008688946C0F3A1
:102C2000C04058B13068434652463946C0F346204A
:102C3000401C00902846FFF707FF2060D9F80000ED
:102C4000C0F3005058B13068434652463946C0F38D
:102C50000640401C00902846FFF7F6FE6060D9F859
:102C60000000C0F3405000280BD030684346524665
:102C70003946C0F30660401C00902846FFF7E4FE8A
:102C8000A060BDE8F88F0000284402580090D003EF
:102C900000093D0040787D012DE9F84F384F0025AF
:102CA0000446A846386810F0030004D001280BD071
:102CB000022812D10DE000F007F970B100F0FCF825
:102CC000304DC008C54008E0FFF7B6FE28B12E4DD4
:102CD00003E000F0E9F800B12C4D00202060284E00
:102CE000606027491836A0603868091D33680A6893
:102CF000C0F30557C3F3080000F1010AC2F3002234
:102D00001AB1301D0068C0F3CC08002F35D0002D5B
:102D100033D008688946C0F3805058B130684346C4
:102D200052463946C0F34620401C00902846FFF723
:102D30008BFE2060D9F80000C0F3C05058B1306855
:102D4000434652463946C0F30640401C0090284690
:102D5000FFF77AFE6060D9F80000C0F30060002839
:102D60000BD03068434652463946C0F30660401CDB
:102D700000902846FFF768FEA060BDE8F88F0000CD
:102D8000284402580090D00300093D0040787D019E
:102D90000248006800F47060704700001844025850
:102DA000FEB50024FFF776FE39494FF440724FF428
:102DB0007D43451A88424FF480315FD022DC354E86
:102DC000B042A0EB06050AD010DC334DA0F108009C
:102DD000B0F1E06040D090422DD0884229D100F07F
:102DE00083F830B36846FFF7DDFE09E09D4201D06D
:102DF0008D421ED100F080F8D8B16846FFF74CFF35
:102E0000019C16E0254EA81BB54204D008DC954273
:102E100034D08D420DD1FFF70FFE50B1204C08E0A9
:102E2000984201D0884204D100F056F808B14FF41E
:102E300000442046FEBD00F0D7FA0446FFF7A8FF85
:102E4000C0F30320285C00F01F0024FA00F000F01B
:102E50009DFA00F0B9FA0FE000F0C6FA0446FFF759
:102E600097FFC0F30320285C00F01F0024FA00F055
:102E700000F08CFA00F098FA0446DAE700F024F843
:102E80000028D6D000F018F8064CC008C440D0E79F
:102E90000800030708030107B84D000800030100FC
:102EA00000093D000090D00302480068C0F3404094
:102EB00070470000004402580248006800F0180003
:102EC000704700000044025802480068C0F38000C8
:102ED000704700000044025802480068C0F34000F8
:102EE000704700007044025802480068C0F3C06098
:102EF000704700000044025802480068C0F3407068
:102F0000704700000044025803490A6822F00F028B
:102F100002430A6070470000184402580749030E34
:102F200010B551FA80F1C0F30422C0F307440868D9
:102F30009340944098432043086010BD4C4402588D
:102F40000149086070470000100000202DE9F0479B
:102F5000264B4FF0804A264D02689842254E264F58
:102F6000264C09D0504507D0A84205D0B04203D026
:102F7000B84201D0A04205D1D1F804C022F07002BD
:102F800042EA0C02DFF878C0DFF878809842DFF878
:102F900078900FD050450DD0A8420BD0B04209D048
:102FA000B84207D0A04205D0604503D0404501D0CB
:102FB000484503D1CD6822F440722A4302608A68F2
:102FC000C2620A888262984207D0A04205D060455A
:102FD00003D0404501D0484501D1096901634169E9
:102FE00041F0010141610020BDE8F087000001408F
:102FF0000004004000080040000C004000040140B4
:103000000040014000440140004801402DE9F041EA
:103010000446006801260D4610F0010F54D1D5E991
:1030200004C1EB69A86822681943324F40EA0C00DA
:1030300008433A40104320606168E86821F4405139
:1030400001436160A168A86921F440710143A16056
:1030500029482A49844201D1084615E0284A2948CE
:10306000944211D0284A94420ED0284A94420BD060
:10307000274A944208D0274A9442EDD026498C42F0
:1030800002D026498C4218D1FFF78AFEA8B16968A0
:1030900099B12A680026EB690B2A0ED8B3F5004FC8
:1030A0001F4B14D0D2B253F82220B0FBF2F000EB49
:1030B0005100B0FBF1F080B2E060E16A288821F0B5
:1030C0000F0180B20143E1623046BDE8F081D7B222
:1030D0004FF6F07253F82730B0FBF3F0400000EBEE
:1030E0005100B0FBF1F081B201EA0200C1F34201EC
:1030F0000843E1E7F369FFEF001001400803000710
:10310000004400400800000700480040004C004018
:10311000005000400014014000780040007C004056
:10312000884D000810F1080050E8002F22F060627E
:1031300042EA416240E80023002BF5D170470000CD
:1031400010F1080050E8002F61F35F7240E800239F
:10315000002BF7D170477FB5FEF7E8FC00248DF80F
:103160000F4001258DF80E4012208DF8080003262F
:103170008DF80B608DF800504FF010518DF80D4018
:1031800068468DF80A5001918DF801408DF809408C
:103190008DF80C40FEF79CFC0F208DF808008DF890
:1031A0000F4071078DF80B6068468DF80E408DF862
:1031B00000508DF80D408DF80A4001918DF80150B6
:1031C0008DF809408DF80C40FEF782FC10208DF838
:1031D00008008DF80F4032078DF80B6002218DF842
:1031E0000E4068468DF800508DF80D508DF80A405D
:1031F00001928DF801108DF809408DF80C50FEF702
:1032000067FC0420FEF7A0FC7FBDFEE7FEE70000A0
:103210000148FEF7F5BD0000B80700202DE9F04198
:103220000446C0680D462027236801284FF4004655
:1032300004F2C44203EB4511D3F840C0D1F8080BA7
:1032400009D0DFF89CE0F4453AD1020433D500BF41
:10325000C1F8086B40E0234B5FEA007E04D59C4533
:103260003AD90004F4D437E05FEA806E02D5C1F8A1
:10327000087B31E010F0280F2ED19C4501D90004C5
:10328000E6D4D1F8101B05EBC50004EB8000C1F3B8
:103290001201D0F89C32A3EB0101C0F8901200F5A6
:1032A0001F70ADB903691BB1C2681144C1600FE062
:1032B000206801210AE080060AD5C1F8087B07E0F2
:1032C00035B9D4F88C0218B90021184600F078FFFF
:1032D0002046E9B2FEF7AAFC0020BDE8F08100001C
:1032E0000A31544F0A30544F2DE9F84F0E46056805
:1032F000814601EBC60100EB8104D4E913203C3484
:10330000904202D90120BDE8F88FA168101A8142CD
:1033100000D20846C01C05EB461887081BE000BF1A
:10332000A268A0EB010A524500D2924699F80C100F
:103330000AF1030000911FFA8AF3E1688708284622
:10334000F2B201F02FFAE16801EB0A00E060616976
:1033500001EB0A006061D8F8180980B2B84205D3C1
:10336000D4E90401814201D20028D9D1D4E9040171
:10337000884208D8D5F83418012006F00F02904092
:103380008143C5F834180020BDE7000004490968EE
:10339000044A01F00F01515C01F01F01C840704761
:1033A00018440258B84D000805490968054A01F05B
:1033B00070010909515C01F01F01C840704700000D
:1033C0001C440258B84D000805490968054A01F433
:1033D000E061090A515C01F01F01C840704700001C
:1033E0001C440258B84D00080D480EB50168002075
:1033F00011F038010AD008290ED010290ED0182952
:1034000003D16846FFF756FB00980EBDFFF754FD49
:10341000C1080448C8400EBD03480EBD03480EBD98
:10342000104402580090D00300093D0040787D010F
:1034300038B54FF00050FFF755FA0E4C2068800069
:10344000FCD54FF08040FFF74DFA20684000FCD5D6
:103450004FF00040FFF746FA20680028FCDA0548E4
:10346000001D016841F000510160006800F000504B
:10347000009038BDDC4402580178407841EA0020D1
:10348000704710B54FF0E020006901F087FB01287C
:1034900003D0BDE8104001F00BBB10BD5A4810B579
:1034A000016821F00F0141F004010160016801F0A1
:1034B0000F010429FAD15548016821F0070141F0B4
:1034C0000201016051480C30016841F44041016043
:1034D0000168C1F340310029FAD04D48016841F438
:1034E000803101600168C1F340410029FAD00168D0
:1034F00041F4805101600168C1F340310029FAD0E4
:10350000434A2832116821F0030141F002011160A1
:10351000111D0B6843F480330B600B6843F4802368
:103520000B600B6823F00C0343F008030B600B687F
:1035300023F002030B60116821F47C7141F050010B
:103540001160334930310A686FF3080242F0BF025C
:103550000A600A6822F47E4242F400720A600A6835
:1035600022F4FE0242F480320A600A6822F0FE422F
:1035700042F080720A60016841F080710160016868
:10358000C1F340610029FAD00820FFF7BDFC2048B4
:103590001030016821F0070141F00301016001686A
:1035A00001F038011829FAD1194C1834206820F498
:1035B000706020600820FFF7A7FC201D016821F043
:1035C000700141F040010160016821F4E06141F4C3
:1035D00080610160206820F0700040F040002060B1
:1035E0000B482030016821F0700141F0400101607A
:1035F0000848FFF7A5FC0F20FEF724FA002801D0A9
:1036000072B6FEE710BD0000002000520C480258C0
:103610000044025800389C1C2C48F0B52C4A016824
:1036200041F470010160106800F00F00072804D217
:10363000106820F00F00C01D106026490020254CA6
:1036400010340B68244D43F001030B6020600B68BD
:103650002B400B60136803F00F03072B04D913688A
:1036600023F00F03DB1D13601A4C1C4A18341C4B4B
:10367000261D371D2060174C1A4D28343060261D3A
:103680003860371D23603B1D35601C1D3A60251DC9
:103690002E1D1860331D22602860326018600A6891
:1036A0000C4B114C22F4802260330A6018602068B1
:1036B0006FF30F00B0F1005F03D20C490120C1F895
:1036C000080143F2D2000A490860F0BD88ED00E02D
:1036D00000200052004402587FEDF6EA800201010A
:1036E000000202020000FF010010005C0080005197
:1036F0000040005210B5084C206910F0010F09D0AD
:1037000006480168491C016005A0FCF759FF6FF0ED
:103710000100206110BD00000008004000000020F2
:1037200054494D342055706461746520496E746548
:1037300072727570743A207469636B5F636F756E33
:1037400074203D20256C750A000000000148FEF73A
:10375000FABF0000880000202DE9F047274B4FF00A
:10376000804A274D02689842264E274F274C09D0A1
:10377000504507D0A84205D0B04203D0B84201D08E
:10378000A04205D1D1F804C022F070024CEA020236
:10379000DFF87CC0DFF87C809842DFF87C900FD0A7
:1037A00050450DD0A8420BD0B04209D0B84207D046
:1037B000A04205D0604503D0404501D0484503D123
:1037C000CD6822F440722A434D6922F080022A43D8
:1037D000026098428A68C2620A68826207D0A04288
:1037E00005D0604503D0404501D0484501D1096965
:1037F000016301214161BDE8F08700000000014044
:103800000004004000080040000C0040000401409B
:1038100000400140004401400048014010B5D0F88C
:10382000B82200245268904700B10324204610BDFE
:10383000002070470020704713460A46002110B54B
:1038400000F0C4F9002010BD13460A46002110B54F
:1038500000F05DFA002010BD10B58021044600F094
:1038600040FA2046BDE81040002100F03ABA10B5F9
:103870000521C0F8941200231A46194600F0A6F953
:10388000002010BD10B582610223C0F89432C261DD
:1038900013460A46002100F03AFA002010BD10B588
:1038A0000421C0F8941200231A46194600F02FFA9A
:1038B000002010BDF8B504460D460020ADF800000C
:1038C0004888010A062947D006DC01290FD00229C1
:1038D00012D0032962D11DE0072946D00F295DD1FE
:1038E000D4F8B402C26920E0694690473BE0D4F8BE
:1038F000B412207C0A68F7E7207C02260028D4F85E
:10390000B80205D0C16A684688470146467036E06D
:10391000816AF8E7C0B2062840D2DFE800F0030968
:103920000D111519D4F8B4024268B2B3207CDBE75C
:10393000D4F8B4028268F8E7D4F8B402C268F4E7B5
:10394000D4F8B4020269F0E7D4F8B4024269ECE7B3
:10395000D4F8B4028269E8E7207CF0B9D4F8B80260
:10396000416B68468847014609E0207CA8B9D4F835
:10397000B802016B68468847014607204870EA880C
:103980008AB1BDF8000040B1824200D9024620460B
:10399000ADF80020FFF776FFF8BDFFE72946204687
:1039A000FFF75AFFF8E72046FFF779FFF4E7010039
:1039B0004FF0000004D0012901D0022901D00320DA
:1039C00070470120704710B5D0F8C802FEF74BF9D8
:1039D000BDE81040FFF7EBBF2DE9F0411746044664
:1039E0004FF0000521B194F89C02032842D04CE02E
:1039F000D4F8941204F11400022935D1D0E90263FD
:103A00009E4206D9F21A394682602046FFF71CFF13
:103A10000FE0B34214D14068984211D3D4F8981201
:103A200088420DD2002220461146FFF70DFFC4F850
:103A3000985200231A461946204600F0C7F813E0B2
:103A400094F89C02032808D1D4F8B802C16821B1C7
:103A5000C4F8D452C168204688478021204600F02F
:103A600040F92046FFF703FF94F8A00268B184F8FC
:103A7000A0520AE0D4F8B802426932B1C4F8D45274
:103A8000426920469047002800D10020BDE8F0811F
:103A900070B5134604464FF0000221B194F89C0221
:103AA000032830D03AE0D4F8941204F5AA70032920
:103AB00034D1D0E902518D420AD96A1A826008468F
:103AC000824200D3024619462046FFF7B5FE25E0A4
:103AD00094F8AA0210F01F0003D0012802D0022897
:103AE00000D0002294F89C02032808D1D4F8B80230
:103AF000016921B1C4F8D4220169204688472046D3
:103B0000FFF7CDFE0AE0D4F8B802836933B1C4F8F8
:103B1000D422826920469047002800D1002070BD41
:103B20000020704710B5D0F8B812012280F89C220E
:103B3000002429B103794A68D9B2904700B103241F
:103B4000204610BDD0F8C82201F07F000B0600EB24
:103B5000C00002EB800002D590F83E00704790F85C
:103B60007E02704710B5D0F8D42200EB8202D2F862
:103B7000B82222B190F89C32032B02D004E003203B
:103B800010BD126A02B19047002010BD10B5D0F8E8
:103B9000D42200EB8202D2F8B82222B190F89C32F3
:103BA000032B02D004E0032010BD526A02B19047FB
:103BB000002010BD10B51C46D0F8C802134622469E
:103BC000FEF77FF8BDE81040FFF7F1BE10B5D0F862
:103BD000C802FEF7A6F8BDE81040FFF7E8BE2DE9E1
:103BE000F041044601250020D4F8B812064684F8B6
:103BF0009C52C4F894026060C4F8A40284F8A00245
:103C000031B14A6822B100212046904700B1032615
:103C10002046002240231146FFF7CCFF4027A4F89E
:103C2000645100223B4680212046C4F86071FFF7B2
:103C3000C1FFA58430462762BDE8F08190F89C1250
:103C4000042903D190F89D1280F89C12002070473F
:103C500010B590F89C12032905D1D0F8B81211B113
:103C6000C96901B18847002010BD01740020704768
:103C700010B5D0F8C802FEF7B7FBBDE81040FFF75B
:103C800096BE70B5044600F2AA20054600F048F83A
:103C900094F8AA020123B4F8B01210F01F02C4F87D
:103CA0009432C4F898120AD0012A0ED0022A12D0F7
:103CB00000F080012046BDE8704000F012B82946AF
:103CC0002046BDE8704000F0A9B829462046BDE86E
:103CD000704000F0ECB929462046BDE8704000F085
:103CE00034B910B5D0F8C802FEF735F8BDE8104079
:103CF000FFF75DBE90F89C12042903D090F89C1247
:103D000080F89D12042180F89C120020704710B5A5
:103D1000D0F8C802FEF759F8BDE81040FFF747BEDB
:103D200070B5054608788C1C287048786870204665
:103D3000FFF7A2FBA41C68802046FFF79DFBA8802C
:103D4000A01CFFF799FBE88070BDD0F8B83202469E
:103D50000020002B02D01B68104618477047000057
:103D60002DE9F0412C4E0446887800258846C1B2E2
:103D70000129317006D941462046FFF76DFD032029
:103D8000BDE8F08194F89C02022702280CD0032899
:103D90001DD041462046FFF75FFD31782046FFF7F2
:103DA0003DFD03252846EBE789B320466160FFF718
:103DB000CCFF050004D041462046FFF74DFD1DE035
:103DC0002046FFF76CFD032084F89C02EAE7C1B1AE
:103DD000606888421BD0C1B22046FFF71FFD3178D2
:103DE00020466160FFF7B1FF050010D04146204634
:103DF000FFF732FD21792046FFF710FD84F89C7211
:103E0000D0E7616084F89C722046FFF707FD2046EA
:103E1000FFF745FDC6E700006C0000202DE9F041EA
:103E20000A784FF0000512F060020CD0202A01D071
:103E3000402A7DD1D0F8D42200EB8202D2F8B822F9
:103E40009268904731E04B78002201260A2B6FD20E
:103E5000DFE803F041666E586E08056E2D29FFF706
:103E600029FD67E004468888D8B9C888C8B9488859
:103E7000802816D294F89C2200F07F07032A10D0E5
:103E80003946204684F89E72FFF7F2FE2046FFF77F
:103E900006FD1FB1022084F89C024BE084F89C626E
:103EA00048E0204644E0FFF75BFF054642E0CB8850
:103EB000012B3DD190F89C32012B04D0022B02D073
:103EC000032B35D104E000F108018260012216E0E5
:103ED0000122011D13E090F89C22012A03D0022A3E
:103EE00001D0032A24D1CA88022A21D1D0F8A412F1
:103EF000C66009B10321C160022200F10C01FFF785
:103F0000C1FC17E04A88012A02D0022A03D00FE040
:103F1000C0F8A46216E08988090A80F8A01211E0AE
:103F200090F89C32012B08D0022B06D0032B04D032
:103F3000FFF792FC2846BDE8F08149880129F9D1B4
:103F4000C0F8A422FFF7ABFCF4E72DE9F0410A78B2
:103F50000E460979054612F060004FF00008CCB219
:103F60000BD0202801D040286AD121462846FFF7EF
:103F70005FFCFF2800D0D8B396E07078C8B3012862
:103F800024D003285CD195F89C02022802D0032893
:103F900056D10CE0002C53D0802C51D0214628461D
:103FA000FFF79FFE80212846FFF79BFE7CE070888C
:103FB00040B93CB1802C05D0F08818B9214628467C
:103FC000FFF78FFE2846FFF76AFC6DE095F89C022C
:103FD0000228DFD0032863D1708880BB600603D03D
:103FE00021462846FFF7EFFC2846FFF758FCBCE7C0
:103FF00000E00AE0C5F8D402D5F8B8028268F2B150
:1040000031462846904780464EE095F89C020027AE
:10401000022802D0032843D113E00CB1802C3FD1F9
:10402000200604F07F0000EB800005EB800101D545
:10403000143101E001F5AA7102220F602CE033E097
:104040002EE0200604F00F0000EB800005EB80005E
:1040500009D5808C20B304F07F0000EB800005EBD5
:10406000800614360AE0B0F86401C8B104F07F009D
:1040700000EB800005EB800606F5AA764CB1802C9B
:1040800007D021462846FFF75DFD10B101203060C2
:1040900000E03760022231462846FFF7F3FB03E0D9
:1040A00031462846FFF7D8FB4046BDE8F08170B5A1
:1040B000054608780E464FF0000410F0600003D06B
:1040C000202801D0402827D195F89C02012803D050
:1040D000022801D003281FD1B088C1B201291AD803
:1040E000C1B22846FFF7A6FBFF280CD058B9D5F877
:1040F000B8128A683AB1C5F8D40228468A683146AF
:104100009047044600E00324F088204307D1284666
:10411000FFF7C5FB03E031462846FFF79DFB20462D
:1041200070BD000070B54D7801230A78012D1C4C3C
:1041300002F00F0503FA05F3D0F81C5817D000EB76
:10414000421245EA0343C0F81C38D2F8000B0004C1
:104150000BD40B890979D2F8000BC3F30A03184377
:1041600044EA81410843C2F8000B002070BD9EB2B2
:104170003543C0F81C5800EB4213D3F80009000483
:10418000F3D40D890979D3F80009C5F30A05890428
:10419000284341EA825108432043C3F80009E4E779
:1041A00000800010D0F800196FF30A01C0F8001960
:1041B000D0F8041841F48071C0F80418002070474A
:1041C00010B5144C036CA34203D9D0F8003B002B6C
:1041D0001EDB0023C0F8103B0129D0F8101B41F46E
:1041E0000021C0F8101BD0F8101B41F01801C0F8D6
:1041F000101BD0F8101B41F0C041C0F8101B07D1B4
:10420000C0F8142BD0F8001B41F08021C0F8001B2F
:10421000002010BD0A30544F0B784A78012A00EB79
:1042200043100BD0D0F8002B22F40012C0F8002B62
:104230000979032914D0022912D017E0D0F80029F7
:1042400022F40012C0F800290979032901D00229BB
:104250000CD1D0F8001941F08051C0F8001905E0E8
:10426000D0F8001B41F08051C0F8001B00207047BF
:104270000A784B78D1B2012B00EB421012D0D0F863
:10428000002B002A06DB29B1D0F8001B21F0804169
:10429000C0F8001BD0F8001B41F40011C0F8001B4F
:1042A00000207047D0F80029002A06DB29B1D0F899
:1042B000001921F08041C0F80019D0F8001941F42C
:1042C0000011C0F80019EBE7F8B50B786FF0604605
:1042D0004F788A4DDCB2012F00EB43132BD0D3F87B
:1042E000107B002C07EAC544C3F8104BD3F8104BE1
:1042F00004EA0504C3F8104B7ED00D69002D7CD074
:104300008C6825446D1EB5FBF4F5ADB26C430C62B0
:1043100006EAC545D3F8104B2C43C3F8104BD3F82D
:10432000104B0D6AC5F3120554EA0504C3F8104B8F
:10433000012A6ED0C9E00F6937B3D3F810796FF353
:104340001207C3F81079D3F8107907EA0507C3F804
:1043500010794CB30F698D68D3F810C92F447F1EB4
:10436000B7FBF5F506EAC54545EA0C05C3F8105953
:104370000E69D3F81059C6F312063543C3F8105925
:104380000D79012D1CD027E0D3F810692E40C3F819
:104390001069D3F8105945F40025C3F81059D3F823
:1043A00010596FF3120515E00E698D68AE4200D901
:1043B0000D61D0F8106946F40026C0F81069D7E7FF
:1043C000D3F8105925F0C045C3F81059D3F8105947
:1043D00045F00055C3F81059012A1BD000EB4413D7
:1043E000D3F8004944F00444C3F800490C79012C87
:1043F00031D00A6972B301E042E055E00B78D0F8A1
:104400003418012203F00F039A401143C0F8341806
:1044100071E056E0CA691AB100EB4413C3F81429DD
:10442000097901290ED1D0F80818C90500EB44110B
:10443000D1F8002902D442F0005201E042F080524B
:10444000C1F8002900EB4410D0F8001941F00441F4
:10445000C0F800194FE0D0F80848E405D3F8004947
:1044600002D444F0005401E044F08054C3F8004901
:1044700000920B8A0A78C9689BB200F093F93AE07F
:104480000C690CB18C680C618C680C62C4F3120569
:10449000D0F8104B2C43C0F8104BD0F8104B44F41C
:1044A0000024C0F8104B43E78D68D3F8104BC5F3D8
:1044B00012052C43C3F8104BD3F8104B44F40024DE
:1044C00034E7CA680AB1C3F8142B097901290CD161
:1044D000D0F80808C005D3F8000B02D440F0005013
:1044E00001E040F08050C3F8000BD3F8000B40F01F
:1044F0000440C3F8000B0020F8BD0000FFFF07E0F8
:1045000038B5002242F21074002300920A784D78E8
:10451000012D00EB421219D0D2F8005B002D3CDADD
:10452000D2F8005B45F00065C2F8005B0A7800EB4A
:104530004212D2F8005B45F08045C2F8005B009A59
:10454000521C0092A24221D9012326E0D2F8005940
:10455000002D22DAD2F8005945F00065C2F8005962
:104560000A7800EB4212D2F8005945F08045C2F8B3
:104570000059009A521C0092A242E5D80A7800EB3A
:104580004212D2F80029002AF3DB06E00A7800EB99
:104590004212D2F8002B002AD1DB184638BD0000A9
:1045A00018B50E4A00230093009C641C00949442AA
:1045B0000CD80469002CF7DA2024009344EA811116
:1045C00001610099491C0091914201D9032018BD55
:1045D00001698906F5D4002018BD0000400D0300D4
:1045E000D0F8080810F0060004D0022803D00628EE
:1045F00001D00F20704702207047406900F0010091
:104600007047D0F81818D0F81C08084080B27047DE
:10461000D0F81818D0F81C080840000C704710B5E6
:10462000D0F8102801F00F0300EB4114D0F8341833
:10463000D4F80809D94001F0010142EAC11108404B
:1046400010BD00EB4111D1F8081BD0F81408084048
:10465000704741698069084070470346084630B595
:10466000940802F00301002203F5805303E01D6863
:10467000521C40F8045BA242F9D300290CD01C68FC
:104680000023491EDD00090403F10103090C24FA8B
:1046900005F200F8012BF4D130BDD0F800284FF41A
:1046A000FE6303EA011322F4FE62C0F80028D0F88A
:1046B00000181943C0F8001800207047022A3ED1A4
:1046C000264A274B0A449A4201D20F2138E0254A54
:1046D000254B0A449A4201D20E2131E0234A244B51
:1046E0000A449A4201D20D212AE0224A224B0A446E
:1046F0009A4201D20C2123E0204B214A0B449342E1
:1047000001D20B211CE01F4B1F4A0B44934201D2E4
:104710000A2115E01D4B1E4A0B4493420FD31D4B3B
:104720001D4A0B44934201D2082109E01B4B1C4A4D
:104730001944914201D2072102E0062100E009213B
:10474000C2684FF4705322F47052C26003EA8123AE
:10475000C1681943C160002070470000405327FF23
:1047600000350C00401E1BFF40420F0000DC0BFF19
:10477000804F1200808CF9FE20D6130060B6E5FE53
:1047800060E3160000D3CEFE40771B00C05BB3FE93
:10479000C091210000CA91FE20753800E05459FEF6
:1047A000E09C410010B5029C74B900EB0232DB1CA6
:1047B00000209B0802F5805204E000BF51F8044B32
:1047C0001460401C9842F9D3002010BDFEE7090791
:1047D00000284FEA116104DB00F1E02080F80014AA
:1047E000704700F00F0000F1E02080F8141D7047C2
:1047F00030380A2801D201207047002070476FF43A
:104800000041401804D0012803D0022801D0081428
:104810007047002070476FF40041401800D000201E
:1048200070476FF40041401805D0012802D00228DB
:1048300001D00020704701207047000070B50400CF
:104840004FF0FF3511D020783A280ED10CA1204628
:10485000FCF74CF858B10CA12046FCF747F848B1DA
:104860000BA12046FCF742F838B1284670BD48F24B
:10487000010070BD48F2020070BD48F2030070BD37
:104880003A535444494E00003A5354444F5554004F
:104890003A535444455252006FF4004211140846F2
:1048A000704700002DE9F04714460E466FF40042B1
:1048B0001114801803D0012804D002281ED0084605
:1048C000BDE8F087D4B10E4F4FF00008DFF8349008
:1048D0003D1F00BF296816F8010B08290CD24A1C9D
:1048E0007854082A2A6001D00A2805D1044948468C
:1048F000FCF798FFC5F80080641EEBD10020DFE7CD
:104900007400002000FE0200034600B5C0B2FCF7B0
:10491000A3FE184600BDFCF723FDFEE72DE9F0419C
:10492000044616460027A56B226C002A10D0C6B19B
:10493000E068FBF73DFFE168206C091AE16022683E
:10494000914202D2A168081AE060022E16D017E048
:104950002068A8B9A06800F095F907460020A0607B
:104960000EE06068FBF724FF216C6068084460601B
:10497000A168884204D32068606001E005B16D1E23
:10498000681CA0633846BDE8F08100000749486B09
:104990000068002805D0486BC068C068406888621D
:1049A00070474FF0FF3088627047000024000020FD
:1049B0000169436882689A60836842685A604A68FD
:1049C000824201D182684A60002202610868401E6A
:1049D00008600868704742684A6093688B60936813
:1049E0005960916008610168491C016070470000CE
:1049F00010B5FBF727FD114910280ED300F1E02078
:104A000090F8F0030A78904207D2502080F3118882
:104A1000BFF34F8FBFF36F8FFEE7094800688968C7
:104A200000F4E060884207D9502080F31188BFF37A
:104A30004F8FBFF36F8FFEE710BD000060000020B6
:104A40000CED00E0184B186B002802D00120D86153
:104A500070470020D8611869144900EB800251F8B2
:104A600022203AB9C0B1401E00EB800251F822204A
:104A7000002AF7D000EB800201EB82014A685268FD
:104A80004A6001F1080C624501D152684A604968E8
:104A9000C968196018617047502080F31188BFF30E
:104AA0004F8FBFF36F8FFEE724000020D40000205B
:104AB00010B5502080F31188BFF34F8FBFF36F8F75
:104AC00000F07AF818B104494FF0805008600020D7
:104AD00080F3118810BD000004ED00E02DE9F047DF
:104AE0000446894617461E46002C03D0B9F1000F34
:104AF00008D011E0502080F31188BFF34F8FBFF32F
:104B00006F8FFEE7206C38B1502080F31188BFF31F
:104B10004F8FBFF36F8FFEE7022E0AD1E06B0128A3
:104B200007D0502080F31188BFF34F8FBFF36F8FF2
:104B3000FEE7FFF75DFF5020EFF3118880F3118847
:104B4000BFF34F8FBFF36F8FA06BE16B884206D32B
:104B5000022E04D0002088F31188BDE8F08794F974
:104B60004550A06B324649462046FFF7D7FEB5F1C7
:104B7000FF3F04D0681C84F845000120EBE7606A21
:104B80000028FAD004F1240000F0BCF80028F4D08A
:104B9000002FF2D001203860EFE70000054841699E
:104BA000002903D0006B18B1002070470120704726
:104BB00002207047240000202DE9F04100262F4FED
:104BC000386B002805D0B869401CB8613046BDE894
:104BD000F081F868451CFD609DB9786B006838B1BC
:104BE000502080F31188BFF34F8FBFF36F8FFEE724
:104BF000786BB96B7963B863386A401C3862FFF729
:104C0000C5FEB86ADFF8788085420DD3786B0068FE
:104C100038B1786BC068C4686068854212D2B862E7
:104C200002E04FF0FF30B8623868C06A00EB8000E5
:104C300058F82000012800D90126F8690028C5D0BD
:104C40000126C3E7201DFFF7B3FEA06A18B104F1E7
:104C50001800FFF7ADFEE16A3869814200D9396179
:104C600001EB8100211D08EB8000FFF7B4FEE06A34
:104C70003968C96A8842C9D30126C7E724000020E1
:104C8000D400002070B504460021002833D01B4D0D
:104C90002868844207D0502080F31188BFF34F8FDB
:104CA000BFF36F8FFEE7206D38B1401E2065E36CC7
:104CB000E26A9A421FD040B11DE0502080F3118873
:104CC000BFF34F8FBFF36F8FFEE7201DFFF770FE1E
:104CD000E06CE062C0F13800A061E06A29698842B6
:104CE00000D9286100EB8000054901EB8000211DFF
:104CF000FFF771FE0121084670BD0000240000206E
:104D0000D400002070B5C068C468002C14D004F131
:104D10001800FFF74DFE164D286BA8B1154804F199
:104D20001801FFF758FEE06A2968C96A88421CD951
:104D300001200121E96170BD502080F31188BFF38B
:104D40004F8FBFF36F8FFEE7201DFFF731FEE06A44
:104D50002969884200D9286100EB8000064901EBEF
:104D60008000211DFFF737FEDDE7002070BD000049
:104D7000240000205C050020D40000204FF040708B
:104D8000E1EE100A70470000010000000200000080
:104D90000400000006000000080000000A000000F7
:104DA0000C00000010000000200000004000000087
:104DB0008000000000010000000000000102030468
:104DC00001020304060708090000000001020304B1
:104DD0000102030406070809102840587088A0B88B
:104DE000102840587088A0B800000000000400009F
:104DF00000000000000000000000000001000000B2
:104E00000100010100040000400E0020404E00207F
:104E1000C04E0020000000003A535444494E003A6E
:104E20005354444F5554003A535444455252000091
:104E3000604E0008000000208800000010030008F9
:104E4000E84E00080000003000300000D4020008E6
:104E5000E84E000888000020605A00002C0300087B
:104E60000000000001000000100000000000000031
:104E70000090D0030090D00300000000000000006C
:104E80000000000000000000000000000000000022
:104E90000000000000000000000000000000000012
:104EA0000000000000000000000000000000000002
:104EB00000000000000000000000000000000000F2
:104EC00000000000AAAAAAAA00000000000000003A
:104ED00000000000000000000000000000000000D2
:104EE000000000000000000001FF01FF01FF01FFC2
:104EF00001FF01FF01FF01FF01FF01FF01FF01FFB2
:104F000001FF01FF01FF01FF01FF01FF01FF01FFA1
:104F100001FF01FF01FF01FF01FF01FF01FF01FF91
:104F200001FF01FF01FF01FF01FF01FF01FF01FF81
:104F300001FF01FF01FF01FF01FF01FF01FF01FF71
:0C4F400001FF01FF01FF01FF0161000003
:040000050800029954
:00000001FF
