:020000040800F2
:10000000E8630120B9050008A55600085F4500080F
:1000100023520008952D0008716E000800000000B2
:10002000000000000000000000000000C503000800
:10003000192E000800000000210400087F5B000862
:10004000D3050008D3050008D3050008D305000830
:10005000D3050008D3050008F904000811050008BD
:10006000D3050008D3050008D3050008992D000822
:10007000D3050008D3050008D3050008D305000800
:10008000D3050008D3050008D3050008D3050008F0
:10009000D3050008D3050008D3050008D3050008E0
:1000A000D3050008D3050008D3050008D3050008D0
:1000B000D3050008D3050008D3050008D3050008C0
:1000C000D3050008D3050008D3050008D3050008B0
:1000D000D3050008D3050008D3050008D3050008A0
:1000E000D3050008D305000800000000D305000870
:1000F000D3050008D3050008D3050008D305000880
:10010000D3050008D3050008D3050008D30500086F
:10011000D3050008D3050008F15D0008D3050008E9
:10012000D3050008D3050008D3050008D30500084F
:10013000D3050008D3050008D3050008D30500083F
:1001400000000000000000000000000000000000AF
:10015000D3050008D3050008D3050008D30500081F
:10016000D3050008D3050008D3050008D30500080F
:10017000D305000891580008D305000800000000CE
:10018000D3050008D3050008D3050008D3050008EF
:10019000D3050008D3050008D3050008D3050008DF
:1001A000D3050008D3050008D3050008D3050008CF
:1001B000D3050008D3050008D3050008D3050008BF
:1001C000D3050008D3050008D3050008D3050008AF
:1001D000D3050008D3050008D3050008D30500089F
:1001E000D3050008D3050008D3050008D30500088F
:1001F000D3050008D3050008D3050008D30500087F
:10020000D3050008D3050008D3050008D30500086E
:10021000D3050008D3050008D3050008D30500085E
:10022000D3050008D3050008D3050008000000002E
:10023000D3050008D305000800000000D30500081E
:10024000D3050008D3050008D3050008D30500082E
:10025000D3050008D3050008D3050008D30500081E
:10026000D3050008D3050008D3050008D30500080E
:10027000D3050008D3050008D305000800000000DE
:10028000D3050008D3050008D305000800000000CE
:1002900000000000D305000800F002F800F082F82A
:1002A0000AA090E8000C82448344AAF10107DA45D1
:1002B00001D100F077F8AFF2090EBAE80F0013F0A1
:1002C000010F18BFFB1A43F001031847B88900005B
:1002D000E88900000A444FF0000C10F8013B13F0CD
:1002E000070408BF10F8014B1D1108BF10F8015B8F
:1002F000641E05D010F8016B641E01F8016BF9D182
:1003000013F0080F1EBF10F8014BAD1C0C1B09D1D8
:100310006D1E58BF01F801CBFAD505E014F8016B4A
:1003200001F8016B6D1EF9D59142D6D370470000DC
:10033000103A24BF78C878C1FAD8520724BF30C811
:1003400030C144BF04680C607047000000230024E3
:1003500000250026103A28BF78C1FBD8520728BFD5
:1003600030C148BF0B607047662908F0D28364290A
:1003700000F07681002070471FB508F0C5FB9DE8AE
:10038000030001F09BF800F0A9FD0400002000210B
:1003900008F0A4FBE06000F0B9FE1FBD10B500F04E
:1003A0001EFF10BD00F052FF1146FFF7E5FF06F0FB
:1003B000B2FE01F057F803B4FFF7F0FF03BC01F001
:1003C000EFF900002C4B19680868B0E8F04F80F393
:1003D0000988BFF36F8F4FF0000080F311887047DA
:1003E0000000000008480068006880F308884FF0AB
:1003F000000080F3148862B661B6BFF34F8FBFF37D
:100400006F8F00DF00BF00BF08ED00E0DFF80C00D9
:10041000016841F470010160704700BF88ED00E0A1
:10042000EFF30980BFF36F8F134B1A681EF0100FA4
:1004300008BF20ED108A20E9F04F106009B44FF09A
:10044000500080F31188BFF34F8FBFF36F8F07F019
:100450009DFD4FF0000080F3118809BC1968086801
:10046000B0E8F04F1EF0100F08BFB0EC108A80F318
:100470000988BFF36F8F704784000020EFF3058079
:10048000704700000246D2E84F0F411CC2E8431FEC
:1004900003B1F8E77047024652E8000F411C42E8FA
:1004A000001303B1F8E77047024652E8000F42E834
:1004B000001303B1F9E77047024652E8000F8301C9
:1004C00003D3BFF32F8F0020704700F00040084394
:1004D00042E8000303B1F0E77047024652E8000F1C
:1004E000800103D2BFF32F8F0020704742E8001332
:1004F00003B1F3E701207047012010B504F052F971
:10050000002804D04FF0B0410120C1F8880010BD90
:100510001FB54FF0B042002100910220D2F8883080
:10052000984332D10220C2F888001D481D4C026950
:10053000022090432AD002F033FB1C481A4A111DB6
:1005400003785958D8B2D35889B2D1F5806123F0D5
:10055000010313500ED0154A5069D26903920190DD
:10056000207800238DF804006A46029101A9606892
:1005700007F040FF0098002807D00D494FF0805049
:100580000860BFF34F8FBFF36F8F1FBD217002F064
:10059000F3FA08484FF4806101F0F2FF1FBD00003C
:1005A000001002587800002000000240A08B0008D4
:1005B00004ED00E00000003009488047094800478A
:1005C000FEE7FEE7FEE7FEE7FEE7FEE7FEE7FEE703
:1005D000FEE7FEE704480549054A064B7047000060
:1005E000155D000899020008E8570120E863012022
:1005F000E85B0120E85B01200FB4044910B503AAB1
:10060000029800F037FC10BC5DF814FB24160120A2
:1006100070B5044685690068C10601D5302600E042
:100620002026C00707D070BDD4E90121304690478D
:10063000206A401C20626D1EF6D570BD70B5044660
:1006400085690078C00707D170BDD4E90121202059
:100650009047206A401C20626D1EF6D570BD0000D8
:100660002DE9F0410646002410687529314616A58B
:1006700010D0AFF30080002802DA404213A507E053
:1006800031688A0701D512A502E0490704D511A5F2
:10069000012401E0AFF3008000210A2206F12407C3
:1006A00009E0B0FBF2FCB0FBF2F302FB1C003030BF
:1006B00078541846491C0028F3D123462A46304670
:1006C000BDE8F04100F06DB9000000002D00000011
:1006D0002B000000200000002DE9F0474FF0000A39
:1006E00089460446C0F820A02046E16888470028D3
:1006F00076D0252806D0D4E901219047206A401CF5
:100700002062F1E7E168204600258847C4F81CA074
:1007100006460027C4F818A02A2E09D0304606F055
:1007200067FC38B304EB8708303EC8F8186019E05E
:1007300059F8041B204604EB87029161E168884761
:10074000012F064618D1E069002820DA25F020059F
:100750001DE0D8F8180000EB800006EB40003038B0
:10076000C8F818002046E1688847064606F040FCB5
:100770000028EED1012F0AD02E2E08D12046E168A4
:1007800088477F1C0646022F45F02005C4DBA06980
:10079000002803DA404245F00105A061E80701D0D6
:1007A00025F01005B6B1A6F14100192802D820366F
:1007B00045F400654A463146204625604D46FFF720
:1007C000D3FD58B1012806D0ED1D25F0070000F13A
:1007D000080989E704E005F1040985E730468AE75E
:1007E000206ABDE8F087032A40F2308010F0030C45
:1007F00000F0158011F8013BBCF1020F624498BF74
:1008000011F801CB00F8013B38BF11F8013BA2F110
:10081000040298BF00F801CB38BF00F8013B11F08B
:10082000030300F02580083AC0F0088051F8043B2B
:10083000083A51F804CBA0E80810F5E7121D5CBF98
:1008400051F8043B40F8043BAFF30080D20724BFCB
:1008500011F8013B11F801CB48BF11F8012B24BF5F
:1008600000F8013B00F801CB48BF00F8012B7047AE
:1008700010B5203AC0F00B80B1E81850203AA0E83B
:100880001850B1E81850A0E81850BFF4F5AF5FEA6F
:10089000027C24BFB1E81850A0E8185044BF18C922
:1008A00018C0BDE810405FEA827C24BF51F8043BC9
:1008B00040F8043B08BF7047D20728BF31F8023B1D
:1008C00048BF11F8012B28BF20F8023B48BF00F8B1
:1008D000012B704702F0FF0343EA032242EA02427F
:1008E00000F0DCBA4FF0000200B51346944696467D
:1008F000203922BFA0E80C50A0E80C50B1F1200133
:10090000BFF4F7AF090728BFA0E80C5048BF0CC0E0
:100910005DF804EB890028BF40F8042B08BF70473E
:1009200048BF20F8022B11F0804F18BF00F8012BB0
:10093000704700004FF0013C50F8042B51F8043B85
:100940009A4215D1A2EB0C03934313EACC130BD1BB
:1009500050F8042B51F8043B9A4209D1A2EB0C0346
:10096000934313EACC13E7D04FF00000704700BF69
:10097000D01A01BAB1FA81F101F0180122FA01F09E
:10098000CB40C1F12001DBB2C0B2C01A2CFA01F396
:10099000D11A914311EAC311E6D1704770477047ED
:1009A00070472DE9F0470D4699469246044600F1FE
:1009B00024080168880604D5E06921F0100121604F
:1009C00000E00120A84201DD471B00E00027A169EB
:1009D0007A1902EB0900081AA0612078C00602D437
:1009E0002046FFF715FE002608E0D4E901211AF899
:1009F00006009047206A401C761C20624E45F4DBBE
:100A00002078C0060AD52046FFF702FE06E0D4E9AA
:100A1000012130209047206A401C2062381EA7F137
:100A20000107F4DC07E0D4E9012118F8050090473C
:100A3000206A401C2062281EA5F10105F3DC204637
:100A4000FFF7FCFD2078000602D50220BDE8F08704
:100A50000120FBE770472DE9FF4F0C461E464FF083
:100A6000FF378BB0D2E90001DDF860800A908A463A
:100A7000C1F30A5505B93D46002108464FF0000074
:100A8000BAF1000F00F4400005DA00EB80004FF4EB
:100A9000400101EA50004FEA9059B9F1010F00DD21
:100AA000B9460A9850EA4A000ED044F61050A5F212
:100AB000FF3545432F14B8F1000F1ED07542291E93
:100AC0001EDDC9F100021CE0B8F1010F4FF000007B
:100AD00001D0302103E0F24305E02154401CB04234
:100AE000FBDB30460022002121540B99C1F808801D
:100AF000C1E900200FB0BDE8F08FBD1B6D1CDEE723
:100B00004A4600DA694206A800F08AFA06AB93E882
:100B1000070003AB83E8070050460A9900F0DCFEAB
:100B20008DE80700A0F500501F3800900398002DB5
:100B30000ADD42F21F014A460844002303A903903C
:100B4000684601F045F909E0A0F500504A461F3813
:100B5000002303A90390684601F04FF98DE80700D0
:100B60000004000C03D04FF0FF30410800E01046B5
:100B7000B8F1000F03D00022009215461EE0751E4A
:100B800005D400F0AFF9303262556D1EF9D5B34689
:100B90000122084302D000227F1C04E02078302884
:100BA00001D100227F1E002A099784D01DE0112D5B
:100BB00007DA00F097F9303262556D1C50EA0102F5
:100BC000F5D1084302D00098C8B10EE00021681E9C
:100BD00005E0235C625C63542254401E491C814240
:100BE000F7DBAB46A81B401E0990002004F80B0061
:100BF0000B98099AC0F80880C0E9002B7AE7112603
:100C00004FF0000857E72DE9F04F88460446D21D03
:100C100022F0070191B0D1E90001CDE90A0106F007
:100C200028F902460B98C00F01D02D2007E020685C
:100C3000810701D52B2002E0202101EAC000032A10
:100C4000099001D0072A05DB03464146204600F003
:100C5000A7F90BE12078800601D5E06900E00620C5
:100C6000B8F1650F814606D0B8F1660F18D0B8F11B
:100C7000670F70D131E00020B9F1110F009001DB56
:100C8000112301E009F101030AAA01A90CA8FFF749
:100C9000E2FEDDE90C70002609F10105834647E01C
:100CA00001204B4600904FF000470AAA01A90CA86A
:100CB000FFF7D1FEDDE90DB00C995D46002610B9B5
:100CC00009F101000D18B9EB050003D4C0F1FF369E
:100CD00009F10105A5EB09002BE0B9F1010F01DADB
:100CE0004FF001090020B9F1110F0090484601DDD5
:100CF000112300E003460AAA01A90CA8FFF7ABFEE6
:100D0000DDE90C704D4600268346207800070AD4A2
:100D1000AB4500DA5D4601A8012D04DD411911F84B
:100D2000011C302907D04F4502DA17F1040F04DA0D
:100D3000012082460FE06D1EEEE7002F02DCED1B66
:100D40003E4403E0781CA84200DD7D1CB81B00F186
:100D5000010A4FF000472078000703D4AA4501DBC1
:100D60004FF0FF3A0021B7F1004F0DF143088DF825
:100D7000431024D002202B23002F01DA7F422D23A1
:100D80000A21021EA0F1010000DC5FB197FBF1FC1B
:100D900097FBF1F201FB1C7C17460CF1300C08F8B4
:100DA00001CDEEE7A8F1010003702188090501D506
:100DB000452100E06521A0F1010800F8011C099817
:100DC0000FA9A1EB0807FF1D00B10120411901EB9C
:100DD000EA70A1693844081A401EA0612078C00654
:100DE00002D42046FFF714FC099828B1D4E9012168
:100DF0009047206A401C20622078C00622D52046F9
:100E0000FFF706FC1EE0002E04DBB34502DD01A85F
:100E1000805D00E03020D4E901219047206A401C29
:100E20002062761CAAF101005FEA000A0AD100F0F4
:100E300055F8C0680168405CD4E901219047206AF8
:100E4000401C2062281EA5F10105DCDC07E0D4E986
:100E5000012118F8010B9047206A401C2062381EBF
:100E6000A7F10107F3DC2046FFF7E8FB032011B0F0
:100E700041E60000074B70B50D467B4400F07DF85D
:100E80000446284600F03EF910B14FF0FF3070BD27
:100E9000204670BD8B6200004FF000020429C0F0B4
:100EA000128010F0030C3FF41FADCCF1040CBCF128
:100EB000020F18BF00F8012BA8BF20F8022BA1EBEE
:100EC0000C01FFF711BD5FEAC17C24BF00F8012BC4
:100ED00000F8012B48BF00F8012B7047004870470D
:100EE000EC16012030B5B0F10A024FEA900E71F114
:100EF00000034EEA817EB0EB0E0061EB91014FEAF8
:100F0000101E4EEA017E10EB0E0041EB11114FEA6C
:100F1000102E4EEA016E10EB0E0041EB11214FEA4C
:100F2000104E4EEA014E10EB0E0041EB11414018FD
:100F300041F100014FEAD00040EA41704FEAD1018F
:100F400010EB80054FEA810444EA907444EB0104FD
:100F50006D1944EB0404521BA3414FF0000348BF3A
:100F60000A3200D530BD401C41F1000130BD000007
:100F700001694A1C02610878704700B58FB0CDE95D
:100F800001310021059105497944CDE9031011464D
:100F90006846FFF7A1FB0FB000BD0000E5FFFFFFB3
:100FA0002DE9F0411F46044603260168072A01F493
:100FB000006004DB08B116A505E016A503E008B142
:100FC00015A500E015A521F010002060A069C01E45
:100FD000A0610FB1401EA0612046FFF719FB4FB181
:100FE000D4E9012138469047206A401C2062C01C89
:100FF000206206E0206AFAE7D4E9012115F8010B26
:101000009047761EF8D22046FFF718FBBDE8F08126
:101010004E414E006E616E00494E4600696E66009C
:101020002DE9F047814616468AB0354878440DC808
:101030008DE80D0032487844801C03AC0DC884E86C
:101040000D0041F69B300844372190FBF1F290FBF4
:10105000F1F5A5F1800501FB12041B3C02D56442A9
:10106000012000E00020DFF898A080460027FA4425
:10107000AAF1BE0A0EE0E0070AD03246684607EB46
:10108000470101230AEB810100F0B7FE8DE807005C
:1010900064107F1C002CEED1194F7F44AE3F19E045
:1010A000E80715D007EB04100DF1180A90E80E00C0
:1010B0008AE80E00C068F04201D1981908903246C3
:1010C000012306A903A800F098FE03AB83E80700FC
:1010D0006D10641C002DE3D14FF0010332466946C8
:1010E000B8F1000F03A802D000F072FE01E000F09A
:1010F00084FEC9E90001C9F808200AB0BDE8F087FC
:101100003C7C0000007B00F08000704710B5424836
:101110005421FFF7E7FB41485421FFF7E3FB404828
:101120005421FFF7DFFB3F493B483C4A3F4B0860F7
:101130003D490A603A491960531C0365481C106513
:10114000012008653B48344A39A1784400F0EEF8A4
:1011500020B9384878440A3800F08DF937482F4ACA
:1011600035A1784400F0E2F820B9344878440A38D0
:1011700000F081F932482A4A2FA1784400F0D6F8CD
:1011800020B92F4878440A3800F075F940232248E6
:10119000DC000021224600F0A5F820B12548784463
:1011A000543800F068F91D4822464023002100F021
:1011B00099F820B121487844543800F05CF9184877
:1011C00022461023002100F08DF8002806D01C488C
:1011D0007844BDE81040563800F04DB910BD1048B5
:1011E00070B5006D20F001040B4800F015F90B48B4
:1011F00000F012F90A4800F00FF909E0206D20F024
:101200000105204600F008F9204600F044F82C467D
:10121000002CF3D170BD0000D01501202416012050
:101220007816012014010020180100201C01002064
:10123000720000008A7A000077000000797A0000CE
:10124000697A000000487047CC1601207546FFF708
:10125000F9FFAE4605006946534620F00700854673
:1012600018B020B5FFF7B6F9BDE820404FF00006F2
:101270004FF000074FF000084FF0000B21F007017E
:10128000AC46ACE8C009ACE8C009ACE8C009ACE8C1
:10129000C0098D46704770B50446051F00F0F2F88E
:1012A0000068002C14BF446870BD002C18BFAC420D
:1012B0003CBF20466468F8D301680A18AA4218BFE8
:1012C000456003D12A680546114401602868411928
:1012D000A1421CBF6C6070BD6168696021680844F0
:1012E000286070BD70B5C468A50713D0650211D41D
:1012F000B2F5807F09D0B2F5007F06D0B2F5806FDD
:1013000008D1012300F1240106E05D1E6FF07F4645
:10131000B54201D3012070BD0161C361416024F475
:1013200070611143C160002070BD00002DE9F041E3
:101330000C4607461646104600F06EF82078611CF1
:1013400061280AD0722802D077283CD102E001251A
:10135000002405E00225042402E0082448F20205E6
:1013600011F8010B2B2806D0622809D011F8010CC6
:1013700074280AD00BE045F0030544F00204EFE7BF
:1013800045F0040544F00104EAE744F0100438464F
:10139000214605F053FE411C15D0002131617160DA
:1013A0004FF40071F560F1617061200704D530469B
:1013B0000222002100F0E0F8306D40F001003065BD
:1013C0003046BDE8F0810020FBE72DE9F0410D46F5
:1013D0000646104C206DC10704D0410804D020F00F
:1013E0000104F7E722460EE0542000F096F80700CB
:1013F0000ED0206D47F00101084354212065384686
:10140000FFF770FA3A4629463046BDE8F0418DE7CD
:101410000020D6E7D01501202DE9F04704464FF013
:1014200000094FF0FF37C568D4E90486A80707D044
:10143000204600F051F9304605F0E1FD002802DABF
:101440003846BDE8F087280502D54046FFF723FF60
:101450004C212046FFF746FA206D20F00100206560
:101460004846EEE710B50446AFF300802046BDE8DD
:101470001040FEF7A0BF10B500F078F9BDE81040AD
:1014800000F06EB900487047D416012070477047CD
:101490007047704738B504460A4600206946AFF3E6
:1014A0000080002808BF38BD02460099204600F0A1
:1014B00084F9012038BD012000F0D3B9F8B5AFF3AD
:1014C0000080054600200C46102000BF0646A819E3
:1014D000A0420DD9324669460020AFF300800700D4
:1014E00008BF00F0BEF90098A04218BF0546C41915
:1014F000FFF7C8FF05600746F01D20F007004619FA
:10150000284600F053F9B44208BFF8BDA21B31468B
:101510003868BDE8F84000F050B970B50646FFF7EE
:10152000B1FF056806F10B0020F00704B4429CBF30
:10153000002070BD2B466A68BAB11068A04210D373
:1015400004F1080188423CBF5068586007D35168D5
:10155000101941601168091B016058601460101D6A
:1015600070BD13465268002AE7D121462846FFF78E
:1015700091FF0028DED170BD2DE9F04104461646EA
:101580000D464769007B80072ED0384605F049FD9F
:1015900050BB3EB3012E02D0022E25D104E02046DE
:1015A00000F025F905441DE0384605F034FDE168FA
:1015B000002841F01001E16005DA204600F058F8FB
:1015C0000120BDE8F081C9030BD56268E16A914250
:1015D00000D81146A26911442269891A814200DDAE
:1015E00008460544002D01DA0220EAE7E16A606856
:1015F000E268814206D29103E06203D522F4003111
:1016000041F01002A6690027AE4213DCE16A814274
:1016100001D90B4600E0034603EB060C2369ACEB53
:10162000030CAC4506DD814201D98C4600E08446BE
:101630009C4505D1A760276042F02000A5620DE01F
:10164000AD1BE669AE1B8142A66000D90846C01AF0
:10165000281A20605819606022F0200003490840D1
:10166000E060002084F84870ABE70000BFCFD7FFF0
:10167000C16821F4001141F08001C1600021816046
:10168000016070472DE9F047814614460E464FF041
:10169000FF383248D5685769054209D03846A169F4
:1016A00005F0FAFC002811DB2C48C0430540E5603A
:1016B0002B4632464946384605F0F4FCA16920F035
:1016C0000042B21A11440028A16103D02046FFF75E
:1016D000CFFF4046BDE8F08770B504460569C06A93
:1016E0006168884200D80846E16821F42011E16071
:1016F000C90312D5A84208D02246411B2846FFF74D
:10170000C1FF10B14FF0FF3070BD0020E562C4E9A9
:101710000150E06820F48030E060002070BD10B51A
:101720000446C06820F02000E060A16AA0698842F9
:101730000DD02046FFF7D0FFE06820F4405040F085
:101740001000E060A06AA0612069E062606044F27D
:101750004001E0688843E06010BD00001000020016
:10176000002801D000F01CB87047000010B50146F9
:1017700002A000F05DF8012010BD0000534947525F
:10178000545245443A2052656469726563743A2044
:1017900063616E2774206F70656E3A200000000050
:1017A00001491820ABBEFEE72600020000210160BF
:1017B000C0E90110704710207047034640688C460E
:1017C000002818BF88423CBF03464068F8D3186819
:1017D0001844884207D00CF1030020F00700001DD8
:1017E000411A521A0146081D0A60FFF754BD10B590
:1017F0000146C268900703D0900607D5886A0AE0C0
:1018000000F03EF801210160881E10BD8B69486818
:1018100018440B69C01A91F848301BB191F849106F
:10182000401A10BD1103FCD50028FADD401E10BD82
:1018300070B505460C460A2000E06D1C00F018F853
:1018400035B128780028F8D102E0641C00F010F8C7
:1018500014B120780028F8D1BDE870400A2000F0CB
:1018600007B810B500F010F8BDE81040FFF778BFDA
:1018700008B569468DF800000320ABBE08BD70476F
:1018800000487047CC16012010B5012805D0002172
:1018900003A0FFF7CDFF012010BD09A1F8E700006C
:1018A00053494752544D454D3A204F7574206F6649
:1018B0002068656170206D656D6F727900000000B1
:1018C0003A2048656170206D656D6F727920636F95
:1018D00072727570746564005FEA400C08BF91F025
:1018E000000F4FEA8C234FEAC12243EA51514FEADD
:1018F0001C5018BF00F5F0404FEA300018BF41F00F
:1019000000415FEA6C5C00F02980BCF1FF3F08BF3A
:1019100040F080407047130C06BF12044FF0100CCB
:101920004FF0000C130E04BF12020CF1080C130F41
:1019300004BF12010CF1040C930F04BF92000CF1D0
:10194000020CD30F04BF52000CF1010C11464FF0F2
:101950000002A0F11F00A0EB0C00704711F0004F37
:1019600008BF704731F000413FF4D5AF0B0C06BF04
:1019700009044FF0100C4FF0000C0B0E04BF0902CD
:101980000CF1080C0B0F04BF09010CF1040C8B0FB8
:1019900004BF89000CF1020CCB0F04BF49000CF10D
:1019A000010CCCF12003A0EB0C0022FA03F302FAA5
:1019B0000CF241EA030100F10100704720F07F4C76
:1019C00080EA030023F07F47ACEB070303F57C5369
:1019D00000F0004003F1FF032DE980494FEA154B69
:1019E00009B44FEA144325EA0B4E24EA03480FF2E8
:1019F000042606EB132749083E785FEA320203FB10
:101A00000667C7F5000707FB06F64FEA54374FEAAB
:101A1000D64606F1020607FB066CCCF1005C4FEAE5
:101A20001C472CEA074C07FB06F40CFB06F504EBFD
:101A300015464FEA961634BF00204FF000404FEA9B
:101A4000D13706FB07FC4FEA1C4C0CFB0BF7D21BF3
:101A500003FB0CF761EB07010CFB0EF7B0EB074043
:101A600072EB17420CFB08F734BFA2EB0742B2EB54
:101A7000074261EB17414FEA0C444FEA910706FB1E
:101A800007FC4FEA1C4C0CFB0BF7B0EBC74072EBAA
:101A9000573203FB0CF734BFA2EBC742B2EBC7428D
:101AA00061EB57310CFB0EF7B0EBC70072EB5772CE
:101AB0000CFB08F734BFA2EBC702B2EBC70261EB25
:101AC0005771039F4FEA816141EA921104EBCC0404
:101AD0004FEAD1374FEA826206FB07FC42EA9012D6
:101AE0004FEA80604FEA1C4C0CFB0BF7D21B03FB48
:101AF0000CF761EB07010CFB0EF7B0EB074072EB44
:101B000017420CFB08F734BFA2EB0742B2EB0742C7
:101B100061EB17414FEA8C554FEA910704EB9C2487
:101B200006FB07FC4FEA1C4C0CFB0BF7B0EBC74065
:101B300072EB573203FB0CF734BFA2EBC742B2EB98
:101B4000C74261EB57310CFB0EF7B0EBC70072EBED
:101B500057720CFB08F734BFA2EBC702B2EBC70207
:101B600061EB577115EB4C254FEA816141EA921107
:101B70004FEA82624FEAD13742EA901206FB07FC35
:101B800044F100044FEA80604FEA1C4C0CFB0BF759
:101B9000D21B03FB0CF761EB07010CFB0EF7B0EB5C
:101BA000074072EB17420CFB08F734BFA2EB074269
:101BB000B2EB074261EB174115EB1C154FEA81317F
:101BC00041EA92414FEA823242EA90424FEA803043
:101BD0004FEA0C7644F1000448EA03434EEA0B480E
:101BE0004FF0000EB2EB080C71EB030724BF624606
:101BF00039464EEB0E0E4FF0000B00185241494192
:101C00004BEB0B0BB2EB080C71EB03077BF1000BFA
:101C100024BF624639464EEB0E0E4FF0000B001803
:101C2000524149414BEB0B0BB2EB080C71EB030734
:101C30007BF1000B24BF624639464EEB0E0E51EA93
:101C4000020718BF46F0010616EB0E7655F10002AA
:101C500054F1000103D5BDE88901BDE80088BDE865
:101C60008901BDE80048B619524141EB0101A3F1D9
:101C70000103704780807F7E7D7C7B7A79787776E0
:101C800076757473727171706F6E6E6D6C6C6B6A59
:101C90006A696868676666656464636362616160F7
:101CA000605F5F5E5E5D5D5C5C5B5B5A5A59595874
:101CB00058575756565555555454535352525251DE
:101CC000515050504F4F4F4E4E4D4D4D4C4C4C4B34
:101CD0004B4B4A4A4A49494948484847474747467B
:101CE00046464545454444444443434343424242B7
:101CF00042414141002B9C4630D477002BD01CB58B
:101D00004FEA370703B44FF010004FF01001BAF15B
:101D1000000F06D0BCF1000FDCBF40F0080040F01F
:101D200008014FF000000FBCBDE810400BF1010BA3
:101D3000BBF1010F08BF5FEA170722BF12F10102D2
:101D400011F101014FF0004143F1000300F00040A8
:101D500043EA00007047F9D35708D0E746EA064641
:101D600013F1400F4FEA16461FDD13F1200FDFBFBE
:101D700016430A46002120335B42BED0C3F1200740
:101D800046EA064602FA07F74FEA164646EA07060B
:101D9000C3F1200722FA03F201FA07F721FA03F14F
:101DA0004FF0000342EA0702A7E746EA020646EAC6
:101DB00006464FEA164646EA0106BCBF46EA064614
:101DC000360C4FF000034FF000024FF0000194E793
:101DD0002DE9804C9A46934670B491E8380007C8C4
:101DE00031EA400C48BF34EA430C03D5FFF7E6FD67
:101DF000FFF780FFF0BCBDE8008C2DE9804C9A46CF
:101E0000934670B491E8380007C810F0804F08BFBF
:101E100013F0804F03D100F005F8FFF76BFFF0BC23
:101E2000BDE8008C20F07F4780EA030023F07F4C60
:101E300007EB0C03A3F57C5300F00040A3F1FE0375
:101E400092F0000F00F0B38095F0000F00F0778063
:101E50002DE901494FEA11404FEA144621EA0048B2
:101E600000FB06FC24EA064708FB06F607FB08F819
:101E700000FB07F718EB06484CEB164C4FEA124BE9
:101E800018EB07484FEA15464CEB174022EA0B4E79
:101E90000BFB06FC25EA06470EFB06F607FB0EFECB
:101EA0000BFB07F71EEB064E4CEB164C4FF00006F3
:101EB0001EEB074E4CEB174B18EB0B0840F10000E4
:101EC00018EB0E0B58EB000840F100008F1A4FF092
:101ED00000013CBFC943661B14BFB5EB040C0021D5
:101EE0003CBFC943F61B4FEA17444EEA8E0E27EA61
:101EF00004454FEA1C4704FB07622CEA074C05FB2C
:101F000007F70CFB05F604FB0CFC16EB074642EB4F
:101F1000174216EB0C4642EB1C421BEB060658EB35
:101F20000202414146EA9E0601D5BDE80189B61983
:101F3000524141EB0101A3F10103BDE801894FEAE0
:101F400014454FEA114724EA054621EA074C05FBF0
:101F500007F406FB07F70CFB06F105FB0CFC11EB85
:101F6000074144EB17444FEA124711EB0C4144EB95
:101F70001C4422EA074C05FB07F206FB07F70CFBA3
:101F800006F605FB0CFC16EB074642EB174216EB78
:101F90000C4642EB1C456A1854F1000148BF7047DB
:101FA000B619524141EB0101A3F10103704795F0CD
:101FB000000F37D04FEA11424FEA144721EA024698
:101FC00024EA074C02FB07F106FB07F70CFB06F4BB
:101FD00002FB0CFC14EB074441EB17414FEA154799
:101FE00014EB0C4441EB1C4125EA074C02FB07F5BE
:101FF00006FB07F70CFB06F602FB0CFC16EB07468C
:1020000045EB174516EB0C4645EB1C42121951F1F6
:10201000000148BF7047B619524141EB0101A3F1DD
:10202000010370474FEA14454FEA114724EA054679
:1020300021EA074C05FB07F106FB07F70CFB06F24C
:102040004FF0000605FB0CFC12EB074241EB174179
:1020500012EB0C4251EB1C4148BF7047921841EB08
:102060000101A3F1010370479FED1D2B94B044F6CD
:1020700020649FED170B8DED002B8DED020B9FED76
:102080001A3B9FED1B4B8DED040B06AAB7EE005BD0
:1020900082EC063B00200221B2EE0E6B8DF8301070
:1020A0008DF831008DF832009FED0B1B8DF8330059
:1020B0000D908DED0E6B8DED101B8DED121B002024
:1020C000694603F01FFD204605F054FEF7E70000C7
:1020D000000000000088B340000000000000000085
:1020E000000000000040AFC0000000000088B3C046
:1020F0000000000000409F4001210F2010B500F0BB
:10210000BDFF01F043F805F00DF800F04BF8BDE815
:10211000104005F01BB8000003F070FA68B1012808
:1021200004D0022804D0032807D103E005A002E070
:1021300007A000E008A0FEF75FFA322005F01AFEC3
:10214000EAE700004B315F446F776D0D0A00000035
:102150004B315F55700D0A004B315F4C6F6E670D50
:102160000A000000084D4FF400544FF4FA766969F4
:1021700024EA010001F4005140EA0140A861304620
:1021800005F0F8FDF3E700000008025808B506F076
:10219000E9FA009003F0D6F90A21684605F012FE2C
:1021A000F8E700002DE9FC41012005F0BDFF244DBA
:1021B0000126002329468022A861CDE90061264836
:1021C00020A106F05BFA281D02240023E701CDE9D7
:1021D0000040274821A13A4606F050FA05F10800D0
:1021E0003A46002323A1CDE90040264806F046FAEE
:1021F00005F10C013A4603200023CDE900012848EF
:1022000021A106F03BFA05F1100000232202CDE9DE
:1022100000602A4823A106F031FA05F114003A467D
:10222000002327A1CDE900402C4806F027FAA86931
:1022300002B000231A461946BDE8F04106F022B864
:102240005C0000204170705F4C4544546F67676CC0
:10225000655F5461736B0000652100084170705F19
:1022600052756E31306D735F5461736B0000000006
:102270008D2100084170705F4B657954657374540B
:1022800061736B00192100084170705F57617665BA
:10229000436F6C6C656374696F6E5461736B00009F
:1022A000792300084170705F566F66614461746104
:1022B00055706C6F61645461736B0000E12200081B
:1022C0004170705F496E63656E74697665536574BD
:1022D00074696E67735461736B00000069200008B5
:1022E00086B0DFF874804FF0FF3903A94A46D8F86A
:1022F000000006F0DFF80128F7D1DDE903656F087B
:10230000002415E006EBC400029590ED010AB7EE3B
:10231000C00A8DED000B90ED000A10A0B7EEC00AC8
:1023200053EC102BFEF768F90A2005F023FD641C1E
:10233000BC42E7D3E807D8D006EB850010ED010AD0
:102340000BA0B7EEC00A53EC102BFEF755F90A208C
:1023500005F010FDC9E700008000002025342E3371
:10236000662C25342E33662C25640D0A00000000EF
:1023700025342E33660D0A0000220C21042086B07D
:1023800005F0DEFE274C002208216060022005F0E7
:10239000D7FEA0606168C9B1C0B100F093FA02F045
:1023A00041FF9FED210B02F0B5FF4FF0FF35606854
:1023B00002A92A4606F07EF80128F8D19DF8080007
:1023C000002809D01A4B09D11A4908E04FF47A7451
:1023D000204605F0CFFCFBE7174BF4E717494FF019
:1023E00000000BE033F9102001EB800600F1010042
:1023F00000EE102AB8EEC00A86ED000A039A824267
:10240000F0D8CDE900120023A0681A46694605F00D
:1024100039FF9DF810000028C9D06068002105F040
:10242000E9FEC4E7780000200000000000005940E9
:1024300000080030001000300000003000200030A4
:10244000494838B5016841F0010101600068474D15
:1024500000F001000090D5F8000820F0FF0040F0E7
:102460000100C5F80008424C2078C1B2285820F07D
:10247000C00068502078C1B2285840F440306850FD
:1024800000222846114602F0B3F82078C1B228583D
:1024900020F4007068502078C1B2285840F4806061
:1024A00068502078C1B2285820F4C05040F4006031
:1024B00068502178C8B2695821F4C04141F40051F4
:1024C00029502A4822781430D1B2125842F004021E
:1024D0000A502178CAB2095841F0030111502078FE
:1024E000C1B2285820F0C07068502078C1B2285876
:1024F00020F4C00068501F48D0F8001121F01F01DF
:1025000041F00601C0F80011D0F8001121F4C021FB
:1025100041F48021C0F80011D0F8001121F47801B5
:1025200041F40021C0F80011D0F8001141F48031CD
:10253000C0F8001110480068C0F30220C0F1070283
:10254000042A00D90422011D072901D2002000E03D
:10255000C01E01219140491E084A01F00501814039
:10256000080182F8000438BDD84402580000024037
:10257000988B0008000802400CED00E00BE000E042
:102580002DE9F041234D0646214C0F462878C1B273
:10259000205820F0010060502878205810F0010FDA
:1025A000FAD10820A0602020A0600420A0600120B3
:1025B000A0601020A06000222046114602F018F80A
:1025C00013494FF0C0402A7808315050081D29782F
:1025D0000E5000213A46204601F0FEFF2878205890
:1025E000297840F01000605028782058297840F071
:1025F000040060504FF0E0214FF40060C1F800018A
:1026000028782058297840F001006050BDE8F0811A
:1026100000000240988B0008064907480B6800221A
:1026200043F080730B604260016841F0010101607A
:1026300070470000FCED00E0001000E0074B4FF495
:102640007A7205491B68B3FBF2F24B684243486853
:10265000C01A9042FBD37047001000E01400002025
:10266000084B064A06491B68B3FBF2F24B6842432B
:102670004868C01A9042FBD37047000040420F00E8
:10268000001000E01400002070B588B01C216846DE
:10269000FEF728F917480021154E1025164C022286
:1026A00006230660C0E90141C160D402C0E90415F7
:1026B00055038161C161C0E90814C0E90A150163CD
:1026C000052441638163C1630164CDE90032029353
:1026D000CDE90342CDE9052100F010F86A4605482E
:1026E000114601F0B9FD002800D0012008B070BDEE
:1026F000004000526C01002004410052F0B587B048
:1027000014216846FEF7EEF827480168002948D1F1
:10271000012101602548016841F004010160016860
:1027200001F004010591016841F0080101600168B0
:1027300001F008010591016841F010010160006895
:1027400000F01000059019489438016821F0030149
:10275000016016480C38016841F48051016000683E
:1027600002240025694600F48050059003264FF6A8
:1027700080700C278DE8F1000D4800F01DFE4CF232
:10278000337069468DE8F1000A4800F015FE092112
:102790008020CDE903618DE831000748694600F0EB
:1027A0000BFE07B0F0BD000028000020E0440258F6
:1027B00000100258000C02580008025800F1C040F6
:1027C000018070477FB5002410200094019402948A
:1027D000039401F0D1FE174D00220121284602F09A
:1027E0004EF800222846012102F040F804204FF460
:1027F000702102F0D1FA01208DF80C00CDE900041F
:102800008DF80D000221684602948DF80E1001F03B
:10281000F9FE012001F0C6FF20B14FF0B0410120C8
:10282000C1F888000621084604F059FB062004F090
:1028300038FB7FBD0010025800487047688B0008C5
:1028400070B586B018216846FEF74CF8012001F0FB
:1028500093FE00200B4D01210B4E022204910446F1
:10286000CDE9010204EB4400694605EB80004068B5
:102870000090304601F0A0FF641C14F0FF04F1D07A
:1028800006B070BD688B00080000025800B587B024
:1028900018216846FEF726F8042001F06DFE08486E
:1028A0004FF400528261002101230092CDE90131F1
:1028B00003910491694601F07FFF07B000BD00005D
:1028C0000008025830B585B000241020009401940F
:1028D0000294039401F050FE1C48016841F002018B
:1028E0000160006802221A4D114600F002000490B7
:1028F000284601F0C4FF00222846022101F0B6FF5D
:1029000004204FF4700102F047FA01208DF80C000A
:1029100002218DF80D0003226846CDE900140294CF
:102920008DF80E2001F06EFE022001F03BFF20B179
:102930004FF0B0410220C1F888000521072004F0C3
:10294000CEFA072004F0ADFA05B030BDF4440258C9
:1029500000100258802010B501F00EFEBDE81040B6
:10296000012001F009BE0000024B0ECB80E80E00F2
:10297000704700001C000020F8B502F0F8FB3F494A
:1029800000200A68920311D4BFF34F8FBFF36F8FFB
:102990003B4A1060BFF34F8FBFF36F8F0A6842F45A
:1029A00000320A60BFF34F8FBFF36F8F0A68D20304
:1029B00023D4324A70321060BFF34F8F101F43F69A
:1029C000FF7400682E4B1033C0F34E32C0F3C905BC
:1029D00004EA4216284600BF46EA80771F60401E80
:1029E000FAD2521EF4D2BFF34F8F086840F4803001
:1029F0000860BFF34F8FBFF36F8F00F0FBFD03F054
:102A000057F82048016841F00201016000684FF664
:102A1000FF031D4A00F002000090184808380168C2
:102A2000194041F44071114301600068C0F3022075
:102A3000C0F10702042A00D90422011D072901D28E
:102A4000002000E0C01E01219140104A491E814033
:102A5000080182F8140D03F09FF8FFF7DDFDFFF782
:102A600079FFFFF713FF00F0ABF800F01FF9BDE8A6
:102A7000F8404FF47A70FFF7E1BD000014ED00E07C
:102A800050EF00E0F44402580000FA050FE000E0C7
:102A9000F0B593B014210EA8FDF724FF202168465D
:102AA000FDF720FF182108A8FDF71CFF022001F008
:102AB00087FD4CF25030214E0024ADF838400EA96D
:102AC000CDE90F403046119402F082F9306840F0B1
:102AD000800030601A49B0680840B0601949082089
:102AE000164B01F10907183309783A78CD1829688F
:102AF0009040014329600F216A4660200494CDE98B
:102B00000004CDE902410121304602F0C1F92868F4
:102B100004213A78914088432860012001F038FD73
:102B2000022040210891CDE90904CDE90C40064876
:102B300008A90B9401F040FE13B0F0BD0004004062
:102B4000F8BFFEFF748B000800000258084B10B558
:102B50009C68844204D35B688B4201D38A4201D9CA
:102B6000012010BD034B9862D9625A63002010BD4A
:102B70001C000020000400400848416941F00101A8
:102B800041616FF001010161016A41F001010162DF
:102B9000016841F00101016070470000000400403D
:102BA0000648016A21F001010162016821F001017A
:102BB00001606FF0010101617047000000040040F6
:102BC00010B590B020216846FDF78CFE182108A8AA
:102BD000FDF788FE284802F0CDF82848016841F04A
:102BE00010010160006800F010000E90012001F05B
:102BF000DBFC0DF1200C0024022103224FF4C06005
:102C00008CE8170007231E4808A9CDE90C4301F002
:102C1000D3FD1C480C21029403940794CDE9004095
:102C2000CDE9044106946946174C204602F0FAF9B2
:102C30000021204602F090FA0021204602F07EFAA0
:102C4000206820F000502060606820F490406060B0
:102C5000A06820F02A00A060206840F001002060F9
:102C6000E069C0F340500028FAD0E069C0F380501A
:102C70000028F5D010B010BD08030007F04402583A
:102C800000000258C0C62D00001001400649CA6964
:102C9000C2F3C012002AFAD08862CA69C2F3801255
:102CA000002AFAD0704700000010014010B590B023
:102CB00020216846FDF716FE182108A8FDF712FE30
:102CC000284802F057F82848016841F48021016043
:102CD000006800F480200E90042001F065FC08AB31
:102CE000002402214FF4406083E8130007221F48AC
:102CF00008A90B94CDE90C4201F05EFD4FF4E130E0
:102D000002940C2103940794CDE90040CDE90441DD
:102D100006946946164C204602F084F900212046AC
:102D200002F01AFA0021204602F008FA206820F08A
:102D300000502060606820F490406060A06820F03F
:102D40002A00A060206840F001002060E069C0F324
:102D500040500028FAD0E069C0F380500028F5D038
:102D600010B010BD08000007E844025800080258DF
:102D7000004800400649CA69C2F3C012002AFAD0CE
:102D80008862CA69C2F38012002AFAD07047000034
:102D900000480040FEE700001FB5002000901848E2
:102DA0000168C1F34011002927D020218160164A13
:102DB00001AB144C07CA83E80700207800238DF884
:102DC000040001A960686A4605F014FB20784FF4FE
:102DD0008061C0F101002070207878B10B4800BFFD
:102DE000FFF7CEFB0098002807D009494FF080502C
:102DF0000860BFF34F8FBFF36F8F1FBD0548EFE72C
:102E00000000024078000020A88B00080008003075
:102E100004ED00E000000030704772B6FEE70000ED
:102E20000749097851B1C0F3C621C0F30222044812
:102E30008038405CD04000F00100704700207047AF
:102E4000C05701202DE9F0410A4D05F11806AF6980
:102E500000F0B2F9044601463046FDF725FBB842C2
:102E6000F5D1844203D203481030FDF714FB20460D
:102E7000BDE8F081C05701202DE9FC475FEA010859
:102E80001446054602D0B4F5807F02D90020BDE883
:102E9000FC87FFF7C5FF48B1FFF7D4FF8146A8B212
:102EA000EFF3058121B14FF4002702E00120EEE7A6
:102EB00000270743A4B1082C4FF0000A4FF4E02686
:102EC00013D8224641466846CDF800A0CDF804A0AC
:102ED000FDF789FC06EA0440384340F0407042E0C8
:102EE000002349461A46384640E02248FDF7CAFA10
:102EF0000146D8F800000090083CD8F8040006EA23
:102F000001463743009A08F10805034649460190F7
:102F100047F0807000F030F80028B8D04FF601700C
:102F200006430FE0284655F8081B0091083C40680E
:102F30000A46494601900346304600F01DF8761CCB
:102F40000028A4D0082CEDD8224629466846CDF8A2
:102F500000A0CDF804A0FDF746FC26F47F4040EA2F
:102F6000042040F000704946DDE9002300F004F839
:102F70008DE70000C15701202DE9FF5F93468A4687
:102F80004FF08052994602EADA08510001EA9B07A5
:102F90004800072500EA59061F48FDF77CFA830A16
:102FA000C0F309021D484FF4700100EB02140098B1
:102FB00001EA0351084340EA08003843304340F037
:102FC000406104F10C00FDF777FA41011CD580F057
:102FD000044101F0004029F0004202432AF000457C
:102FE0002BF00043054325600343C4E9013204F19B
:102FF0000C00FDF772FA48B10748001DFDF74BFAC7
:10300000012004B0BDE8F09F6D1EC5D10248083014
:10301000FDF741FA0020F4E7C457012040170120D2
:103020002DE9F047FF29814601D2FF2A02D3002073
:10303000BDE8F087104D002420464FF0010A5646A7
:103040000AFA00F313EA090F0FD00B46B2460AE062
:1030500004EBD30603F00708AF5D0AFA08FC47EA61
:103060000C075B1CAF559342F2D9401C2034042856
:10307000E5D30120DCE70000405701202DE9F047AF
:103080003D4C0025884681468021A4F180002570B2
:10309000FDF728FC394B4FF6FF70182241F221074B
:1030A0004FEA0006082113F801CB80EA0C2000BF8C
:1030B0005FEA004C06EA400000D57840491EF7D18F
:1030C000521EEFD12E4A0121236A934201D022627F
:1030D00002E06288824202D06080E16139E0E0690A
:1030E000401CE061012834D0264B00204FF480665C
:1030F00003EB0011CA68570102D522F04062CA6092
:10310000401CB042F4D3E06901282BD000F060F8F5
:103110000646DEB1FE2248460021FFF781FFEF227E
:103120000F201146FFF77CFFFE2204201146FFF717
:1031300077FFFFF787FEE269002301461248FFF799
:103140001BFFB8F1000F01D000F020F83046BDE8B9
:10315000F08765704FF480416560A5600948E560BF
:10316000FDF7C0FB00F034F8061E01D000F02AF88D
:10317000C4E905052561CCE7C0570120C08B0008D4
:103180006B27A5E14017012000FF0003084810B598
:10319000017809B1012010BD01210170FFF752FE35
:1031A0000023014603481A46FFF7E6FEF2E7000057
:1031B000C057012001FF000301484068704700002C
:1031C000001000E001480068704700001400002073
:1031D00005490A68054842F080720A60016841F0BA
:1031E0000101016001207047FCED00E0001000E0EB
:1031F000F0B5B3F5804F05D06FF0704140F8221064
:103200000020F0BD91E838008F898E6950F82210B7
:1032100024013343054E44EA05242343314043EA65
:1032200007430B4340F82230EAE700000000F0CFEC
:10323000F0B50A6850F8223023F0010340F822303C
:103240008C68082C2CD000264A68D1E903CE224392
:103250004CEA060C01F1140342EA0C0242EA0E02A7
:1032600093E8F8501A4322430C682A43D1E90C35FD
:10327000324350F824603A4342EA0C02DFF840C07F
:1032800042EA0E028F6B13431D432F4326EA0C06BE
:103290003E4340F824600A6BB2F5801F02D007E07D
:1032A0004026D1E70A684AB1026842F480120260FF
:1032B0000A681AB10268496B0A4302600020F0BD37
:1032C0007FFB3F00F0B58C6800EB8202D1E900364D
:1032D000B1F80CE04FEA042C134C0D8A43EA0613B4
:1032E0000E7D67014CEA0E4C43EA0C0304EB0555D6
:1032F0002B438D6907EB0666576833432B4307F072
:1033000040452B4353600268D2020BD5098A4268BC
:10331000436804EB015122F47002114323F470035B
:103320000B4343600020F0BD0000F0FFF0B587B014
:1033300014216846FDF7D6FA1A48016800292ED1F3
:10334000012101601848016821F00301016016485D
:103350008830016841F48051016000680224002532
:10336000694600F48050059003264FF680700C27C4
:103370008DE8F1000D4800F01FF84CF233706946FB
:103380008DE8F1000A4800F017F809218020CDE906
:1033900003618DE831000748694600F00DF807B079
:1033A000F0BD0000000000204C44025800100258FC
:1033B000000C0258000802582DE9F84F03247D4DF7
:1033C00000234FF001094FF0B04B4FF00F0AE9E036
:1033D00009FA03F73A4076D00E7906F00306012E7B
:1033E00001D0022E18D1D0F808C04FEA430ECE68A3
:1033F00004FA0EF82CEA080C06FA0EF646EA0C0659
:103400008660D0F804C00E792CEA070CC6F30016CB
:103410009E4046EA0C0646600E79F643B6070BD08E
:10342000C6684FEA43088F6804FA08FC26EA0C06CF
:1034300007FA08F73743C7600E7906F00306022E35
:1034400012D1DE080F694FEA437C00EB8606B646D0
:10345000366A4FEADC6C0AFA0CF807FA0CF726EA2F
:1034600008063743CEF820700F7906684FEA430804
:1034700007F0030704FA08FC07FA08F726EA0C0627
:10348000374307604E6816F4403F1CD04A4E3768F9
:1034900047F00207376036689F0706F0020600967D
:1034A00023F0030606F1B046B6463F0FD6F808648F
:1034B000DFF808810AFA07FC404526EA0C0603D12A
:1034C0004FF0000C41E06CE0DFF8F4C0604502D141
:1034D0004FF0010C39E0DFF8ECC0604502D14FF04D
:1034E000020C32E0DFF8E0C0604502D14FF0030C7F
:1034F0002BE0DFF8D8C0604502D14FF0040C24E087
:10350000DFF8CCC0604502D14FF0050C1DE0DFF8BC
:10351000C4C0604502D14FF0060C16E0DFF8B8C019
:10352000604502D14FF0070C0FE0DFF8B0C06045F6
:1035300002D14FF0080C08E0DFF8A4C0604502D1CA
:103540004FF0090C01E04FF00A0C0CFA07FC4CEAB2
:10355000060CCEF808C44F68DBF80060FF0226EACC
:10356000020600D516435F46CBF80060D1F804C0D0
:10357000DBF804605FEA8C2C26EA020600D51643CD
:103580007E606E684F6826EA0206BF0300D51643C8
:103590006E602E684F6826EA0206FF0300D51643C8
:1035A0002E605B1C0A6832FA03F67FF411AFBDE8A7
:1035B000F88F000080000058F444025800000258C0
:1035C0000004025800080258000C0258001002586B
:1035D0000014025800180258001C0258002002581B
:1035E00000240258024881680278114481607047C3
:1035F00008000020032010B500F0FEF800F090FD58
:103600000F4A104914681368C4F3032203F00F0330
:103610008A5CC95C02F01F0201F01F01D0400A4A17
:1036200020FA01F11160094908600F2000F010F83C
:1036300008B1012010BD00F09FF8002010BD00006F
:1036400018440258588B000818000020140000206D
:1036500010B5102804468AB02CD20022014636202C
:1036600000F0AAF8362000F099F8174804601748CF
:10367000016841F010010160006809A900F0100024
:103680000890684600F0EAFC0598B0B100F036FDFD
:1036900040000F4900220F4CB0FBF1F10E4840F200
:1036A000E7330460C0E90332491EC0E9011200F0AB
:1036B0000EFE28B101200AB010BD00F01FFDE8E7A2
:1036C000054800F037FEF6E70C000020E8440258F9
:1036D00040420F000010004020010020F0B5154CC2
:1036E0004378211D0A1D23600378F3B143680B6002
:1036F000057BC67A817A437B2D07847B45EA066584
:10370000C77B90F809C0067A90F800E045EAC1400E
:1037100040EA834040EA444040EA074040EA0C2047
:1037200040EA460040EA0E0001E000200860106018
:10373000F0BD000098ED00E0BFF35F8F044800216A
:103740000368034A23F480330360703211607047CA
:1037500024ED00E0074A40F0010006497032106095
:10376000086840F480300860BFF34F8FBFF36F8F5D
:103770007047000024ED00E0074882B0016841F086
:1037800002010160006800220F2100F00200009099
:10379000901E02B000F010B8F4440258002809DB73
:1037A000410900F01F028900012001F1E021904051
:1037B000C1F80001704700000E4BF0B41B680D46C5
:1037C000C3F30223C3F10706042E00D90426191DF2
:1037D000072901D2002300E0DB1E012404FA06F1D0
:1037E0009C40491E2940641E994014402143F0BC6E
:1037F00003F064BB0CED00E0064900F0070210B5D1
:103800004FF6FF040868044B204040EA02201843AA
:10381000086010BD0CED00E00000FA057047D0F81C
:10382000080502F0CFBC01EBC10200EB8202D0F828
:103830000805926C02F022BC01EBC10200EB82028F
:10384000D0F80805D2F8882202F074BCD0F8080538
:1038500002F0BABC0A0601F00F0101EBC10100EB56
:10386000810101D53C3101E001F51F71006803F0D1
:1038700099B970B54268044601F00F00904201D931
:10388000012070BD01F00F024FF000050B0602EBA6
:10389000C2014FF0010204EB810103D581F83D2004
:1038A0003C3103E081F87D5201F51F718D70087085
:1038B00094F8BC04012808D084F8BC24206802F0E5
:1038C000FDFF002084F8BC5470BD022070BD2DE9BE
:1038D000F04101F00F0604460D064FF0010006EB23
:1038E000C6014FF0000504EB810103D581F83D00CE
:1038F0003C3103E081F87D5201F51F714F788A60F9
:103900000B710E7007B14E83022B00D14D7194F8EC
:10391000BC24012A09D084F8BC04206802F054FFBA
:10392000284684F8BC54BDE8F0810220FBE770B55E
:1039300001F00F05002405EBC50100EB810101F545
:10394000227181E81C0001F80B4C01F80C5DC36882
:10395000012B00D1CA61027B006803F007F8002048
:1039600070BD70B50D464168044605F00F008842F1
:1039700001D9012070BD29064FF000064FF0010269
:1039800007D500EBC00104EB810181F83D203C31FB
:1039900007E005EBC50104EB810181F87D6201F5CB
:1039A0001F718A70087094F8BC04012807D084F84D
:1039B000BC24206802F0AEFF280702D007E00220F6
:1039C00070BD217B04F2C442206802F04BFF00204E
:1039D00084F8BC6470BD70B501F00F04002504EBE1
:1039E000C401012600EB8101483181E82C0001F877
:1039F0000B6C01F80C4DC368012B00D1CA61027B2E
:103A0000006802F0B3FF002070BD00002DE9FC5FEC
:103A100005680446284603F042F900287ED1206854
:103A200003F069F9002879D0D5F80808C0F30D2013
:103A3000C4F8FC04206803F05EF9800704D5206810
:103A4000416901F002014161206803F054F9C106A7
:103A500004F2C440009034D52068816921F010013F
:103A600081612F6A07F00F01C7F3434001EBC101E9
:103A7000022804EB810606F51F7602D0062811D035
:103A80001AE047F6F070074216D0C7F30A12F16841
:103A90001746284603F033F9F16870693944F1603C
:103AA000384408E000990822284603F028F9706994
:103AB000C7F30A11084470612068816941F0100160
:103AC0008161206803F017F900034FF0000A4FF0FE
:103AD000020B4FF001097CD52068002603F0EAF8BC
:103AE000074674E0F80770D02068F1B203F0FBF8E5
:103AF0008046C00707D005EB4611C1F8089B314648
:103B0000204601F0CBFE5FEA087025D505EB461193
:103B10000820C1F8080BFC49206800E042E2026C72
:103B200000EB461001928A42D0F8081B05D909041F
:103B300003D54FF40041C0F8081B204600F06EFA90
:103B4000F1490198884207D9E068012804D120682A
:103B50000121009A02F086FE5FEAC86004D505EBF9
:103B600046111020C1F8080B5FEA88701CD56869FF
:103B7000000605D5D5F8040840F48061C5F804189E
:103B800006EBC60004EB800090F87F1200F51F7072
:103B9000012905D180F803A02046F1B200F008FA0F
:103BA00005EB4611C1F808BB5FEA886004D505EB58
:103BB00046112020C1F8080B5FEA884005D505EBC7
:103BC00046114FF40050C1F8080B7F08761C002FF7
:103BD00088D1206803F08FF840036FD5206803F088
:103BE00062F80026074667E0F80763D02068F1B264
:103BF00003F067F88046C00723D0D5F8342806F0D4
:103C00000F0C05EB461309FA0CF08243C5F8342873
:103C1000C3F80899E06801280FD106EBC60004EB51
:103C20008000D0E911121144816436B9E06C20B9EA
:103C300020680121009A02F015FE2046F1B2FFF73C
:103C4000F2FD5FEA087004D505EB46110820C1F8C3
:103C500008095FEAC86004D505EB46111020C1F8D9
:103C600008095FEA486004D505EB46114020C1F819
:103C700008095FEA887016D53146284602F0E2FF4F
:103C800006EBC60004EB800090F83F103C300129A1
:103C900005D180F803A02046F1B200F085F905EBCC
:103CA0004611C1F808B95FEA086003D531462046DD
:103CB00001F05AFE7F08761C002F95D1206803F092
:103CC0001AF8002811DAD5F8040820F00101C5F827
:103CD000041894F8F40401283BD0204600F082F93F
:103CE0002068416901F000414161206803F003F858
:103CF00000050BD5D5F80808C00702D0204600F013
:103D000095F92068416901F400614161206802F081
:103D1000F2FF00010AD52068416901F000614161AC
:103D200094F8F404E0B1204600F080F9206802F035
:103D3000E2FFC00472D5D5F8040820F00101C5F8EF
:103D400004182068102102F07DFF00214FF67F3219
:103D50002DE00021204684F8F4A4FFF75FFDBFE7C3
:103D600084F8F4942068406D0121C0F38300C4F806
:103D7000F8042046FFF752FDD8E700BF05EB4110DD
:103D8000C0F80829D0F8003923F40013C0F800392E
:103D9000C0F8082BD0F8003B23F40013C0F8003B18
:103DA000D0F8003B43F00063C0F8003B491C60685A
:103DB0008842E3D8D5F81C0840F00111C5F81C185A
:103DC000206B68B1D5F8840840F00B01C5F8841861
:103DD000D5F8440840F00B012846C5F844180DE01A
:103DE000D5F8140842F22B010843C5F81408D5F899
:103DF000100840F00B012846C5F81018D0F800084C
:103E000020F4FE61C5F80018217B2068009A02F0BA
:103E100029FD2068416901F480514161206802F068
:103E20006AFF800417D5206802F00EFD206802F0BA
:103E300029FF206100F040F9217C2368CAB20146C5
:103E4000184602F08DFF204600F0B6F82068416960
:103E500001F400514161206802F04DFF000707D5D1
:103E6000204600F0C3F82068416901F00801416173
:103E7000206802F040FF000616D5A869012620F050
:103E80008001A9610DE000BF06EBC60004EB8000D5
:103E900090F87F02012803D12046F1B2FFF7DAFC47
:103EA000761C6068B042EFD8206802F024FFC002A0
:103EB00021D501264F4616E006EBC60105EB46105C
:103EC00004EB8101D0F8000991F84020012A09D1C2
:103ED000002807DAF0B281F83F7040F080012046F8
:103EE000FFF7B8FC761C6068B042E5D820684169ED
:103EF00001F480114161206802F0FDFE800234D59A
:103F000001204B4629E000000A30544F00EBC0026C
:103F100005EB401104EB8202D1F8001B92F880629D
:103F2000012E19D1002917DA94F8FC6401F48031CC
:103F300006F00106B1420FD182F87F32A96941F043
:103F40008002AA616969090606D4D5F8040840F41C
:103F50000070C5F8040803E0401C61688142D5D8B0
:103F60002068416901F400114161206802F0C3FE3C
:103F7000400007D52046FFF752FC2068416901F058
:103F800080414161206802F0B6FE40070AD52068F2
:103F90004568680702D52046FFF758FC206841684D
:103FA00029434160BDE8FC9FD0F8080502F02CB918
:103FB000D0F8080502F03CB970B504460069012547
:103FC00070B1022801D0FEF728FFD4F80805294671
:103FD00002F09DF9D4F80805BDE8704002F051B92F
:103FE0000025F2E7D0F8080502F07AB9D0F8080504
:103FF00002F080B910B5044690F8BC0401280BD03B
:10400000012084F8381084F8BC04206802F097FE80
:10401000002084F8BC0410BD022010BDD0F8082593
:1040200000F2C441104602F07EB9000010B504460B
:10403000D0F8080502F0B0F92068D0F8001E41F071
:104040000101C0F8001E206A002804D0024801685F
:1040500041F00601016010BD10ED00E070B5144C98
:104060003F220260124A24680832131D114D04F0E9
:104070000704446016681C1D06F4706686601668A6
:1040800006F00F06C660126802F0700202611A683C
:1040900002F0700242611A6802F4E06282612268F2
:1040A00002F07002C261286800F00F00086070BD65
:1040B000104402580020005230B500F031F80B4A8D
:1040C0000B490C4B15681468C5F3032204F00F0468
:1040D0008A5C095D02F01F0201F01F01D040064A10
:1040E00020FA01F119601060084630BD18440258EA
:1040F000588B0008180000201400002000B5FFF7BE
:10410000DBFF05490968054AC1F30211515C01F062
:104110001F01C84000BD00001C440258588B000815
:10412000454970B545480968434B103B11F03802CA
:1041300008D00111082A03D0102A0BD0182A0BD05E
:10414000084670BD19688906FBD51968C1F3C1011D
:10415000C84070BD3A4870BD3749374D18310C1D05
:1041600024350A68096826682D6802F0030406F001
:104170000102C1F30511C5F3CC0515FB02F200EEF7
:10418000102AB8EE400AE9B32F4ADFED2E0AB7EE47
:10419000001A6CB1DFED2D1A012C01D0022C43D096
:1041A00002EE101A1068F8EE422A81EEA22A1EE0F2
:1041B0001C68A40611D51B6801EE901A1168C3F3A0
:1041C000C103F8EE612AD84001EE900AC1F308005D
:1041D000F8EE611A81EEA22A0BE001EE901ADFEDF3
:1041E0001C2A00BFF8EE611A106882EEA12AC0F303
:1041F000080001EE900AF8EE611A40EE201A31EE46
:10420000810A00E015E022EE000A1068C0F34620A3
:10421000401C00EE900AF8EE600A80EE201ABCEE18
:10422000C10A10EE100A70BD01EE901ADFED092AE6
:10423000D8E7002070BD0000104402580090D00361
:1042400040787D0100000039304402580024744A4F
:104250000024744C20BCBE4B70B5040015460E46BD
:1042600003D094F8450010B107E0012070BD002094
:1042700084F84400204600F025F8206804F1080185
:10428000FEF7D6FFA26831462068FFF71BF8E36A05
:104290002946D4E90102FEF7ABFFA168012320689B
:1042A000074A50F8215045F0010540F821501068A8
:1042B00040F00040106084F84530002070BD0000E0
:1042C00000400052FFF732B870477047704710B592
:1042D000040003D094F83D0010B107E0012010BDA8
:1042E000002084F83C00204600F022F8022084F8E8
:1042F0003D002068211D01F081FD012084F8480067
:1043000084F83E0084F83F0084F8400084F84100BF
:1043100084F8420084F8430084F8440084F845009F
:1043200084F8460084F8470084F83D00002010BD62
:104330007047000090F83D10012901D0012070471E
:10434000174A022180F83D100168CB6843F0010351
:10435000CB600068904214D0B0F1804F11D0114969
:1043600088420ED0104988420BD01049884208D0AC
:104370000F49884205D00F49884202D00E49884231
:1043800007D181680D4A1140062906D0B1F5803F5A
:1043900003D0016841F00101016000207047000076
:1043A000000001400004004000080040000C0040F4
:1043B00000040140001800400040014007000100D7
:1043C000704770B50446006800250169C943890734
:1043D00015D4C168C943890711D4EA1E02610121BD
:1043E0002177206880698007204602D0FFF7E8FF28
:1043F00004E000F0A7F8204600F0A5F82577206833
:104400000169C943490717D4C168C943490713D48F
:1044100002216FF00402026121772068806910F4A4
:10442000407F204602D0FFF7CBFF04E000F08AF87F
:10443000204600F088F8257720680169C9430907FC
:1044400016D4C168C943090712D404216FF00802C9
:10445000026121772068C0698007204602D0FFF7FB
:10446000AFFF04E000F06EF8204600F06CF825770E
:1044700020680169C943C90617D4C168C943C90680
:1044800013D408216FF01002026121772068C069FF
:1044900010F4407F204602D0FFF792FF04E000F0C6
:1044A00051F8204600F04FF8257720680169C9438C
:1044B000C90708D1C168C943C90704D1891E016170
:1044C000204600F041F820680169C943090609D473
:1044D000C168C943090605D46FF080010161204617
:1044E000FFF7F3FE20680169C943C90509D4C16813
:1044F000C943090605D46FF4807101612046FFF7B6
:10450000E3FE20680169C943490609D4C168C9436B
:10451000490605D46FF040010161204600F01EF805
:1045200020680169C94389060BD4C168C94389065B
:1045300007D46FF0200101612046BDE87040FFF70D
:10454000C5BE70BD7047704700680349884201D1FD
:10455000FFF748B870470000001000407047FEE7C2
:10456000044908B50A6802430A60096801400091DD
:1045700008BD0000DC440258044908B50A6802433B
:104580000A6009680140009108BD0000E04402583B
:10459000044908B50A6802430A60096801400091AD
:1045A00008BD0000E0440258044908B50A68024307
:1045B0000A6009680140009108BD0000E04402580B
:1045C000044908B50A6802430A600968014000917D
:1045D00008BD0000E8440258044B001D595C0B580C
:1045E0006FF30F0313430B5070470000988B0008C4
:1045F000034B595C435823F4907313434350704763
:10460000988B000810B5027B00234FF0B041002AC0
:10461000026873D0EAB1447BE407D1F8804001D04E
:10462000144300E09443C1F88040427BD1F88440B9
:104630009207026801D5144300E09443C1F8844016
:10464000827B32B1012A0DD0022A14D0032A16D05F
:10465000012342689AB3447BE407D1F8904017D015
:10466000144316E04C68026894434C600C6802687E
:1046700014430C60EDE70C680268944302E00C6898
:10468000026814430C604C68026814434C60E0E715
:104690009443C1F89040427BD1F89440920742681D
:1046A00001D5144300E09443C1F89440827B32B1B9
:1046B000012A0DD0022A14D0032A16D001238268C1
:1046C000A2B3447BE407D1F8A04018D0144317E00C
:1046D0004C6A426894434C620C6A426814430C6210
:1046E000EDE70C6A4268944302E00C6A42681443A6
:1046F0000C624C6A426814434C62E0E72DE094433C
:10470000C1F8A040427BD1F8A4409207826801D54D
:10471000144300E09443C1F8A440827B32B1012AE3
:1047200005D0022A0CD0032A0ED0012338E04C6CAD
:10473000826894434C640A6C806802430A642FE0E8
:104740000C6C8268944302E00C6C826814430C6425
:104750004A6C806802434A6422E0D1F88040944366
:10476000C1F88040D1F8904042689443C1F890402D
:10477000D1F8A04082689443C1F8A040D1F88440A9
:1047800002689443C1F88440D1F89440426894434D
:10479000C1F89440D1F8A42080688243C1F8A420D5
:1047A000184610BD4FF0B041D1F88810884301D0B1
:1047B0000020704701207047F0B50A6892FAA2F213
:1047C000B2FA82F44CE00125A54013EA050246D076
:1047D0004B68012B01D0022B10D1856802FB02F33C
:1047E0008E685E4303EB43039D4335438560456814
:1047F000CE680B689D435E4335434560C56802FB48
:1048000002F30E6903FB06F703EB4306B5433D4392
:10481000C5604D68022D1CD1FF2A0BD803FB02F5A1
:10482000076A55434A696A43C5EB0515AF43174309
:1048300007620EE0476A120AD1F814C002FB02F5C3
:104840005543554305FB0CF2C5EB0515AF43174324
:10485000476205684A68B54353431D430560641CBD
:104860000A681346E240AED10020F0BD4943036818
:104870004A4301EB41018B431343036070474943B3
:10488000C3684A4301EB41018B431343C360704744
:1048900002480068C0F3002070470000004402583E
:1048A00000EE100A00EE901A01EE102A9DED002A8B
:1048B000B8EE403AF8EE600AB8EE410AB8EE421A95
:1048C00001EE903A83EE202AF8EE611ADFED062A17
:1048D00001EEA20A22EE000AC0EE010ABCEEE00AD6
:1048E00010EE100A70470000000000390649030E60
:1048F000C0F3042251FA80F1934009681940D14075
:1049000040EA0140704700004C4402582DE9F84F3E
:10491000364F00250446A846386810F0030004D03E
:1049200001280BD0022812D10DE000F0F9F970B186
:1049300000F0EEF92E4DC008C54008E0FFF7A8FFD3
:1049400028B12C4D03E000F0DBF900B12A4D002026
:104950002060264E6060A06008363868311F3368DA
:104960000A68C0F30517C3F3080012F0010F00F145
:10497000010A03D0301D0068C0F3CC08002F33D0EB
:1049800008688946C0F3004058B130684346524633
:104990003946C0F34620401C00902846FFF780FFB0
:1049A0002060D9F80000C0F3404058B13068434659
:1049B00052463946C0F30640401C00902846FFF797
:1049C0006FFF6060D9F80000C0F3804000280BD072
:1049D0003068434652463946C0F30660401C00909A
:1049E0002846FFF75DFFA060BDE8F88F2844025815
:1049F0000090D00300093D0040787D012DE9F84F7B
:104A0000374F00250446A846386810F0030004D04C
:104A100001280BD0022812D10DE000F081F970B10D
:104A200000F076F92F4DC008C54008E0FFF730FFD1
:104A300028B12D4D03E000F063F900B12B4D0020AB
:104A40002060274E606026491036A0603868091D36
:104A500033680A68C0F30537C3F3080000F1010AA0
:104A6000C2F300121AB1301D0068C0F3CC08002F49
:104A700033D008688946C0F3C04058B13068434617
:104A800052463946C0F34620401C00902846FFF7A6
:104A900007FF2060D9F80000C0F3005058B130681B
:104AA000434652463946C0F30640401C0090284613
:104AB000FFF7F6FE6060D9F80000C0F34050002810
:104AC0000BD03068434652463946C0F30660401C5E
:104AD00000902846FFF7E4FEA060BDE8F88F0000D4
:104AE000284402580090D00300093D0040787D0121
:104AF0002DE9F84F384F00250446A846386810F0D5
:104B0000030004D001280BD0022812D10DE000F0E0
:104B100007F970B100F0FCF8304DC008C54008E05E
:104B2000FFF7B6FE28B12E4D03E000F0E9F800B122
:104B30002C4D00202060284E606027491836A06068
:104B40003868091D33680A68C0F30557C3F30800C5
:104B500000F1010AC2F300221AB1301D0068C0F34F
:104B6000CC08002F35D0002D33D008688946C0F31B
:104B7000805058B13068434652463946C0F346200B
:104B8000401C00902846FFF78BFE2060D9F80000FB
:104B9000C0F3C05058B13068434652463946C0F35E
:104BA0000640401C00902846FFF77AFE6060D9F866
:104BB0000000C0F3006000280BD030684346524626
:104BC0003946C0F30660401C00902846FFF768FE97
:104BD000A060BDE8F88F0000284402580090D00380
:104BE00000093D0040787D010248006800F47060D3
:104BF0007047000018440258FEB50024FFF776FE07
:104C000039494FF440724FF47D43451A88424FF4BE
:104C100080315FD022DC354EB042A0EB06050AD0D1
:104C200010DC334DA0F10800B0F1E06040D09042BC
:104C30002DD0884229D100F083F830B36846FFF7C1
:104C4000DDFE09E09D4201D08D421ED100F080F8CA
:104C5000D8B16846FFF74CFF019C16E0254EA81B13
:104C6000B54204D008DC954234D08D420DD1FFF717
:104C70000FFE50B1204C08E0984201D0884204D188
:104C800000F056F808B14FF400442046FEBD00F095
:104C9000EBFE0446FFF7A8FFC0F30320285C00F0FA
:104CA0001F0024FA00F000F0B1FE00F0CDFE0FE08E
:104CB00000F0DAFE0446FFF797FFC0F30320285CFC
:104CC00000F01F0024FA00F000F0A0FE00F0ACFE9F
:104CD0000446DAE700F024F80028D6D000F018F8EF
:104CE000064CC008C440D0E70800030708030107CA
:104CF000488B00080003010000093D000090D0032C
:104D000002480068C0F34040704700000044025869
:104D10000248006800F01800704700000044025884
:104D200002480068C0F38000704700000044025849
:104D300002480068C0F34000704700007044025809
:104D400002480068C0F3C060704700000044025889
:104D500002480068C0F340707047000000440258E9
:104D600003490A6822F00F0202430A6070470000FC
:104D7000184402580749030E10B551FA80F1C0F3E8
:104D80000422C0F3074408689340944098432043AA
:104D9000086010BD4C4402588A070B0C120F02F138
:104DA000B04293FAA3F310B5B3FA83F4D2F80834FF
:104DB00004F01F0423EA1141A0400143C2F8081483
:104DC00010BD000001490860704700001400002079
:104DD0002DE9F047264B4FF0804A264D0268984255
:104DE000254E264F264C09D0504507D0A84205D065
:104DF000B04203D0B84201D0A04205D1D1F804C0DE
:104E000022F0700242EA0C02DFF878C0DFF8788006
:104E10009842DFF878900FD050450DD0A8420BD0C3
:104E2000B04209D0B84207D0A04205D0604503D0B7
:104E3000404501D0484503D1CD6822F440722A4351
:104E400002608A68C2620A888262984207D0A042E1
:104E500005D0604503D0404501D0484501D10969DE
:104E60000163416941F0010141610020BDE8F08723
:104E7000000001400004004000080040000C004019
:104E8000000401400040014000440140004801404E
:104E90002DE9F05F5C4EB1F5805F5C4C0F465C4DD8
:104EA0004FF00003DFF86C914FF00101DFF868A1CB
:104EB000DFF868B11CD007DC012F0CD0102F0ED00A
:104EC000B7F5807F70D10FE0B7F5803F3DD0B7F5E3
:104ED000801F69D16BE0114600F0E6FB02E011464D
:104EE00000F032FC01465FE0114600F07FFCF9E77C
:104EF000016AA04221F480510162046A4168D0F83D
:104F00001CE024F400541769D2E9008C44EA073409
:104F10002EF4407707EA060724F4805447EA08266F
:104F200044EA0C3407D0A84205D0484503D0504588
:104F300001D0584504D1956921F4804141EA851199
:104F40004160C661D16801642CE0016AA042344E20
:104F500021F480310162046A178A416D24F400341F
:104F6000B2F80480D2F800C044EA074401EA06011E
:104F700024F4803441EA0C0144EA084407D0A842F2
:104F800005D0484503D0504501D0584506D1456865
:104F9000966925F4803545EA062545604165816DB1
:104FA000D1688165194604620846BDE8F09F016A30
:104FB000A04221F480110162046A178A416D24F431
:104FC0000014B2F80480D2F800C044EA075401EAA1
:104FD000060124F4801441EA0C2144EA085407D065
:104FE000A84205D0484503D0504501D0584506D1C8
:104FF0004568966925F4802545EA86254560416522
:10500000D168C165CEE70000FF8FFFFE00000140C0
:1050100000040140004001400044014000480140BC
:105020008FFFFEFF2DE9F0410446006801260D4682
:1050300010F0010F54D1D5E904C1EB69A8682268CA
:105040001943324F40EA0C0008433A4010432060B5
:105050006168E86821F4405101436160A168A86972
:1050600021F440710143A16029482A49844201D1B9
:10507000084615E0284A2948944211D0284A94420B
:105080000ED0284A94420BD0274A944208D0274A8F
:105090009442EDD026498C4202D026498C4218D148
:1050A000FFF7AAFDA8B1696899B12A680026EB69E3
:1050B0000B2A0ED8B3F5004F1F4B14D0D2B253F8C1
:1050C0002220B0FBF2F000EB5100B0FBF1F080B217
:1050D000E060E16A288821F00F0180B20143E162BB
:1050E0003046BDE8F081D7B24FF6F07253F8273062
:1050F000B0FBF3F0400000EB5100B0FBF1F081B2E7
:1051000001EA0200C1F342010843E1E7F369FFEF5E
:105110000010014008030007004400400800000799
:1051200000480040004C0040005000400014014086
:1051300000780040007C0040188B000810F1080047
:1051400050E8002F22F0606242EA416240E800230A
:10515000002BF5D17047000010F1080050E8002F37
:1051600061F35F7240E80023002BF7D170477FB5F1
:10517000FEF7E2FA00248DF80F4001258DF80E406D
:1051800012208DF8080003268DF80B608DF8005072
:105190004FF010518DF80D4068468DF80A5001917E
:1051A0008DF801408DF809408DF80C40FEF796FA15
:1051B0000F208DF808008DF80F4071078DF80B60F7
:1051C00068468DF80E408DF800508DF80D408DF832
:1051D0000A4001918DF801508DF809408DF80C407E
:1051E000FEF77CFA10208DF808008DF80F4032078A
:1051F0008DF80B6002218DF80E4068468DF8005046
:105200008DF80D508DF80A4001928DF801108DF83F
:1052100009408DF80C50FEF761FA0420FEF79AFA67
:105220007FBDFEE738B5FDF72FFA08B1012038BD84
:10523000FDF72EFCFDF704F9FDF7C4FA204A002023
:10524000AA21431C1154D8B20428FAD30024009494
:10525000234622462146204600F034F80520FDF77B
:10526000FFF9002300941A461946184600F02AF860
:105270000520FDF7F5F90021084600F03BF8052070
:10528000FDF7EEF9AA21042000F020F90520FDF732
:10529000E7F9AA21052000F019F90520FDF7E0F94A
:1052A000AA21062000F012F90520FDF7D9F9AA215C
:1052B000072000F00BF90520FDF7D2F9002038BDDA
:1052C0003500002030B4029C03B10223234343EA9B
:1052D00000030AB1202000E00020184301B1402162
:1052E000014303480170022030BC00F0EFB8000019
:1052F000340000200143032000F0E8B8044A11788C
:1053000021F01C0101431170022000F0DFB8000001
:105310003400002030B52DED048BB0EE408B89B009
:10532000B5EEC08BF1EE10FA7ED99FED5F0BB4EEB7
:10533000C08BF1EE10FA77DC002005900190009010
:1053400002A8FDF711FB9FED5A9B9FED5B1B89EEB9
:10535000080BB4EEC10BF1EE10FA65DCBCEEC00B2D
:10536000574D072410EE100A55F82410814206D834
:10537000A006000EFFF7C2FF55F8240007E0641EE8
:1053800064B2002CF0DA0020FFF7B8FF2868009024
:1053900002980399B7EE002B9FED4A1B00EE100A0E
:1053A000B8EE403B00EE101A83EE084BB8EE403BDF
:1053B00034EE420BB4EEC03BF1EE10FA20DBBCEE53
:1053C000C00B8DED050A029800EE100AB8EE400BF6
:1053D00020EE011B81EE090B01F092FDBCEEC00B2B
:1053E0008DED010A10EE100A0599884201D948088E
:1053F0000190142801D2142001900246002045E0BB
:1054000001204AE0481C0299039A00EE100AB8EE07
:10541000403B00EE101A23EE083BB8EE405B00EE76
:10542000102A85EE034B00E03CE0B8EE403B34EE42
:10543000420BB4EEC03BF1EE10FA2ED3BCEEC00B23
:105440008DED050A0299009800EE101A401C00EE3E
:10545000900AB8EE402BB8EE600B22EE011B20EE56
:10546000092B81EE020B01F04BFDBCEEC00B8DED64
:10547000010A10EE100A0599884201D948080190E6
:10548000022801D20220019002460098FDF75EFB3F
:10549000002009B0BDEC048B30BD00900498009949
:1054A0008842AFD20120F4E70000000080842E4142
:1054B0000000000065CDCD410000E0FFFFFFEF419F
:1054C0003C000020000000000000694000F03F00A8
:1054D00010B541EA402040F400410020FDF76EF98C
:1054E000002010BD00F022B80F4B0020F0B564265C
:1054F000987202270146A3F10A04D8724A1C01EBF4
:10550000810512F0FF0104EB4502968004F8157046
:105510009071D0711072F1D000214A1C5854D1B250
:105520000A29FAD3F0BD0000C201002010B5FFF730
:10553000DBFFFDF785F9FDF77FF90149086010BD34
:105540003000002000F0A4B870B506462A4900EBF0
:10555000860001EB4004304600F062F80028207815
:1055600006EB46034FF005014FF0000531D005284A
:1055700001D2217070BD0A2802D2401C207070BD7B
:10558000A07906EB4606761C20B90120A071F0B286
:1055900000F070F8A1880029F1D06088884208D214
:1055A000401C89B280B260808842E8D1DB1CD8B24E
:1055B0000BE0E0790028E2D0207AE179401CC0B20B
:1055C00020728842DBD32572F0B2BDE8704000F053
:1055D00051B8052801D921700BE010B1401E207090
:1055E00007E0A079012804D19B1CA571D8B200F076
:1055F00041F86580257270BDB80100200749887A9E
:10560000CA7A904201D100207047421C085CD2B295
:105610008A720A2AF8D300228A727047C2010020D7
:10562000F0B510BB124C0022FF231146D4F8004005
:1056300001EB410504EB850654F82570D6F804C04B
:105640003D6915EA0C0500D00125367AAE4202D13B
:10565000521C0B46D2B2491C11F0FF01E8D0012ABE
:1056600003D1834201D10120F0BD0020F0BD000034
:10567000300000200549CA7A8854C87A401CC0B25C
:10568000C8720A2801D30020C8727047C2010020E6
:1056900010B500242046FFF757FF641C14F0FF04E8
:1056A000F8D010BDFEE70000F0B5026A214B204F94
:1056B00022F0010298420262036A4468826923F080
:1056C0000203D1F810C0D1E9005643EA0C0322F0DE
:1056D000030202EA070223F0010342EA050243EA59
:1056E00006030BD0144DA84208D0144DA84205D093
:1056F000134DA84202D0134DA84212D1D1E905564C
:1057000023F0080724F4807347EA85048F68CD6985
:10571000334324F0040423F4007644EA870346EA82
:10572000450444608261C968416303620020F0BDA2
:105730008FFFFEFF000001400004014000400140D7
:105740000044014000480140F0B5026A224B214D5F
:1057500022F0100298420262046A4268836924F0CF
:105760002004D1F810C0D1E9006723F4407344EA63
:105770000C1403EA050324F0100543EA062445EA65
:1057800007130BD0154DA84208D0154DA84205D0DF
:10579000144DA84202D0144DA84213D1D1E90557A7
:1057A00023F0800622F4806346EA85128E68CD6974
:1057B00043EA870322F0400223F4006742EA86139B
:1057C00047EAC50242608461C968816303620020C0
:1057D000F0BD0000FF8FFFFE00000140000401400B
:1057E000004001400044014000480140F0B5026A19
:1057F000224B214F22F4807298420262026A43686F
:10580000C46922F40072D1F810C0D1E9005624F026
:10581000030442EA0C2204EA070422F4807244EAF8
:10582000050442EA06220BD0154DA84208D0154DBA
:10583000A84205D0144DA84202D0144DA84213D15D
:10584000D1E9055722F400628E6823F4805342EABE
:105850008522CD6943EA071322F4806223F40053C2
:1058600042EA862243EA45134360C461C968C163C2
:1058700002620020F0BD00008FFFFEFF000001402B
:105880000004014000400140004401400048014044
:105890000148FEF7BBB80000C41001202DE9F0411B
:1058A0000446C0680D462027236801284FF40046AF
:1058B00004F2C44203EB4511D3F840C0D1F8080B01
:1058C00009D0DFF89CE0F4453AD1020433D500BF9B
:1058D000C1F8086B40E0234B5FEA007E04D59C458D
:1058E0003AD90004F4D437E05FEA806E02D5C1F8FB
:1058F000087B31E010F0280F2ED19C4501D900041F
:10590000E6D4D1F8101B05EBC50004EB8000C1F311
:105910001201D0F89C32A3EB0101C0F8901200F5FF
:105920001F70ADB903691BB1C2681144C1600FE0BB
:10593000206801210AE080060AD5C1F8087B07E04B
:1059400035B9D4F88C0218B90021184600F08AFF46
:105950002046E9B2FDF770FF0020BDE8F0810000AD
:105960000A31544F0A30544F2DE9F84F0E4605685E
:10597000814601EBC60100EB8104D4E913203C34DD
:10598000904202D90120BDE8F88FA168101A814227
:1059900000D20846C01C05EB461887081BE000BF74
:1059A000A268A0EB010A524500D2924699F80C1069
:1059B0000AF1030000911FFA8AF3E168870828467C
:1059C000F2B201F041FAE16801EB0A00E0606169BE
:1059D00001EB0A006061D8F8180980B2B84205D31B
:1059E000D4E90401814201D20028D9D1D4E90401CB
:1059F000884208D8D5F83418012006F00F029040EC
:105A00008143C5F834180020BDE700000449096847
:105A1000044A01F00F01515C01F01F01C8407047BA
:105A200018440258488B000805490968054A01F0E6
:105A300070010909515C01F01F01C8407047000066
:105A40001C440258488B000805490968054A01F4BE
:105A5000E061090A515C01F01F01C8407047000075
:105A60001C440258488B00080D480EB50168002000
:105A700011F038010AD008290ED010290ED01829AB
:105A800003D16846FEF742FF00980EBDFFF740F9CC
:105A9000C1080448C8400EBD03480EBD03480EBDF2
:105AA000104402580090D00300093D0040787D0169
:105AB00038B54FF00050FEF753FD0E4C20688000C3
:105AC000FCD54FF08040FEF74BFD20684000FCD530
:105AD0004FF00040FEF744FD20680028FCDA05483E
