:020000040800F2
:10000000A85C012009050008814A0008C3390008DE
:10001000F3450008552A00080151000800000000BF
:10002000000000000000000000000000BD03000808
:10003000C12A00080000000019040008D34D000880
:1000400023050008230500082305000823050008F0
:100050002305000823050008F10400082305000813
:10006000230500082305000823050008592A000875
:1000700023050008230500082305000823050008C0
:1000800023050008230500082305000823050008B0
:1000900023050008230500082305000823050008A0
:1000A0002305000823050008230500082305000890
:1000B0002305000823050008230500082305000880
:1000C0002305000823050008230500082305000870
:1000D0002305000823050008230500082305000860
:1000E0002305000823050008000000002305000880
:1000F0002305000823050008230500082305000840
:10010000230500082305000823050008230500082F
:1001100023050008230500083150000823050008C6
:10012000230500082305000823050008230500080F
:1001300023050008230500082305000823050008FF
:1001400000000000000000000000000000000000AF
:1001500023050008230500082305000823050008DF
:1001600023050008230500082305000823050008CF
:1001700023050008230500082305000800000000EF
:1001800023050008230500082305000823050008AF
:10019000230500082305000823050008230500089F
:1001A000230500082305000823050008230500088F
:1001B000230500082305000823050008230500087F
:1001C000230500082305000823050008230500086F
:1001D000230500082305000823050008230500085F
:1001E000230500082305000823050008230500084F
:1001F000230500082305000823050008230500083F
:10020000230500082305000823050008230500082E
:10021000230500082305000823050008230500081E
:10022000230500082305000823050008000000003E
:10023000230500082305000800000000230500082E
:1002400023050008230500082305000823050008EE
:1002500023050008230500082305000823050008DE
:1002600023050008230500082305000823050008CE
:1002700023050008230500082305000800000000EE
:1002800023050008230500082305000800000000DE
:10029000000000002305000800F002F800F07FF8DD
:1002A0000AA090E8000C82448344AAF10107DA45D1
:1002B00001D100F074F8AFF2090EBAE80F0013F0A4
:1002C000010F18BFFB1A43F001031847D06F00005D
:1002D000007000000A444FF0000C10F8013B13F0CE
:1002E000070408BF10F8014B1D1108BF10F8015B8F
:1002F000641E05D010F8016B641E01F8016BF9D182
:1003000013F0080F1EBF10F8014BAD1C0C1B09D1D8
:100310006D1E58BF01F801CBFAD505E014F8016B4A
:1003200001F8016B6D1EF9D59142D6D370470000DC
:10033000103A24BF78C878C1FAD8520724BF30C811
:1003400030C144BF04680C607047000000230024E3
:1003500000250026103A28BF78C1FBD8520728BFD5
:1003600030C148BF0B607047662906F0CE8600207A
:1003700070471FB506F0C4FE9DE8030000F0AEFF15
:1003800000F0BCFC04000020002106F0A3FEE060A9
:1003900000F0CCFD1FBD10B500F031FE10BD00F027
:1003A00065FE1146FFF7E5FF04F0E1FF00F06AFF8C
:1003B00003B4FFF7F0FF03BC01F002F92C4B1968FE
:1003C0000868B0E8F04F80F30988BFF36F8F4FF0F3
:1003D000000080F3118870470000000008480068A2
:1003E000006880F308884FF0000080F3148862B63C
:1003F00061B6BFF34F8FBFF36F8F00DF00BF00BF49
:1004000008ED00E0DFF80C00016841F470010160C4
:10041000704700BF88ED00E0EFF30980BFF36F8FF6
:10042000134B1A681EF0100F08BF20ED108A20E948
:10043000F04F106009B44FF0500080F31188BFF303
:100440004F8FBFF36F8F05F02DFF4FF0000080F34B
:10045000118809BC19680868B0E8F04F1EF0100F49
:1004600008BFB0EC108A80F30988BFF36F8F704724
:1004700084000020EFF30580704700000246D2E8B8
:100480004F0F411CC2E8431F03B1F8E77047024613
:1004900052E8000F411C42E8001303B1F8E770472F
:1004A000024652E8000F42E8001303B1F9E7704733
:1004B000024652E8000F830103D3BFF32F8F0020C1
:1004C000704700F00040084342E8000303B1F0E742
:1004D0007047024652E8000F800103D2BFF32F8F0E
:1004E0000020704742E8001303B1F3E70120704792
:1004F0004FF0B0410120D1F88820904302D1012073
:10050000C1F8880070470000094880470948004743
:10051000FEE7FEE7FEE7FEE7FEE7FEE7FEE7FEE7B3
:10052000FEE7FEE704480549054A064B7047000010
:10053000554F000899020008A8500120A85C01202E
:10054000A8540120A85401200FB4044910B503AAEF
:10055000029800F09FFB10BC5DF814FBF40E012024
:1005600070B5044685690068C10601D5302600E0F3
:100570002026C00707D070BDD4E90121304690473E
:10058000206A401C20626D1EF6D570BD70B5044611
:1005900085690078C00707D170BDD4E9012120200A
:1005A0009047206A401C20626D1EF6D570BD2DE973
:1005B000F0474FF0000A89460446C0F820A02046C4
:1005C000E1688847002876D0252806D0D4E90121A3
:1005D0009047206A401C2062F1E7E1682046002530
:1005E0008847C4F81CA006460027C4F818A02A2E85
:1005F00009D0304604F028FE38B304EB8708303EBB
:10060000C8F8186019E059F8041B204604EB87026B
:100610009161E1688847012F064618D1E0690028FA
:1006200020DA25F020051DE0D8F8180000EB800046
:1006300006EB40003038C8F818002046E1688847CB
:10064000064604F001FE0028EED1012F0AD02E2E1E
:1006500008D12046E16888477F1C0646022F45F0F6
:100660002005C4DBA069002803DA404245F00105FB
:10067000A061E80701D025F01005B6B1A6F1410050
:10068000192802D8203645F400654A4631462046EE
:1006900025604D46FFF768FE58B1012806D0ED1DD4
:1006A00025F0070000F1080989E704E005F10409D5
:1006B00085E730468AE7206ABDE8F087032A40F2E2
:1006C000308010F0030C00F0158011F8013BBCF1F4
:1006D000020F624498BF11F801CB00F8013B38BF0C
:1006E00011F8013BA2F1040298BF00F801CB38BF1A
:1006F00000F8013B11F0030300F02580083AC0F038
:10070000088051F8043B083A51F804CBA0E80810DF
:10071000F5E7121D5CBF51F8043B40F8043BAFF312
:100720000080D20724BF11F8013B11F801CB48BF6C
:1007300011F8012B24BF00F8013B00F801CB48BFA2
:1007400000F8012B704710B5203AC0F00B80B1E8DB
:100750001850203AA0E81850B1E81850A0E81850F6
:10076000BFF4F5AF5FEA027C24BFB1E81850A0E8FF
:10077000185044BF18C918C0BDE810405FEA827C19
:1007800024BF51F8043B40F8043B08BF7047D20730
:1007900028BF31F8023B48BF11F8012B28BF20F8D1
:1007A000023B48BF00F8012B704702F0FF0343EA09
:1007B000032242EA024200F081BA4FF0000200B583
:1007C000134694469646203922BFA0E80C50A0E874
:1007D0000C50B1F12001BFF4F7AF090728BFA0E822
:1007E0000C5048BF0CC05DF804EB890028BF40F8EE
:1007F000042B08BF704748BF20F8022B11F0804F30
:1008000018BF00F8012B70474FF0013C50F8042B43
:1008100051F8043B9A4215D1A2EB0C03934313EA1F
:10082000CC130BD150F8042B51F8043B9A4209D158
:10083000A2EB0C03934313EACC13E7D04FF0000074
:10084000704700BFD01A01BAB1FA81F101F0180166
:1008500022FA01F0CB40C1F12001DBB2C0B2C01AD4
:100860002CFA01F3D11A914311EAC311E6D1704772
:1008700070477047704770472DE9FF4F0C461E4682
:100880004FF0FF378BB0D2E90001DDF860800A90AD
:100890008A46C1F30A5505B93D46002108464FF086
:1008A0000000BAF1000F00F4400005DA00EB800010
:1008B0004FF4400101EA50004FEA9059B9F1010F9D
:1008C00000DDB9460A9850EA4A000ED044F61050AE
:1008D000A5F2FF3545432F14B8F1000F1ED0754225
:1008E000291E1EDDC9F100021CE0B8F1010F4FF016
:1008F000000001D0302103E0F24305E02154401C08
:10090000B042FBDB30460022002121540B99C1F894
:100910000880C1E900200FB0BDE8F08FBD1B6D1C41
:10092000DEE74A4600DA694206A800F089FA06AB1B
:1009300093E8070003AB83E8070050460A9900F0EC
:10094000DBFE8DE80700A0F500501F3800900398EB
:10095000002D0ADD42F21F014A460844002303A984
:100960000390684601F044F909E0A0F500504A46BA
:100970001F38002303A90390684601F04EF98DE863
:1009800007000004000C03D04FF0FF30410800E0E6
:100990001046B8F1000F03D00022009215461EE069
:1009A000751E05D400F0AEF9303262556D1EF9D5D2
:1009B000B3460122084302D000227F1C04E02078C5
:1009C000302801D100227F1E002A099784D01DE023
:1009D000112D07DA00F096F9303262556D1C50EA9D
:1009E0000102F5D1084302D00098C8B10EE0002101
:1009F000681E05E0235C625C63542254401E491C5F
:100A00008142F7DBAB46A81B401E0990002004F88A
:100A10000B000B98099AC0F80880C0E9002B7AE710
:100A200011264FF0000857E72DE9F04F884604469D
:100A3000D21D22F0070191B0D1E90001CDE90A01F0
:100A400004F05FFB02460B98C00F01D02D2007E099
:100A50002068810701D52B2002E0202101EAC00097
:100A6000032A099001D0072A05DB034641462046A8
:100A700000F0A6F90BE12078800601D5E06900E0DE
:100A80000620B8F1650F814606D0B8F1660F18D080
:100A9000B8F1670F70D131E00020B9F1110F00906B
:100AA00001DB112301E009F101030AAA01A90CA845
:100AB000FFF7E2FEDDE90C70002609F1010583462F
:100AC00047E001204B4600904FF000470AAA01A9D9
:100AD0000CA8FFF7D1FEDDE90DB00C995D460026AC
:100AE00010B909F101000D18B9EB050003D4C0F1EC
:100AF000FF3609F10105A5EB09002BE0B9F1010F63
:100B000001DA4FF001090020B9F1110F00904846B9
:100B100001DD112300E003460AAA01A90CA8FFF792
:100B2000ABFEDDE90C704D460026834620780007B9
:100B30000AD4AB4500DA5D4601A8012D04DD411958
:100B400011F8011C302907D04F4502DA17F1040FC4
:100B500004DA012082460FE06D1EEEE7002F02DC72
:100B6000ED1B3E4403E0781CA84200DD7D1CB81B51
:100B700000F1010A4FF000472078000703D4AA458E
:100B800001DB4FF0FF3A0021B7F1004F0DF14308B0
:100B90008DF8431024D002202B23002F01DA7F424E
:100BA0002D230A21021EA0F1010000DC5FB197FB9A
:100BB000F1FC97FBF1F201FB1C7C17460CF1300CA9
:100BC00008F801CDEEE7A8F10100037021880905BE
:100BD00001D5452100E06521A0F1010800F8011CC4
:100BE00009980FA9A1EB0807FF1D00B101204119C9
:100BF00001EBEA70A1693844081A401EA061207810
:100C0000C00602D42046FFF7ABFC099828B1D4E90E
:100C100001219047206A401C20622078C00622D51E
:100C20002046FFF79DFC1EE0002E04DBB34502DDED
:100C300001A8805D00E03020D4E901219047206ABE
:100C4000401C2062761CAAF101005FEA000A0AD16A
:100C500000F054F8C0680168405CD4E90121904775
:100C6000206A401C2062281EA5F10105DCDC07E09B
:100C7000D4E9012118F8010B9047206A401C20623A
:100C8000381EA7F10107F3DC2046FFF77FFC0320A5
:100C900011B041E6074B70B50D467B4400F07DF87E
:100CA0000446284600F03EF910B14FF0FF3070BD09
:100CB000204670BDC34600004FF000020429C0F07A
:100CC000128010F0030C3FF47AADCCF1040CBCF1AF
:100CD000020F18BF00F8012BA8BF20F8022BA1EBD0
:100CE0000C01FFF76CBD5FEAC17C24BF00F8012B4B
:100CF00000F8012B48BF00F8012B704700487047EF
:100D0000BC0F012030B5B0F10A024FEA900E71F12C
:100D100000034EEA817EB0EB0E0061EB91014FEAD9
:100D2000101E4EEA017E10EB0E0041EB11114FEA4E
:100D3000102E4EEA016E10EB0E0041EB11214FEA2E
:100D4000104E4EEA014E10EB0E0041EB11414018DF
:100D500041F100014FEAD00040EA41704FEAD10171
:100D600010EB80054FEA810444EA907444EB0104DF
:100D70006D1944EB0404521BA3414FF0000348BF1C
:100D80000A3200D530BD401C41F1000130BD0000E9
:100D900001694A1C02610878704700B58FB0CDE93F
:100DA00001310021059105497944CDE9031011462F
:100DB0006846FFF7FCFB0FB000BD0000E5FFFFFF3A
:100DC0002DE9F0411F46044603260168072A01F475
:100DD000006004DB08B116A505E016A503E008B124
:100DE00015A500E015A521F010002060A069C01E27
:100DF000A0610FB1401EA0612046FFF7B1FB4FB1CB
:100E0000D4E9012138469047206A401C2062C01C6A
:100E1000206206E0206AFAE7D4E9012115F8010B07
:100E20009047761EF8D22046FFF7B0FBBDE8F08170
:100E30004E414E006E616E00494E4600696E66007E
:100E40002DE9F047814616468AB0354878440DC8EA
:100E50008DE80D0032487844801C03AC0DC884E84E
:100E60000D0041F69B300844372190FBF1F290FBD6
:100E7000F1F5A5F1800501FB12041B3C02D564428B
:100E8000012000E00020DFF898A080460027FA4407
:100E9000AAF1BE0A0EE0E0070AD03246684607EB28
:100EA000470101230AEB810100F0B7FE8DE807003E
:100EB00064107F1C002CEED1194F7F44AE3F19E027
:100EC000E80715D007EB04100DF1180A90E80E00A2
:100ED0008AE80E00C068F04201D1981908903246A5
:100EE000012306A903A800F098FE03AB83E80700DE
:100EF0006D10641C002DE3D14FF0010332466946AA
:100F0000B8F1000F03A802D000F072FE01E000F07B
:100F100084FEC9E90001C9F808200AB0BDE8F087DD
:100F200034640000007B00F08000704710B5424838
:100F30005421FFF742FC41485421FFF73EFC404852
:100F40005421FFF73AFC3F493B483C4A3F4B08607D
:100F50003D490A603A491960531C0365481C1065F5
:100F6000012008653B48344A39A1784400F0EEF886
:100F700020B9384878440A3800F08DF937482F4AAC
:100F800035A1784400F0E2F820B9344878440A38B2
:100F900000F081F932482A4A2FA1784400F0D6F8AF
:100FA00020B92F4878440A3800F075F940232248C8
:100FB000DC000021224600F0A5F820B12548784445
:100FC000543800F068F91D4822464023002100F003
:100FD00099F820B121487844543800F05CF9184859
:100FE00022461023002100F08DF8002806D01C486E
:100FF0007844BDE81040563800F04DB910BD104897
:1010000070B5006D20F001040B4800F015F90B4895
:1010100000F012F90A4800F00FF909E0206D20F005
:101020000105204600F008F9204600F044F82C465F
:10103000002CF3D170BD0000A00E0120F40E0120A1
:10104000480F012010010020140100201801002089
:1010500072000000826200007700000071620000F0
:1010600061620000004870479C0F01207546FFF741
:10107000F9FFAE4605006946534620F00700854655
:1010800018B020B5FFF74EFABDE820404FF000063B
:101090004FF000074FF000084FF0000B21F0070160
:1010A000AC46ACE8C009ACE8C009ACE8C009ACE8A3
:1010B000C0098D46704770B50446051F00F0F2F870
:1010C0000068002C14BF446870BD002C18BFAC42EF
:1010D0003CBF20466468F8D301680A18AA4218BFCA
:1010E000456003D12A68054611440160286841190A
:1010F000A1421CBF6C6070BD6168696021680844D2
:10110000286070BD70B5C468A50713D0650211D4FE
:10111000B2F5807F09D0B2F5007F06D0B2F5806FBE
:1011200008D1012300F1240106E05D1E6FF07F4627
:10113000B54201D3012070BD0161C361416024F457
:1011400070611143C160002070BD00002DE9F041C5
:101150000C4607461646104600F06EF82078611CD3
:1011600061280AD0722802D077283CD102E00125FC
:10117000002405E00225042402E0082448F20205C8
:1011800011F8010B2B2806D0622809D011F8010CA8
:1011900074280AD00BE045F0030544F00204EFE7A1
:1011A00045F0040544F00104EAE744F01004384631
:1011B000214604F06FF8411C15D0002131617160A7
:1011C0004FF40071F560F1617061200704D530467D
:1011D0000222002100F0E0F8306D40F0010030659F
:1011E0003046BDE8F0810020FBE72DE9F0410D46D7
:1011F0000646104C206DC10704D0410804D020F0F1
:101200000104F7E722460EE0542000F096F80700AC
:101210000ED0206D47F00101084354212065384667
:10122000FFF7CBFA3A4629463046BDE8F0418DE754
:101230000020D6E7A00E01202DE9F04704464FF02C
:1012400000094FF0FF37C568D4E90486A80707D026
:10125000204600F051F9304603F0FDFF002802DA85
:101260003846BDE8F087280502D54046FFF723FF42
:101270004C212046FFF7A1FA206D20F001002065E7
:101280004846EEE710B50446AFF300802046BDE8BF
:101290001040FFF78DB810B500F078F9BDE81040A8
:1012A00000F06EB900487047A40F012070477047E6
:1012B0007047704738B504460A4600206946AFF3C8
:1012C0000080002808BF38BD02460099204600F083
:1012D00084F9012038BD012000F0D3B9F8B5AFF38F
:1012E0000080054600200C46102000BF0646A819C5
:1012F000A0420DD9324669460020AFF300800700B6
:1013000008BF00F0BEF90098A04218BF0546C419F6
:10131000FFF7C8FF05600746F01D20F007004619DB
:10132000284600F053F9B44208BFF8BDA21B31466D
:101330003868BDE8F84000F050B970B50646FFF7D0
:10134000B1FF056806F10B0020F00704B4429CBF12
:10135000002070BD2B466A68BAB11068A04210D355
:1013600004F1080188423CBF5068586007D35168B7
:10137000101941601168091B016058601460101D4C
:1013800070BD13465268002AE7D121462846FFF770
:1013900091FF0028DED170BD2DE9F04104461646CC
:1013A0000D464769007B80072ED0384603F065FF65
:1013B00050BB3EB3012E02D0022E25D104E02046C0
:1013C00000F025F905441DE0384603F050FFE168C0
:1013D000002841F01001E16005DA204600F058F8DD
:1013E0000120BDE8F081C9030BD56268E16A914232
:1013F00000D81146A26911442269891A814200DD90
:1014000008460544002D01DA0220EAE7E16A606837
:10141000E268814206D29103E06203D522F40031F2
:1014200041F01002A6690027AE4213DCE16A814256
:1014300001D90B4600E0034603EB060C2369ACEB35
:10144000030CAC4506DD814201D98C4600E08446A0
:101450009C4505D1A760276042F02000A5620DE001
:10146000AD1BE669AE1B8142A66000D90846C01AD2
:10147000281A20605819606022F0200003490840B3
:10148000E060002084F84870ABE70000BFCFD7FFD2
:10149000C16821F4001141F08001C1600021816028
:1014A000016070472DE9F047814614460E464FF023
:1014B000FF383248D5685769054209D03846A169D6
:1014C00003F016FF002811DB2C48C0430540E560FF
:1014D0002B4632464946384603F010FFA16920F0FA
:1014E0000042B21A11440028A16103D02046FFF740
:1014F000CFFF4046BDE8F08770B504460569C06A75
:101500006168884200D80846E16821F42011E16052
:10151000C90312D5A84208D02246411B2846FFF72E
:10152000C1FF10B14FF0FF3070BD0020E562C4E98B
:101530000150E06820F48030E060002070BD10B5FC
:101540000446C06820F02000E060A16AA0698842DB
:101550000DD02046FFF7D0FFE06820F4405040F067
:101560001000E060A06AA0612069E062606044F25F
:101570004001E0688843E06010BD000010000200F8
:10158000002801D000F01CB87047000010B50146DB
:1015900002A000F05DF8012010BD00005349475241
:1015A000545245443A2052656469726563743A2026
:1015B00063616E2774206F70656E3A200000000032
:1015C00001491820ABBEFEE72600020000210160A1
:1015D000C0E90110704710207047034640688C46F0
:1015E000002818BF88423CBF03464068F8D31868FB
:1015F0001844884207D00CF1030020F00700001DBA
:10160000411A521A0146081D0A60FFF754BD10B571
:101610000146C268900703D0900607D5886A0AE0A1
:1016200000F03EF801210160881E10BD8B694868FA
:1016300018440B69C01A91F848301BB191F8491051
:10164000401A10BD1103FCD50028FADD401E10BD64
:1016500070B505460C460A2000E06D1C00F018F835
:1016600035B128780028F8D102E0641C00F010F8A9
:1016700014B120780028F8D1BDE870400A2000F0AD
:1016800007B810B500F010F8BDE81040FFF778BFBC
:1016900008B569468DF800000320ABBE08BD704751
:1016A000004870479C0F012010B5012805D000218B
:1016B00003A0FFF7CDFF012010BD09A1F8E700004E
:1016C00053494752544D454D3A204F7574206F662B
:1016D0002068656170206D656D6F72790000000093
:1016E0003A2048656170206D656D6F727920636F77
:1016F00072727570746564005FEA400C08BF91F007
:10170000000F4FEA8C234FEAC12243EA51514FEABE
:101710001C5018BF00F5F0404FEA300018BF41F0F0
:1017200000415FEA6C5C00F02980BCF1FF3F08BF1C
:1017300040F080407047130C06BF12044FF0100CAD
:101740004FF0000C130E04BF12020CF1080C130F23
:1017500004BF12010CF1040C930F04BF92000CF1B2
:10176000020CD30F04BF52000CF1010C11464FF0D4
:101770000002A0F11F00A0EB0C00704711F0004F19
:1017800008BF704731F000413FF4D5AF0B0C06BFE6
:1017900009044FF0100C4FF0000C0B0E04BF0902AF
:1017A0000CF1080C0B0F04BF09010CF1040C8B0F9A
:1017B00004BF89000CF1020CCB0F04BF49000CF1EF
:1017C000010CCCF12003A0EB0C0022FA03F302FA87
:1017D0000CF241EA030100F10100704720F07F4C58
:1017E00080EA030023F07F47ACEB070303F57C534B
:1017F00000F0004003F1FF032DE980494FEA154B4B
:1018000009B44FEA144325EA0B4E24EA03480FF2C9
:10181000042606EB132749083E785FEA320203FBF1
:101820000667C7F5000707FB06F64FEA54374FEA8D
:10183000D64606F1020607FB066CCCF1005C4FEAC7
:101840001C472CEA074C07FB06F40CFB06F504EBDF
:1018500015464FEA961634BF00204FF000404FEA7D
:10186000D13706FB07FC4FEA1C4C0CFB0BF7D21BD5
:1018700003FB0CF761EB07010CFB0EF7B0EB074025
:1018800072EB17420CFB08F734BFA2EB0742B2EB36
:10189000074261EB17414FEA0C444FEA910706FB00
:1018A00007FC4FEA1C4C0CFB0BF7B0EBC74072EB8C
:1018B000573203FB0CF734BFA2EBC742B2EBC7426F
:1018C00061EB57310CFB0EF7B0EBC70072EB5772B0
:1018D0000CFB08F734BFA2EBC702B2EBC70261EB07
:1018E0005771039F4FEA816141EA921104EBCC04E6
:1018F0004FEAD1374FEA826206FB07FC42EA9012B8
:101900004FEA80604FEA1C4C0CFB0BF7D21B03FB29
:101910000CF761EB07010CFB0EF7B0EB074072EB25
:1019200017420CFB08F734BFA2EB0742B2EB0742A9
:1019300061EB17414FEA8C554FEA910704EB9C2469
:1019400006FB07FC4FEA1C4C0CFB0BF7B0EBC74047
:1019500072EB573203FB0CF734BFA2EBC742B2EB7A
:10196000C74261EB57310CFB0EF7B0EBC70072EBCF
:1019700057720CFB08F734BFA2EBC702B2EBC702E9
:1019800061EB577115EB4C254FEA816141EA9211E9
:101990004FEA82624FEAD13742EA901206FB07FC17
:1019A00044F100044FEA80604FEA1C4C0CFB0BF73B
:1019B000D21B03FB0CF761EB07010CFB0EF7B0EB3E
:1019C000074072EB17420CFB08F734BFA2EB07424B
:1019D000B2EB074261EB174115EB1C154FEA813161
:1019E00041EA92414FEA823242EA90424FEA803025
:1019F0004FEA0C7644F1000448EA03434EEA0B48F0
:101A00004FF0000EB2EB080C71EB030724BF6246E7
:101A100039464EEB0E0E4FF0000B00185241494173
:101A20004BEB0B0BB2EB080C71EB03077BF1000BDC
:101A300024BF624639464EEB0E0E4FF0000B0018E5
:101A4000524149414BEB0B0BB2EB080C71EB030716
:101A50007BF1000B24BF624639464EEB0E0E51EA75
:101A6000020718BF46F0010616EB0E7655F100028C
:101A700054F1000103D5BDE88901BDE80088BDE847
:101A80008901BDE80048B619524141EB0101A3F1BB
:101A90000103704780807F7E7D7C7B7A79787776C2
:101AA00076757473727171706F6E6E6D6C6C6B6A3B
:101AB0006A696868676666656464636362616160D9
:101AC000605F5F5E5E5D5D5C5C5B5B5A5A59595856
:101AD00058575756565555555454535352525251C0
:101AE000515050504F4F4F4E4E4D4D4D4C4C4C4B16
:101AF0004B4B4A4A4A49494948484847474747465D
:101B00004646454545444444444343434342424298
:101B100042414141002B9C4630D477002BD01CB56C
:101B20004FEA370703B44FF010004FF01001BAF13D
:101B3000000F06D0BCF1000FDCBF40F0080040F001
:101B400008014FF000000FBCBDE810400BF1010B85
:101B5000BBF1010F08BF5FEA170722BF12F10102B4
:101B600011F101014FF0004143F1000300F000408A
:101B700043EA00007047F9D35708D0E746EA064623
:101B800013F1400F4FEA16461FDD13F1200FDFBFA0
:101B900016430A46002120335B42BED0C3F1200722
:101BA00046EA064602FA07F74FEA164646EA0706ED
:101BB000C3F1200722FA03F201FA07F721FA03F131
:101BC0004FF0000342EA0702A7E746EA020646EAA8
:101BD00006464FEA164646EA0106BCBF46EA0646F6
:101BE000360C4FF000034FF000024FF0000194E775
:101BF0002DE9804C9A46934670B491E8380007C8A6
:101C000031EA400C48BF34EA430C03D5FFF7E6FD48
:101C1000FFF780FFF0BCBDE8008C2DE9804C9A46B0
:101C2000934670B491E8380007C810F0804F08BFA1
:101C300013F0804F03D100F005F8FFF76BFFF0BC05
:101C4000BDE8008C20F07F4780EA030023F07F4C42
:101C500007EB0C03A3F57C5300F00040A3F1FE0357
:101C600092F0000F00F0B38095F0000F00F0778045
:101C70002DE901494FEA11404FEA144621EA004894
:101C800000FB06FC24EA064708FB06F607FB08F8FB
:101C900000FB07F718EB06484CEB164C4FEA124BCB
:101CA00018EB07484FEA15464CEB174022EA0B4E5B
:101CB0000BFB06FC25EA06470EFB06F607FB0EFEAD
:101CC0000BFB07F71EEB064E4CEB164C4FF00006D5
:101CD0001EEB074E4CEB174B18EB0B0840F10000C6
:101CE00018EB0E0B58EB000840F100008F1A4FF074
:101CF00000013CBFC943661B14BFB5EB040C0021B7
:101D00003CBFC943F61B4FEA17444EEA8E0E27EA42
:101D100004454FEA1C4704FB07622CEA074C05FB0D
:101D200007F70CFB05F604FB0CFC16EB074642EB31
:101D3000174216EB0C4642EB1C421BEB060658EB17
:101D40000202414146EA9E0601D5BDE80189B61965
:101D5000524141EB0101A3F10103BDE801894FEAC2
:101D600014454FEA114724EA054621EA074C05FBD2
:101D700007F406FB07F70CFB06F105FB0CFC11EB67
:101D8000074144EB17444FEA124711EB0C4144EB77
:101D90001C4422EA074C05FB07F206FB07F70CFB85
:101DA00006F605FB0CFC16EB074642EB174216EB5A
:101DB0000C4642EB1C456A1854F1000148BF7047BD
:101DC000B619524141EB0101A3F10103704795F0AF
:101DD000000F37D04FEA11424FEA144721EA02467A
:101DE00024EA074C02FB07F106FB07F70CFB06F49D
:101DF00002FB0CFC14EB074441EB17414FEA15477B
:101E000014EB0C4441EB1C4125EA074C02FB07F59F
:101E100006FB07F70CFB06F602FB0CFC16EB07466D
:101E200045EB174516EB0C4645EB1C42121951F1D8
:101E3000000148BF7047B619524141EB0101A3F1BF
:101E4000010370474FEA14454FEA114724EA05465B
:101E500021EA074C05FB07F106FB07F70CFB06F22E
:101E60004FF0000605FB0CFC12EB074241EB17415B
:101E700012EB0C4251EB1C4148BF7047921841EBEA
:101E80000101A3F10103704794B044F620640649B0
:101E900050226846FEF757FC0120694602F05CFFBD
:101EA000204604F0A9F8F2E78871000801210F200C
:101EB00010B500F035FF00F0BBFF03F05FFA00F053
:101EC0004BF8BDE8104003F06DBA000002F084FD4D
:101ED00068B1012804D0022804D0032807D103E008
:101EE00005A002E007A000E008A0FEF72DFB3220CD
:101EF00004F082F8EAE700004B315F446F776D0D24
:101F00000A0000004B315F55700D0A004B315F4CE9
:101F10006F6E670D0A000000084D4FF400544FF437
:101F2000FA76696924EA010001F4005140EA0140AF
:101F3000A861304604F060F8F3E70000000802589A
:101F400008B504F0CBFE009002F0EAFC0A216846D6
:101F500004F07AF8F8E700007CB5012004F08EFA6E
:101F6000244D012100232A46A861CDE9001227480B
:101F7000802221A104F03EFE281D02240023E60158
:101F8000CDE90040274822A1324604F033FE05F196
:101F900008003246002324A1CDE90040264804F081
:101FA00029FE05F10C01324603200023CDE9000192
:101FB000284822A104F01EFE05F11000324600233D
:101FC00025A1CDE900402A4804F014FE05F11400D3
:101FD0003246002327A1CDE900402D4804F00AFE37
:101FE000A86902B000231A461946BDE8704004F003
:101FF000F3BA00005C0000204170705F4C4544540F
:102000006F67676C655F5461736B0000191F000890
:102010004170705F52756E31306D735F5461736BD8
:1020200000000000411F00084170705F4B6579544B
:102030006573745461736B00CD1E00084170705F4E
:1020400057617665436F6C6C656374696F6E54613C
:10205000736B0000E92000084170705F566F666185
:102060004461746155706C6F61645461736B0000FE
:10207000952000084170705F496E63656E746976E3
:102080006553657474696E67735461736B00000007
:10209000891E000808B5114E00204FF400754FF05E
:1020A000FF3700903A466946306804F0FDFB01288E
:1020B000F8D10024009800EBC40090ED000A08A0BD
:1020C000B7EEC00A53EC102BFEF73EFA0A2003F0DD
:1020D00093FF641CA4B2AC42ECD3E3E78000002081
:1020E00025342E33660D0A000021022008B504F0C5
:1020F000A7F92A4C002204216060022004F0CAF9EA
:10210000A0606168E9B3E0B39FED250B02F0EAFA45
:1021100000F0B8FB4FF480652348294600F0EEF844
:102120004FF0FF366068314604F062FC0128F9D1B7
:10213000607838B31D4A607868B31D4B00209FED6E
:102140001D1AF1EE040A009332F9101000EE101A75
:1021500003EB8001401CB8EEC00A80B2A84220EE1A
:10216000010A20EE200A81ED000AEDD30023A068C9
:102170001A46694604F030FA6078C0F101006070D8
:10218000D0E700E005E04FF47A74204603F034FF16
:10219000FBE7054ACFE7084BD0E7000078000020B6
:1021A000000000000000594000000030000800302E
:1021B000002000300000003800100030494838B5D9
:1021C000016841F0010101600068474D00F0010025
:1021D0000090D5F8000820F0FF0040F00100C5F89D
:1021E0000008424C2078C1B2285820F0C000685046
:1021F0002078C1B2285840F4403068500022284668
:10220000114601F00FFC2078C1B2285820F400706C
:1022100068502078C1B2285840F480606850207817
:10222000C1B2285820F4C05040F4006068502178B2
:10223000C8B2695821F4C04141F4005129502A48DC
:1022400022781430D1B2125842F004020A50217898
:10225000CAB2095841F0030111502078C1B2285880
:1022600020F0C07068502078C1B2285820F4C00017
:1022700068501F48D0F8001121F01F0141F00601FD
:10228000C0F80011D0F8001121F4C02141F48021E0
:10229000C0F80011D0F8001121F4780141F40021B8
:1022A000C0F80011D0F8001141F48031C0F80011DD
:1022B00010480068C0F30220C0F10702042A00D9C8
:1022C0000422011D072901D2002000E0C01E0121C7
:1022D0009140491E084A01F005018140080182F839
:1022E000000438BDD8440258000002407E71000846
:1022F000000802400CED00E00BE000E02DE9F041A9
:10230000264D0646244C0F462878C1B2205820F0AE
:10231000010060502878205810F0010FFAD10820F1
:10232000A0602020A0600420A0600120A0601020F8
:10233000A06000222046114601F074FB16494FF0C0
:10234000C0402A7808315050081D29780E500021CD
:102350003A46204601F05AFB28782058297840F068
:102360001000605028782058297840F00400605010
:102370004FF0E0214FF40060C1F8000128782058A8
:10238000297840F0010060500548C16841F480613F
:10239000C160BDE8F0810000000002407E710008CD
:1023A00000040040064907480B68002243F0807390
:1023B0000B604260016841F001010160704700005C
:1023C000FCED00E0001000E0084B064A06491B68DF
:1023D000B3FBF2F24B6842434868C01A9042FBD309
:1023E0007047000040420F00001000E01400002081
:1023F00030B587B01C216846FEF7DFF91848002188
:10240000164C1025174B022204605403C0E9013119
:10241000C160D302C0E9041581610525C161C0E92D
:102420000813C0E90A14016303234163062481638E
:10243000C163016401A8009380E834000492CDE9EF
:10244000052100F011F86A460548114601F036F9F9
:10245000002800D0012007B030BD0000004000522D
:102460006801002004410052F0B587B0142168468D
:10247000FEF7A3F927480168002948D1012101602E
:102480002548016841F004010160016801F0040180
:102490000591016841F008010160016801F008013F
:1024A0000591016841F010010160006800F0100022
:1024B000059019489438016821F00301016016481D
:1024C0000C38016841F48051016000680224002545
:1024D000694600F48050059003264FF680700C2763
:1024E0008DE8F1000D4800F0B9FD4CF233706946FB
:1024F0008DE8F1000A4800F0B1FD09218020CDE906
:1025000003618DE831000748694600F0A7FD07B078
:10251000F0BD000028000020E044025800100258DE
:10252000000C02580008025800F1C04001807047BA
:1025300010B58AB00024182104A8009401940294D4
:102540000394FEF73AF9102001F048FA4FF0B04139
:102550000F22042092FAA2F3D1F80824B3FA83F3ED
:1025600003F01F0322F00F0298400243C1F8082431
:1025700001208DF80C00CDE900048DF80D0002213A
:10258000684602948DF80E1001F056FA0948C168A9
:1025900021F00301C160016821F0030101600649D7
:1025A000602081F800044020891FC1F800010AB0B2
:1025B00010BD00000010025806E000E0004870471F
:1025C0006071000870B586B018216846FEF7F5F80E
:1025D000012001F003FA00200B4D01210B4E0222D5
:1025E00004910446CDE9010204EB4400694605EB81
:1025F000800040680090304601F0EEFA641C14F050
:10260000FF04F1D006B070BD6071000800000258F0
:1026100000B587B018216846FEF7CFF8042001F016
:10262000DDF908484FF40052826100210123009235
:10263000CDE9013103910491694601F0CDFA07B06B
:1026400000BD000000080258802010B501F0C6F956
:10265000BDE81040012001F0C1B90000024B0ECBD3
:1026600080E80E00704700001C000020F8B501F063
:1026700066FF3D4900200A68920311D4BFF34F8FD3
:10268000BFF36F8F394A1060BFF34F8FBFF36F8F67
:102690000A6842F400320A60BFF34F8FBFF36F8FB6
:1026A0000A68D20323D4304A70321060BFF34F8FD0
:1026B000101F43F6FF7400682C4B1033C0F34E32EA
:1026C000C0F3C90504EA4216284600BF46EA8077EF
:1026D0001F60401EFAD2521EF4D2BFF34F8F08681B
:1026E00040F480300860BFF34F8FBFF36F8F00F06E
:1026F000D3FD02F00DFB1E48016841F002010160AC
:1027000000684FF6FF031B4A00F0020000901648D5
:1027100008380168194041F44071114301600068B4
:10272000C0F30220C0F10702042A00D90422011DCF
:10273000072901D2002000E0C01E012191400E4A6D
:10274000491E8140080182F8140D02F04FFBFFF78B
:1027500029FEFFF779FFFFF75BFF00F09FF8BDE868
:10276000F84000F009B9000014ED00E050EF00E07F
:10277000F44402580000FA050FE000E0F0B595B00F
:1027800014210EA8FEF719F820216846FEF715F867
:10279000182108A8FEF711F82A48016841F0020143
:1027A000016000680024284E0EA900F0020013907A
:1027B0004CF25030ADF83840CDE90F40304611941E
:1027C00001F0EEFC306840F0800030601F49B068D6
:1027D0000840B0601E4A08201B4902F10907183161
:1027E00013783A785D1829689040014329600F21D9
:1027F0006A4660200494CDE90004CDE9024101213C
:10280000304601F02DFD286804213A789140884334
:1028100028600C480838016841F001010160006837
:102820004021089108A900F0010013900220CDE991
:1028300009040B94CDE90C40064801F0CDF915B020
:10284000F0BD0000E844025800040040F8BFFEFF5D
:102850006C71000800000258084B10B59C68844257
:1028600004D35B688B4201D38A4201D9012010BD99
:10287000034B9862D9625A63002010BD1C000020EF
:10288000000400400448016A41F00101016201684E
:1028900041F00101016070470004004010B590B0A4
:1028A00020216846FDF789FF182108A8FDF785FF5C
:1028B000284801F05DFC2848016841F010010160E2
:1028C000006800F010000E90012001F093F808ABB2
:1028D000002402214FF4C06083E8130007221F4840
:1028E00008A90B94CDE90C4201F076F94FF4E130E0
:1028F00002940C2103940794CDE90040CDE90441F2
:1029000006946946164C204601F074FD00212046CD
:1029100001F00AFE0021204601F0F8FD206820F0B9
:1029200000502060606820F490406060A06820F053
:102930002A00A060206840F001002060E069C0F338
:1029400040500028FAD0E069C0F380500028F5D04C
:1029500010B010BD08030007F044025800000258F0
:10296000001001400349CA69C2F3C012002AFAD01C
:10297000886270470010014010B590B02021684671
:10298000FDF71BFF182108A8FDF717FF284801F0E5
:10299000EFFB2848016841F480210160006800F4E1
:1029A00080200E90042001F025F808AB00240221BD
:1029B0004FF4406083E8130007221F4808A90B94D6
:1029C000CDE90C4201F008F94FF4E13002940C21FA
:1029D00003940794CDE90040CDE90441069469468B
:1029E000164C204601F006FD0021204601F09CFD1A
:1029F0000021204601F08AFD206820F00050206070
:102A0000606820F490406060A06820F02A00A06018
:102A1000206840F001002060E069C0F340500028C9
:102A2000FAD0E069C0F380500028F5D010B010BD96
:102A300008000007E8440258000802580048004017
:102A40000349CA69C2F3C012002AFAD088627047EB
:102A500000480040FEE7000038B500200090134811
:102A60000168C1F3401100291CD020218160104C65
:102A700001152078C0F101002070207898B10D4830
:102A8000FFF73CFC606810B1694603F0BCFE00989B
:102A9000002807D008494FF080500860BFF34F8FDF
:102AA000BFF36F8F38BD0548EAE700000000024021
:102AB000780000200008003004ED00E00000003045
:102AC000704700000749097851B1C0F3C621C0F32F
:102AD000022204488038405CD04000F0010070477A
:102AE00000207047805001202DE9F0410A4D05F18A
:102AF0001806AF6900F0B2F9044601463046FDF70A
:102B0000CFFCB842F5D1844203D203481030FDF720
:102B1000BEFC2046BDE8F081805001202DE9FC4735
:102B20005FEA01081446054602D0B4F5807F02D959
:102B30000020BDE8FC87FFF7C5FF48B1FFF7D4FFD1
:102B40008146A8B2EFF3058121B14FF4002702E0DE
:102B50000120EEE700270743A4B1082C4FF0000A3C
:102B60004FF4E02613D8224641466846CDF800A02F
:102B7000CDF804A0FDF7A2FD06EA0440384340F07A
:102B8000407042E0002349461A46384640E0224859
:102B9000FDF774FC0146D8F800000090083CD8F816
:102BA000040006EA01463743009A08F10805034687
:102BB0004946019047F0807000F030F80028B8D006
:102BC0004FF6017006430FE0284655F8081B0091A8
:102BD000083C40680A46494601900346304600F0EA
:102BE0001DF8761C0028A4D0082CEDD822462946D2
:102BF0006846CDF800A0CDF804A0FDF75FFD26F4EF
:102C00007F4040EA042040F000704946DDE900239F
:102C100000F004F88DE70000815001202DE9FF5FEE
:102C200093468A464FF08052994602EADA085100EC
:102C300001EA9B074800072500EA59061F48FDF7EF
:102C400026FC830AC0F309021D484FF4700100EB13
:102C50000214009801EA0351084340EA080038438F
:102C6000304340F0406104F10C00FDF721FC4101CC
:102C70001CD580F0044101F0004029F000420243DD
:102C80002AF000452BF00043054325600343C4E9C7
:102C9000013204F10C00FDF71CFC48B10748001D8F
:102CA000FDF7F5FB012004B0BDE8F09F6D1EC5D116
:102CB00002480830FDF7EBFB0020F4E784500120C8
:102CC000001001202DE9F047FF29814601D2FF2A9B
:102CD00002D30020BDE8F087104D002420464FF0BD
:102CE000010A56460AFA00F313EA090F0FD00B4601
:102CF000B2460AE004EBD30603F00708AF5D0AFA18
:102D000008FC47EA0C075B1CAF559342F2D9401C04
:102D100020340428E5D30120DCE700000050012026
:102D20002DE9F0473D4C0025884681468021A4F1DD
:102D300080002570FDF741FD394B4FF6FF701822DA
:102D400041F221074FEA0006082113F801CB80EA7F
:102D50000C2000BF5FEA004C06EA400000D5784036
:102D6000491EF7D1521EEFD12E4A0121236A934208
:102D700001D0226202E06288824202D06080E1617A
:102D800039E0E069401CE061012834D0264B002086
:102D90004FF4806603EB0011CA68570102D522F098
:102DA0004062CA60401CB042F4D3E06901282BD0D5
:102DB00000F060F80646DEB1FE2248460021FFF72B
:102DC00081FFEF220F201146FFF77CFFFE22042037
:102DD0001146FFF777FFFFF787FEE2690023014600
:102DE0001248FFF71BFFB8F1000F01D000F020F8E8
:102DF0003046BDE8F08765704FF480416560A5609E
:102E00000948E560FDF7D9FC00F034F8061E01D052
:102E100000F02AF8C4E905052561CCE780500120BF
:102E2000D87100086B27A5E10010012000FF000306
:102E3000084810B5017809B1012010BD01210170C9
:102E4000FFF752FE0023014603481A46FFF7E6FE4D
:102E5000F2E700008050012001FF000301484068B4
:102E600070470000001000E0014800687047000053
:102E70001400002005490A68054842F080720A6083
:102E8000016841F00101016001207047FCED00E0A4
:102E9000001000E0F0B5B3F5804F05D06FF0704141
:102EA00040F822100020F0BD91E838008F898E692B
:102EB00050F8221024013343054E44EA05242343ED
:102EC000314043EA07430B4340F82230EAE7000071
:102ED0000000F0CFF0B50A6850F8223023F001036B
:102EE00040F822308C68082C2CD000264A68D1E9A2
:102EF00003CE22434CEA060C01F1140342EA0C0211
:102F000042EA0E0293E8F8501A4322430C682A431F
:102F1000D1E90C35324350F824603A4342EA0C02BE
:102F2000DFF840C042EA0E028F6B13431D432F436C
:102F300026EA0C063E4340F824600A6BB2F5801F77
:102F400002D007E04026D1E70A684AB1026842F49D
:102F5000801202600A681AB10268496B0A43026073
:102F60000020F0BD7FFB3F00F0B58C6800EB8202D3
:102F7000D1E90036B1F80CE04FEA042C134C0D8A6D
:102F800043EA06130E7D67014CEA0E4C43EA0C033C
:102F900004EB05552B438D6907EB066657683343F1
:102FA0002B4307F040452B4353600268D2020BD5F8
:102FB000098A4268436804EB015122F4700211430C
:102FC00023F470030B4343600020F0BD0000F0FFCA
:102FD000F0B587B014216846FDF7EFFB1A48016889
:102FE00000292ED1012101601848016821F0030158
:102FF000016016488830016841F480510160006822
:1030000002240025694600F48050059003264FF6FF
:1030100080700C278DE8F1000D4800F01FF84CF28D
:10302000337069468DE8F1000A4800F017F809216D
:103030008020CDE903618DE831000748694600F042
:103040000DF807B0F0BD0000000000204C4402580D
:1030500000100258000C0258000802582DE9F84FE1
:1030600003247D4D00234FF001094FF0B04B4FF08A
:103070000F0AE9E009FA03F73A4076D00E7906F034
:103080000306012E01D0022E18D1D0F808C04FEA55
:10309000430ECE6804FA0EF82CEA080C06FA0EF677
:1030A00046EA0C068660D0F804C00E792CEA070CBC
:1030B000C6F300169E4046EA0C0646600E79F643BB
:1030C000B6070BD0C6684FEA43088F6804FA08FCBD
:1030D00026EA0C0607FA08F73743C7600E7906F0B0
:1030E0000306022E12D1DE080F694FEA437C00EB83
:1030F0008606B646366A4FEADC6C0AFA0CF807FA1E
:103100000CF726EA08063743CEF820700F790668D8
:103110004FEA430807F0030704FA08FC07FA08F728
:1031200026EA0C06374307604E6816F4403F1CD071
:103130004A4E376847F00207376036689F0706F047
:103140000206009623F0030606F1B046B6463F0F8E
:10315000D6F80864DFF808810AFA07FC404526EA39
:103160000C0603D14FF0000C41E06CE0DFF8F4C036
:10317000604502D14FF0010C39E0DFF8ECC060454A
:1031800002D14FF0020C32E0DFF8E0C0604502D11E
:103190004FF0030C2BE0DFF8D8C0604502D14FF0B0
:1031A000040C24E0DFF8CCC0604502D14FF0050CE0
:1031B0001DE0DFF8C4C0604502D14FF0060C16E0F8
:1031C000DFF8B8C0604502D14FF0070C0FE0DFF820
:1031D000B0C0604502D14FF0080C08E0DFF8A4C091
:1031E000604502D14FF0090C01E04FF00A0C0CFAD7
:1031F00007FC4CEA060CCEF808C44F68DBF8006008
:10320000FF0226EA020600D516435F46CBF80060AF
:10321000D1F804C0DBF804605FEA8C2C26EA0206D1
:1032200000D516437E606E684F6826EA0206BF032B
:1032300000D516436E602E684F6826EA0206FF032B
:1032400000D516432E605B1C0A6832FA03F67FF441
:1032500011AFBDE8F88F000080000058F444025818
:10326000000002580004025800080258000C0258DE
:10327000001002580014025800180258001C02588E
:103280000020025800240258024881680278114444
:103290008160704708000020032010B500F0FEF8A0
:1032A00000F070F90F4A104914681368C4F3032240
:1032B00003F00F038A5CC95C02F01F0201F01F01DA
:1032C000D0400A4A20FA01F11160094908600F2034
:1032D00000F010F808B1012010BD00F09FF80020A8
:1032E00010BD00001844025850710008180000205A
:1032F0001400002010B5102804468AB02CD20022F9
:103300000146362000F0AAF8362000F099F8174858
:1033100004601748016841F010010160006809A9C4
:1033200000F010000890684600F0CAF80598B0B1A7
:1033300000F016F940000F4900220F4CB0FBF1F1EC
:103340000E4840F2E7330460C0E90332491EC0E989
:10335000011200F0EEF928B101200AB010BD00F012
:10336000FFF8E8E7054800F017FAF6E70C00002040
:10337000E844025840420F00001000401C010020A9
:10338000F0B5154C4378211D0A1D23600378F3B175
:1033900043680B60057BC67A817A437B2D07847B6B
:1033A00045EA0665C77B90F809C0067A90F800E008
:1033B00045EAC14040EA834040EA444040EA0740D1
:1033C00040EA0C2040EA460040EA0E0001E00020FE
:1033D00008601060F0BD000098ED00E0BFF35F8F63
:1033E000044800210368034A23F4803303607032E9
:1033F0001160704724ED00E0074A40F001000649E3
:1034000070321060086840F480300860BFF34F8F5E
:10341000BFF36F8F7047000024ED00E0074882B0D3
:10342000016841F002010160006800220F2100F0F4
:1034300002000090901E02B000F010B8F444025850
:10344000002809DB410900F01F028900012001F179
:10345000E0219040C1F80001704700000E4BF0B42D
:103460001B680D46C3F30223C3F10706042E00D9DF
:103470000426191D072901D2002300E0DB1E0124C8
:1034800004FA06F19C40491E2940641E99401440EC
:103490002143F0BC01F04DBE0CED00E0064900F008
:1034A000070210B54FF6FF040868044B204040EABD
:1034B00002201843086010BD0CED00E00000FA0582
:1034C00070B5144C3F220260124A24680832131D62
:1034D000114D04F00704446016681C1D06F4706664
:1034E0008660166806F00F06C660126802F0700269
:1034F00002611A6802F0700242611A6802F4E06226
:103500008261226802F07002C261286800F00F0038
:10351000086070BD104402580020005230B500F021
:1035200031F80B4A0B490C4B15681468C5F303229C
:1035300004F00F048A5C095D02F01F0201F01F0114
:10354000D040064A20FA01F119601060084630BDEB
:103550001844025850710008180000201400002080
:1035600000B5FFF7DBFF05490968054AC1F3021101
:10357000515C01F01F01C84000BD00001C4402580E
:1035800050710008454970B545480968434B103BE8
:1035900011F0380208D00111082A03D0102A0BD0EC
:1035A000182A0BD0084670BD19688906FBD5196822
:1035B000C1F3C101C84070BD3A4870BD3749374DAD
:1035C00018310C1D24350A68096826682D6802F038
:1035D000030406F00102C1F30511C5F3CC0515FB88
:1035E00002F200EE102AB8EE400AE9B32F4ADFEDEE
:1035F0002E0AB7EE001A6CB1DFED2D1A012C01D0A6
:10360000022C43D002EE101A1068F8EE422A81EE26
:10361000A22A1EE01C68A40611D51B6801EE901AB0
:103620001168C3F3C103F8EE612AD84001EE900A95
:10363000C1F30800F8EE611A81EEA22A0BE001EE58
:10364000901ADFED1C2A00BFF8EE611A106882EEB6
:10365000A12AC0F3080001EE900AF8EE611A40EECC
:10366000201A31EE810A00E015E022EE000A10680F
:10367000C0F34620401C00EE900AF8EE600A80EE8F
:10368000201ABCEEC10A10EE100A70BD01EE901AAD
:10369000DFED092AD8E7002070BD00001044025871
:1036A0000090D00340787D0100000039304402587A
:1036B0000024744A0024744C20BCBE4B70B5040036
:1036C00015460E4603D094F8450010B107E00120DE
:1036D00070BD002084F84400204600F025F82068E2
:1036E00004F10801FFF7F6FBA26831462068FFF7F6
:1036F0003BFCE36A2946D4E90102FFF7CBFBA16852
:1037000001232068074A50F8215045F0010540F890
:103710002150106840F00040106084F845300020CF
:1037200070BD000000400052FFF752BC7047704768
:10373000704710B5040003D094F83D0010B107E0C5
:10374000012010BD002084F83C00204600F022F843
:10375000022084F83D002068211D01F06FFC01204B
:1037600084F8480084F83E0084F83F0084F8400064
:1037700084F8410084F8420084F8430084F844004F
:1037800084F8450084F8460084F8470084F83D003A
:10379000002010BD7047000090F83D10012901D0B5
:1037A00001207047174A022180F83D100168CB685C
:1037B00043F00103CB600068904214D0B0F1804F19
:1037C00011D0114988420ED0104988420BD01049BF
:1037D000884208D00F49884205D00F49884202D05C
:1037E0000E49884207D181680D4A1140062906D04A
:1037F000B1F5803F03D0016841F001010160002074
:103800007047000000000140000400400008004034
:10381000000C00400004014000180040004001403E
:1038200007000100704770B5044600680025016973
:10383000C943890715D4C168C943890711D4EA1E51
:10384000026101212177206880698007204602D02B
:10385000FFF7E8FF04E000F0A7F8204600F0A5F825
:10386000257720680169C943490717D4C168C9434E
:10387000490713D402216FF0040202612177206806
:10388000806910F4407F204602D0FFF7CBFF04E0B0
:1038900000F08AF8204600F088F825772068016952
:1038A000C943090716D4C168C943090712D40421C2
:1038B0006FF00802026121772068C0698007204606
:1038C00002D0FFF7AFFF04E000F06EF8204600F0F2
:1038D0006CF8257720680169C943C90617D4C16807
:1038E000C943C90613D408216FF010020261217781
:1038F0002068C06910F4407F204602D0FFF792FF95
:1039000004E000F051F8204600F04FF825772068D9
:103910000169C943C90708D1C168C943C90704D1AE
:10392000891E0161204600F041F820680169C94301
:10393000090609D4C168C943090605D46FF080019E
:1039400001612046FFF7F3FE20680169C943C905FC
:1039500009D4C168C943090605D46FF480710161B7
:103960002046FFF7E3FE20680169C943490609D4F0
:10397000C168C943490605D46FF040010161204682
:1039800000F01EF820680169C94389060BD4C1689C
:10399000C943890607D46FF0200101612046BDE8C4
:1039A0007040FFF7C5BE70BD70477047006803499F
:1039B000884201D1FFF768BC70470000001000404A
:1039C0007047FEE7044908B50A6802430A600968BF
:1039D0000140009108BD0000DC440258044908B5CC
:1039E0000A6802430A6009680140009108BD0000AE
:1039F000E0440258044908B50A6802430A600968AD
:103A00000140009108BD0000E0440258044B001D35
:103A1000595C0B586FF30F0313430B5070470000B2
:103A20007E710008034B595C435823F49073134391
:103A3000435070477E71000810B5027B00234FF0A1
:103A4000B041002A026873D0EAB1447BE407D1F8A0
:103A5000804001D0144300E09443C1F88040427B91
:103A6000D1F884409207026801D5144300E09443E2
:103A7000C1F88440827B32B1012A0DD0022A14D0D1
:103A8000032A16D0012342689AB3447BE407D1F895
:103A9000904017D0144316E04C68026894434C6081
:103AA0000C68026814430C60EDE70C6802689443EC
:103AB00002E00C68026814430C604C68026814430E
:103AC0004C60E0E79443C1F89040427BD1F89440C9
:103AD0009207426801D5144300E09443C1F8944032
:103AE000827B32B1012A0DD0022A14D0032A16D0CB
:103AF00001238268A2B3447BE407D1F8A04018D028
:103B0000144317E04C6A426894434C620C6A426862
:103B100014430C62EDE70C6A4268944302E00C6ABD
:103B2000426814430C624C6A426814434C62E0E7FA
:103B30002DE09443C1F8A040427BD1F8A440920705
:103B4000826801D5144300E09443C1F8A440827B0D
:103B500032B1012A05D0022A0CD0032A0ED001234B
:103B600038E04C6C826894434C640A6C8068024371
:103B70000A642FE00C6C8268944302E00C6C82684B
:103B800014430C644A6C806802434A6422E0D1F812
:103B900080409443C1F88040D1F8904042689443FB
:103BA000C1F89040D1F8A04082689443C1F8A04089
:103BB000D1F8844002689443C1F88440D1F894401D
:103BC00042689443C1F89440D1F8A42080688243AD
:103BD000C1F8A420184610BDF0B50A6892FAA2F206
:103BE000B2FA82F44CE00125A54013EA050246D062
:103BF0004B68012B01D0022B10D1856802FB02F328
:103C00008E685E4303EB43039D43354385604568FF
:103C1000CE680B689D435E4335434560C56802FB33
:103C200002F30E6903FB06F703EB4306B5433D437E
:103C3000C5604D68022D1CD1FF2A0BD803FB02F58D
:103C4000076A55434A696A43C5EB0515AF431743F5
:103C500007620EE0476A120AD1F814C002FB02F5AF
:103C60005543554305FB0CF2C5EB0515AF43174310
:103C7000476205684A68B54353431D430560641CA9
:103C80000A681346E240AED10020F0BD0248006849
:103C9000C0F30020704700000044025800EE100AF4
:103CA00000EE901A01EE102A9DED002AB8EE403A7F
:103CB000F8EE600AB8EE410AB8EE421A01EE903A08
:103CC00083EE202AF8EE611ADFED062A01EEA20A41
:103CD00022EE000AC0EE010ABCEEE00A10EE100A65
:103CE00070470000000000390649030EC0F30422AB
:103CF00051FA80F1934009681940D14040EA0140EF
:103D0000704700004C4402582DE9F84F364F00250B
:103D10000446A846386810F0030004D001280BD0F0
:103D2000022812D10DE000F0F9F970B100F0EEF9BF
:103D30002E4DC008C54008E0FFF7A8FF28B12C4D64
:103D400003E000F0DBF900B12A4D00202060264E90
:103D50006060A06008363868311F33680A68C0F3B5
:103D60000517C3F3080012F0010F00F1010A03D098
:103D7000301D0068C0F3CC08002F33D00868894696
:103D8000C0F3004058B13068434652463946C0F34C
:103D90004620401C00902846FFF780FF2060D9F89D
:103DA0000000C0F3404058B130684346524639469F
:103DB000C0F30640401C00902846FFF76FFF60608C
:103DC000D9F80000C0F3804000280BD0306843468B
:103DD00052463946C0F30660401C00902846FFF763
:103DE0005DFFA060BDE8F88F284402580090D00322
:103DF00000093D0040787D012DE9F84F374F00253F
:103E00000446A846386810F0030004D001280BD0FF
:103E1000022812D10DE000F081F970B100F076F9BE
:103E20002F4DC008C54008E0FFF730FF28B12D4DE9
:103E300003E000F063F900B12B4D00202060274E15
:103E4000606026491036A0603868091D33680A682A
:103E5000C0F30537C3F3080000F1010AC2F30012F2
:103E60001AB1301D0068C0F3CC08002F33D00868A9
:103E70008946C0F3C04058B130684346524639467F
:103E8000C0F34620401C00902846FFF707FF206043
:103E9000D9F80000C0F3005058B13068434652468C
:103EA0003946C0F30640401C00902846FFF7F6FE56
:103EB0006060D9F80000C0F3405000280BD0306893
:103EC000434652463946C0F30660401C00902846DF
:103ED000FFF7E4FEA060BDE8F88F00002844025818
:103EE0000090D00300093D0040787D012DE9F84F96
:103EF000384F00250446A846386810F0030004D067
:103F000001280BD0022812D10DE000F007F970B1A2
:103F100000F0FCF8304DC008C54008E0FFF7B6FEE1
:103F200028B12E4D03E000F0E9F800B12C4D00203F
:103F30002060284E606027491836A0603868091D47
:103F400033680A68C0F30557C3F3080000F1010A9B
:103F5000C2F300221AB1301D0068C0F3CC08002F54
:103F600035D0002D33D008688946C0F3805058B151
:103F70003068434652463946C0F34620401C009004
:103F80002846FFF78BFE2060D9F80000C0F3C05030
:103F900058B13068434652463946C0F30640401C8B
:103FA00000902846FFF77AFE6060D9F80000C0F361
:103FB000006000280BD03068434652463946C0F3B3
:103FC0000660401C00902846FFF768FEA060BDE830
:103FD000F88F0000284402580090D00300093D00EB
:103FE00040787D010248006800F47060704700006E
:103FF00018440258FEB50024FFF776FE39494FF405
:1040000040724FF47D43451A88424FF480315FD0AF
:1040100022DC354EB042A0EB06050AD010DC334D51
:10402000A0F10800B0F1E06040D090422DD088426D
:1040300029D100F083F830B36846FFF7DDFE09E0D0
:104040009D4201D08D421ED100F080F8D8B1684663
:10405000FFF74CFF019C16E0254EA81BB54204D08B
:1040600008DC954234D08D420DD1FFF70FFE50B1E0
:10407000204C08E0984201D0884204D100F056F864
:1040800008B14FF400442046FEBD00F01DFE04467A
:10409000FFF7A8FFC0F30320285C00F01F0024FAFC
:1040A00000F000F0E3FD00F0FFFD0FE000F00CFE7B
:1040B0000446FFF797FFC0F30320285C00F01F00C1
:1040C00024FA00F000F0D2FD00F0DEFD0446DAE74D
:1040D00000F024F80028D6D000F018F8064CC008EC
:1040E000C440D0E708000307080301070E71000869
:1040F0000003010000093D000090D0030248006861
:10410000C0F3404070470000004402580248006875
:1041100000F0180070470000004402580248006890
:10412000C0F3800070470000004402580248006855
:10413000C0F3400070470000704402580248006815
:10414000C0F3C06070470000004402580248006895
:10415000C0F34070704700000044025803490A68E9
:1041600022F00F0202430A60704700001844025810
:104170000749030E10B551FA80F1C0F30422C0F3D1
:10418000074408689340944098432043086010BD5A
:104190004C44025801490860704700001400002098
:1041A0002DE9F047264B4FF0804A264D0268984291
:1041B000254E264F264C09D0504507D0A84205D0A1
:1041C000B04203D0B84201D0A04205D1D1F804C01A
:1041D00022F0700242EA0C02DFF878C0DFF8788043
:1041E0009842DFF878900FD050450DD0A8420BD000
:1041F000B04209D0B84207D0A04205D0604503D0F4
:10420000404501D0484503D1CD6822F440722A438D
:1042100002608A68C2620A888262984207D0A0421D
:1042200005D0604503D0404501D0484501D109691A
:104230000163416941F0010141610020BDE8F0875F
:10424000000001400004004000080040000C004055
:10425000000401400040014000440140004801408A
:104260002DE9F05F5C4EB1F5805F5C4C0F465C4D14
:104270004FF00003DFF86C914FF00101DFF868A107
:10428000DFF868B11CD007DC012F0CD0102F0ED046
:10429000B7F5807F70D10FE0B7F5803F3DD0B7F51F
:1042A000801F69D16BE0114600F0ECFB02E0114683
:1042B00000F038FC01465FE0114600F085FCF9E7AC
:1042C000016AA04221F480510162046A4168D0F879
:1042D0001CE024F400541769D2E9008C44EA073446
:1042E0002EF4407707EA060724F4805447EA0826AC
:1042F00044EA0C3407D0A84205D0484503D05045C5
:1043000001D0584504D1956921F4804141EA8511D5
:104310004160C661D16801642CE0016AA042344E5C
:1043200021F480310162046A178A416D24F400345B
:10433000B2F80480D2F800C044EA074401EA06015A
:1043400024F4803441EA0C0144EA084407D0A8422E
:1043500005D0484503D0504501D0584506D14568A1
:10436000966925F4803545EA062545604165816DED
:10437000D1688165194604620846BDE8F09F016A6C
:10438000A04221F480110162046A178A416D24F46D
:104390000014B2F80480D2F800C044EA075401EADD
:1043A000060124F4801441EA0C2144EA085407D0A1
:1043B000A84205D0484503D0504501D0584506D104
:1043C0004568966925F4802545EA8625456041655E
:1043D000D168C165CEE70000FF8FFFFE00000140FD
:1043E00000040140004001400044014000480140F9
:1043F0008FFFFEFF2DE9F0410446006801260D46BF
:1044000010F0010F54D1D5E904C1EB69A868226806
:104410001943324F40EA0C0008433A4010432060F1
:104420006168E86821F4405101436160A168A869AE
:1044300021F440710143A16029482A49844201D1F5
:10444000084615E0284A2948944211D0284A944247
:104450000ED0284A94420BD0274A944208D0274ACB
:104460009442EDD026498C4202D026498C4218D184
:10447000FFF7C0FDA8B1696899B12A680026EB6909
:104480000B2A0ED8B3F5004F1F4B14D0D2B253F8FD
:104490002220B0FBF2F000EB5100B0FBF1F080B253
:1044A000E060E16A288821F00F0180B20143E162F7
:1044B0003046BDE8F081D7B24FF6F07253F827309E
:1044C000B0FBF3F0400000EB5100B0FBF1F081B223
:1044D00001EA0200C1F342010843E1E7F369FFEF9B
:1044E00000100140080300070044004008000007D6
:1044F00000480040004C00400050004000140140C3
:1045000000780040007C00402071000810F1080095
:1045100050E8002F22F0606242EA416240E8002346
:10452000002BF5D17047000010F1080050E8002F73
:1045300061F35F7240E80023002BF7D170477FB52D
:10454000FEF74CFF00248DF80F4001258DF80E403A
:1045500012208DF8080003268DF80B608DF80050AE
:104560004FF010518DF80D4068468DF80A500191BA
:104570008DF801408DF809408DF80C40FEF700FFE2
:104580000F208DF808008DF80F4071078DF80B6033
:1045900068468DF80E408DF800508DF80D408DF86E
:1045A0000A4001918DF801508DF809408DF80C40BA
:1045B000FEF7E6FE10208DF808008DF80F40320758
:1045C0008DF80B6002218DF80E4068468DF8005082
:1045D0008DF80D508DF80A4001928DF801108DF87C
:1045E00009408DF80C50FEF7CBFE0420FEF704FFC7
:1045F0007FBDFEE738B5FDF7FBFE08B1012038BDF1
:10460000FEF7BCF8FDF7DAFDFDF792FF204A002027
:10461000AA21431C1154D8B20428FAD300240094D0
:10462000234622462146204600F034F80520FDF7B7
:10463000CBFE002300941A461946184600F02AF8CB
:104640000520FDF7C1FE0021084600F03BF80520DB
:10465000FDF7BAFEAA21042000F020F90520FDF79D
:10466000B3FEAA21052000F019F90520FDF7ACFEE4
:10467000AA21062000F012F90520FDF7A5FEAA21C7
:10468000072000F00BF90520FDF79EFE002038BD45
:104690003500002030B4029C03B10223234343EAD7
:1046A00000030AB1202000E00020184301B140219E
:1046B000014303480170022030BC00F0EFB8000055
:1046C000340000200143032000F0E8B8044A1178C8
:1046D00021F01C0101431170022000F0DFB800003E
:1046E0003400002030B52DED048BB0EE408B89B046
:1046F000B5EEC08BF1EE10FA7ED99FED5F0BB4EEF4
:10470000C08BF1EE10FA77DC00200590019000904C
:1047100002A8FDF7A3FF9FED5A9B9FED5B1B89EE5F
:10472000080BB4EEC10BF1EE10FA65DCBCEEC00B69
:10473000574D072410EE100A55F82410814206D870
:10474000A006000EFFF7C2FF55F8240007E0641E24
:1047500064B2002CF0DA0020FFF7B8FF2868009060
:1047600002980399B7EE002B9FED4A1B00EE100A4A
:10477000B8EE403B00EE101A83EE084BB8EE403B1B
:1047800034EE420BB4EEC03BF1EE10FA20DBBCEE8F
:10479000C00B8DED050A029800EE100AB8EE400B32
:1047A00020EE011B81EE090B00F0D6FCBCEEC00B25
:1047B0008DED010A10EE100A0599884201D94808CA
:1047C0000190142801D2142001900246002045E0F7
:1047D00001204AE0481C0299039A00EE100AB8EE44
:1047E000403B00EE101A23EE083BB8EE405B00EEB3
:1047F000102A85EE034B00E03CE0B8EE403B34EE7F
:10480000420BB4EEC03BF1EE10FA2ED3BCEEC00B5F
:104810008DED050A0299009800EE101A401C00EE7A
:10482000900AB8EE402BB8EE600B22EE011B20EE92
:10483000092B81EE020B00F08FFCBCEEC00B8DED5E
:10484000010A10EE100A0599884201D94808019022
:10485000022801D20220019002460098FDF7FCFFD9
:10486000002009B0BDEC048B30BD00900498009985
:104870008842AFD20120F4E70000000080842E417E
:104880000000000065CDCD410000E0FFFFFFEF41DB
:104890003C000020000000000000694000F03F00E4
:1048A00010B541EA402040F400410020FDF73CFEF5
:1048B000002010BD10B500F027F8BDE81040FFF74C
:1048C00099BE00000F4B0020F0B5642698720227B5
:1048D0000146A3F10A04D8724A1C01EB810512F0CB
:1048E000FF0104EB4502968004F815709071D071B9
:1048F0001072F1D000214A1C5854D1B20A29FAD3BF
:10490000F0BD0000BE01002010B5FFF7DBFFFDF792
:1049100059FEFDF753FE0149086010BD300000202C
:1049200000F0A4B870B506462A4900EB860001EBFA
:104930004004304600F062F80028207806EB460379
:104940004FF005014FF0000531D0052801D221704C
:1049500070BD0A2802D2401C207070BDA07906EB01
:104960004606761C20B90120A071F0B200F070F864
:10497000A1880029F1D06088884208D2401C89B201
:1049800080B260808842E8D1DB1CD8B20BE0E079CD
:104990000028E2D0207AE179401CC0B2207288421F
:1049A000DBD32572F0B2BDE8704000F051B80528A5
:1049B00001D921700BE010B1401E207007E0A079F2
:1049C000012804D19B1CA571D8B200F041F8658084
:1049D000257270BDB40100200749887ACA7A9042D6
:1049E00001D100207047421C085CD2B28A720A2AA8
:1049F000F8D300228A727047BE010020F0B510BBC8
:104A0000124C0022FF231146D4F8004001EB41056F
:104A100004EB850654F82570D6F804C03D6915EA04
:104A20000C0500D00125367AAE4202D1521C0B464D
:104A3000D2B2491C11F0FF01E8D0012A03D1834210
:104A400001D10120F0BD0020F0BD000030000020A9
:104A50000549CA7A8854C87A401CC0B2C8720A286C
:104A600001D30020C8727047BE01002010B5002499
:104A70002046FFF757FF641C14F0FF04F8D010BD68
:104A8000FEE70000F0B5026A214B204F22F0010240
:104A900098420262036A4468826923F00203D1F8F3
:104AA00010C0D1E9005643EA0C0322F0030202EAE7
:104AB000070223F0010342EA050243EA06030BD092
:104AC000144DA84208D0144DA84205D0134DA84259
:104AD00002D0134DA84212D1D1E9055623F00807A0
:104AE00024F4807347EA85048F68CD69334324F04A
:104AF000040423F4007644EA870346EA450444604C
:104B00008261C968416303620020F0BD8FFFFEFF30
:104B10000000014000040140004001400044014009
:104B200000480140F0B5026A224B214D22F01002EC
:104B300098420262046A4268836924F02004D1F832
:104B400010C0D1E9006723F4407344EA0C1403EA6F
:104B5000050324F0100543EA062445EA07130BD0A9
:104B6000154DA84208D0154DA84205D0144DA842B5
:104B700002D0144DA84213D1D1E9055723F0800685
:104B800022F4806346EA85128E68CD6943EA870382
:104B900022F0400223F4006742EA861347EAC50286
:104BA00042608461C968816303620020F0BD000037
:104BB000FF8FFFFE00000140000401400040014063
:104BC0000044014000480140F0B5026A224B214FE9
:104BD00022F4807298420262026A4368C46922F435
:104BE0000072D1F810C0D1E9005624F0030442EA63
:104BF0000C2204EA070422F4807244EA050442EA23
:104C000006220BD0154DA84208D0154DA84205D05C
:104C1000144DA84202D0144DA84213D1D1E9055732
:104C200022F400628E6823F4805342EA8522CD6923
:104C300043EA071322F4806223F4005342EA8622F7
:104C400043EA45134360C461C968C163026200203E
:104C5000F0BD00008FFFFEFF000001400004014096
:104C600000400140004401400048014004490968F7
:104C7000044A01F00F01515C01F01F01C840704768
:104C8000184402580E71000805490968054A01F0E8
:104C900070010909515C01F01F01C8407047000014
:104CA0001C4402580E71000805490968054A01F4C0
:104CB000E061090A515C01F01F01C8407047000023
:104CC0001C4402580E7100080D480EB50168002002
:104CD00011F038010AD008290ED010290ED0182959
:104CE00003D16846FFF710F800980EBDFFF70EFAE3
:104CF000C1080448C8400EBD03480EBD03480EBDA0
:104D0000104402580090D00300093D0040787D0116
:104D100038B54FF00050FEF755FE0E4C206880006D
:104D2000FCD54FF08040FEF74DFE20684000FCD5DA
:104D30004FF00040FEF746FE20680028FCDA0548E8
:104D4000001D016841F000510160006800F0005052
:104D5000009038BDDC440258F0B597B0B1B3FF22E3
:104D60008DF80020FE238DF801306E468DF802008C
:104D70005FF00000421C01EBC00393ED000B06EB5B
:104D8000C003D0B20A2883ED020BF3D39DF80000D4
:104D9000FDF756FE9DF80200FDF752FE5FF000059C
:104DA000002406EBC5073819007AFDF749FE641C9C
:104DB000E4B2082CF7D36D1CEDB20A2DF0D39DF8A8
:104DC0000100FDF73DFE002017B0F0BDFFE7012018
:104DD000FAE710B54FF0E020006901F071FF0128FB
:104DE00003D0BDE8104001F015BB10BD554810B50B
:104DF000016821F00F0141F004010160016801F038
:104E00000F010429FAD15048016821F0070141F04F
:104E1000020101604C480C30016841F440410160DE
:104E20000168C1F340310029FAD04848016841F4D3
:104E3000803101600168C1F340410029FAD0434A42
:104E40002832116821F0030141F002011160111DA7
:104E50000B6843F480330B600B6843F480230B60D2
:104E60000B6823F00C0343F008030B600B6823F07E
:104E700002030B60116821F47C7141F05001116054
:104E8000324930310A686FF3080242F0BF020A600B
:104E90000A6822F47E4242F400720A600A6822F430
:104EA000FE0242F480320A600A6822F0FE4242F0BA
:104EB00080720A60016841F0807101600168C1F38D
:104EC00040610029FAD00820FFF748F91F48103048
:104ED000016821F0070141F003010160016801F060
:104EE00038011829FAD1194C1834206820F4706060
:104EF00020600820FFF732F9201D016821F07001C1
:104F000041F040010160016821F4E06141F48061F9
:104F10000160206820F0700040F0400020600B48E5
:104F20002030016821F0700141F040010160084823
:104F3000FFF730F90F20FEF7DDF9002801D072B637
:104F4000FEE710BD002000520C48025800440258F1
:104F500000389C1C2C48F0B52C4A016841F47001C3
:104F60000160106800F00F00072804D2106820F0DC
:104F70000F00C01D106026490020254C10340B681E
:104F8000244D43F001030B6020600B682B400B6045
:104F9000136803F00F03072B04D9136823F00F03E2
:104FA000DB1D13601A4C1C4A18341C4B261D371D80
:104FB0002060174C1A4D28343060261D3860371D8C
:104FC00023603B1D35601C1D3A60251D2E1D186099
:104FD000331D22602860326018600A680C4B114C47
:104FE00022F4802260330A60186020686FF30F009B
:104FF000B0F1005F03D20C490120C1F8080143F26F
:10500000D2000A490860F0BD88ED00E0002000529F
:10501000004402587FEDF6EA80020101000202021C
:105020000000FF010010005C0080005100400052B1
:105030000148FEF7F8BB00001C0100202DE9F047F5
:10504000274B4FF0804A274D02689842264E274F43
:10505000274C09D0504507D0A84205D0B04203D014
:10506000B84201D0A04205D1D1F804C022F07002AC
:105070004CEA0202DFF87CC0DFF87C809842DFF85F
:105080007C900FD050450DD0A8420BD0B04209D033
:10509000B84207D0A04205D0604503D0404501D0BA
:1050A000484503D1CD6822F440722A434D6922F06D
:1050B00080022A43026098428A68C2620A68826259
:1050C00007D0A04205D0604503D0404501D04845F7
:1050D00001D10969016301214161BDE8F087000048
:1050E000000001400004004000080040000C0040A7
:1050F00000040140004001400044014000480140DC
:10510000FEE703B401984100009850EAC12018BF9F
:1051100004204A0D18BF40F0010040F2FF72B2EBCC
:10512000515F08BF40F00200012808BF052002B00F
:105130007047090700284FEA116104DB00F1E02005
:1051400080F80014704700F00F0000F1E02080F8B4
:10515000141D7047000000002DED020B9FED340B75
:10516000DDE90010C0F30A529FED331BA2F2FF32BB
:10517000142A2DDA9DED002B9FED2D0B002A32EE27
:10518000000B10DAB4EEC01BF1EE10FA49D2002881
:10519000BCBF4FF00040002143DB50EA010218BFC2
:1051A000274813D13DE0274BD34000EA030C5CEACB
:1051B000010C17D0B4EEC10BF1EE10FA31DD00286E
:1051C00003DD4FF48011D14008449843002128E0CA
:1051D000332A07DCA2F114034FF0FF3C2CFA03F34F
:1051E000194203D19DED000B02B070479DED002BDD
:1051F00030EE420BB4EEC10BF1EE10FA11DD0028D7
:105200000EDD142A08BF401C0AD0C2F134024FF050
:10521000010C0CFA02F20A448A4238BF401C1146C3
:105220009943CDE900109DED000B02B070470000DE
:105230009C7500883CE4377E000000000000000000
:105240000000F03FFFFF0F0030380A2801D2012094
:105250007047002070476FF40041401804D00128C7
:1052600003D0022801D008147047002070476FF463
:105270000041401800D0002070476FF400414018F2
:1052800005D0012802D0022801D00020704701205B
:105290007047000070B504004FF0FF3511D0207842
:1052A0003A280ED10CA12046FBF7AEFA58B10CA15A
:1052B0002046FBF7A9FA48B10BA12046FBF7A4FA58
:1052C00038B1284670BD48F2010070BD48F20200B6
:1052D00070BD48F2030070BD3A535444494E00007B
:1052E0003A5354444F5554003A5354444552520093
:1052F0006FF4004211140846704700002DE9F04792
:1053000014460E466FF400421114801803D0012891
:1053100004D002281ED00846BDE8F087D4B10E4F55
:105320004FF00008DFF834903D1F00BF296816F8E1
:10533000010B08290CD24A1C7854082A2A6001D093
:105340000A2805D104494846FDF7E8FBC5F8008066
:10535000641EEBD10020DFE70801002000FE020000
:10536000034600B5C0B2FDF7FDFA184600BDFDF7D3
:105370007DF9FFF79FFAFCF799FDFEE7EFF3058053
:10538000002802D06FF0050070470548016811B190
:105390004FF0FF307047012101600020704700008E
:1053A000D400002010B5EFF30580002802D06FF084
:1053B000050010BD07480168012902D04FF0FF30F9
:1053C00010BD054A002111700221016000F01AFF92
:1053D000002010BDD40000201FED00E02DE9F041B9
:1053E00004460F46134EF5683068001D00F0C4FCFB
:1053F000B4F1FF3F07D137B13068BDE8F041011D7E
:105400000D4800F00EBD2C4430684460AC4206D21A
:105410003068011DB06BBDE8F04100F0E5BC3068BC
:10542000011D706B00F0E0FCB06A844200D2B462EF
:10543000BDE8F08184000020BC06002070B5044661
:1054400000F0FCFC1C4DA868401CA860286810B146
:10545000686938B10CE02C60A868012808D100F018
:10546000A9F905E02868E16AC06A884200D82C6082
:10547000686A401C68626064E06A2969884200D9F1
:10548000286100EB80000D4901EB8000211D00F038
:10549000C8FC00F0F3FC686900280CD02868E16AB9
:1054A000C06A884207D206494FF080500860BFF3B7
:1054B0004F8FBFF36F8F70BD840000200C0200205F
:1054C00004ED00E038B500F0B9FC0F4C2068B8B925
:1054D0000E4800F07BFC0E4800F078FC0B48E060C2
:1054E000143020610B4B0020102100900A2003F1A2
:1054F000500200F0F1FF206010B107A100F042FD62
:10550000BDE8384000F0BABCC0000020C007002051
:10551000D4070020D0060020546D72510000000016
:1055200070B50D4C6068002815D00C4E00F086FC5C
:10553000F068C568281D00F01FFCA068401EA06030
:105540006068401E606000F099FC284600F051F849
:1055500060680028EAD170BD84000020A806002001
:105560000B46026C002A0CD0C1681144C160D0F80F
:1055700008C0614501D30168C160C1681846FBF7E6
:105580009DB870472DE9F041044616460027A56BEB
:10559000226C002A10D0C6B1E068FBF78FF8E168F2
:1055A000206C091AE1602268914202D2A168081AAF
:1055B000E060022E16D017E02068A8B9A06801F0BC
:1055C000F9FB07460020A0600EE06068FBF776F864
:1055D000216C606808446060A168884204D3206838
:1055E000606001E005B16D1E681CA0633846BDE82F
:1055F000F08110B5044694F8591000290BD0012908
:1056000011D0022914D0502080F31188BFF34F8F9E
:10561000BFF36F8FFEE7206B00F046FC2046BDE82D
:10562000104000F041BC2046BDE8104000F03CBCFA
:1056300010BD416A002904D0006B0068C0F1380039
:1056400070470020704700000749CA6811680029A8
:1056500004D00021016019B1002070470121F9E751
:10566000D068006870470000C00000204FF480310F
:10567000104810F0070F06D0C01D20F007000D499C
:10568000411AC1F580310C4A106000235360014477
:10569000083921F00701183A11604B600B600B1AB2
:1056A000436001604068906050604FF0004050617E
:1056B00070470000A00E0020F0000020074E4FF0C1
:1056C0008054074DFFF72CFF30680128FAD92C6071
:1056D000BFF34F8FBFF36F8FF4E700000C02002081
:1056E00004ED00E0002808D0002181600160C16065
:1056F00000231A46194600F06FBF704770B51D466B
:10570000049C002909D02260E06321640121204625
:1057100000F01AFF84F84C5070BD2460F4E72DE9C6
:10572000F05F82460E4690469B460B9F0A9D0C9C5E
:10573000A5224FEA8801206BFBF737F8206BA8F110
:10574000010100EB810020F007094FF0000866B16D
:1057500000202218315C82F83410315C11B1401CF9
:105760001028F6D384F8438001E084F83480382D83
:1057700000D33725E562E564C4F85080201D00F0B1
:1057800030FB04F1180000F02CFB2461C5F1380057
:10579000A0616462C4F8548084F858805A46514627
:1057A000484600F0D3FA2060002F00D03C60BDE8EE
:1057B000F09F000070B500240F4D04EB840005EB52
:1057C000800000F003FB641C382CF6D30B4800F07B
:1057D000FDFA0B4800F0FAFA0A4800F0F7FA0A4816
:1057E00000F0F4FA094800F0F1FA0948034941636E
:1057F0001431816370BD00000C0200206C06002093
:105800008006002094060020A8060020BC06002088
:10581000840000204DF8044D144900E011460A6848
:105820008242FBD34B6803EB010C844503D14068F3
:105830001844486008460C68D0F804C00CEB00031C
:10584000A3420CD10A4B1B689A4206D052686244AC
:1058500042600A681268026002E0036000E00260D1
:10586000814200D008605DF8044B7047F0000020D2
:10587000D800002010B50024416000619142DFF89B
:1058800038C00BD8D11A8269914201D3012410E0AB
:10589000011DDCF8100000F0A7FA0AE09A4203D2DA
:1058A000994201D3012404E0011DDCF80C0000F052
:1058B0009BFA204610BD0000C000002010B5044631
:1058C00000F0BCFAA06B20B1002400F0D7FA20460B
:1058D00010BD0124F9E710B5044600F0AFFAA06B43
:1058E000E16B884201D1012400E0002400F0C6FAF7
:1058F000204610BDF8B505460E461748C068C0687A
:10590000C468201D00F038FA94F8280010F0040F45
:1059100018D0A0692B46324641192046FFF7AAFF4E
:10592000A0B100202A46034601460090204601F01F
:1059300097FB58B9502080F31188BFF34F8FBFF306
:105940006F8FFEE720F0010084F82800216A01B083
:105950002046BDE8F0400847C000002030B587B0C1
:10596000414D002202A9286800F09EFF002875D052
:105970000298002803DA039A059904989047029840
:10598000002864DB049C606910B1201D00F0F4F96C
:1059900001A800F0B3F8024602980A2857D2DFE8BF
:1059A00000F00505052F364D05052F3694F8280023
:1059B00040F0010084F828000398A16903460144DF
:1059C0002046FFF757FF002841D0216A204688472C
:1059D00094F8280010F0040F39D0002000900398AC
:1059E0000023A16942181946204601F039FB70BB1B
:1059F000502080F31188BFF34F8FBFF36F8FFEE706
:105A000094F8280020F0010084F828001FE094F8A2
:105A1000280040F0010084F828000398A06128B114
:105A2000811813462046FFF725FF10E0502080F331
:105A30001188BFF34F8FBFF36F8FFEE794F82800F4
:105A400010F0020F0CD020F0010084F82800286824
:105A5000002202A900F028FF002889D107B030BD3C
:105A6000204600F021FAF2E7C0000020F8B5054614
:105A70000C4600F00FFC684600F040F8064600981F
:105A800010B101F053FAF8BD44B9B54206D801F09F
:105A90004DFA31462846FFF72DFFF8BD0C481CB1E2
:105AA0000169096891B100240068A91B224600F031
:105AB0007DFA01F03BFA0028EFD106494FF0805003
:105AC0000860BFF34F8FBFF36F8FF8BD0124EBE782
:105AD000C000002004ED00E00749486B0068002882
