:020000040800F2
:100000002865012049060008A56700083F5200083E
:10001000035F0008393C0008B97F000800000000B9
:10002000000000000000000000000000A503000820
:10003000BD3C00080000000001040008A56C000899
:1000400063060008630600086306000863060008EC
:100050006306000863060008D9040008F1040008DC
:100060006306000863060008630600083D3C0008BC
:1000700063060008630600086306000863060008BC
:1000800063060008630600086306000863060008AC
:10009000630600086306000863060008630600089C
:1000A000630600086306000863060008630600088C
:1000B00063060008630600089D0500086306000843
:1000C000630600086306000863060008630600086C
:1000D00063060008E96F000863060008630600086D
:1000E00063060008630600080000000063060008BD
:1000F000630600086306000863060008630600083C
:10010000630600086306000863060008630600082B
:100110006306000863060008196F000863060008FC
:10012000630600086306000863060008630600080B
:1001300063060008630600086306000863060008FB
:1001400000000000000000000000000000000000AF
:1001500063060008630600086306000863060008DB
:1001600063060008630600086306000863060008CB
:10017000630600089169000863060008000000009B
:1001800063060008630600086306000863060008AB
:10019000630600086306000863060008630600089B
:1001A000630600086306000863060008630600088B
:1001B000630600086306000863060008630600087B
:1001C000630600086306000863060008630600086B
:1001D000630600086306000863060008630600085B
:1001E000630600086306000863060008630600084B
:1001F000630600086306000863060008630600083B
:10020000630600086306000863060008630600082A
:10021000630600086306000863060008630600081A
:10022000630600086306000863060008000000007B
:10023000630600086306000800000000630600086B
:1002400063060008630600086306000863060008EA
:1002500063060008630600086306000863060008DA
:1002600063060008630600086306000863060008CA
:10027000630600086306000863060008000000002B
:10028000630600086306000863060008000000001B
:10029000000000006306000800F002F800F072F8A9
:1002A0000AA090E8000C82448344AAF10107DA45D1
:1002B00001D100F067F8AFF2090EBAE80F0013F0B1
:1002C000010F18BFFB1A43F00103184774A1000087
:1002D000A4A100000A444FF0000C10F8013B13F0F9
:1002E000070408BF10F8014B1D1108BF10F8015B8F
:1002F000641E05D010F8016B641E01F8016BF9D182
:1003000013F0080F1EBF10F8014BAD1C0C1B09D1D8
:100310006D1E58BF01F801CBFAD505E014F8016B4A
:1003200001F8016B6D1EF9D59142D6D370470000DC
:100330000023002400250026103A28BF78C1FBD8EE
:10034000520728BF30C148BF0B6070471FB509F086
:100350002FFF9DE8030001F047FD00F0A3FE04001D
:100360000020002109F006FF401C606000200021F1
:1003700009F0EAFEE06001F0EFF81FBD10B501F0F2
:1003800054F910BD01F0A6F91146FFF7DFFF08F0A0
:1003900085F801F0FDFC03B4FFF7F0FF03BC01F0AA
:1003A000A9FE00002C4B19680868B0E8F04F80F3F4
:1003B0000988BFF36F8F4FF0000080F311887047FA
:1003C0000000000008480068006880F308884FF0CB
:1003D000000080F3148862B661B6BFF34F8FBFF39D
:1003E0006F8F00DF00BF00BF08ED00E0DFF80C00FA
:1003F000016841F470010160704700BF88ED00E0C2
:10040000EFF30980BFF36F8F134B1A681EF0100FC4
:1004100008BF20ED108A20E9F04F106009B44FF0BA
:10042000500080F31188BFF34F8FBFF36F8F08F038
:10043000D9FF4FF0000080F3118809BC19680868E3
:10044000B0E8F04F1EF0100F08BFB0EC108A80F338
:100450000988BFF36F8F7047A8000020EFF3058075
:10046000704700000246D2E84F0F411CC2E8431F0C
:1004700003B1F8E77047024652E8000F411C42E81A
:10048000001303B1F8E77047024652E8000F42E854
:10049000001303B1F9E77047024652E8000F8301E9
:1004A00003D3BFF32F8F0020704700F000400843B4
:1004B00042E8000303B1F0E77047024652E8000F3C
:1004C000800103D2BFF32F8F0020704742E8001352
:1004D00003B1F3E701207047012010B504F0D2FF0B
:1004E000002804D04FF0B0410120C1F8880010BDB1
:1004F0007FB54FF0B041002500950220D1F888204B
:10050000904333D10220C1F888001E481E4C016977
:10051000022088432BD003F001FA1D481B4A111D0D
:1005200003785958D8B2D35889B2D1F5806123F0F5
:10053000010313500ED0164A5069D26903920190FC
:10054000207800238DF804006A46029101A96068B2
:1005500009F07CF9009838B10E494FF080500860DE
:10056000BFF34F8FBFF36F8F02F05AFB7FBD02F0D6
:1005700045FB257003F0BEF907484FF4806102F097
:10058000E3FD7FBD001002588C00002000000240F7
:1005900044A3000804ED00E0002000307FB52448AB
:1005A00000250095016911F0010F3BD0A91E0161E2
:1005B00005F044FE1F4C2178A9B31F494FF4806217
:1005C000E36893420BD200EE100AE068B8EE400AEE
:1005D00001EB800080ED000AE068401CE060E0680C
:1005E00090421FD3606808B3144A01AB07CA83E87E
:1005F0000700207800238DF8040001A960686A468E
:1006000009F024F92078C0F101002070E56000981D
:10061000002807D00A494FF080500860BFF34F8F81
:10062000BFF36F8F7FBDFFE70649C7E7E560F9E7D6
:1006300000080040980000200060003064A300081B
:1006400004ED00E0005000300948804709480047A9
:10065000FEE7FEE7FEE7FEE7FEE7FEE7FEE7FEE772
:10066000FEE7FEE704480549054A064B70470000CF
:100670003D6E0008990200082859012028650120D4
:10068000285D0120285D01200FB4044910B503AA9C
:10069000029800F013FA10BC5DF814FB4817012013
:1006A0000FB400B58DB010A9099000910B904FF0D8
:1006B000FF300A9000200C900648784406900648C7
:1006C00078446A4607900F9909A800F099FC0DB08C
:1006D0005DF814FB630900007B0900002DE9FF5F52
:1006E0001D464FF0FF3B91464FF000085F46D5E9AD
:1006F0000146A96901987F1C8847296A8246884774
:100700000028F6D1BAF1FF3F0CD0002E24F4C064CB
:1007100019DD600614D5BAF12B0F09D0BAF12D0FEF
:100720000ED103E0584604B0BDE8F09F44F4806465
:10073000A96901987F1C8847761E8246002E02DD3B
:10074000BAF1300F03D0B9F1000F26D032E0A96919
:10075000761E01987F1C44F400748847002E824660
:1007600005DDBAF1780F06D0BAF1580F03D0B9F110
:10077000000F10D01EE0B9F1000F02D0B9F1100F38
:1007800018D1A969761E01987F1C24F4007488474B
:100790008246102002E0082000E00A20814609E09D
:1007A000A96908FB0908761E01987F1C44F40074AF
:1007B00088478246002E05DD4946504600F090F9F4
:1007C0000028EDDAE96901988847A00502D46FF0A6
:1007D0000100A8E7E00725D1600613D5600502D522
:1007E000C8F1000000E0404629680A1D2A60096837
:1007F000220501D5087015E0220701D5088011E017
:1008000008600FE02868011D29600068210502D5F5
:1008100080F8008006E0210702D5A0F8008001E002
:10082000C0F8008038467EE700F01ABC401ECAB20D
:1008300010F8011F8A4202D00029F9D10020704728
:1008400030B505460B462A4613F8014B12F8010B4A
:1008500008B1A042F8D01CB1002802D06D1CF1E70D
:10086000284630BD032A40F2308010F0030C00F01F
:10087000158011F8013BBCF1020F624498BF11F8DA
:1008800001CB00F8013B38BF11F8013BA2F1040293
:1008900098BF00F801CB38BF00F8013B11F003030B
:1008A00000F02580083AC0F0088051F8043B083A6F
:1008B00051F804CBA0E80810F5E7121D5CBF51F811
:1008C000043B40F8043BAFF30080D20724BF11F88B
:1008D000013B11F801CB48BF11F8012B24BF00F8F0
:1008E000013B00F801CB48BF00F8012B704710B561
:1008F000203AC0F00B80B1E81850203AA0E8185018
:10090000B1E81850A0E81850BFF4F5AF5FEA027CD8
:1009100024BFB1E81850A0E8185044BF18C918C047
:10092000BDE810405FEA827C24BF51F8043B40F8E8
:10093000043B08BF7047D20728BF31F8023B48BFCD
:1009400011F8012B28BF20F8023B48BF00F8012B0B
:10095000704702F0FF0343EA032242EA024200F03A
:1009600002B84FF000020429C0F0128010F0030C0E
:1009700000F01B80CCF1040CBCF1020F18BF00F892
:10098000012BA8BF20F8022BA1EB0C0100F00DB841
:100990005FEAC17C24BF00F8012B00F8012B48BF9F
:1009A00000F8012B70474FF0000200B51346944643
:1009B0009646203922BFA0E80C50A0E80C50B1F1B7
:1009C0002001BFF4F7AF090728BFA0E80C5048BFCB
:1009D0000CC05DF804EB890028BF40F8042B08BF69
:1009E000704748BF20F8022B11F0804F18BF00F865
:1009F000012B704710B5044610F0030F08BF11F02B
:100A0000030F40F015804FF0013E121FC0F20E8020
:100A100051F8043BA3EB0E0C2CEA030C1CEACE1C91
:100A200008BF40F8043BF0D0A1F1040102F1040238
:100A3000521E08DB11F8013B002B00F8013BF7D1F7
:100A40001146FFF78EFF204610BD00004FF0013C1D
:100A500050F8042B51F8043B9A4215D1A2EB0C0339
:100A6000934313EACC130BD150F8042B51F8043BF9
:100A70009A4209D1A2EB0C03934313EACC13E7D0BB
:100A80004FF00000704700BFD01A01BAB1FA81F1EF
:100A900001F0180122FA01F0CB40C1F12001DBB2D4
:100AA000C0B2C01A2CFA01F3D11A914311EAC31152
:100AB000E6D170477047704770470000074B70B52C
:100AC0000D467B4400F005FB0446284600F040FD3F
:100AD00010B14FF0FF3070BD204670BD3B79000073
:100AE0003A2800D2303820F02002412A01D3A2F166
:100AF0003700884201D34FF0FF3070472DE9FF4F98
:100B000006468BB00878FF2806D0491C2D2805D052
:100B100000244FF0000908E000200CE00124F8E771
:100B200009EB8903491C00EB43090878FF28F7D13A
:100B300014B1C9F100008146107800252C46AA4660
:100B400029462D2801D02B2804D1521C2D2813D042
:100B5000002082468B461078FF280FD04FF0000C03
:100B60000A21521CA5FB017804FB018105FB0C1135
:100B7000C5194BEB0104EEE70120EAE70021084626
:100B80004FF00000BAF1000F02D000EB80004008E7
:100B9000C0F38157012F01DD4FF0FF370E9955EA61
:100BA000040009EB01080BD04FF0020918F5FA7F99
:100BB00016DA4FEACA70002F706008DD012007E0E6
:100BC0004FEACA70C6E900B00FB0BDE8F08F002050
:100BD000306000F06BFAC0F800901821084616E06B
:100BE000B8F5FA7F18DD002F02DAF748784401E003
:100BF000F6487844D0E90010C6E9001040EACA700F
:100C0000706000F053FAC0F80090142108460FB04D
:100C1000BDE8F04F09F0D1BA002108464FF00000BE
:100C2000B8F10001099002DAC7F1000200E03A468B
:100C300001DAC8F1000106A800F018FC06AB93E841
:100C4000070003AB83E8070044F23E005BEA0401BF
:100C50000090584604D144F21E012C465D46009196
:100C6000210C0904014306D10099240444EA1544E7
:100C70002D041039009104F07F41014306D1009901
:100C8000240244EA15642D020839009104F07041F1
:100C9000014306D10099240144EA15742D01091F6E
:100CA000009104F04041014306D10099A40044EAB8
:100CB0009574AD00891E009104F00041084304D1F1
:100CC00000986D196441401E00904FF001033A46B0
:100CD0006846B8F1000FCDE9014503A902DD01F036
:100CE0002CFD01E001F0FFFCBAF1000F04460D46B7
:100CF00001D084F00044002108464FF0000009991B
:100D000040F2FF77484010F00C0F07D124F000406C
:100D1000284303D0C4F30A50B84212D100F0C6F9F8
:100D2000C0F80090C4F30A50B8420AD1A8487844E9
:100D3000D0E90010C6E9001004F0004108437060DB
:100D400042E7C6E900543FE72DE9FF4F1F464FF049
:100D5000000A4FF0FF38454691B0D7E90146CDF87B
:100D60003CA000F09FF9C0680168405C1090B96930
:100D700012986D1C8847396A814688470028F6D149
:100D8000B9F1FF3F0AD0002E24F4D06411DDB9F18F
:100D90002B0F08D0B9F12D0F0BD102E0404615B052
:100DA00013E744F48064B96912986D1C8847761E75
:100DB0008146600504A901D52D2000E02B20002EDE
:100DC00001F1010B0DF130088DF810003FDDB9F194
:100DD000690F08D0B9F1490F05D0B9F16E0F02D0F3
:100DE000B9F14E0F1CD13B4601A8009580E8500296
:100DF000DDE912126FF0020009F046FAC11CCED1F3
:100E00000EE0B96912986D1C884781461398761ECA
:100E100044F4007405600F98401C002E0F9016DDFE
:100E2000B9F1300FEDD0B9F1780F02D0B9F1580F08
:100E30000DD10F9801280AD13B46CDE90054DDE9D8
:100E40001212001F029609F01DFAC11CA7D11099B9
:100E500089453ED144F0800406E01399681CAAF14C
:100E6000010A44F400740860B9696D1C1298761E7A
:100E7000884730288146F0D02BE01099894505D16C
:100E8000200603D4761E44F0800418E0484607F09C
:100E90002BFA08B3761E0DF123018B4544F4007440
:100EA00008D2A9F130000BF8010B200607D5AAF1F2
:100EB000010003E0200602D40AF101008246A005E9
:100EC00002D51399681C0860B96912986D1C88478F
:100ED0008146002ED1DC53E0002E51DDB9F1650FC3
:100EE00002D0B9F1450F4BD1A00549D5B9696D1CA8
:100EF0001298761E24F440748847002E81460CDD3B
:100F00002B2804D0B9F12D0F07D144F48074B969AE
:100F100012986D1C8847761E8146E00501D52D216B
:100F200000E02B2108F8011BCDF8008021E0761E9F
:100F30000DF13901884544F400740CD2A9F1300058
:100F400010F0FF0088F8000002D10099884509D907
:100F500008F1010806E0E00501D51E4801E042F273
:100F60000F708246B96912986D1C884781461398A4
:100F70000560002E04DD484607F0B6F90028D6D1FA
:100F8000F96912988847FF2053468BF8000088F8CB
:100F9000000000200A900B9004AA0CA90AA8FFF7F1
:100FA000ADFDA00502D46FF00100F8E614F0240FA7
:100FB00012D0E0071CD13868DDE90A12031D3B603E
:100FC0000068C0E9001213E0889800007A980000D9
:100FD0003E970000F1D8FFFF0AA9684607F01CF908
:100FE000E00705D13868009A011D39600068026089
:100FF0002846D4E602681144137801601846704709
:10100000D160054979445161044979441162002154
:101010001161114600F070B8EDFFFFFFA70000005E
:10102000426842B1016811F8013B23B1521EC0E988
:101030000012184670470121C160881E704742683F
:101040005AB1C368016843B983688B4205D0491E11
:10105000521CC0E90012002070474FF0FF3070476B
:101060002DE9F04115460E46040002D12C6804B962
:101070000BA4204600F01CFB0444207870B12746E6
:101080003146384600F004FB0444207810B10020BB
:1010900004F8010B38462C60BDE8F0810027F9E721
:1010A00000000000004870471018012000487047F9
:1010B000F017012010B5044600F032FB0068005D17
:1010C00000F0010010BD000001694A1C02610878AF
:1010D000704700B58FB0CDE9013100210591054978
:1010E0007944CDE903101146684600F053FB0FB078
:1010F00000BD0000E5FFFFFF2DE9F34F4FF0000AB0
:101100000C4656468DB001200C9001F10C000B905E
:1011100062690B9801219047051E2DD0252D2CD0FA
:10112000216A8847C0B162690B9801219047216A02
:1011300088470028F7D16269411E0B98904700E06C
:10114000761CA1690D988847216A88470028F7D145
:10115000E1690D988847DBE7A1690D988847A842A7
:10116000074601D1761CD3E7E1690D9888477F1CBB
:1011700002D1BAF1000F6FD06CE162690B980027C1
:101180003D46394690472A2804D162690B980121CF
:1011900090470125DFF8D08262690B9801219047C2
:1011A000A0F130010A290AD24745E5DC07EB8701A7
:1011B00000EB4107303FDFD445F01005ECE7E906CE
:1011C00001D46FF000476C280AD04C2814D068284E
:1011D00015D06A280DD074281CD07A281AD01DE0AA
:1011E00062690B98012190476C2802D045F00405F4
:1011F00014E045F002050DE045F020050AE06269C3
:101200000B9801219047682802D045F0080505E0B9
:1012100045F4006562690B9801219047C4E90157C4
:1012200065283DD019DC58287AD00CDC452837D009
:1012300004DC252826D041289ED131E046282FD035
:10124000472899D12CE05B2877D0612828D06328E3
:101250007CD0642823D15AE0F7E06F2848D008DC1E
:1012600066281DD067281BD0692821D06E2816D18A
:1012700027E0702845D0732868D0752847D0782893
:101280000DD14DE0A1690D988847252805463FF40A
:1012900069AFE1690D9888476D1C3FF46AAFD9E0EA
:1012A0000D9923466A466FF0010008F0E9FFC6E099
:1012B00045F0400023464FF000026060A80736D496
:1012C0003EE0E8077FF447AF2068011D2160006819
:1012D000290501D506701BE7290701D5068017E708
:1012E000A90703D5F117C0E9006111E706600FE710
:1012F00045F0400023464FF008026060A80716D46E
:101300001EE040F60E0125EA0100606016E045F09F
:10131000400023464FF00A026060A80707D40FE0A0
:1013200045F040006060A80708D5234610220D99BB
:101330006FF00100AFF3008081E007E01022234648
:101340000D996FF00100FFF7C9F978E04FF000093F
:1013500063284F46C8464B46CB4602D05B2807D091
:1013600039E02079C00601D40120A060012732E0D5
:101370006269D4F80CB00B98012190475E2807D120
:101380004FF0010949466269D4F80CB00B989047B8
:10139000216939B900210A4603AB43F82120491CD1
:1013A0000829FADBD8B3216949B308F10108626959
:1013B0000B98012190475D28F4D1B9F1000F09D0B5
:1013C000002003A951F82020D24341F82020401CDE
:1013D0000828F7DB03AB2069002820794FEA40702A
:1013E0001ED05B462246CDF80080CDE901970D99CD
:1013F00000286FF0010020DAAFF300801FE0C11772
:1014000003AA00EBD1614B1121F01F0102EB830213
:10141000411A13680120884003431360C7E719E0AD
:101420000D99224600286FF00100009702DAAFF311
:10143000008004E0AFF3008001E0AFF300800028FB
:101440000ADA401C06D10C9820B14FF0FF300FB0E3
:10145000BDE8F08F5046FAE7E90701D10AF1010A29
:10146000064400200C9053E6CCCCCC0C2DE9F04780
:10147000814616468AB0354878440DC88DE80D007F
:1014800032487844801C03AC0DC884E80D0041F656
:101490009B300844372190FBF1F290FBF1F5A5F168
:1014A000800501FB12041B3C02D56442012000E0D0
:1014B0000020DFF898A080460027FA44AAF1BE0A6F
:1014C0000EE0E0070AD03246684607EB47010123E9
:1014D0000AEB810101F01CF98DE8070064107F1C04
:1014E000002CEED1194F7F44AE3F19E0E80715D02C
:1014F00007EB04100DF1180A90E80E008AE80E00C0
:10150000C068F04201D1981908903246012306A91B
:1015100003A801F0FDF803AB83E807006D10641C1D
:10152000002DE3D14FF0010332466946B8F1000FB8
:1015300003A802D001F0C2F801E001F0E9F8C9E91E
:101540000001C9F808200AB0BDE8F087AC8F0000A0
:10155000007B00F08000704710B542485421FFF72F
:1015600022FA41485421FFF71EFA40485421FFF760
:101570001AFA3F493B483C4A3F4B08603D490A60E4
:101580003A491960531C0365481C10650120086521
:101590003B48344A39A1784400F05EFB20B9384812
:1015A00078440A3800F0FDFB37482F4A35A17844CB
:1015B00000F052FB20B9344878440A3800F0F1FBBF
:1015C00032482A4A2FA1784400F046FB20B92F4820
:1015D00078440A3800F0E5FB40232248DC00002173
:1015E000224600F015FB20B125487844543800F01D
:1015F000D8FB1D4822464023002100F009FB20B102
:1016000021487844543800F0CCFB18482246102377
:10161000002100F0FDFA002806D01C487844BDE8FF
:101620001040563800F0BDBB10BD104870B5006DBD
:1016300020F001040B4800F085FB0B4800F082FB12
:101640000A4800F07FFB09E0206D20F001052046EC
:1016500000F078FB204600F06BF82C46002CF3D10C
:1016600070BD0000F4160120481701209C170120CE
:10167000380100203C0100204001002072000000E1
:10168000FA8D000077000000E98D0000D98D000080
:1016900030B503461D781DB10A4603E0AC4201D1C6
:1016A000181A30BD12F8014B002CF7D15B1CF1E782
:1016B00030B503461D783DB10A4612F8014B1CB106
:1016C000AC42FAD15B1CF5E7181A30BD00487047F0
:1016D000F01701207546FFF7F9FFAE460500694691
:1016E000534620F00700854618B020B5FEF7BAFF34
:1016F000BDE820404FF000064FF000074FF0000813
:101700004FF0000B21F00701AC46ACE8C009ACE893
:10171000C009ACE8C009ACE8C0098D4670470000BC
:1017200010B5FFF7BFFC001D10BD00BF498A0000C7
:1017300070B50446051F00F03BFB0068002C14BF89
:10174000446870BD002C18BFAC423CBF20466468A2
:10175000F8D301680A18AA4218BF456003D12A6865
:1017600005461144016028684119A1421CBF6C6004
:1017700070BD6168696021680844286070BD10B55B
:10178000FFF794FC006810BD10B50446FFF78EFC0F
:10179000046010BD2DE9F04106460024D6E9017031
:1017A000F5688046304603E04146B847641C304641
:1017B000A8470028F8D12046BDE8F0812DE9FF4F69
:1017C0001F464FF03C0987B04FF00042DDE914108E
:1017D00001F10108DDF858A002EA40500390002012
:1017E00005908346054604460490B969461E08984C
:1017F0008847AAF1010A0290BAF1000F3BDD029876
:101800002E2815D01021FFF76BF900282EDB4FF0A2
:10181000010B0599014317D0B9F1000F0BDB4A46C4
:10182000C11700F03FFB05430C43A9F1040905E093
:10183000012004900BE008B145F00105012005905E
:10184000049820B9361D02E0049800B1361FB9692A
:10185000089808F101088847BBF1000FAAF1010AB6
:101860000290C9D00999C1F80080C5E70298702894
:1018700008D0502806D0F96908988847BBF1000FB6
:1018800014D04FE0002002900120BBF1000F049023
:1018900009D0B969089808F101088847AAF1010937
:1018A000B9F1000F07DCF969089888476FF001006B
:1018B0000BB0BDE8F08F2B2804D02D280CD14FF0B1
:1018C000FF300490B969089808F101088847A9F128
:1018D0000109B9F1000FE6DD411CE4D00A21FFF750
:1018E000FFF80028DFDB029908F1010801EB810114
:1018F00000EB41000290B969089888470A21FFF778
:10190000EFF8099AA9F10109B9F1000FC2F80080B6
:1019100001DD0028E7DAF9690898884704990298F8
:1019200000FB016655EA040004D004F040410900C0
:1019300002D006E0039898E0A40044EA9574AD0054
:10194000B61E04F00041080002D16D196441761EF4
:10195000159810F0240F03D04FF00B095C4803E0FA
:101960004FF028096FF07D008246564507DAAAEB52
:1019700006018944B9F1410F01DD4FF04109012011
:101980000021A9F1010200F08DFA024628400B4621
:101990002140084301D0012100E00021501E0291A6
:1019A00043F1FF3128402140084301D0012000E0ED
:1019B00000200299834651EA0B014FD000210846CE
:1019C0004FF00000039900F4400039B100EB8000B3
:1019D0004FF4400100EBD07001EA6000801501284F
:1019E00002DD4FF0FF3000E013D0401C36D00298EB
:1019F00060B3BBF1000F0CD14A460120002100F07A
:101A000051FA28402140084301D0012000E0002085
:101A1000E0B101204A46002100F044FA0346401993
:101A20000A4661412D1A8C4111D3B9F1400F09DDED
:101A3000159810F0240F02D0AAF1340603E0AAF1A1
:101A4000170600E0761C00254FF0004406E05B1E00
:101A500042F1FF3220EA030521EA0204CAF1010043
:101A6000B04206DA1B490398084301900020009019
:101A70000EE0039AC4F3D321E80A0A43164940EA68
:101A800044500A433146CDE90002684606F0D0FBD7
:101A9000159810F0240F0BD01598C00715D1386891
:101AA000DDE90012031D3B600068C0E900120CE094
:101AB00002A8694606F0B0FB1598C00705D1386842
:101AC000029A011D3960006802604046F0E600009D
:101AD00002FCFFFF0000F07F0000F03F2DE9FF4F08
:101AE00092461D4685B04FF00041DDE9124BDDE91D
:101AF00014727F1E01EA4B50414940F0FF4940EA11
:101B00000108002122F020004928049102D04E282B
:101B100028D04CE03BA0012607C88DE80700A96942
:101B20000698641C88477F1E014606D41DF80600EF
:101B300018B121F0200181420BD0E969069888474D
:101B4000032E34D0082E32D06FF0010009B0BDE86A
:101B5000F08F761C032E01D0082EE0D1601CCAF84D
:101B60000000DCE7A9690698641C88477F1E2AD418
:101B700020F02000412826D1A9690698641C8847D6
:101B80007F1E20D420F020004E281CD1A969069881
:101B9000641C88477F1E48F4002849F48009CAF86D
:101BA000004001D4282806D0E969069888475FEAF2
:101BB000CB7012D022E0A9690698641C88477F1E6A
:101BC00001D4002803DAE96906988847BCE7292888
:101BD000F1D1641CCAF80040E9E71BF0240F07D0DC
:101BE00028680499031D2B600068C0E9001805E00F
:101BF0002868021D2A600068C0F800902046A5E70A
:101C00000000F07F494E46494E49545900000000FB
:101C100070B5C468A50713D0650211D4B2F5807FF2
:101C200009D0B2F5007F06D0B2F5806F08D101234C
:101C300000F1240106E05D1E6FF07F46B54201D33E
:101C4000012070BD0161C361416024F470611143E2
:101C5000C160002070BD00002DE9F0410C46074630
:101C60001646104600F06EF82078611C61280AD0F4
:101C7000722802D077283CD102E00125002405E03B
:101C80000225042402E0082448F2020511F8010BA1
:101C90002B2806D0622809D011F8010C74280AD02C
:101CA0000BE045F0030544F00204EFE745F00405BE
:101CB00044F00104EAE744F010043846214606F0F7
:101CC00039FB411C15D00021316171604FF4007166
:101CD000F560F1617061200704D5304602220021D1
:101CE00000F0F4F8306D40F0010030653046BDE89A
:101CF000F0810020FBE72DE9F0410D460646104C2F
:101D0000206DC10704D0410804D020F00104F7E79A
:101D100022460EE0542000F096F807000ED0206D09
:101D200047F001010843542120653846FEF73BFE89
:101D30003A4629463046BDE8F0418DE70020D6E717
:101D4000F41601202DE9F04704464FF000094FF04A
:101D5000FF37C568D4E90486A80707D0204600F0FD
:101D600065F9304606F0C7FA002802DA3846BDE8C1
:101D7000F087280502D54046FFF7DAFC4C212046C3
:101D8000FEF711FE206D20F0010020654846EEE7C9
:101D900010B50446AFF300802046BDE81040FEF7C2
:101DA000FABA10B500F08CF9BDE8104000F082B925
:101DB00000487047F8170120704770477047704718
:101DC00038B504460A4600206946AFF30080002873
:101DD00008BF38BD02460099204600F098F901205E
:101DE00038BD012000F0E7B9F8B5AFF30080054633
:101DF00000200C46102000BF0646A819A0420DD9AD
:101E0000324669460020AFF30080070008BF00F0AB
:101E1000D2F90098A04218BF0546C419FFF7C8FFC1
:101E200005600746F01D20F007004619284600F01F
:101E300067F9B44208BFF8BDA21B31463868BDE857
:101E4000F84000F064B970B50646FFF7B1FF0568C9
:101E500006F10B0020F00704B4429CBF002070BDC7
:101E60002B466A68BAB11068A04210D304F1080189
:101E700088423CBF5068586007D3516810194160D0
:101E80001168091B016058601460101D70BD134675
:101E90005268002AE7D121462846FFF791FF002823
:101EA000DED170BDB2F120030AD5C2F1200301FAE0
:101EB00002F120FA03F300FA02F041EA030170474D
:101EC00000FA03F14FF00000704700002DE9F041E7
:101ED000044616460D464769007B80072ED03846DB
:101EE00006F01BFA50BB3EB3012E02D0022E25D1C4
:101EF00004E0204600F025F905441DE0384606F0D0
:101F000006FAE168002841F01001E16005DA204698
:101F100000F058F80120BDE8F081C9030BD56268D4
:101F2000E16A914200D81146A26911442269891AD6
:101F3000814200DD08460544002D01DA0220EAE76F
:101F4000E16A6068E268814206D29103E06203D5EB
:101F500022F4003141F01002A6690027AE4213DCE2
:101F6000E16A814201D90B4600E0034603EB060C0F
:101F70002369ACEB030CAC4506DD814201D98C46EC
:101F800000E084469C4505D1A760276042F0200010
:101F9000A5620DE0AD1BE669AE1B8142A66000D9CB
:101FA0000846C01A281A20605819606022F02000E4
:101FB00003490840E060002084F84870ABE7000067
:101FC000BFCFD7FFC16821F4001141F08001C1608B
:101FD00000218160016070472DE9F0478146144679
:101FE0000E464FF0FF383248D5685769054209D090
:101FF0003846A16906F0CCF9002811DB2C48C04313
:102000000540E5602B4632464946384606F0C6F99B
:10201000A16920F00042B21A11440028A16103D046
:102020002046FFF7CFFF4046BDE8F08770B5044675
:102030000569C06A6168884200D80846E16821F4F1
:102040002011E160C90312D5A84208D02246411BE5
:102050002846FFF7C1FF10B14FF0FF3070BD0020E0
:10206000E562C4E90150E06820F48030E0600020BF
:1020700070BD10B50446C06820F02000E060A16A81
:10208000A06988420DD02046FFF7D0FFE06820F419
:10209000405040F01000E060A06AA0612069E0625A
:1020A000606044F24001E0688843E06010BD0000D9
:1020B00010000200002801D000F01CB8704700009A
:1020C00010B5014602A000F05DF8012010BD00002F
:1020D00053494752545245443A20526564697265E7
:1020E00063743A2063616E2774206F70656E3A20C6
:1020F0000000000001491820ABBEFEE726000200E8
:1021000000210160C0E901107047102070470346AC
:1021100040688C46002818BF88423CBF0346406890
:10212000F8D318681844884207D00CF1030020F057
:102130000700001D411A521A0146081D0A60FFF7E8
:10214000F7BA10B50146C268900703D0900607D5CC
:10215000886A0AE0FEF7AAFF01210160881E10BD0F
:102160008B69486818440B69C01A91F848301BB154
:1021700091F84910401A10BD1103FCD50028FADD72
:10218000401E10BD70B505460C460A2000E06D1CCF
:1021900000F018F835B128780028F8D102E0641C66
:1021A00000F010F814B120780028F8D1BDE8704094
:1021B0000A2000F007B810B500F00CF8BDE8104098
:1021C000FFF778BF08B569468DF800000320ABBE65
:1021D00008BD704710B5012805D0002103A0FFF706
:1021E000D1FF012010BD09A1F8E700005349475273
:1021F000544D454D3A204F7574206F6620686561D7
:1022000070206D656D6F7279000000003A2048659E
:102210006170206D656D6F727920636F7272757079
:102220007465640020F07F4C80EA030023F07F4750
:10223000ACEB070303F57C5300F0004003F1FF0310
:102240002DE980494FEA154B09B44FEA144325EABA
:102250000B4E24EA03480FF2042606EB1327490825
:102260003E785FEA320203FB0667C7F5000707FB0B
:1022700006F64FEA54374FEAD64606F1020607FB48
:10228000066CCCF1005C4FEA1C472CEA074C07FBBC
:1022900006F40CFB06F504EB15464FEA961634BF20
:1022A00000204FF000404FEAD13706FB07FC4FEA11
:1022B0001C4C0CFB0BF7D21B03FB0CF761EB07016B
:1022C0000CFB0EF7B0EB074072EB17420CFB08F764
:1022D00034BFA2EB0742B2EB074261EB17414FEA72
:1022E0000C444FEA910706FB07FC4FEA1C4C0CFB21
:1022F0000BF7B0EBC74072EB573203FB0CF734BF60
:10230000A2EBC742B2EBC74261EB57310CFB0EF7B1
:10231000B0EBC70072EB57720CFB08F734BFA2EBAF
:10232000C702B2EBC70261EB5771039F4FEA8161AD
:1023300041EA921104EBCC044FEAD1374FEA8262B2
:1023400006FB07FC42EA90124FEA80604FEA1C4C01
:102350000CFB0BF7D21B03FB0CF761EB07010CFB2B
:102360000EF7B0EB074072EB17420CFB08F734BFD7
:10237000A2EB0742B2EB074261EB17414FEA8C55E3
:102380004FEA910704EB9C2406FB07FC4FEA1C4C28
:102390000CFB0BF7B0EBC74072EB573203FB0CF7AB
:1023A00034BFA2EBC742B2EBC74261EB57310CFB23
:1023B0000EF7B0EBC70072EB57720CFB08F734BF97
:1023C000A2EBC702B2EBC70261EB577115EB4C25CC
:1023D0004FEA816141EA92114FEA82624FEAD137B6
:1023E00042EA901206FB07FC44F100044FEA8060C9
:1023F0004FEA1C4C0CFB0BF7D21B03FB0CF761EBF9
:1024000007010CFB0EF7B0EB074072EB17420CFB19
:1024100008F734BFA2EB0742B2EB074261EB17416A
:1024200015EB1C154FEA813141EA92414FEA8232A5
:1024300042EA90424FEA80304FEA0C7644F10004C1
:1024400048EA03434EEA0B484FF0000EB2EB080C8B
:1024500071EB030724BF624639464EEB0E0E4FF078
:10246000000B0018524149414BEB0B0BB2EB080C2F
:1024700071EB03077BF1000B24BF624639464EEB3C
:102480000E0E4FF0000B0018524149414BEB0B0B65
:10249000B2EB080C71EB03077BF1000B24BF624623
:1024A00039464EEB0E0E51EA020718BF46F0010600
:1024B00016EB0E7655F1000254F1000103D5BDE88C
:1024C0008901BDE80088BDE88901BDE80048B6196A
:1024D000524141EB0101A3F10103704780807F7EEF
:1024E0007D7C7B7A7978777676757473727171708A
:1024F0006F6E6E6D6C6C6B6A6A696868676666653C
:102500006464636362616160605F5F5E5E5D5D5CC9
:102510005C5B5B5A5A59595858575756565555553A
:102520005454535352525251515050504F4F4F4E9A
:102530004E4D4D4D4C4C4C4B4B4B4A4A4A494949E8
:10254000484848474747474646464545454444442A
:1025500044434343434242424241414146EA0646E4
:10256000A3F570534FEA164646EA42564FEAD22286
:1025700042EA415210B54FEAD121A3F1010300F024
:102580002FF820F0004000F1020C00F0004701EBB2
:1025900000501146BCF5006F40EA070000D210BDA4
:1025A000BAF1000F0AD01CB503B44FF004004FF08D
:1025B00004014FF000000FBCBDE810404FF00001D7
:1025C000BBF1010FB9BF04484FF0FF3103480021B0
:1025D00040EA070010BD00BFFFFFEF7F0000F07F63
:1025E000002B9C4630D477002BD01CB54FEA370720
:1025F00003B44FF010004FF01001BAF1000F06D0F5
:10260000BCF1000FDCBF40F0080040F008014FF0C3
:1026100000000FBCBDE810400BF1010BBBF1010F36
:1026200008BF5FEA170722BF12F1010211F1010191
:102630004FF0004143F1000300F0004043EA000086
:102640007047F9D35708D0E746EA064613F1400F22
:102650004FEA16461FDD13F1200FDFBF16430A466F
:10266000002120335B42BED0C3F1200746EA064674
:1026700002FA07F74FEA164646EA0706C3F12007B3
:1026800022FA03F201FA07F721FA03F14FF00003EF
:1026900042EA0702A7E746EA020646EA06464FEA8A
:1026A000164646EA0106BCBF46EA0646360C4FF01F
:1026B00000034FF000024FF0000194E72DE9804C39
:1026C0009A46934670B491E8380007C831EA400C46
:1026D00048BF34EA430C03D5FFF7A4FDFFF780FFA2
:1026E000F0BCBDE8008C2DE9804C9A46934670B44E
:1026F00091E8380007C831EA400C48BF34EA430C7F
:1027000003D5FFF78FFDFFF729FFF0BCBDE8008C74
:102710002DE9804C9A46934670B491E8380007C87A
:1027200010F0804F08BF13F0804F03D100F01AF86B
:10273000FFF756FFF0BCBDE8008C2DE9804C9A46AF
:10274000934670B491E8380007C810F0804F08BF76
:1027500013F0804F03D100F005F8FFF7FFFEF0BC47
:10276000BDE8008C20F07F4780EA030023F07F4C17
:1027700007EB0C03A3F57C5300F00040A3F1FE032C
:1027800092F0000F00F0B38095F0000F00F077801A
:102790002DE901494FEA11404FEA144621EA004869
:1027A00000FB06FC24EA064708FB06F607FB08F8D0
:1027B00000FB07F718EB06484CEB164C4FEA124BA0
:1027C00018EB07484FEA15464CEB174022EA0B4E30
:1027D0000BFB06FC25EA06470EFB06F607FB0EFE82
:1027E0000BFB07F71EEB064E4CEB164C4FF00006AA
:1027F0001EEB074E4CEB174B18EB0B0840F100009B
:1028000018EB0E0B58EB000840F100008F1A4FF048
:1028100000013CBFC943661B14BFB5EB040C00218B
:102820003CBFC943F61B4FEA17444EEA8E0E27EA17
:1028300004454FEA1C4704FB07622CEA074C05FBE2
:1028400007F70CFB05F604FB0CFC16EB074642EB06
:10285000174216EB0C4642EB1C421BEB060658EBEC
:102860000202414146EA9E0601D5BDE80189B6193A
:10287000524141EB0101A3F10103BDE801894FEA97
:1028800014454FEA114724EA054621EA074C05FBA7
:1028900007F406FB07F70CFB06F105FB0CFC11EB3C
:1028A000074144EB17444FEA124711EB0C4144EB4C
:1028B0001C4422EA074C05FB07F206FB07F70CFB5A
:1028C00006F605FB0CFC16EB074642EB174216EB2F
:1028D0000C4642EB1C456A1854F1000148BF704792
:1028E000B619524141EB0101A3F10103704795F084
:1028F000000F37D04FEA11424FEA144721EA02464F
:1029000024EA074C02FB07F106FB07F70CFB06F471
:1029100002FB0CFC14EB074441EB17414FEA15474F
:1029200014EB0C4441EB1C4125EA074C02FB07F574
:1029300006FB07F70CFB06F602FB0CFC16EB074642
:1029400045EB174516EB0C4645EB1C42121951F1AD
:10295000000148BF7047B619524141EB0101A3F194
:10296000010370474FEA14454FEA114724EA054630
:1029700021EA074C05FB07F106FB07F70CFB06F203
:102980004FF0000605FB0CFC12EB074241EB174130
:1029900012EB0C4251EB1C4148BF7047921841EBBF
:1029A0000101A3F10103704701480068704700006E
:1029B000680000201CB5FFF7F7FF104F80464FF06E
:1029C000FF3469462246386806F0A0FF0128F8D196
:1029D000DDE900562146404607F03CF8B1B22846F2
:1029E000642203F0E4FC002340461A46194606F030
:1029F00075FE052006F0A0FBE3E700009400002030
:102A00009FED300BB8B09FED311B9FED322B8DED5C
:102A1000000B02AAB3EE0E3BB0EE084B82EC0A0BA1
:102A200002210020B2EE0E5B8DF8301090218DF85F
:102A300031008DF832008DF833000D9014A88DED23
:102A40000E5B8DED100B8DED120BFDF7ACFF0DF154
:102A500050046D4603F0BEFC80B314A803F0C4FC20
:102A600060BB259890B100200BE000BF04EB800113
:102A700005EBC00291ED010A401CB7EEC00A82EDE1
:102A8000000B2599814201D90628EFD336980428F6
:102A900014D300200AE000BF04EB80012A18401C78
:102AA00091F84810042882F8301002D236998142F9
:102AB000F2D814986946C0B204F0A4F8642006F075
:102AC0003BFBC7E700000000000000000000000022
:102AD00000407F400000000000407FC010B505F0BE
:102AE000EDFC00F001F9BDE8104005F0FBBC000072
:102AF00003F004FE68B1012804D0022804D00328A2
:102B000007D103E005A002E007A000E008A0FDF760
:102B1000BBFD322006F010FBEAE700004B315F44BA
:102B20006F776D0D0A0000004B315F55700D0A0084
:102B30004B315F4C6F6E670D0A000000084D4FF47B
:102B400000544FF4FA76696924EA010001F4005157
:102B500040EA0140A861304606F0EEFAF3E70000D3
:102B60000008025800220C21042086B006F014FD53
:102B70001F4C002208216060022006F00DFDA060BD
:102B80000021606806F062FDA068002106F05EFD8D
:102B9000606868B1A06858B103F052FB4FF0FF3590
:102BA000606802A92A4606F0B1FE012806D019E0A5
:102BB0004FF47A74204606F0BFFAFBE79DF8080050
:102BC000A0B10C48002300901A4603986946019072
:102BD000A06806F083FD9DF8100018B16068002120
:102BE00006F034FD052006F0A7FAD9E70248E9E728
:102BF000980000200060003000500030074800219D
:102C000010B50170C16003F01DFB03F015FB00F06F
:102C100001FFBDE8104000F0E9BE00009800002070
:102C20007FB5154C0025E068D8B16068C8B1134A7B
:102C3000D16852690392019121788DF80410E168FE
:102C400000236A460095029101A906F0FFFD009855
:102C500038B10B494FF080500860BFF34F8FBFF37E
:102C60006F8F00F0CFFE00F0D5FE03F0EDFA03F019
:102C7000E3FA2570E5607FBD9800002064A300089A
:102C800004ED00E01CB5FFF78FFE104F80464FF0BB
:102C9000FF3469462246386806F038FE0128F8D12C
:102CA000DDE900562146404606F0D4FEB1B2284682
:102CB000642203F085FB002340461A46194606F0BD
:102CC0000DFD052006F038FAE3E70000A000002023
:102CD00008B507F035F8009003F0B8FA0A21684605
:102CE00006F052FAF8E700002DE9FC41012006F059
:102CF00047FC2C49012400230A1F10608022CDE9E3
:102D000000412E4828A106F0A7FF264802252602EA
:102D1000001D324600232AA1CDE900502D4806F0BF
:102D20009BFF204800232CA132460830CDE90050FB
:102D30002D4806F091FF1B480325002332460C3036
:102D40002AA1CDE900502F4806F086FF15486702FA
:102D500000233A4610302CA1CDE90040304806F05F
:102D60007BFF104800232FA13A461430CDE90040E4
:102D7000324806F071FF0B48002331A1324618306B
:102D8000CDE90050354806F067FF0648002334A11E
:102D900032461C30CDE90050374806F05DFFBDE8F3
:102DA000FC8100006C0000204170705F4C45445471
:102DB0006F67676C655F5461736B00003D2B0008A3
:102DC0004170705F52756E31306D735F5461736B1B
:102DD00000000000D12C00084170705F4B657954F1
:102DE0006573745461736B00F12A00084170705F61
:102DF00057617665436F6C6C656374696F6E54617F
:102E0000736B00007D2E00084170705F495644616D
:102E1000746155706C6F61645461736B00000000E5
:102E2000B52900084170705F4C696768744461742B
:102E30006155706C6F61645461736B00852C000880
:102E40004170705F496E63656E7469766553657431
:102E500074696E67735461736B000000012A000887
:102E60004170705F4C69676874436F6C6C65637424
:102E7000696F6E5461736B00652B000800220C2192
:102E8000042086B006F088FB524C002208216060C6
:102E9000022006F081FBA0600021606806F0D6FBEE
:102EA000A068002106F0D2FB60684FF47A76C8B1C2
:102EB000A068B8B100F018FB9FED470B03F09EF837
:102EC000474D4FF0FF37606802A93A4606F01EFDF5
:102ED0000128F8D19DF80800002807D0414B07D100
:102EE000414906E0304606F027F9FBE73F4BF6E79D
:102EF0003F494FF0000048E033F91020DFED3D0A74
:102F000000EE102AB1EE041A2A78B8EEC00A20EEBC
:102F1000200A20EE010A2AB1012A4AD0022A4AD008
:102F2000032A4AD04FEA060200EE902A6A78B8EEE9
:102F3000603B0AB1012A42D05FF0050200EE902A00
:102F4000AA78B8EE602B2AB1012A3AD0022A3AD0E8
:102F5000032A3AD05FF0010200EE902AC207B8EED1
:102F6000601B34D001EB8002DFED230A20EE200A43
:102F7000B7EEC04A84EE030B80EE023B83EE010BFA
:102F8000B7EEC00B401C82ED000A039A8242B3D810
:102F9000CDE900120023A0681A46694606F09EFBA0
:102FA0009DF8100000288ED06068002106F04EFBCE
:102FB00089E7124AB8E7124AB6E7124AB4E7142280
:102FC000BCE70522C8E71422C6E73222C4E701EBBA
:102FD0008002D7E78C00002000000000000059406C
:102FE0005C0000200028003000300030002000305D
:102FF000004000300000003800007A44A086010044
:103000008096980000E1F505494838B5016841F01F
:10301000010101600068474D00F001000090D5F803
:10302000000820F0FF0040F00100C5F80008424C05
:103030002078C1B2285820F0C00068502078C1B272
:10304000285840F44030685000222846114602F0CB
:103050003FF92078C1B2285820F4007068502078D9
:10306000C1B2285840F4806068502078C1B2285816
:1030700020F4C05040F4006068502178C8B269580C
:1030800021F4C04141F4005129502A4822781430DB
:10309000D1B2125842F004020A502178CAB209583B
:1030A00041F0030111502078C1B2285820F0C070BF
:1030B00068502078C1B2285820F4C00068501F48DA
:1030C000D0F8001121F01F0141F00601C0F80011F5
:1030D000D0F8001121F4C02141F48021C0F8001182
:1030E000D0F8001121F4780141F40021C0F800115A
:1030F000D0F8001141F48031C0F800111048006888
:10310000C0F30220C0F10702042A00D90422011DE5
:10311000072901D2002000E0C01E01219140491E74
:10312000084A01F005018140080182F8000438BD19
:10313000D8440258000002403CA3000800080240A6
:103140000CED00E00BE000E02DE9F041234D0646D8
:10315000214C0F462878C1B2205820F00100605061
:103160002878205810F0010FFAD10820A060202004
:10317000A0600420A0600120A0601020A0600022B8
:103180002046114602F0A4F813494FF0C0402A78B7
:1031900008315050081D29780E5000213A4620462B
:1031A00002F08AF828782058297840F01000605002
:1031B00028782058297840F0040060504FF0E02132
:1031C0004FF40060C1F8000128782058297840F0B9
:1031D00001006050BDE8F081000002403CA30008FF
:1031E000064907480B68002243F080730B60426079
:1031F000016841F00101016070470000FCED00E052
:10320000001000E0074B4FF47A7205491B68B3FBCE
:10321000F2F24B6842434868C01A9042FBD37047B1
:10322000001000E014000020084B064A06491B6805
:10323000B3FBF2F24B6842434868C01A9042FBD39A
:103240007047000040420F00001000E01400002012
:1032500070B588B01C216846FDF7A5FB1748002112
:10326000154E1025164C022206230660C0E90141C6
:10327000C160D402C0E9041555038161C161C0E990
:103280000814C0E90A150163052441638163C16321
:103290000164CDE900320293CDE90342CDE9052175
:1032A00000F010F86A460548114601F045FE002876
:1032B00000D0012008B070BD0040005290010020F5
:1032C00004410052F0B587B014216846FDF76BFB4E
:1032D00027480168002948D101210160254801687B
:1032E00041F004010160016801F0040105910168E9
:1032F00041F008010160016801F0080105910168D1
:1033000041F010010160006800F0100005901948BC
:103310009438016821F00301016016480C380168F7
:1033200041F480510160006802240025694600F4E0
:103330008050059003264FF680700C278DE8F10031
:103340000D4800F0A9FE4CF2337069468DE8F1009B
:103350000A4800F0A1FE09218020CDE903618DE833
:1033600031000748694600F097FE07B0F0BD000045
:1033700028000020E044025800100258000C0258B7
:103380000008025800F1C040018070477FB500245A
:103390001020009401940294039401F05DFF174DF6
:1033A00000220121284602F0DAF8002228460121F5
:1033B00002F0CCF804204FF4702102F05DFB0120F4
:1033C0008DF80C00CDE900048DF80D00022168464F
:1033D00002948DF80E1001F085FF012002F052F8E2
:1033E00020B14FF0B0410120C1F888000621084605
:1033F00004F001FE062004F0E0FD7FBD001002583D
:1034000010B5074C4FF48020A0610120FFF7FAFEB1
:103410000420A061BDE810400120FFF7F3BE0000CA
:103420000010025800B587B018216846FDF7BBFAB6
:10343000102001F011FF0848042181610B46002192
:1034400000930122CDE9012103910491694602F024
:1034500023F807B000BD0000001002580048704774
:103460000CA3000870B586B018216846FDF79BFADA
:10347000012001F0F1FE00200B4D01210B4E022234
:1034800004910446CDE9010204EB4400694605EBD2
:10349000800040680090304601F0FEFF641C14F08C
:1034A000FF04F1D006B070BD0CA300080000025864
:1034B00000B587B018216846FDF775FA042001F0C1
:1034C000CBFE08484FF40052826100210123009294
:1034D000CDE9013103910491694601F0DDFF07B0A8
:1034E00000BD00000008025830B585B0002410204F
:1034F000009401940294039401F0AEFE1C4801680C
:1035000041F002010160006802221A4D114600F0EC
:1035100002000490284602F022F8002228460221E8
:1035200002F014F804204FF4700102F0A5FA012013
:103530008DF80C0002218DF80D0003226846CDE9BC
:10354000001402948DF80E2001F0CCFE022001F050
:1035500099FF20B14FF0B0410220C1F88800052149
:10356000072004F048FD072004F027FD05B030BD1A
:10357000F444025800100258802010B501F06CFE8F
:10358000BDE81040012001F067BE0000024B0ECBE9
:1035900080E80E00704700001C000020F8B502F023
:1035A00056FC434900240868800311D4BFF34F8FB1
:1035B000BFF36F8F3F480460BFF34F8FBFF36F8F30
:1035C000086840F400300860BFF34F8FBFF36F8F7F
:1035D0000868C00323D4364870300460BFF34F8FAF
:1035E000001F43F6FF7C0068324D1035C0F34E32A9
:1035F000C0F3C9030CEA4216184600BF46EA8077BA
:103600002F60401EFAD2521EF4D2BFF34F8F0868CB
:1036100040F480300860BFF34F8FBFF36F8F00F02E
:1036200059FE254800940099491C00918142FAD323
:1036300003F0BEFA2148016841F002010160006810
:103640004FF6FF031A4900F00200009008391C4AA7
:103650000868184040F44070104308600868C0F3E0
:103660000220C0F10702042A00D90422011D072903
:1036700001D2002000E0C01E01219140114A491EE4
:103680008140080182F8140D03F01AFBFFF7A8FD32
:10369000FFF772FFFFF70CFF00F0C2F900F058FAD5
:1036A00000F04CF9BDE8F8404FF4FA60FFF7AABD0E
:1036B00014ED00E050EF00E0FFFF1F00F44402585B
:1036C0000000FA050FE000E04FF080410020486262
:1036D00070474FF08041486A00224A6270470000FC
:1036E000F0B58BB0142106A8FDF75DF918216846E6
:1036F000FDF759F9012001F0D3FD012001F0B8FDDB
:1037000003266946022000900127CDE90106002525
:103710003148CDE9045701F0BFFE681EADF81850DE
:10372000BC0706A9CDE907502046099502F0C0F96B
:10373000206820F0800020602849A068084040F000
:103740006000A0602649A068084040F00700A06023
:10375000244800F1120180788B7800F18040183005
:1037600003F0FF0C02689E40B24307FA0CF73A439D
:10377000026002688B78F021DEB299408A4305FA34
:1037800006F10A4302601749206A1B310A228B782E
:10379000D9B29A40904305FA01F108432062206AA9
:1037A00040F010002062606940F001006061A81ED6
:1037B00020616562E06820F04000E060E06820F48D
:1037C0008040E060606820F070006060A06820F0D9
:1037D0008000A0600BB0F0BD000002588FFFCFFF4B
:1037E000F8BFFEFF18A300084FF08040002141629F
:1037F000891E0161016841F00101016070474FF0CD
:103800008040016821F0010101607047F0B593B07C
:1038100014210EA8FDF7C7F820216846FDF7C3F86C
:10382000182108A8FDF7BFF8022001F039FD4CF27D
:103830005030214E0024ADF838400EA9CDE90F409C
:103840003046119402F034F9306840F08000306066
:103850001A49B0680840B06019490820164B01F1B8
:103860000907183309783A78CD1829689040014340
:1038700029600F216A4660200494CDE90004CDE957
:1038800002410121304602F073F9286804213A7898
:10389000914088432860012001F0EAFC0220402189
:1038A0000891CDE90904CDE90C40064808A90B941C
:1038B00001F0F2FD13B0F0BD00040040F8BFFEFFC0
:1038C00018A3000800000258084B10B59C688442F9
:1038D00004D35B688B4201D38A4201D9012010BD19
:1038E000034B9862D9625A63002010BD1C0000206F
:1038F000000400400848416941F0010141616FF056
:1039000001010161016A41F001010162016841F0B8
:103910000101016070470000000400400648016A90
:1039200021F001010162016821F0010101606FF0E5
:1039300001010161704700000004004010B586B02D
:1039400014216846FDF72FF8042001F0A9FC234854
:103950000068C0F30220C0F10701042900D9042146
:10396000021D072A01D2002000E0C01E0123002210
:103970008B405B1E03F00501194B8140080183F861
:1039800000044FF0E0214FF08040C1F8000140F208
:10399000E73140F65F10ADF80000124CCDE901218F
:1039A00069462046039202F083F86FF0010020611F
:1039B000206840F0800020600B49A0680840A060AB
:1039C000606820F070006060A06820F08000A06057
:1039D000E06840F00100E06006B010BD0CED00E0D2
:1039E0001EE000E000080040F8BFFEFF0448002190
:1039F0004162891E0161016841F001010160704767
:103A0000000800400248016821F001010160704790
:103A1000000800400149002048627047000800404B
:103A200010B590B020216846FCF7BDFF182108A80A
:103A3000FCF7B9FF374802F00DF83748016841F04C
:103A400010010160006800F010000E90012001F0EC
:103A50001BFC0DF1200C0024022103224FF4C06056
:103A60008CE8170007232D4808A9CDE90C4301F085
:103A700013FD2B480068C0F30220011D072901D265
:103A8000002000E0C01E04FA00F10801254981F879
:103A90000004202023492139C1F800010C212248CB
:103AA000029403940794CDE90040CDE904410694C3
:103AB00069461E4C204602F025F90021204602F0FE
:103AC000BBF90021204602F0A9F9206820F000503F
:103AD0002060606820F490406060A06820F02A00B8
:103AE000A060206840F00100C4F8000054E8000F16
:103AF00040F0200044E80002002AF7D1E069C0F35A
:103B000040500028FAD0E069C0F380500028F5D07A
:103B100010B010BD08030007F0440258000002581E
:103B20000CED00E025E000E0C02709000010014096
:103B30000649CA69C2F3C012002AFAD08862CA696B
:103B4000C2F38012002AFAD0704700000010014032
:103B500010B590B020216846FCF725FF182108A871
:103B6000FCF721FF284801F075FF2848016841F45F
:103B700080210160006800F480200E90042001F094
:103B800083FB08AB002402214FF4406083E813005C
:103B900007221F4808A90B94CDE90C4201F07CFCD8
:103BA0004FF4E13002940C2103940794CDE90040D6
:103BB000CDE9044106946946164C204602F0A2F86D
:103BC0000021204602F038F90021204602F026F9B3
:103BD000206820F000502060606820F49040606011
:103BE000A06820F02A00A060206840F0010020605A
:103BF000E069C0F340500028FAD0E069C0F380507B
:103C00000028F5D010B010BD08000007E8440258A5
:103C100000080258004800400649CA69C2F3C012B1
:103C2000002AFAD08862CA69C2F38012002AFAD048
:103C30007047000000480040FEE700001FB500206C
:103C4000009018480168C1F34011002927D02021B5
:103C50008160164A01AB144C07CA83E8070020783C
:103C600000238DF8040001A960686A4605F0EEFDA6
:103C700020784FF48061C0F101002070207878B185
:103C80000B4800BFFFF760FA0098002807D00949E9
:103C90004FF080500860BFF34F8FBFF36F8F1FBD91
:103CA0000548EFE7000002408C0000204CA300080C
:103CB0000028003004ED00E000200030704772B6AC
:103CC000FEE700000749097851B1C0F3C621C0F3EF
:103CD000022204488038405CD04000F00100704768
:103CE00000207047005901202DE9F0410A4D05F1EF
:103CF0001806AF6900F0E6F8044601463046FCF7C6
:103D0000C3FBB842F5D1844203D203481030FCF71C
:103D1000B2FB2046BDE8F081005901202DE9FC47A7
:103D20005FEA01081446054602D0B4F5807F02D947
:103D30000020BDE8FC87FFF7C5FF48B1FFF7D4FFBF
:103D40008146A8B2EFF3058121B14FF4002702E0CC
:103D50000120EEE700270743A4B1082C4FF0000A2A
:103D60004FF4E02613D8224641466846CDF800A01D
:103D7000CDF804A0FCF776FD06EA0440384340F095
:103D8000407042E0002349461A46384640E0224847
:103D9000FCF768FB0146D8F800000090083CD8F812
:103DA000040006EA01463743009A08F10805034675
:103DB0004946019047F0807000F030F80028B8D0F4
:103DC0004FF6017006430FE0284655F8081B009196
:103DD000083C40680A46494601900346304600F0D8
:103DE0001DF8761C0028A4D0082CEDD822462946C0
:103DF0006846CDF800A0CDF804A0FCF733FD26F40A
:103E00007F4040EA042040F000704946DDE900238D
:103E100000F004F88DE70000015901202DE9FF5F53
:103E200093468A464FF08052994602EADA085100DA
:103E300001EA9B074800072500EA59061F48FCF7DE
:103E40001AFB830AC0F309021D484FF4700100EB0E
:103E50000214009801EA0351084340EA080038437D
:103E6000304340F0406104F10C00FCF715FB4101C8
:103E70001CD580F0044101F0004029F000420243CB
:103E80002AF000452BF00043054325600343C4E9B5
:103E9000013204F10C00FCF710FB48B10748001D8B
:103EA000FCF7E9FA012004B0BDE8F09F6D1EC5D112
:103EB00002480830FCF7DFFA0020F4E7045901203B
:103EC000801801200148406870470000001000E0A1
:103ED000F0B5B3F5804F05D06FF0704140F8221077
:103EE0000020F0BD91E838008F898E6950F82210CB
:103EF00024013343054E44EA05242343314043EA79
:103F000007430B4340F82230EAE700000000F0CFFF
:103F1000F0B50A6850F8223023F0010340F822304F
:103F20008C68082C2CD000264A68D1E903CE2243A5
:103F30004CEA060C01F1140342EA0C0242EA0E02BA
:103F400093E8F8501A4322430C682A43D1E90C3510
:103F5000324350F824603A4342EA0C02DFF840C092
:103F600042EA0E028F6B13431D432F4326EA0C06D1
:103F70003E4340F824600A6BB2F5801F02D007E090
:103F80004026D1E70A684AB1026842F48012026012
:103F90000A681AB10268496B0A4302600020F0BD4A
:103FA0007FFB3F00F0B58C6800EB8202D1E9003660
:103FB000B1F80CE04FEA042C134C0D8A43EA0613C7
:103FC0000E7D67014CEA0E4C43EA0C0304EB0555E9
:103FD0002B438D6907EB0666576833432B4307F085
:103FE00040452B4353600268D2020BD5098A4268D0
:103FF000436804EB015122F47002114323F470036F
:104000000B4343600020F0BD0000F0FFF0B587B027
:1040100014216846FCF7C7FC1A48016800292ED114
:10402000012101601848016821F003010160164870
:104030008830016841F48051016000680224002545
:10404000694600F48050059003264FF680700C27D7
:104050008DE8F1000D4800F01FF84CF2337069460E
:104060008DE8F1000A4800F017F809218020CDE919
:1040700003618DE831000748694600F00DF807B08C
:10408000F0BD0000000000204C440258001002580F
:10409000000C0258000802582DE9F84F03247D4D0A
:1040A00000234FF001094FF0B04B4FF00F0AE9E049
:1040B00009FA03F73A4076D00E7906F00306012E8E
:1040C00001D0022E18D1D0F808C04FEA430ECE68B6
:1040D00004FA0EF82CEA080C06FA0EF646EA0C066C
:1040E0008660D0F804C00E792CEA070CC6F30016DF
:1040F0009E4046EA0C0646600E79F643B6070BD0A2
:10410000C6684FEA43088F6804FA08FC26EA0C06E2
:1041100007FA08F73743C7600E7906F00306022E48
:1041200012D1DE080F694FEA437C00EB8606B646E3
:10413000366A4FEADC6C0AFA0CF807FA0CF726EA42
:1041400008063743CEF820700F7906684FEA430817
:1041500007F0030704FA08FC07FA08F726EA0C063A
:10416000374307604E6816F4403F1CD04A4E37680C
:1041700047F00207376036689F0706F00206009690
:1041800023F0030606F1B046B6463F0FD6F80864A2
:10419000DFF808810AFA07FC404526EA0C0603D13D
:1041A0004FF0000C41E06CE0DFF8F4C0604502D154
:1041B0004FF0010C39E0DFF8ECC0604502D14FF060
:1041C000020C32E0DFF8E0C0604502D14FF0030C92
:1041D0002BE0DFF8D8C0604502D14FF0040C24E09A
:1041E000DFF8CCC0604502D14FF0050C1DE0DFF8D0
:1041F000C4C0604502D14FF0060C16E0DFF8B8C02D
:10420000604502D14FF0070C0FE0DFF8B0C0604509
:1042100002D14FF0080C08E0DFF8A4C0604502D1DD
:104220004FF0090C01E04FF00A0C0CFA07FC4CEAC5
:10423000060CCEF808C44F68DBF80060FF0226EADF
:10424000020600D516435F46CBF80060D1F804C0E3
:10425000DBF804605FEA8C2C26EA020600D51643E0
:104260007E606E684F6826EA0206BF0300D51643DB
:104270006E602E684F6826EA0206FF0300D51643DB
:104280002E605B1C0A6832FA03F67FF411AFBDE8BA
:10429000F88F000080000058F444025800000258D3
:1042A0000004025800080258000C0258001002587E
:1042B0000014025800180258001C0258002002582E
:1042C00000240258024881680278114481607047D6
:1042D00008000020032010B500F0FEF800F090FD6B
:1042E0000F4A104914681368C4F3032203F00F0344
:1042F0008A5CC95C02F01F0201F01F01D0400A4A2B
:1043000020FA01F11160094908600F2000F010F84F
:1043100008B1012010BD00F09FF8002010BD000082
:1043200018440258FCA200081800002014000020C5
:1043300010B5102804468AB02CD20022014636203F
:1043400000F0AAF8362000F099F8174804601748E2
:10435000016841F010010160006809A900F0100037
:104360000890684600F0EAFC0598B0B100F036FD10
:1043700040000F4900220F4CB0FBF1F10E4840F213
:10438000E7330460C0E90332491EC0E9011200F0BE
:104390000EFE28B101200AB010BD00F01FFDE8E7B5
:1043A000054800F037FEF6E70C000020E84402580C
:1043B00040420F000010004044010020F0B5154CB1
:1043C0004378211D0A1D23600378F3B143680B6015
:1043D000057BC67A817A437B2D07847B45EA066597
:1043E000C77B90F809C0067A90F800E045EAC14022
:1043F00040EA834040EA444040EA074040EA0C205B
:1044000040EA460040EA0E0001E00020086010602B
:10441000F0BD000098ED00E0BFF35F8F044800217D
:104420000368034A23F480330360703211607047DD
:1044300024ED00E0074A40F00100064970321060A8
:10444000086840F480300860BFF34F8FBFF36F8F70
:104450007047000024ED00E0074882B0016841F099
:1044600002010160006800220F2100F002000090AC
:10447000901E02B000F010B8F4440258002809DB86
:10448000410900F01F028900012001F1E021904064
:10449000C1F80001704700000E4BF0B41B680D46D8
:1044A000C3F30223C3F10706042E00D90426191D05
:1044B000072901D2002300E0DB1E012404FA06F1E3
:1044C0009C40491E2940641E994014402143F0BC81
:1044D00003F080BD0CED00E0064900F0070210B5C6
:1044E0004FF6FF040868044B204040EA02201843BE
:1044F000086010BD0CED00E00000FA057047D0F830
:10450000080502F003BF01EBC10200EB8202D0F804
:104510000805926C02F056BE01EBC10200EB82026C
:10452000D0F80805D2F8882202F0A8BED0F8080515
:1045300002F0EEBE0A0601F00F0101EBC10100EB33
:10454000810101D53C3101E001F51F71006803F0E4
:10455000CDBB70B54268044601F00F00904201D90E
:10456000012070BD01F00F024FF000050B0602EBB9
:10457000C2014FF0010204EB810103D581F83D2017
:104580003C3103E081F87D5201F51F718D70087098
:1045900094F8BC04012808D084F8BC24206803F0F7
:1045A00031FA002084F8BC5470BD022070BD2DE9A2
:1045B000F04101F00F0604460D064FF0010006EB36
:1045C000C6014FF0000504EB810103D581F83D00E1
:1045D0003C3103E081F87D5201F51F714F788A600C
:1045E0000B710E7007B14E83022B00D14D7194F800
:1045F000BC24012A09D084F8BC04206803F088F99F
:10460000284684F8BC54BDE8F0810220FBE770B571
:1046100001F00F05002405EBC50100EB810101F558
:10462000227181E81C0001F80B4C01F80C5DC36895
:10463000012B00D1CA61027B006803F03BFA002025
:1046400070BD70B50D464168044605F00F00884204
:1046500001D9012070BD29064FF000064FF001027C
:1046600007D500EBC00104EB810181F83D203C310E
:1046700007E005EBC50104EB810181F87D6201F5DE
:104680001F718A70087094F8BC04012807D084F860
:10469000BC24206803F0E2F9280702D007E00220DA
:1046A00070BD217B04F2C442206803F07FF9002032
:1046B00084F8BC6470BD70B501F00F04002504EBF4
:1046C000C401012600EB8101483181E82C0001F88A
:1046D0000B6C01F80C4DC368012B00D1CA61027B41
:1046E000006803F0E7F9002070BD00002DE9FC5FD1
:1046F00005680446284603F076FB00287ED1206832
:1047000003F09DFB002879D0D5F80808C0F30D20F0
:10471000C4F8FC04206803F092FB800704D52068ED
:10472000416901F002014161206803F088FBC10684
:1047300004F2C440009034D52068816921F0100152
:1047400081612F6A07F00F01C7F3434001EBC101FC
:10475000022804EB810606F51F7602D0062811D048
:104760001AE047F6F070074216D0C7F30A12F16854
:104770001746284603F067FBF16870693944F16019
:10478000384408E000990822284603F05CFB706971
:10479000C7F30A11084470612068816941F0100173
:1047A0008161206803F04BFB00034FF0000A4FF0DB
:1047B000020B4FF001097CD52068002603F01EFB98
:1047C000074674E0F80770D02068F1B203F02FFBC1
:1047D0008046C00707D005EB4611C1F8089B31465B
:1047E000204602F0DBF85FEA087025D505EB46119C
:1047F0000820C1F8080BFC49206800E042E2026C86
:1048000000EB461001928A42D0F8081B05D9090432
:1048100003D54FF40041C0F8081B204600F06EFAA3
:10482000F1490198884207D9E068012804D120683D
:104830000121009A03F0BAF85FEAC86004D505EBDD
:1048400046111020C1F8080B5FEA88701CD5686912
:10485000000605D5D5F8040840F48061C5F80418B1
:1048600006EBC60004EB800090F87F1200F51F7085
:10487000012905D180F803A02046F1B200F008FA22
:1048800005EB4611C1F808BB5FEA886004D505EB6B
:1048900046112020C1F8080B5FEA884005D505EBDA
:1048A00046114FF40050C1F8080B7F08761C002F0A
:1048B00088D1206803F0C3FA40036FD5206803F065
:1048C00096FA0026074667E0F80763D02068F1B241
:1048D00003F09BFA8046C00723D0D5F8342806F0B1
:1048E0000F0C05EB461309FA0CF08243C5F8342887
:1048F000C3F80899E06801280FD106EBC60004EB65
:104900008000D0E911121144816436B9E06C20B9FD
:1049100020680121009A03F049F82046F1B2FFF720
:10492000F2FD5FEA087004D505EB46110820C1F8D6
:1049300008095FEAC86004D505EB46111020C1F8EC
:1049400008095FEA486004D505EB46114020C1F82C
:1049500008095FEA887016D53146284603F016FA32
:1049600006EBC60004EB800090F83F103C300129B4
:1049700005D180F803A02046F1B200F085F905EBDF
:104980004611C1F808B95FEA086003D531462046F0
:1049900002F06AF87F08761C002F95D1206803F09A
:1049A0004EFA002811DAD5F8040820F00101C5F804
:1049B000041894F8F40401283BD0204600F082F952
:1049C0002068416901F000414161206803F037FA35
:1049D00000050BD5D5F80808C00702D0204600F026
:1049E00095F92068416901F400614161206803F094
:1049F00026FA00010AD52068416901F00061416191
:104A000094F8F404E0B1204600F080F9206803F047
:104A100016FAC00472D5D5F8040820F00101C5F8D3
:104A200004182068102103F0B1F900214FF67F32FD
:104A30002DE00021204684F8F4A4FFF75FFDBFE7D6
:104A400084F8F4942068406D0121C0F38300C4F819
:104A5000F8042046FFF752FDD8E700BF05EB4110F0
:104A6000C0F80829D0F8003923F40013C0F8003941
:104A7000C0F8082BD0F8003B23F40013C0F8003B2B
:104A8000D0F8003B43F00063C0F8003B491C60686D
:104A90008842E3D8D5F81C0840F00111C5F81C186D
:104AA000206B68B1D5F8840840F00B01C5F8841874
:104AB000D5F8440840F00B012846C5F844180DE02D
:104AC000D5F8140842F22B010843C5F81408D5F8AC
:104AD000100840F00B012846C5F81018D0F800085F
:104AE00020F4FE61C5F80018217B2068009A02F0CE
:104AF0005DFF2068416901F480514161206803F045
:104B00009EF9800417D5206802F042FF206803F068
:104B10005DF9206100F040F9217C2368CAB20146AA
:104B2000184603F0C1F9204600F0B6F82068416944
:104B300001F400514161206803F081F9000707D5B5
:104B4000204600F0C3F82068416901F00801416186
:104B5000206803F074F9000616D5A869012620F034
:104B60008001A9610DE000BF06EBC60004EB8000E8
:104B700090F87F02012803D12046F1B2FFF7DAFC5A
:104B8000761C6068B042EFD8206803F058F9C00284
:104B900021D501264F4616E006EBC60105EB46106F
:104BA00004EB8101D0F8000991F84020012A09D1D5
:104BB000002807DAF0B281F83F7040F0800120460B
:104BC000FFF7B8FC761C6068B042E5D82068416900
:104BD00001F480114161206803F031F9800234D57D
:104BE00001204B4629E000000A30544F00EBC00280
:104BF00005EB401104EB8202D1F8001B92F88062B1
:104C0000012E19D1002917DA94F8FC6401F48031DF
:104C100006F00106B1420FD182F87F32A96941F056
:104C20008002AA616969090606D4D5F8040840F42F
:104C30000070C5F8040803E0401C61688142D5D8C3
:104C40002068416901F400114161206803F0F7F820
:104C5000400007D52046FFF752FC2068416901F06B
:104C600080414161206803F0EAF840070AD52068D6
:104C70004568680702D52046FFF758FC2068416860
:104C800029434160BDE8FC9FD0F8080502F060BBF5
:104C9000D0F8080502F070BB70B504460069012524
:104CA00070B1022801D0FFF70AF8D4F808052946A8
:104CB00002F0D1FBD4F80805BDE8704002F085BBD6
:104CC0000025F2E7D0F8080502F0AEBBD0F80805E1
:104CD00002F0B4BB10B5044690F8BC0401280BD018
:104CE000012084F8381084F8BC04206803F0CBF865
:104CF000002084F8BC0410BD022010BDD0F80825A7
:104D000000F2C441104602F0B2BB000010B50446E8
:104D1000D0F8080502F0E4FB2068D0F8001E41F04E
:104D20000101C0F8001E206A002804D00248016872
:104D300041F00601016010BD10ED00E070B5144CAB
:104D40003F220260124A24680832131D114D04F0FC
:104D50000704446016681C1D06F4706686601668B9
:104D600006F00F06C660126802F0700202611A684F
:104D700002F0700242611A6802F4E0628261226805
:104D800002F07002C261286800F00F00086070BD78
:104D9000104402580020005230B500F031F80B4AA0
:104DA0000B490C4B15681468C5F3032204F00F047B
:104DB0008A5C095D02F01F0201F01F01D040064A23
:104DC00020FA01F119601060084630BD18440258FD
:104DD000FCA20008180000201400002000B5FFF716
:104DE000DBFF05490968054AC1F30211515C01F076
:104DF0001F01C84000BD00001C440258FCA200086E
:104E0000454970B545480968434B103B11F03802DD
:104E100008D00111082A03D0102A0BD0182A0BD071
:104E2000084670BD19688906FBD51968C1F3C10130
:104E3000C84070BD3A4870BD3749374D18310C1D18
:104E400024350A68096826682D6802F0030406F014
:104E50000102C1F30511C5F3CC0515FB02F200EE0A
:104E6000102AB8EE400AE9B32F4ADFED2E0AB7EE5A
:104E7000001A6CB1DFED2D1A012C01D0022C43D0A9
:104E800002EE101A1068F8EE422A81EEA22A1EE005
:104E90001C68A40611D51B6801EE901A1168C3F3B3
:104EA000C103F8EE612AD84001EE900AC1F3080070
:104EB000F8EE611A81EEA22A0BE001EE901ADFED06
:104EC0001C2A00BFF8EE611A106882EEA12AC0F316
:104ED000080001EE900AF8EE611A40EE201A31EE59
:104EE000810A00E015E022EE000A1068C0F34620B7
:104EF000401C00EE900AF8EE600A80EE201ABCEE2C
:104F0000C10A10EE100A70BD01EE901ADFED092AF9
:104F1000D8E7002070BD0000104402580090D00374
:104F200040787D0100000039304402580024744A62
:104F30000024744C20BCBE4B70B5040015460E46D0
:104F400003D094F8450010B107E0012070BD0020A7
:104F500084F84400204600F025F8206804F1080198
:104F6000FEF7D6FFA26831462068FFF71BF8E36A18
:104F70002946D4E90102FEF7ABFFA16801232068AE
:104F8000074A50F8215045F0010540F821501068BB
:104F900040F00040106084F84530002070BD0000F3
:104FA00000400052FFF732B870477047704710B5A5
:104FB000040003D094F83D0010B107E0012010BDBB
:104FC000002084F83C00204600F022F8022084F8FB
:104FD0003D002068211D01F0A5FF012084F8480054
:104FE00084F83E0084F83F0084F8400084F84100D3
:104FF00084F8420084F8430084F8440084F84500B3
:1050000084F8460084F8470084F83D00002010BD75
:105010007047000090F83D10012901D00120704731
:10502000174A022180F83D100168CB6843F0010364
:10503000CB600068904214D0B0F1804F11D011497C
:1050400088420ED0104988420BD01049884208D0BF
:105050000F49884205D00F49884202D00E49884244
:1050600007D181680D4A1140062906D0B1F5803F6D
:1050700003D0016841F00101016000207047000089
:10508000000001400004004000080040000C004007
:1050900000040140001800400040014007000100EA
:1050A000704770B50446006800250169C943890747
:1050B00015D4C168C943890711D4EA1E02610121D0
:1050C0002177206880698007204602D0FFF7E8FF3B
:1050D00004E000F0A7F8204600F0A5F82577206846
:1050E0000169C943490717D4C168C943490713D4A3
:1050F00002216FF00402026121772068806910F4B8
:10510000407F204602D0FFF7CBFF04E000F08AF892
:10511000204600F088F8257720680169C94309070F
:1051200016D4C168C943090712D404216FF00802DC
:10513000026121772068C0698007204602D0FFF70E
:10514000AFFF04E000F06EF8204600F06CF8257721
:1051500020680169C943C90617D4C168C943C90693
:1051600013D408216FF01002026121772068C06912
:1051700010F4407F204602D0FFF792FF04E000F0D9
:1051800051F8204600F04FF8257720680169C9439F
:10519000C90708D1C168C943C90704D1891E016183
:1051A000204600F041F820680169C943090609D486
:1051B000C168C943090605D46FF08001016120462A
:1051C000FFF7F3FE20680169C943C90509D4C16826
:1051D000C943090605D46FF4807101612046FFF7C9
:1051E000E3FE20680169C943490609D4C168C9437F
:1051F000490605D46FF040010161204600F01EF819
:1052000020680169C94389060BD4C168C94389066E
:1052100007D46FF0200101612046BDE87040FFF720
:10522000C5BE70BD7047704700680349884201D110
:10523000FFF748B870470000001000407047FEE7D5
:10524000044908B50A6802430A60096801400091F0
:1052500008BD0000DC440258044908B50A6802434E
:105260000A6009680140009108BD0000E04402584E
:10527000044908B50A6802430A60096801400091C0
:1052800008BD0000E0440258044908B50A6802431A
:105290000A6009680140009108BD0000E04402581E
:1052A000044908B50A6802430A6009680140009190
:1052B00008BD0000E8440258044B001D595C0B581F
:1052C0006FF30F0313430B50704700003CA300081B
:1052D000034B595C435823F4907313434350704776
:1052E0003CA3000810B5027B00234FF0B041002A18
:1052F000026873D0EAB1447BE407D1F8804001D062
:10530000144300E09443C1F88040427BD1F88440CC
:105310009207026801D5144300E09443C1F8844029
:10532000827B32B1012A0DD0022A14D0032A16D072
:10533000012342689AB3447BE407D1F8904017D028
:10534000144316E04C68026894434C600C68026891
:1053500014430C60EDE70C680268944302E00C68AB
:10536000026814430C604C68026814434C60E0E728
:105370009443C1F89040427BD1F894409207426830
:1053800001D5144300E09443C1F89440827B32B1CC
:10539000012A0DD0022A14D0032A16D001238268D4
:1053A000A2B3447BE407D1F8A04018D0144317E01F
:1053B0004C6A426894434C620C6A426814430C6223
:1053C000EDE70C6A4268944302E00C6A42681443B9
:1053D0000C624C6A426814434C62E0E72DE094434F
:1053E000C1F8A040427BD1F8A4409207826801D561
:1053F000144300E09443C1F8A440827B32B1012AF7
:1054000005D0022A0CD0032A0ED0012338E04C6CC0
:10541000826894434C640A6C806802430A642FE0FB
:105420000C6C8268944302E00C6C826814430C6438
:105430004A6C806802434A6422E0D1F88040944379
:10544000C1F88040D1F8904042689443C1F8904040
:10545000D1F8A04082689443C1F8A040D1F88440BC
:1054600002689443C1F88440D1F894404268944360
:10547000C1F89440D1F8A42080688243C1F8A420E8
:10548000184610BD4FF0B041D1F88810884301D0C4
:105490000020704701207047F0B50A6892FAA2F226
:1054A000B2FA82F44CE00125A54013EA050246D089
:1054B0004B68012B01D0022B10D1856802FB02F34F
:1054C0008E685E4303EB43039D4335438560456827
:1054D000CE680B689D435E4335434560C56802FB5B
:1054E00002F30E6903FB06F703EB4306B5433D43A6
:1054F000C5604D68022D1CD1FF2A0BD803FB02F5B5
:10550000076A55434A696A43C5EB0515AF4317431C
:1055100007620EE0476A120AD1F814C002FB02F5D6
:105520005543554305FB0CF2C5EB0515AF43174337
:10553000476205684A68B54353431D430560641CD0
:105540000A681346E240AED10020F0BD494303682B
:105550004A4301EB41018B431343036070474943C6
:10556000C3684A4301EB41018B431343C360704757
:1055700002480068C0F30020704700000044025851
:1055800000EE100A00EE901A01EE102A9DED002A9E
:10559000B8EE403AF8EE600AB8EE410AB8EE421AA8
:1055A00001EE903A83EE202AF8EE611ADFED062A2A
:1055B00001EEA20A22EE000AC0EE010ABCEEE00AE9
:1055C00010EE100A70470000000000390649030E73
:1055D000C0F3042251FA80F1934009681940D14088
:1055E00040EA0140704700004C4402582DE9F84F52
:1055F000364F00250446A846386810F0030004D052
:1056000001280BD0022812D10DE000F0F9F970B199
:1056100000F0EEF92E4DC008C54008E0FFF7A8FFE6
:1056200028B12C4D03E000F0DBF900B12A4D002039
:105630002060264E6060A06008363868311F3368ED
:105640000A68C0F30517C3F3080012F0010F00F158
:10565000010A03D0301D0068C0F3CC08002F33D0FE
:1056600008688946C0F3004058B130684346524646
:105670003946C0F34620401C00902846FFF780FFC3
:105680002060D9F80000C0F3404058B1306843466C
:1056900052463946C0F30640401C00902846FFF7AA
:1056A0006FFF6060D9F80000C0F3804000280BD085
:1056B0003068434652463946C0F30660401C0090AD
:1056C0002846FFF75DFFA060BDE8F88F2844025828
:1056D0000090D00300093D0040787D012DE9F84F8E
:1056E000374F00250446A846386810F0030004D060
:1056F00001280BD0022812D10DE000F081F970B121
:1057000000F076F92F4DC008C54008E0FFF730FFE4
:1057100028B12D4D03E000F063F900B12B4D0020BE
:105720002060274E606026491036A0603868091D49
:1057300033680A68C0F30537C3F3080000F1010AB3
:10574000C2F300121AB1301D0068C0F3CC08002F5C
:1057500033D008688946C0F3C04058B1306843462A
:1057600052463946C0F34620401C00902846FFF7B9
:1057700007FF2060D9F80000C0F3005058B130682E
:10578000434652463946C0F30640401C0090284626
:10579000FFF7F6FE6060D9F80000C0F34050002823
:1057A0000BD03068434652463946C0F30660401C71
:1057B00000902846FFF7E4FEA060BDE8F88F0000E7
:1057C000284402580090D00300093D0040787D0134
:1057D0002DE9F84F384F00250446A846386810F0E8
:1057E000030004D001280BD0022812D10DE000F0F4
:1057F00007F970B100F0FCF8304DC008C54008E072
:10580000FFF7B6FE28B12E4D03E000F0E9F800B135
:105810002C4D00202060284E606027491836A0607B
:105820003868091D33680A68C0F30557C3F30800D8
:1058300000F1010AC2F300221AB1301D0068C0F362
:10584000CC08002F35D0002D33D008688946C0F32E
:10585000805058B13068434652463946C0F346201E
:10586000401C00902846FFF78BFE2060D9F800000E
:10587000C0F3C05058B13068434652463946C0F371
:105880000640401C00902846FFF77AFE6060D9F879
:105890000000C0F3006000280BD030684346524639
:1058A0003946C0F30660401C00902846FFF768FEAA
:1058B000A060BDE8F88F0000284402580090D00393
:1058C00000093D0040787D010248006800F47060E6
:1058D0007047000018440258FEB50024FFF776FE1A
:1058E00039494FF440724FF47D43451A88424FF4D2
:1058F00080315FD022DC354EB042A0EB06050AD0E5
:1059000010DC334DA0F10800B0F1E06040D09042CF
:105910002DD0884229D100F083F830B36846FFF7D4
:10592000DDFE09E09D4201D08D421ED100F080F8DD
:10593000D8B16846FFF74CFF019C16E0254EA81B26
:10594000B54204D008DC954234D08D420DD1FFF72A
:105950000FFE50B1204C08E0984201D0884204D19B
:1059600000F056F808B14FF400442046FEBD01F0A7
:10597000FBF80446FFF7A8FFC0F30320285C00F003
:105980001F0024FA00F001F0C1F801F0DDF80FE08B
:1059900001F0EAF80446FFF797FFC0F30320285C04
:1059A00000F01F0024FA00F001F0B0F801F0BCF89C
:1059B0000446DAE700F024F80028D6D000F018F802
:1059C000064CC008C440D0E70800030708030107DD
:1059D000ECA200080003010000093D000090D00384
:1059E00002480068C0F3404070470000004402587D
:1059F0000248006800F01800704700000044025898
:105A000002480068C0F3800070470000004402585C
:105A100002480068C0F3400070470000704402581C
:105A200002480068C0F3C06070470000004402589C
:105A300002480068C0F340707047000000440258FC
:105A400003490A6822F00F0202430A60704700000F
:105A5000184402580749030E10B551FA80F1C0F3FB
:105A60000422C0F3074408689340944098432043BD
:105A7000086010BD4C4402588A070B0C120F02F14B
:105A8000B04293FAA3F310B5B3FA83F4D2F8083412
:105A900004F01F0423EA1141A0400143C2F8081496
:105AA00010BD00000149086070470000140000208C
:105AB0002DE9F047264B4FF0804A264D0268984268
:105AC000254E264F264C09D0504507D0A84205D078
:105AD000B04203D0B84201D0A04205D1D1F804C0F1
