:020000040800F2
:10000000685C01207D040008312D0008A726000847
:100010007F2A0008A517000895320008000000009C
:10002000000000000000000000000000490300087C
:10003000A717000800000000A5030008652F0008AE
:100040009704000897040008970400089704000824
:100050009704000897040008970400089704000814
:100060009704000897040008970400089704000804
:1000700097040008970400089704000897040008F4
:1000800097040008970400089704000897040008E4
:1000900097040008970400089704000897040008D4
:1000A00097040008970400089704000897040008C4
:1000B00097040008970400089704000897040008B4
:1000C00097040008970400089704000897040008A4
:1000D0009704000897040008970400089704000894
:1000E0009704000897040008000000009704000827
:1000F0009704000897040008970400089704000874
:100100009704000897040008970400089704000863
:100110009704000897040008C531000897040008F8
:100120009704000897040008970400089704000843
:100130009704000897040008970400089704000833
:1001400000000000000000000000000000000000AF
:100150009704000897040008970400089704000813
:100160009704000897040008970400089704000803
:100170009704000897040008970400080000000096
:1001800097040008970400089704000897040008E3
:1001900097040008970400089704000897040008D3
:1001A00097040008970400089704000897040008C3
:1001B00097040008970400089704000897040008B3
:1001C00097040008970400089704000897040008A3
:1001D0009704000897040008970400089704000893
:1001E0009704000897040008970400089704000883
:1001F0009704000897040008970400089704000873
:100200009704000897040008970400089704000862
:100210009704000897040008970400089704000852
:1002200097040008970400089704000800000000E5
:1002300097040008970400080000000097040008D5
:100240009704000897040008970400089704000822
:100250009704000897040008970400089704000812
:100260009704000897040008970400089704000802
:100270009704000897040008970400080000000095
:100280009704000897040008970400080000000085
:10029000000000009704000800F002F800F044F8A5
:1002A0000AA090E8000C82448344AAF10107DA45D1
:1002B00001D100F039F8AFF2090EBAE80F0013F0DF
:1002C000010F18BFFB1A43F0010318474C4B000005
:1002D0006C4B0000103A24BF78C878C1FAD8520796
:1002E00024BF30C830C144BF04680C6070470000B0
:1002F0000023002400250026103A28BF78C1FBD82F
:10030000520728BF30C148BF0B6070471FB504F0CB
:1003100049FD9DE8030000F0E1FC00F009FA1FBD73
:1003200010B500F06EFA10BD00F09EFA1146FFF70E
:10033000EDFF03F052F800F0A1FC03B4FFF7F0FF6B
:1003400003BC00F03DFE00002C4B19680868B0E8C3
:10035000F04F80F30988BFF36F8F4FF0000080F3F8
:10036000118870470000000008480068006880F3AA
:1003700008884FF0000080F3148862B661B6BFF3BE
:100380004F8FBFF36F8F00DF00BF00BF08ED00E0AD
:10039000DFF80C00016841F470010160704700BF94
:1003A00088ED00E0EFF30980BFF36F8F134B1A68FD
:1003B0001EF0100F08BF20ED108A20E9F04F1060EA
:1003C00009B44FF0500080F31188BFF34F8FBFF393
:1003D0006F8F03F03FFF4FF0000080F3118809BCDE
:1003E00019680868B0E8F04F1EF0100F08BFB0ECB5
:1003F000108A80F30988BFF36F8F70474400002094
:10040000EFF30580704700000246D2E84F0F411C11
:10041000C2E8431F03B1F8E77047024652E8000FF5
:10042000411C42E8001303B1F8E77047024652E866
:10043000000F42E8001303B1F9E77047024652E8A3
:10044000000F830103D3BFF32F8F0020704700F00C
:100450000040084342E8000303B1F0E7704702465A
:1004600052E8000F800103D2BFF32F8F00207047A6
:1004700042E8001303B1F3E70120704709488047C1
:1004800009480047FEE7FEE7FEE7FEE7FEE7FEE776
:10049000FEE7FEE7FEE7FEE704480549054A064B8E
:1004A00070470000E93000089902000868500120F8
:1004B000685C012068540120685401200FB404498D
:1004C00010B503AA029800F0B1F810BC5DF814FB57
:1004D000B40E0120032A40F2308010F0030C00F02B
:1004E000158011F8013BBCF1020F624498BF11F86E
:1004F00001CB00F8013B38BF11F8013BA2F1040227
:1005000098BF00F801CB38BF00F8013B11F003039E
:1005100000F09E80083AC0F0088051F8043B083A89
:1005200051F804CBA0E80810F5E7121D5CBF51F8A4
:10053000043B40F8043BAFF30080D20724BF11F81E
:10054000013B11F801CB48BF11F8012B24BF00F883
:10055000013B00F801CB48BF00F8012B704702F0C7
:10056000FF0343EA032242EA024200F0A5B84FF03B
:10057000000200B5134694469646203922BFA0E8F3
:100580000C50A0E80C50B1F12001BFF4F7AF0907FF
:1005900028BFA0E80C5048BF0CC05DF804EB8900F0
:1005A00028BF40F8042B08BF704748BF20F8022B33
:1005B00011F0804F18BF00F8012B70474FF0013C3D
:1005C00050F8042B51F8043B9A4215D1A2EB0C03CE
:1005D000934313EACC130BD150F8042B51F8043B8E
:1005E0009A4209D1A2EB0C03934313EACC13E7D050
:1005F0004FF00000704700BFD01A01BAB1FA81F184
:1006000001F0180122FA01F0CB40C1F12001DBB268
:10061000C0B2C01A2CFA01F3D11A914311EAC311E6
:10062000E6D170477047704770470000074B70B5C0
:100630000D467B4400F065F80446284600F074F847
:1006400010B14FF0FF3070BD204670BD8B2D000003
:1006500010B5203AC0F00B80B1E81850203AA0E85D
:100660001850B1E81850A0E81850BFF4F5AF5FEA91
:10067000027C24BFB1E81850A0E8185044BF18C944
:1006800018C0BDE810405FEA827C24BF51F8043BEB
:1006900040F8043B08BF7047D20728BF31F8023B3F
:1006A00048BF11F8012B28BF20F8023B48BF00F8D3
:1006B000012B70474FF000020429C0F0128010F0A7
:1006C000030C3FF456AFCCF1040CBCF1020F18BF81
:1006D00000F8012BA8BF20F8022BA1EB0C01FFF7BB
:1006E00048BF5FEAC17C24BF00F8012B00F8012B52
:1006F00048BF00F8012B704701694A1C0261087865
:10070000704700B58FB0CDE9013100210591054951
:100710007944CDE903101146684600F0F1F80FB0B6
:1007200000BD0000E5FFFFFF007B00F08000704788
:1007300010B542485421FFF71AFF41485421FFF7F2
:1007400016FF40485421FFF712FF3F493B483C4AFF
:100750003F4B08603D490A603A491960531C0365E4
:10076000481C1065012008653B48344A39A178448B
:1007700000F0E8F920B9384878440A3800F087FAE0
:1007800037482F4A35A1784400F0DCF920B93448C5
:1007900078440A3800F07BFA32482A4A2FA178447C
:1007A00000F0D0F920B92F4878440A3800F06FFAE9
:1007B00040232248DC000021224600F0A0F920B1AD
:1007C00025487844543800F062FA1D4822464023F8
:1007D000002100F094F920B121487844543800F009
:1007E00056FA184822461023002100F088F9002804
:1007F00006D01C487844BDE81040563800F047BA8F
:1008000010BD104870B5006D20F001040B4800F0D9
:100810000FFA0B4800F00CFA0A4800F009FA09E058
:10082000206D20F00105204600F002FA204600F07D
:1008300040F82C46002CF3D170BD0000600E012062
:10084000B40E0120080F0120D0000020D4000020A9
:10085000D8000020720000008E46000077000000E3
:100860007D4600006D460000754600F017FAAE4662
:1008700005006946534620F00700854618B020B5AC
:10088000FFF70AFEBDE820404FF000064FF00007DA
:100890004FF000084FF0000B21F00701AC46ACE828
:1008A000C009ACE8C009ACE8C009ACE8C0098D4695
:1008B000704770B50446051F00F0F4F90068002C7D
:1008C00014BF446870BD002C18BFAC423CBF20462A
:1008D0006468F8D301680A18AA4218BF456003D1BA
:1008E0002A6805461144016028684119A1421CBFCD
:1008F0006C6070BD6168696021680844286070BDE3
:100900002DE9F04106460024D6E90170F5688046DD
:10091000304603E04146B847641C3046A8470028EB
:10092000F8D12046BDE8F0812DE9F04705460C4698
:10093000C86820F4201040F48000C860800602D50A
:10094000084600F0FCFAE06841F282014FF0FF39FE
:100950000140022903D0204600F09AFAB5E000F4E5
:100960002041B1F5004F0FD1C00306D56168E06AA0
:10097000884200D80846606006E02069E062606056
:10098000606902F0A5FCA061A0680022EEB2002818
:100990000DDAE1688B050AD4C043A06041F49030C1
:1009A0002260E0606068411C61600670A5E0E0685C
:1009B0009046226040F40050E060206968BB6069A6
:1009C00002F08CFC012704F12405A0B1A08910F4E9
:1009D000407F08D0E06900F0B0F9206118B1E0680C
:1009E00040F4006016E0E7612561E06820F44070A3
:1009F00040F480600EE0E06900F09FF9002820617B
:100A0000F1D0E06840F4006010F4407FE06002D173
:100A100040F48070E06020696060E06825696FF0F4
:100A2000010AC1051FD56168E06A884200D80846FE
:100A3000411B04D02246284600F034FAF0BBE0689F
:100A4000010203D5E562C4E9015854E0691CE16282
:100A50006160E16940F48030491EC4E9021030460B
:100A60002E70BDE8F087010202D500F480320AE062
:100A70006068411C61600670E0680A2E40F48030B6
:100A8000E06006D00022E16A6068814203D90B462B
:100A900002E00122F7E70346A7895B1B7F0503D429
:100AA000E7699F4200DDE2B1814200D80146E5627C
:100AB0000F1AC4E90158002B09DD00E005E02246C9
:100AC0001946284600F0EEF908B14846C9E747B193
:100AD000A069E5626560C01BA061E06840F010009D
:100AE000E060E068000208D56168A069E562491B22
:100AF00008446560A0615046B3E73046B1E770B581
:100B0000C468A50713D0650211D4B2F5807F09D05F
:100B1000B2F5007F06D0B2F5806F08D1012300F155
:100B2000240106E05D1E6FF07F46B54201D301202F
:100B300070BD0161C361416024F470611143C16003
:100B4000002070BD2DE9F0410C46074616461046C0
:100B500000F06EF82078611C61280AD0722802D05B
:100B600077283CD102E00125002405E00225042479
:100B700002E0082448F2020511F8010B2B2806D0E8
:100B8000622809D011F8010C74280AD00BE045F056
:100B9000030544F00204EFE745F0040544F00104C6
:100BA000EAE744F010043846214602F0A3FB411C5A
:100BB00015D00021316171604FF40071F560F16171
:100BC0007061200704D530460222002100F0E4F8CD
:100BD000306D40F0010030653046BDE8F081002006
:100BE000FBE72DE9F0410D460646104C206DC1078C
:100BF00004D0410804D020F00104F7E722460EE0BB
:100C0000542000F09AF807000ED0206D47F0010143
:100C10000843542120653846FFF7A9FC3A46294687
:100C20003046BDE8F0418DE70020D6E7600E012098
:100C30002DE9F04704464FF000094FF0FF37C56833
:100C4000D4E90486A80707D0204600F055F93046BD
:100C500002F032FB002802DA3846BDE8F0872805AA
:100C600002D54046FFF725FE4C212046FFF77FFCCA
:100C7000206D20F0010020654846EEE710B50446DF
:100C8000AFF300802046BDE81040FFF756BB10B51B
:100C900000F07CF9BDE8104000F072B900487047E0
:100CA0005C0F012000487047640F012070477047B7
:100CB0007047704738B504460A4600206946AFF3CE
:100CC0000080002808BF38BD02460099204600F089
:100CD00084F9012038BD012000F0D3B9F8B5AFF395
:100CE0000080054600200C46102000BF0646A819CB
:100CF000A0420DD9324669460020AFF300800700BC
:100D000008BF00F0BEF90098A04218BF0546C419FC
:100D1000FFF7C8FF05600746F01D20F007004619E1
:100D2000284600F053F9B44208BFF8BDA21B314673
:100D30003868BDE8F84000F050B970B50646FFF7D6
:100D4000B1FF056806F10B0020F00704B4429CBF18
:100D5000002070BD2B466A68BAB11068A04210D35B
:100D600004F1080188423CBF5068586007D35168BD
:100D7000101941601168091B016058601460101D52
:100D800070BD13465268002AE7D121462846FFF776
:100D900091FF0028DED170BD2DE9F04104461646D2
:100DA0000D464769007B80072ED0384602F096FA40
:100DB00050BB3EB3012E02D0022E25D104E02046C6
:100DC00000F025F905441DE0384602F081FAE1689B
:100DD000002841F01001E16005DA204600F058F8E3
:100DE0000120BDE8F081C9030BD56268E16A914238
:100DF00000D81146A26911442269891A814200DD96
:100E000008460544002D01DA0220EAE7E16A60683D
:100E1000E268814206D29103E06203D522F40031F8
:100E200041F01002A6690027AE4213DCE16A81425C
:100E300001D90B4600E0034603EB060C2369ACEB3B
:100E4000030CAC4506DD814201D98C4600E08446A6
:100E50009C4505D1A760276042F02000A5620DE007
:100E6000AD1BE669AE1B8142A66000D90846C01AD8
:100E7000281A20605819606022F0200003490840B9
:100E8000E060002084F84870ABE70000BFCFD7FFD8
:100E9000C16821F4001141F08001C160002181602E
:100EA000016070472DE9F047814614460E464FF029
:100EB000FF383248D5685769054209D03846A169DC
:100EC00002F046FA002811DB2C48C0430540E560DB
:100ED0002B4632464946384602F040FAA16920F0D6
:100EE0000042B21A11440028A16103D02046FFF746
:100EF000CFFF4046BDE8F08770B504460569C06A7B
:100F00006168884200D80846E16821F42011E16058
:100F1000C90312D5A84208D02246411B2846FFF734
:100F2000C1FF10B14FF0FF3070BD0020E562C4E991
:100F30000150E06820F48030E060002070BD10B502
:100F40000446C06820F02000E060A16AA0698842E1
:100F50000DD02046FFF7D0FFE06820F4405040F06D
:100F60001000E060A06AA0612069E062606044F265
:100F70004001E0688843E06010BD000010000200FE
:100F8000002801D000F01CB87047000010B50146E1
:100F900002A000F05DF8012010BD00005349475247
:100FA000545245443A2052656469726563743A202C
:100FB00063616E2774206F70656E3A200000000038
:100FC00001491820ABBEFEE72600020000210160A7
:100FD000C0E90110704710207047034640688C46F6
:100FE000002818BF88423CBF03464068F8D3186801
:100FF0001844884207D00CF1030020F00700001DC0
:10100000411A521A0146081D0A60FFF752BC10B57A
:101010000146C268900703D0900607D5886A0AE0A7
:1010200000F03EF801210160881E10BD8B69486800
:1010300018440B69C01A91F848301BB191F8491057
:10104000401A10BD1103FCD50028FADD401E10BD6A
:1010500070B505460C460A2000E06D1C00F018F83B
:1010600035B128780028F8D102E0641C00F010F8AF
:1010700014B120780028F8D1BDE870400A2000F0B3
:1010800007B810B500F010F8BDE81040FFF778BFC2
:1010900008B569468DF800000320ABBE08BD704757
:1010A000004870475C0F012010B5012805D00021D1
:1010B00003A0FFF7CDFF012010BD09A1F8E7000054
:1010C00053494752544D454D3A204F7574206F6631
:1010D0002068656170206D656D6F72790000000099
:1010E0003A2048656170206D656D6F727920636F7D
:1010F00072727570746564002DED028BF1EE048AD6
:101100009FED0D8A82B0002000F094F9ADF8000048
:10111000BDF9000000EE100A0120B8EEC00A20EE72
:10112000080A20EE280A8DED000A02F087FF012050
:1011300002F084FFE7E700000000003801210F20E3
:1011400010B500F05FFC00F0E5FC02F04FF900F094
:101150004BF8BDE8104002F05DB9000001F094FDCD
:1011600068B1012804D0022804D0032807D103E085
:1011700005A002E007A000E008A0FFF79FF93220D9
:1011800002F05CFFEAE700004B315F446F776D0DC2
:101190000A0000004B315F55700D0A004B315F4C67
:1011A0006F6E670D0A000000084D4FF400544FF4B5
:1011B000FA76696924EA010001F4005140EA01402D
:1011C000A861304602F03AFFF3E700000008025839
:1011D00008B503F02BFC009001F0FAFC0A216846E8
:1011E00002F054FFF8E700007CB5012003F000F99D
:1011F0001A4C0121002322462061CDE900121D482E
:10120000802217A103F09EFB201D02250023EE0182
:10121000CDE900501D4818A1324603F093FB04F1BC
:101220000800324600231AA1CDE900501C4803F003
:1012300089FB04F10C01324603200023CDE90001B3
:101240001C4818A103F07EFB206902B000231A4657
:101250001946BDE8704003F079B900003000002065
:101260004170705F4C4544546F67676C655F5461B3
:10127000736B0000A91100084170705F52756E31E8
:10128000306D735F5461736B00000000D111000872
:101290004170705F4B6579546573745461736B0072
:1012A0005D1100084170705F4144373631365F543C
:1012B00061736B00F9100008064907480B680022AB
:1012C00043F080730B604260016841F001010160EE
:1012D00070470000FCED00E0001000E0074B4FF409
:1012E0007A7205491B68B3FBF2F24B6842434868C7
:1012F000C01A9042FBD37047001000E01400002099
:1013000070B588B01C216846FFF731F917480021F5
:10131000154E1025164C022206230660C0E9014135
:10132000C160D402C0E9041555038161C161C0E9FF
:101330000814C0E90A15016341638163C163016454
:10134000CDE90032CDE902320492CDE9052100F069
:1013500011F86A460548114601F022F8002800D02D
:10136000012008B070BD000000400052280100209C
:1013700004410052F0B587B014216846FFF7F7F832
:1013800027480168002948D10121016025480168EA
:1013900041F004010160016801F004010591016858
:1013A00041F008010160016801F008010591016840
:1013B00041F010010160006800F01000059019482C
:1013C0009438016821F00301016016480C38016867
:1013D00041F480510160006802240025694600F450
:1013E0008050059003264FF680700C278DE8F100A1
:1013F0000D4800F0A5FC4CF2337069468DE8F10011
:101400000A4800F09DFC09218020CDE903618DE8A8
:1014100031000748694600F093FC07B0F0BD0000BA
:101420001C000020E044025800100258000C025832
:101430000008025800F1C0400088704700F1C04029
:101440000180704700487047C04D000870B586B0F5
:1014500018216846FFF78BF8012001F031F90020D0
:101460000B4D01210B4E022204910446CDE90102ED
:1014700004EB4400694605EB80004068009030466C
:1014800001F02AF9641C14F0FF04F1D006B070BD1D
:10149000C04D00080000025800B587B0182168460A
:1014A000FFF765F8042001F00BF908484FF40052EB
:1014B0008261002101230092CDE901310391049161
:1014C000694601F009F907B000BD000000080258A4
:1014D000802010B501F0F4F8BDE81040012001F0C3
:1014E000EFB80000F8B501F08BFA3C4900200A681B
:1014F000920311D4BFF34F8FBFF36F8F384A106040
:10150000BFF34F8FBFF36F8F0A6842F400320A6057
:10151000BFF34F8FBFF36F8F0A68D20323D42F4AD4
:1015200070321060BFF34F8F101F43F6FF740068D6
:101530002B4B1033C0F34E32C0F3C90504EA4216F8
:10154000284600BF46EA80771F60401EFAD2521E2E
:10155000F4D2BFF34F8F086840F480300860BFF3C7
:101560004F8FBFF36F8F00F009FD01F0D7FC1D48CE
:10157000016841F00201016000684FF6FF031A4A5A
:1015800000F002000090154808380168194041F445
:101590004071114301600068C0F30220C0F10702EE
:1015A000042A00D90422011D072901D2002000E0ED
:1015B000C01E012191400D4A491E8140080182F858
:1015C000140D01F0DDFCFFF777FEFFF781FF00F05F
:1015D0000FF8BDE8F840FFF75FBF000014ED00E032
:1015E00050EF00E0F44402580000FA050FE000E07C
:1015F000F0B595B014210EA8FEF7B9FF202168467A
:10160000FEF7B5FF182108A8FEF7B1FF5948016899
:1016100041F00201016000680024574900F0020017
:101620001390D1F8000820F0FF0040F01700C1F837
:10163000000852480278D3B28A5822F0C002CA5039
:101640000278D3B28A5842F44032CA500278D3B2F8
:101650008A5822F4907242F48072CA500278D3B24F
:101660008A5822F40072CA500278D3B28A5842F4DF
:101670008062CA500378DAB2CB5823F4C05343F4E3
:1016800000638B500378DAB2CB5823F4C04343F4A1
:1016900000538B50384A03781432DDB29B5843F024
:1016A0000403AB500378DDB29B5843F00303AB5007
:1016B0000278D3B28A5822F0C072CA500278D3B2EC
:1016C000885820F4C000C8504DF2E6202C4DADF8EB
:1016D00038400EA9CDE90F402846119401F066F874
:1016E000286840F0800028602649A8680840A86063
:1016F000224A082022490832183102F109071378DA
:101700005E183A78316890400143316064216A463E
:1017100060200494CDE90004CDE90241012128466E
:1017200001F0A4F8306804213A7891408843306091
:10173000686820F0700040F040006860A86820F001
:101740008000A8600B480838016841F00101016081
:1017500000684021089108A900F0010013900220C0
:10176000CDE909040B94CDE90C40074800F0B4FF23
:1017700015B0F0BDE844025800000240CC4D00080E
:1017800000040040F8BFFEFF000002580448016A50
:1017900041F001010162016841F0010101607047FF
:1017A00000040040FEE770470749097851B1C0F3D3
:1017B000C621C0F3022204488038405CD04000F0CB
:1017C0000100704700207047405001202DE9F04192
:1017D0000A4D05F11806AF6900F0B2F9044601465A
:1017E0003046FEF723FEB842F5D1844203D20348C7
:1017F0001030FEF712FE2046BDE8F0814050012077
:101800002DE9FC475FEA01081446054602D0B4F50D
:10181000807F02D90020BDE8FC87FFF7C5FF48B1F3
:10182000FFF7D4FF8146A8B2EFF3058121B14FF451
:10183000002702E00120EEE700270743A4B1082CAF
:101840004FF0000A4FF4E02613D82246414668467E
:10185000CDF800A0CDF804A0FEF73CFE06EA044057
:10186000384340F0407042E0002349461A4638466B
:1018700040E02248FEF7C8FD0146D8F8000000907D
:10188000083CD8F8040006EA01463743009A08F1FC
:10189000080503464946019047F0807000F030F893
:1018A0000028B8D04FF6017006430FE0284655F8DF
:1018B000081B0091083C40680A46494601900346CF
:1018C000304600F01DF8761C0028A4D0082CEDD876
:1018D000224629466846CDF800A0CDF804A0FEF7C0
:1018E000F9FD26F47F4040EA042040F000704946AC
:1018F000DDE9002300F004F88DE7000041500120ED
:101900002DE9FF5F93468A464FF08052994602EADE
:10191000DA08510001EA9B074800072500EA59064A
:101920001F48FEF77AFD830AC0F309021D484FF4F1
:10193000700100EB0214009801EA0351084340EAE9
:1019400008003843304340F0406104F10C00FEF7DA
:1019500075FD41011CD580F0044101F0004029F0E3
:10196000004202432AF000452BF000430543256066
:101970000343C4E9013204F10C00FEF770FD48B1E5
:101980000748001DFEF749FD012004B0BDE8F09FA7
:101990006D1EC5D102480830FEF73FFD0020F4E778
:1019A00044500120C00F01202DE9F047FF29814656
:1019B00001D2FF2A02D30020BDE8F087104D002499
:1019C00020464FF0010A56460AFA00F313EA090FBF
:1019D0000FD00B46B2460AE004EBD30603F007082B
:1019E000AF5D0AFA08FC47EA0C075B1CAF5593424F
:1019F000F2D9401C20340428E5D30120DCE70000A4
:101A0000C04F01202DE9F0473D4C00258846814616
:101A10008021A4F180002570FEF7A9FD394B4FF617
:101A2000FF70182241F221074FEA0006082113F83F
:101A300001CB80EA0C2000BF5FEA004C06EA4000C0
:101A400000D57840491EF7D1521EEFD12E4A012110
:101A5000236A934201D0226202E06288824202D06D
:101A60006080E16139E0E069401CE061012834D028
:101A7000264B00204FF4806603EB0011CA68570123
:101A800002D522F04062CA60401CB042F4D3E06943
:101A900001282BD000F060F80646DEB1FE22484651
:101AA0000021FFF781FFEF220F201146FFF77CFF97
:101AB000FE2204201146FFF777FFFFF787FEE26959
:101AC000002301461248FFF71BFFB8F1000F01D0B9
:101AD00000F020F83046BDE8F08765704FF4804193
:101AE0006560A5600948E560FEF741FD00F034F847
:101AF000061E01D000F02AF8C4E905052561CCE7EF
:101B000040500120E84D00086B27A5E1C00F0120DF
:101B100000FF0003084810B5017809B1012010BD8D
:101B200001210170FFF752FE0023014603481A46C7
:101B3000FFF7E6FEF2E700004050012001FF00033E
:101B40000148406870470000001000E0014800684C
:101B5000704700001400002005490A68054842F05B
:101B600080720A60016841F0010101600120704744
:101B7000FCED00E0001000E0F0B5B3F5804F05D0BB
:101B80006FF0704140F822100020F0BD91E838005D
:101B90008F898E6950F8221024013343054E44EAA0
:101BA00005242343314043EA07430B4340F82230E6
:101BB000EAE700000000F0CFF0B50A6850F82230E4
:101BC00023F0010340F822308C68082C2CD000262A
:101BD0004A68D1E903CE22434CEA060C01F1140312
:101BE00042EA0C0242EA0E0293E8F8501A432243FA
:101BF0000C682A43D1E90C35324350F824603A434B
:101C000042EA0C02DFF840C042EA0E028F6B134337
:101C10001D432F4326EA0C063E4340F824600A6B1E
:101C2000B2F5801F02D007E04026D1E70A684AB12A
:101C3000026842F4801202600A681AB10268496BB5
:101C40000A4302600020F0BD7FFB3F00F0B58C68C6
:101C500000EB8202D1E90036B1F80CE04FEA042C27
:101C6000134C0D8A43EA06130E7D67014CEA0E4CB5
:101C700043EA0C0304EB05552B438D6907EB06661D
:101C8000576833432B4307F040452B4353600268AA
:101C9000D2020BD5098A4268436804EB015122F451
:101CA0007002114323F470030B4343600020F0BD26
:101CB0000000F0FFF0B587B014216846FEF757FC2E
:101CC0001A48016800292ED10121016018480168D5
:101CD00021F00301016016488830016841F4805109
:101CE0000160006802240025694600F480500590D8
:101CF00003264FF680700C278DE8F1000D4800F0A8
:101D00001FF84CF2337069468DE8F1000A4800F084
:101D100017F809218020CDE903618DE831000748DB
:101D2000694600F00DF807B0F0BD0000000000208B
:101D30004C44025800100258000C02580008025887
:101D40002DE9F84F03247D4D00234FF001094FF09A
:101D5000B04B4FF00F0AE9E009FA03F73A4076D0AA
:101D60000E7906F00306012E01D0022E18D1D0F80C
:101D700008C04FEA430ECE6804FA0EF82CEA080CAD
:101D800006FA0EF646EA0C068660D0F804C00E7914
:101D90002CEA070CC6F300169E4046EA0C06466085
:101DA0000E79F643B6070BD0C6684FEA43088F6832
:101DB00004FA08FC26EA0C0607FA08F73743C7605E
:101DC0000E7906F00306022E12D1DE080F694FEAE3
:101DD000437C00EB8606B646366A4FEADC6C0AFAAC
:101DE0000CF807FA0CF726EA08063743CEF82070FD
:101DF0000F7906684FEA430807F0030704FA08FC66
:101E000007FA08F726EA0C06374307604E6816F40F
:101E1000403F1CD04A4E376847F0020737603668AB
:101E20009F0706F00206009623F0030606F1B0466F
:101E3000B6463F0FD6F80864DFF808810AFA07FCB7
:101E4000404526EA0C0603D14FF0000C41E06CE05F
:101E5000DFF8F4C0604502D14FF0010C39E0DFF843
:101E6000ECC0604502D14FF0020C32E0DFF8E0C078
:101E7000604502D14FF0030C2BE0DFF8D8C060457D
:101E800002D14FF0040C24E0DFF8CCC0604502D151
:101E90004FF0050C1DE0DFF8C4C0604502D14FF0E3
:101EA000060C16E0DFF8B8C0604502D14FF0070C11
:101EB0000FE0DFF8B0C0604502D14FF0080C08E039
:101EC000DFF8A4C0604502D14FF0090C01E04FF0EB
:101ED0000A0C0CFA07FC4CEA060CCEF808C44F6852
:101EE000DBF80060FF0226EA020600D516435F46D3
:101EF000CBF80060D1F804C0DBF804605FEA8C2CFA
:101F000026EA020600D516437E606E684F6826EA10
:101F10000206BF0300D516436E602E684F6826EA9E
:101F20000206FF0300D516432E605B1C0A6832FAD6
:101F300003F67FF411AFBDE8F88F00008000005871
:101F4000F4440258000002580004025800080258E5
:101F5000000C0258001002580014025800180258D1
:101F6000001C0258002002580024025802488168D0
:101F7000027811448160704708000020032010B5EA
:101F800000F0FEF800F070F90F4A10491468136869
:101F9000C4F3032203F00F038A5CC95C02F01F0242
:101FA00001F01F01D0400A4A20FA01F111600949ED
:101FB00008600F2000F010F808B1012010BD00F0FB
:101FC0009FF8002010BD000018440258AE4D0008D4
:101FD000180000201400002010B5102804468AB014
:101FE0002CD200220146362000F0AAF8362000F05C
:101FF00099F8174804601748016841F01001016022
:10200000006809A900F010000890684600F0CAF8BE
:102010000598B0B100F016F940000F4900220F4CAE
:10202000B0FBF1F10E4840F2E7330460C0E903323F
:10203000491EC0E9011200F0EEF928B101200AB0F2
:1020400010BD00F0FFF8E8E7054800F017FAF6E7E2
:102050000C000020E844025840420F0000100040ED
:10206000DC000020F0B5154C4378211D0A1D2360CB
:102070000378F3B143680B60057BC67A817A437BB2
:102080002D07847B45EA0665C77B90F809C0067A70
:1020900090F800E045EAC14040EA834040EA44400D
:1020A00040EA074040EA0C2040EA460040EA0E00C1
:1020B00001E0002008601060F0BD000098ED00E035
:1020C000BFF35F8F044800210368034A23F4803381
:1020D000036070321160704724ED00E0074A40F061
:1020E0000100064970321060086840F480300860D2
:1020F000BFF34F8FBFF36F8F7047000024ED00E0F8
:10210000074882B0016841F00201016000680022C6
:102110000F2100F002000090901E02B000F010B8F5
:10212000F4440258002809DB410900F01F0289002D
:10213000012001F1E0219040C1F80001704700004A
:102140000E4BF0B41B680D46C3F30223C3F1070620
:10215000042E00D90426191D072901D2002300E00E
:10216000DB1E012404FA06F19C40491E2940641E2E
:10217000994014402143F0BC01F08DB80CED00E013
:10218000064900F0070210B54FF6FF040868044B3B
:10219000204040EA02201843086010BD0CED00E02A
:1021A0000000FA0570B5144C3F220260124A246800
:1021B0000832131D114D04F00704446016681C1DFD
:1021C00006F470668660166806F00F06C660126830
:1021D00002F0700202611A6802F0700242611A682D
:1021E00002F4E0628261226802F07002C261286833
:1021F00000F00F00086070BD10440258002000522B
:1022000030B500F031F80B4A0B490C4B15681468D7
:10221000C5F3032204F00F048A5C095D02F01F027B
:1022200001F01F01D040064A20FA01F11960106048
:10223000084630BD18440258AE4D00081800002072
:102240001400002000B5FFF7DBFF05490968054AC7
:10225000C1F30211515C01F01F01C84000BD000034
:102260001C440258AE4D0008454970B54548096800
:10227000434B103B11F0380208D00111082A03D05B
:10228000102A0BD0182A0BD0084670BD1968890691
:10229000FBD51968C1F3C101C84070BD3A4870BD93
:1022A0003749374D18310C1D24350A6809682668EE
:1022B0002D6802F0030406F00102C1F30511C5F315
:1022C000CC0515FB02F200EE102AB8EE400AE9B385
:1022D0002F4ADFED2E0AB7EE001A6CB1DFED2D1A92
:1022E000012C01D0022C43D002EE101A1068F8EE37
:1022F000422A81EEA22A1EE01C68A40611D51B68A2
:1023000001EE901A1168C3F3C103F8EE612AD840B8
:1023100001EE900AC1F30800F8EE611A81EEA22ADC
:102320000BE001EE901ADFED1C2A00BFF8EE611AF7
:10233000106882EEA12AC0F3080001EE900AF8EEC0
:10234000611A40EE201A31EE810A00E015E022EE1B
:10235000000A1068C0F34620401C00EE900AF8EE18
:10236000600A80EE201ABCEEC10A10EE100A70BDA1
:1023700001EE901ADFED092AD8E7002070BD0000B9
:10238000104402580090D00340787D0100000039CD
:10239000304402580024744A0024744C20BCBE4BC4
:1023A00070B5040015460E4603D094F8450010B1F0
:1023B00007E0012070BD002084F84400204600F0B2
:1023C00025F8206804F10801FFF7F6FBA268314602
:1023D0002068FFF73BFCE36A2946D4E90102FFF7D6
:1023E000CBFBA16801232068074A50F8215045F033
:1023F000010540F82150106840F00040106084F85A
:102400004530002070BD000000400052FFF752BC74
:1024100070477047704710B5040003D094F83D0032
:1024200010B107E0012010BD002084F83C002046D8
:1024300000F022F8022084F83D002068211D00F001
:10244000C7FE012084F8480084F83E0084F83F006D
:1024500084F8400084F8410084F8420084F8430086
:1024600084F8440084F8450084F8460084F8470066
:1024700084F83D00002010BD7047000090F83D102A
:10248000012901D001207047174A022180F83D1030
:102490000168CB6843F00103CB600068904214D020
:1024A000B0F1804F11D0114988420ED010498842B6
:1024B0000BD01049884208D00F49884205D00F49F7
:1024C000884202D00E49884207D181680D4A1140E6
:1024D000062906D0B1F5803F03D0016841F0010123
:1024E000016000207047000000000140000400402F
:1024F00000080040000C00400004014000180040AB
:102500000040014007000100704770B504460068B4
:1025100000250169C943890715D4C168C9438907E2
:1025200011D4EA1E026101212177206880698007A9
:10253000204602D0FFF7E8FF04E000F0A7F82046AD
:1025400000F0A5F8257720680169C943490717D429
:10255000C168C943490713D402216FF00402026124
:1025600021772068806910F4407F204602D0FFF771
:10257000CBFF04E000F08AF8204600F088F82577C9
:1025800020680169C943090716D4C168C94309070E
:1025900012D404216FF00802026121772068C0691B
:1025A0008007204602D0FFF7AFFF04E000F06EF88E
:1025B000204600F06CF8257720680169C943C906F8
:1025C00017D4C168C943C90613D408216FF010029B
:1025D000026121772068C06910F4407F204602D054
:1025E000FFF792FF04E000F051F8204600F04FF8AA
:1025F000257720680169C943C90708D1C168C94363
:10260000C90704D1891E0161204600F041F8206805
:102610000169C943090609D4C168C943090605D43B
:102620006FF0800101612046FFF7F3FE2068016929
:10263000C943C90509D4C168C943090605D46FF463
:10264000807101612046FFF7E3FE20680169C943FC
:10265000490609D4C168C943490605D46FF0400151
:102660000161204600F01EF820680169C94389060F
:102670000BD4C168C943890607D46FF020010161FA
:102680002046BDE87040FFF7C5BE70BD704770477B
:1026900000680349884201D1FFF768BC7047000019
:1026A000001000407047FEE7044908B50A6802437D
:1026B0000A6009680140009108BD0000DC4402582E
:1026C000044908B50A6802430A600968014000919C
:1026D00008BD0000E0440258F0B50A6892FAA2F280
:1026E000B2FA82F44CE00125A54013EA050246D077
:1026F0004B68012B01D0022B10D1856802FB02F33D
:102700008E685E4303EB43039D4335438560456814
:10271000CE680B689D435E4335434560C56802FB48
:1027200002F30E6903FB06F703EB4306B5433D4393
:10273000C5604D68022D1CD1FF2A0BD803FB02F5A2
:10274000076A55434A696A43C5EB0515AF4317430A
:1027500007620EE0476A120AD1F814C002FB02F5C4
:102760005543554305FB0CF2C5EB0515AF43174325
:10277000476205684A68B54353431D430560641CBE
:102780000A681346E240AED10020F0BD03490A6852
:1027900022F00F0202430A607047000018440258FA
:1027A0000149086070470000140000202DE9F0473F
:1027B000264B4FF0804A264D02689842254E264F00
:1027C000264C09D0504507D0A84205D0B04203D0CE
:1027D000B84201D0A04205D1D1F804C022F0700265
:1027E00042EA0C02DFF878C0DFF878809842DFF820
:1027F00078900FD050450DD0A8420BD0B04209D0F0
:10280000B84207D0A04205D0604503D0404501D072
:10281000484503D1CD6822F440722A4302608A6899
:10282000C2620A888262984207D0A04205D0604501
:1028300003D0404501D0484501D109690163416990
:1028400041F0010141610020BDE8F0870000014036
:102850000004004000080040000C0040000401405B
:102860000040014000440140004801402DE9F05F74
:102870005C4EB1F5805F5C4C0F465C4D4FF0000341
:10288000DFF86C914FF00101DFF868A1DFF868B163
:102890001CD007DC012F0CD0102F0ED0B7F5807F95
:1028A00070D10FE0B7F5803F3DD0B7F5801F69D1FB
:1028B0006BE0114600F03EFA02E0114600F08AFAA1
:1028C00001465FE0114600F0D7FAF9E7016AA0423D
:1028D00021F480510162046A4168D0F81CE024F4BC
:1028E00000541769D2E9008C44EA07342EF440778B
:1028F00007EA060724F4805447EA082644EA0C3421
:1029000007D0A84205D0484503D0504501D05845CE
:1029100004D1956921F4804141EA85114160C66185
:10292000D16801642CE0016AA042344E21F4803168
:102930000162046A178A416D24F40034B2F80480FD
:10294000D2F800C044EA074401EA060124F48034C6
:1029500041EA0C0144EA084407D0A84205D04845A2
:1029600003D0504501D0584506D14568966925F4F5
:10297000803545EA062545604165816DD1688165F0
:10298000194604620846BDE8F09F016AA04221F49E
:1029900080110162046A178A416D24F40014B2F8B0
:1029A0000480D2F800C044EA075401EA060124F486
:1029B000801441EA0C2144EA085407D0A84205D00B
:1029C000484503D0504501D0584506D14568966921
:1029D00025F4802545EA862545604165D168C165B5
:1029E000CEE70000FF8FFFFE000001400004014021
:1029F0000040014000440140004801408FFFFEFFBD
:102A00007FB5FFF75DFB00248DF80F4001258DF8A1
:102A10000E4012208DF8080003268DF80B608DF80B
:102A200000504FF010518DF80D4068468DF80A5057
:102A300001918DF801408DF809408DF80C40FFF7A9
:102A400011FB0F218DF808108DF80F4070078DF8DD
:102A50000B608DF80E408DF800508DF80D408DF80C
:102A60000A40019068468DF801508DF809408DF8B4
:102A70000C40FFF7F7FA0420FFF730FB7FBDFEE7BD
:102A800038B5FEF73DFC08B1012038BD204A0020D2
:102A9000AA21431C1154D8B20428FAD3002400946C
:102AA000102023462246214600F034F80A20FEF783
:102AB00015FC0023009410201A46194600F02AF84D
:102AC0000A20FEF70BFC0021084600F03BF80A2024
:102AD000FEF704FCAA21042000F038F80A20FEF7D3
:102AE000FDFBAA21052000F031F80A20FEF7F6FBD5
:102AF000AA21062000F02AF80A20FEF7EFFBAA21FF
:102B0000072000F023F80A20FEF7E8FB002038BD7C
:102B10002900002030B4029C03B10223234343EA7E
:102B200000030AB1202000E00020184301B1402139
:102B3000014303480170022030BC00F007B80000D8
:102B40002800002001430320AFF3008000F03F0085
:102B500010B541EA402040F400410020FEF76EFC31
:102B6000002010BD10B500F027F8BDE81040FFF7B9
:102B700087BF00000F4B0020F0B564269872022733
:102B80000146A3F10A04D8724A1C01EB810512F038
:102B9000FF0104EB4502968004F815709071D07126
:102BA0001072F1D000214A1C5854D1B20A29FAD32C
:102BB000F0BD00007E01002010B5FFF7DBFFFEF73F
:102BC00045FCFEF73FFC0149086010BD24000020D1
:102BD00000F0A4B870B506462A4900EB860001EB68
:102BE0004004304600F062F80028207806EB4603E7
:102BF0004FF005014FF0000531D0052801D22170BA
:102C000070BD0A2802D2401C207070BDA07906EB6E
:102C10004606761C20B90120A071F0B200F070F8D1
:102C2000A1880029F1D06088884208D2401C89B26E
:102C300080B260808842E8D1DB1CD8B20BE0E0793A
:102C40000028E2D0207AE179401CC0B2207288428C
:102C5000DBD32572F0B2BDE8704000F051B8052812
:102C600001D921700BE010B1401E207007E0A0795F
:102C7000012804D19B1CA571D8B200F041F86580F1
:102C8000257270BD740100200749887ACA7A904283
:102C900001D100207047421C085CD2B28A720A2A15
:102CA000F8D300228A7270477E010020F0B510BB75
:102CB000124C0022FF231146D4F8004001EB4105DD
:102CC00004EB850654F82570D6F804C03D6915EA72
:102CD0000C0500D00125367AAE4202D1521C0B46BB
:102CE000D2B2491C11F0FF01E8D0012A03D183427E
:102CF00001D10120F0BD0020F0BD00002400002023
:102D00000549CA7A8854C87A401CC0B2C8720A28D9
:102D100001D30020C87270477E01002010B5002446
:102D20002046FFF757FF641C14F0FF04F8D010BDD5
:102D3000FEE70000F0B5026A214B204F22F00102AD
:102D400098420262036A4468826923F00203D1F860
:102D500010C0D1E9005643EA0C0322F0030202EA54
:102D6000070223F0010342EA050243EA06030BD0FF
:102D7000144DA84208D0144DA84205D0134DA842C6
:102D800002D0134DA84212D1D1E9055623F008070D
:102D900024F4807347EA85048F68CD69334324F0B7
:102DA000040423F4007644EA870346EA45044460B9
:102DB0008261C968416303620020F0BD8FFFFEFF9E
:102DC0000000014000040140004001400044014077
:102DD00000480140F0B5026A224B214D22F010025A
:102DE00098420262046A4268836924F02004D1F8A0
:102DF00010C0D1E9006723F4407344EA0C1403EADD
:102E0000050324F0100543EA062445EA07130BD016
:102E1000154DA84208D0154DA84205D0144DA84222
:102E200002D0144DA84213D1D1E9055723F08006F2
:102E300022F4806346EA85128E68CD6943EA8703EF
:102E400022F0400223F4006742EA861347EAC502F3
:102E500042608461C968816303620020F0BD0000A4
:102E6000FF8FFFFE000001400004014000400140D0
:102E70000044014000480140F0B5026A224B214F56
:102E800022F4807298420262026A4368C46922F4A2
:102E90000072D1F810C0D1E9005624F0030442EAD0
:102EA0000C2204EA070422F4807244EA050442EA90
:102EB00006220BD0154DA84208D0154DA84205D0CA
:102EC000144DA84202D0144DA84213D1D1E90557A0
:102ED00022F400628E6823F4805342EA8522CD6991
:102EE00043EA071322F4806223F4005342EA862265
:102EF00043EA45134360C461C968C16302620020AC
:102F0000F0BD00008FFFFEFF000001400004014003
:102F100000400140004401400048014038B54FF0F6
:102F20000050FFF7C1FB0E4C20688000FCD54FF02D
:102F30008040FFF7B9FB20684000FCD54FF000400F
:102F4000FFF7B2FB20680028FCDA0548001D016885
:102F500041F000510160006800F00050009038BD61
:102F6000DC44025810B54FF0E020006901F050FD3C
:102F7000012803D0BDE8104001F024BA10BD0000C4
:102F8000554810B5016821F00F0141F004010160BE
:102F9000016801F00F010429FAD15048016821F0BD
:102FA000070141F0020101604C480C30016841F416
:102FB000404101600168C1F340310029FAD048481E
:102FC000016841F4803101600168C1F3404100298A
:102FD000FAD0434A2832116821F0030141F002017E
:102FE0001160111D0B6843F480330B600B6843F4D0
:102FF00080230B600B6823F00C0343F008030B6085
:103000000B6823F002030B60116821F47C7141F01E
:1030100050011160324930310A686FF3080242F002
:10302000BF020A600A6822F47E4242F400720A601B
:103030000A6822F4FE0242F480320A600A6822F032
:10304000FE4242F080720A60016841F080710160C6
:103050000168C1F340610029FAD00820FFF796FB10
:103060001F481030016821F0070141F003010160A1
:10307000016801F038011829FAD1194C1834206878
:1030800020F4706020600820FFF780FB201D01689D
:1030900021F0700141F040010160016821F4E0611C
:1030A00041F480610160206820F0700040F0400031
:1030B00020600B482030016821F0700141F0400190
:1030C00001600848FFF76CFB0F20FEF785FF002822
:1030D00001D072B6FEE710BD002000520C48025825
:1030E0000044025800389C1C2C48F0B52C4A01685A
:1030F00041F470010160106800F00F00072804D24D
:10310000106820F00F00C01D106026490020254CDB
:1031100010340B68244D43F001030B6020600B68F2
:103120002B400B60136803F00F03072B04D91368BF
:1031300023F00F03DB1D13601A4C1C4A18341C4B80
:10314000261D371D2060174C1A4D28343060261D6F
:103150003860371D23603B1D35601C1D3A60251DFE
:103160002E1D1860331D22602860326018600A68C6
:103170000C4B114C22F4802260330A6018602068E6
:103180006FF30F00B0F1005F03D20C490120C1F8CA
:10319000080143F2D2000A490860F0BD88ED00E062
:1031A00000200052004402587FEDF6EA800201013F
:1031B000000202020000FF010010005C00800051CC
:1031C000004000520148FFF7A0B90000DC000020D9
:1031D0002DE9F047274B4FF0804A274D026898426F
:1031E000264E274F274C09D0504507D0A84205D07E
:1031F000B04203D0B84201D0A04205D1D1F804C0FA
:1032000022F070024CEA0202DFF87CC0DFF87C801A
:103210009842DFF87C900FD050450DD0A8420BD0DB
:10322000B04209D0B84207D0A04205D0604503D0D3
:10323000404501D0484503D1CD6822F440722A436D
:103240004D6922F080022A43026098428A68C26275
:103250000A68826207D0A04205D0604503D040458D
:1032600001D0484501D10969016301214161BDE8EF
:10327000F08700000000014000040040000800400A
:10328000000C0040000401400040014000440140A7
:1032900000480140FEE7090700284FEA116104DBFE
:1032A00000F1E02080F80014704700F00F0000F1FA
:1032B000E02080F8141D70476FF40041401804D0DE
:1032C000012803D0022801D008147047002070475D
:1032D0006FF40041401800D0002070476FF40041A7
:1032E000401805D0012802D0022801D000207047E4
:1032F0000120704770B504004FF0FF3511D02078E1
:103300003A280ED10CA12046FDF758F958B10CA16E
:103310002046FDF753F948B10BA12046FDF74EF9C1
:1033200038B1284670BD48F2010070BD48F2020075
:1033300070BD48F2030070BD3A535444494E00003A
:103340003A5354444F5554003A5354444552520052
:103350006FF4004211140846704700002DE9F04751
:1033600014460E466FF400421114801803D0012851
:1033700004D002281ED00846BDE8F087D4B10E4F15
:103380004FF00008DFF834903D1F00BF296816F8A1
:10339000010B08290CD24A1C7854082A2A6001D053
:1033A0000A2805D104494846FEF72AFAC5F80080E4
:1033B000641EEBD10020DFE7C800002000FE020001
:1033C0008A68002A01DCFDF7AFBA521E8A604A689B
:1033D000C0B2531C4B6010707047FEF783F8FFF7C4
:1033E000C1FBFEF7D3F9FDF7A9FEFEE7EFF3058079
:1033F000002802D06FF0050070470548016811B140
:103400004FF0FF307047012101600020704700003D
:103410009400002010B5EFF30580002802D06FF073
:10342000050010BD07480168012902D04FF0FF30A8
:1034300010BD054A002111700221016000F0BAFEA2
:10344000002010BD940000201FED00E02DE9F041A8
:1034500004460F46134EF5683068001D00F0AEFCC0
:10346000B4F1FF3F07D137B13068BDE8F041011D2D
:103470000D4800F0F8BC2C4430684460AC4206D2E1
:103480003068011DB06BBDE8F04100F0CFBC306882
:10349000011D706B00F0CAFCB06A844200D2B462B5
:1034A000BDE8F081440000207C06002070B5044691
:1034B00000F0E6FC1C4DA868401CA860286810B10C
:1034C000686938B10CE02C60A868012808D100F0C8
:1034D0009FF905E02868E16AC06A884200D82C603C
:1034E000686A401C68626064E06A2969884200D9A1
:1034F000286100EB80000D4901EB8000211D00F0E8
:10350000B2FC00F0DDFC686900280CD02868E16A94
:10351000C06A884207D206494FF080500860BFF366
:103520004F8FBFF36F8F70BD44000020CC0100208F
:1035300004ED00E038B500F0A3FC0F4C2068B8B9EA
:103540000E4800F065FC0E4800F062FC0B48E0609D
:10355000143020610B4B0020102100900A2003F151
:10356000500200F073FF206010B107A100F02CFDA5
:10357000BDE8384000F0A4BC800000208007002097
:103580009407002090060020546D72510000000046
:1035900070B50D4C6068002815D00C4E00F070FC22
:1035A000F068C568281D00F009FCA068401EA060F6
:1035B0006068401E606000F083FC284600F051F80F
:1035C00060680028EAD170BD440000206806002031
:1035D0000B46026C002A0CD0C1681144C160D0F8BF
:1035E00008C0614501D30168C160C1681846FCF795
:1035F00071BF70472DE9F041044616460027A56BC0
:10360000226C002A10D0C6B1E068FCF763FFE168C5
:10361000206C091AE1602268914202D2A168081A5E
:10362000E060022E16D017E02068A8B9A06801F06B
:1036300069FA07460020A0600EE06068FCF74AFFC8
:10364000216C606808446060A168884204D32068E7
:10365000606001E005B16D1E681CA0633846BDE8DE
:10366000F08110B5044694F8591000290BD00129B7
:1036700011D0022914D0502080F31188BFF34F8F4E
:10368000BFF36F8FFEE7206B00F030FC2046BDE8F3
:10369000104000F02BBC2046BDE8104000F026BCD6
:1036A00010BD00000749CA681168002904D0002134
:1036B000016019B1002070470121F9E7D068006866
:1036C00070470000800000204FF48031104810F057
:1036D000070F06D0C01D20F007000D49411AC1F5A3
:1036E00080310C4A1060002353600144083921F0F6
:1036F0000701183A11604B600B600B1A43600160C0
:103700004068906050604FF000405061704700008A
:10371000600E0020B0000020074E4FF08054074D8F
:10372000FFF736FF30680128FAD92C60BFF34F8FBE
:10373000BFF36F8FF4E70000CC01002004ED00E040
:10374000002808D0002181600160C16000231A4672
:10375000194600F0FBBE704770B51D46049C002959
:1037600009D02260E06321640121204600F0A6FE1A
:1037700084F84C5070BD2460F4E72DE9F05F824678
:103780000E4690469B460B9F0A9D0C9CA5224FEA35
:103790008801206BFCF7E3FE206BA8F1010100EB30
:1037A000810020F007094FF0000866B100202218C0
:1037B000315C82F83410315C11B1401C1028F6D312
:1037C00084F8438001E084F83480382D00D3372515
:1037D000E562E564C4F85080201D00F024FB04F18C
:1037E000180000F020FB2461C5F13800A06164627C
:1037F000C4F8548084F858805A465146484600F030
:10380000C7FA2060002F00D03C60BDE8F09F0000A8
:1038100070B500240F4D04EB840005EB800000F030
:10382000F7FA641C382CF6D30B4800F0F1FA0B4879
:1038300000F0EEFA0A4800F0EBFA0A4800F0E8FA65
:10384000094800F0E5FA09480349416314318163EE
:1038500070BD0000CC0100202C0600204006002096
:1038600054060020680600207C060020440000204A
:103870004DF8044D144900E011460A688242FBD31A
:103880004B6803EB010C844503D140681844486041
:1038900008460C68D0F804C00CEB0003A3420CD11E
:1038A0000A4B1B689A4206D05268624442600A681A
:1038B0001268026002E0036000E00260814200D012
:1038C00008605DF8044B7047B000002098000020AD
:1038D00010B50024416000619142DFF838C00BD878
:1038E000D11A8269914201D3012410E0011DDCF854
:1038F000100000F09BFA0AE09A4203D2994201D3E9
:10390000012404E0011DDCF80C0000F08FFA2046D1
:1039100010BD00008000002010B5044600F0B0FA91
:10392000A06B20B1002400F0CBFA204610BD01248A
:10393000F9E710B5044600F0A3FAA06BE16B8842EA
:1039400001D1012400E0002400F0BAFA204610BDA5
:10395000F8B505460E461748C068C068C468201D03
:1039600000F02CFA94F8280010F0040F18D0A06989
:103970002B46324641192046FFF7AAFFA0B100208E
:103980002A46034601460090204601F0D1F958B975
:10399000502080F31188BFF34F8FBFF36F8FFEE786
:1039A00020F0010084F82800216A01B02046BDE81B
:1039B000F04008478000002030B587B0414D00221C
:1039C00002A9286800F0DAFE002875D002980028C5
:1039D00003DA039A0599049890470298002864DB5B
:1039E000049C606910B1201D00F0E8F901A800F006
:1039F000B3F8024602980A2857D2DFE800F005051E
:103A0000052F364D05052F3694F8280040F00100AB
:103A100084F828000398A169034601442046FFF773
:103A200057FF002841D0216A2046884794F8280093
:103A300010F0040F39D00020009003980023A169F2
:103A400042181946204601F073F970BB502080F3EC
:103A50001188BFF34F8FBFF36F8FFEE794F82800F4
:103A600020F0010084F828001FE094F8280040F0BE
:103A7000010084F828000398A06128B1811813463A
:103A80002046FFF725FF10E0502080F31188BFF398
:103A90004F8FBFF36F8FFEE794F8280010F0020FEE
:103AA0000CD020F0010084F828002868002202A928
:103AB00000F064FE002889D107B030BD204600F038
:103AC00015FAF2E780000020F8B505460C4600F034
:103AD000B9FB684600F040F80646009810B101F0C6
:103AE0008DF8F8BD44B9B54206D801F087F83146E3
:103AF0002846FFF72DFFF8BD0C481CB10169096885
:103B000091B100240068A91B224600F071FA01F06F
:103B100075F80028EFD106494FF080500860BFF3D8
:103B20004F8FBFF36F8FF8BD0124EBE780000020BB
:103B300004ED00E00749486B0068002805D0486B99
:103B4000C068C0684068886270474FF0FF30886284
:103B5000704700004400002070B5044600F066FF86
:103B60000546074EB068854204D200F00BF80120EC
:103B7000206001E000202060B560284670BD000094
:103B800080000020F8B51C4EF0680068002826D0A0
:103B90000027F068C0680568C468201D00F00EF9B1
:103BA000216A2046884794F8280010F0040F12D0AC
:103BB000A0692844A84206D960602461211DF068EC
:103BC00000F034F907E000232A4619462046009702
:103BD00001F0AEF840B1F06800680028D9D1F06873
:103BE0003169F1603061F8BD502080F31188BFF376
:103BF0004F8FBFF36F8FFEE7800000200A484068B8
:103C0000B0F1FF3F07D0502080F31188BFF34F8FF2
:103C1000BFF36F8FFEE7502080F31188BFF34F8F03
:103C2000BFF36F8FFEE70000B800002082B001A84C
:103C3000FFF738FD0199FFF747FFFFF7BDFEF6E7F5
:103C400070B5044600F01CF994F94550002D0CDDC8
:103C5000606A50B104F1240000F094FF08B100F054
:103C60006BFA681E45B2002DF2DC4FF0FF3684F887
:103C7000456000F025F900F003F994F94450002D57
:103C80000CDD206950B104F1100000F07BFF08B199
:103C900000F052FA681E45B2002DF2DC84F8446050
:103CA000BDE8704000F00CB92DE9F0410546002652
:103CB00000F0C8FA344F386808B9FFF705FD786995
:103CC000054251D19DB1083515F0070F0FD005F011
:103CD0000700C0F10800054415F0070F07D0502079
:103CE00080F31188BFF34F8FBFF36F8FFEE7002D76
:103CF0003AD07868854237D824490846046801E0FC
:103D0000214604466068A84202D220680028F7D104
:103D10003868844228D0086800F1080620680860E6
:103D20006068411B10290FD9601910F0070F07D0E8
:103D3000502080F31188BFF34F8FBFF36F8FFEE7E2
:103D400041606560FFF794FD61687868401A7860AB
:103D5000BA68904200D2B860786908436060002079
:103D60002060F868401CF86000F048FF16F0070F6C
:103D700007D0502080F31188BFF34F8FBFF36F8FB0
:103D8000FEE73046BDE8F08198000020B00000203A
:103D9000001F4FF080730360001F21F001010160DC
:103DA000001F0549016014380260001F6FF0020116
:103DB0000160203870470000FD3B0008016943683E
:103DC00082689A60836842685A604A68824201D178
:103DD00082684A60002202610868401E0860086824
:103DE00070470000034B036003F15C000860802013
:103DF00010607047A8070020044B036003F15C00CB
:103E000008604FF48070106070470000040A0020C2
:103E100000F1080141604FF0FF328260C160016132
:103E20000021016070470021016170474DF8044D89
:103E3000D1F800C0BCF1FF3F02D000F1080202E05F
:103E4000026904E01A4653681C686445FAD953684D
:103E50004B6099608A60516008610168491C01608B
:103E60005DF8044B704742684A6093688B609368C2
:103E70005960916008610168491C01607047000049
:103E8000502080F31188BFF34F8FBFF36F8F0A4923
:103E90004868401C486001280CD10848006810F0B0
:103EA000FF0F07D0502080F31188BFF34F8FBFF36F
:103EB0006F8FFEE770470000B800002004ED00E0BF
:103EC00009494868002806D0401E4860002801D1F2
:103ED00080F311887047502080F31188BFF34F8F13
:103EE000BFF36F8FFEE70000B800002070B5002818
:103EF0002AD0A0F10804154D60686969084207D10D
:103F0000502080F31188BFF34F8FBFF36F8FFEE710
:103F100022683AB1502080F31188BFF34F8FBFF36E
:103F20006F8FFEE78843606000F08CF96068696815
:103F3000084468602046FFF79BFC2869401C286104
:103F4000BDE8704000F05ABE70BD0000980000202F
:103F50004FF0E0200021016181614FF47A72044941
:103F60000968B1FBF2F1491E416107210161704707
:103F70001400002010B5FCF743FA114910280ED3A5
:103F800000F1E02090F8F0030A78904207D2502028
:103F900080F31188BFF34F8FBFF36F8FFEE709489F
:103FA0000068896800F4E060884207D9502080F3F7
:103FB0001188BFF34F8FBFF36F8FFEE710BD000076
:103FC000B80000200CED00E00022084B53F832C08E
:103FD000BCF1000F03D0521C082AF7D3704743F8F6
:103FE000321003EBC2014860704700008C010020D2
:103FF00070B504460D461646FFF742FF94F944009B
:10400000B0F1FF3F4FF0000001D184F8440094F973
:104010004510B1F1FF3F01D184F84500FFF750FF93
:10402000A06B28B904F124003246294600F0A4F818
:104030002046BDE87040FFF703BE0000024610B501
:104040000020002A12D00F48006B38B1502080F3B6
:104050001188BFF34F8FBFF36F8FFEE700F0F2F8C8
:1040600000211046FFF7F2F900F0C8FD002807D143
:1040700005494FF080500860BFF34F8FBFF36F8F3B
:1040800010BD00004400002004ED00E070B50446BF
:104090000D460023002C0BD095B1214A106BB8B10E
:1040A000502080F31188BFF34F8FBFF36F8FFEE76F
:1040B000502080F31188BFF34F8FBFF36F8FFEE75F
:1040C000502080F31188BFF34F8FBFF36F8FFEE74F
:1040D00000F0B8F8D268D4F800C00CEB05019445A4
:1040E00005D98C4508D9914206D9012304E08C45B5
:1040F00001D8914200D9012321601BB1881A002107
:10410000FFF7A4F900F07AFD002807D105494FF028
:1041100080500860BFF34F8FBFF36F8F70BD0000FA
:104120004400002004ED00E002490A6A0260C96808
:10413000416070474400002001490120C861704778
:104140004400002010B50C4600280BD0094A126824
:1041500002F11801FFF76AFE2046BDE81040012178
:10416000FFF774B9502080F31188BFF34F8FBFF36E
:104170006F8FFEE74400002070B50D4614460028FE
:104180000DD00B4909681831FFF76DFE0CB14FF0E7
:10419000FF3521462846BDE87040FFF757B950204B
:1041A00080F31188BFF34F8FBFF36F8FFEE70000DE
:1041B0004400002030B587B000250695059504AA77
:1041C00005A906A8FFF70EFE0698002305990290A0
:1041D0001A48049A0095019116A100F0E9FB184CC9
:1041E000E06208B1012000E00020012801D100F0C8
:1041F0006BFD01280AD0B0F1FF3F19D1502080F3A8
:104200001188BFF34F8FBFF36F8FFEE7502080F30D
:104210001188BFF34F8FBFF36F8F4FF0FF30A06255
:1042200001206061E56007B0BDE8304000F048B8AB
:1042300007B030BD49444C45000000001937000864
:10424000440000200248016B491C016370470000D4
:1042500044000020184B186B002802D00120D861C0
:1042600070470020D8611869144900EB800251F8AA
:1042700022203AB9C0B1401E00EB800251F8222042
:10428000002AF7D000EB800201EB82014A685268F5
:104290004A6001F1080C624501D152684A604968E0
:1042A000C968196018617047502080F31188BFF306
:1042B0004F8FBFF36F8FFEE744000020CC0100203A
:1042C00010B582B038480168384A914207D1502071
:1042D00080F31188BFF34F8FBFF36F8FFEE7006845
:1042E0003349884207D1502080F31188BFF34F8FA4
:1042F000BFF36F8FFEE72F4908780190FF20087009
:10430000087800909DF800009DF8002000F0F00073
:10431000904207D0502080F31188BFF34F8FBFF336
:104320006F8FFEE79DF80000234C00F050002070D6
:104330000720A0609DF8000010F0800F0BD0A0684F
:10434000401EA0609DF80000400000909DF8000015
:1043500010F0800FF3D1A068032807D0502080F31D
:104360001188BFF34F8FBFF36F8FFEE74FF440709C
:10437000A060019808701148016841F47001016063
:10438000016841F070410160FFF7E2FD00206060CC
:10439000FBF7FEFF0A48016841F040410160FBF76E
:1043A000E3FF02B0002010BD00ED00E071C20F413C
:1043B00070C20F4100E400E0B800002020ED00E0F2
:1043C00034EF00E010B5502080F31188BFF34F8F19
:1043D000BFF36F8F00F030FB18B104494FF08050ED
:1043E0000860002080F3118810BD000004ED00E09B
:1043F00010B500210246012000F006F804462046D0
:10440000FFF79EF9204610BDF8B505460E46174643
:10441000002D13D005FB06F05030FFF745FC044695
:1044200054B104F15002002084F846003B46314666
:1044300028460094FFF790F92046F8BD502080F3FD
:104440001188BFF34F8FBFF36F8FFEE738B5049D20
:10445000002804D05BB102B189B1C2B120E0502084
:1044600080F31188BFF34F8FBFF36F8FFEE75020AB
:1044700080F31188BFF34F8FBFF36F8FFEE750209B
:1044800080F31188BFF34F8FBFF36F8FFEE739B111
:10449000502080F31188BFF34F8FBFF36F8FFEE77B
:1044A0004FF0500CCDF800C01C46012384F8463074
:1044B0002B460094FFF750F9204638BD70B50446EE
:1044C0000D46002C25D0FFF7DBFC226CE16B206849
:1044D00001FB0200A0600020A06320686060E16B27
:1044E000226C491E206801FB0200E0604FF0FF30A3
:1044F00084F8440084F845009DB104F11000FFF7F2
:1045000087FC04F12400FFF783FCFFF7D9FC0120AE
:1045100070BD502080F31188BFF34F8FBFF36F8FB2
:10452000FEE720690028F0D004F1100000F02AFB1B
:104530000028EAD004494FF080500860BFF34F8F45
:10454000BFF36F8FE1E7000004ED00E02DE9FF47C6
:1045500082B004468A461F460025002C03D0BAF1DB
:10456000000F08D011E0502080F31188BFF34F8F67
:10457000BFF36F8FFEE7206C38B1502080F31188B5
:10458000BFF34F8FBFF36F8FFEE7022F0AD1E06BAF
:10459000012807D0502080F31188BFF34F8FBFF35D
:1045A0006F8FFEE700F034FA48B9049838B1502014
:1045B00080F31188BFF34F8FBFF36F8FFEE7DFF8F3
:1045C000F89000264FF08058FFF75AFCA06BE16B83
:1045D000884205D3022F03D0049808B335B329E0ED
:1045E0003A4651462046FFF705F8616A59B104F191
:1045F000240000F0C7FA68B1C9F80080BFF34F8FFC
:10460000BFF36F8F06E028B1C9F80080BFF34F8F6A
:10461000BFF36F8FFFF754FC06B00120BDE8F087B1
:10462000FFF74EFC06B00020BDE8F0876846FFF7B4
:104630007BFD0125FFF744FCFFF704FEFFF720FC9C
:1046400094F94400B0F1FF3F01D184F8446094F93B
:104650004500B0F1FF3F01D184F84560FFF730FC21
:1046600004A9684600F02EF940B12046FFF7E8FAA9
:1046700000F0C4FA06B00020BDE8F0872046FFF73E
:1046800058F990B1049904F11000FFF75BFD204642
:10469000FFF7D6FA00F0B2FA002895D1C9F80080E9
:1046A000BFF34F8FBFF36F8F8EE72046FFF7C8FA37
:1046B00000F0A4FA88E7000004ED00E02DE9F047DF
:1046C0000446894617461E46002C03D0B9F1000F58
:1046D00008D011E0502080F31188BFF34F8FBFF353
:1046E0006F8FFEE7206C38B1502080F31188BFF344
:1046F0004F8FBFF36F8FFEE7022E0AD1E06B0128C8
:1047000007D0502080F31188BFF34F8FBFF36F8F16
:10471000FEE7FFF72FFC5020EFF3118880F311889C
:10472000BFF34F8FBFF36F8FA06BE16B884206D34F
:10473000022E04D0002088F31188BDE8F08794F998
:104740004550A06B324649462046FEF753FFB5F16F
:10475000FF3F04D0681C84F845000120EBE7606A45
:104760000028FAD004F1240000F00CFA0028F4D05C
:10477000002FF2D001203860EFE700002DE9F74765
:1047800083B004468A460025002C03D0BAF1000FFE
:1047900008D011E0502080F31188BFF34F8FBFF392
:1047A0006F8FFEE7206C38B1502080F31188BFF383
:1047B0004F8FBFF36F8FFEE700F02AF948B90598D5
:1047C00038B1502080F31188BFF34F8FBFF36F8F44
:1047D000FEE7DFF8EC9000274FF08058FFF750FB22
:1047E000A66BC6B151462046FEF7F2FE701EA063CE
:1047F000206950B104F1100000F0C4F928B1C9F8E3
:104800000080BFF34F8FBFF36F8FFFF759FB06B0E8
:104810000120BDE8F087059808B135B109E0FFF740
:104820004FFB06B00020BDE8F0876846FFF77CFC30
:104830000125FFF745FBFFF705FDFFF721FB94F985
:104840004400B0F1FF3F01D184F8447094F9450071
:10485000B0F1FF3F01D184F84570FFF731FB05A9A6
:10486000684600F02FF868B12046FFF7E9F900F03C
:10487000C5F92046FFF750F80028AFD006B0002059
:10488000BDE8F0872046FFF747F890B1059904F19D
:104890002400FFF757FC2046FFF7D2F900F0AEF9ED
:1048A00000289BD1C9F80080BFF34F8FBFF36F8FF3
:1048B00094E72046FFF7C4F900F0A0F98EE7000066
:1048C00004ED00E070B505460C46002D15D0E4B1AE
:1048D000FFF7D6FADFF868C0DCF80C006B68C11A85
:1048E0002268B2F1FF3F18D02E68DCF820C0664580
:1048F00015D0834213D801241DE0502080F3118885
:10490000BFF34F8FBFF36F8FFEE7502080F3118806
:10491000BFF34F8FBFF36F8FFEE700240BE08A4297
:1049200006D9501A20602846FFF7FEFB002402E05B
:10493000002020600124FFF7C3FA204670BD00006C
:10494000440000202DE9F04F85B081468A4690460C
:104950009B460F9F0E9E4FEA8800FFF7A5F905467C
:1049600028000AD05C20FFF79FF904460CB12563AC
:1049700004E02846FFF7BAFA00E000249CB10020CA
:1049800084F859005B4642465146019700960294CE
:1049900003904846FEF7F1FE2046FEF787FD05B07E
:1049A0000120BDE8F08F05B04FF0FF30BDE8F08F7B
:1049B00070B586B00646DDF828C00C9C0B98002820
:1049C00016D0ECB15C2504952063022084F85900D0
:1049D000002005ADCDF800C001950294039030464B
:1049E000FEF7CBFE2046FEF761FD059806B070BDD0
:1049F000502080F31188BFF34F8FBFF36F8FFEE716
:104A0000502080F31188BFF34F8FBFF36F8FFEE705
:104A100005484169002903D0006B18B10020704798
:104A20000120704702207047440000200148C06800
:104A300070470000440000202DE9F04100262F4F70
:104A4000386B002805D0B869401CB8613046BDE815
:104A5000F081F868451CFD609DB9786B006838B13D
:104A6000502080F31188BFF34F8FBFF36F8FFEE7A5
:104A7000786BB96B7963B863386A401C3862FFF7AA
:104A800059F8B86ADFF8788085420DD3786B0068F2
:104A900038B1786BC068C4686068854212D2B86269
:104AA00002E04FF0FF30B8623868C06A00EB800067
:104AB00058F82000012800D90126F8690028C5D03F
:104AC0000126C3E7201DFFF779F9A06A18B104F1A8
:104AD0001800FFF773F9E16A3869814200D939613A
:104AE00001EB8100211D08EB8000FFF7BCF9E06AB3
:104AF0003968C96A8842C9D30126C7E74400002043
:104B0000CC01002070B504460021002833D01B4D95
:104B10002868844207D0502080F31188BFF34F8F5C
:104B2000BFF36F8FFEE7206D38B1401E2065E36C48
:104B3000E26A9A421FD040B11DE0502080F31188F4
:104B4000BFF34F8FBFF36F8FFEE7201DFFF736F9DE
:104B5000E06CE062C0F13800A061E06A2969884237
:104B600000D9286100EB8000054901EB8000211D80
:104B7000FFF779F90121084670BD000044000020CC
:104B8000CC01002070B5C068C468002C14D004F1BA
:104B90001800FFF713F9164D286BA8B1154804F15A
:104BA0001801FFF760F9E06A2968C96A88421CD9D0
:104BB00001200121E96170BD502080F31188BFF30D
:104BC0004F8FBFF36F8FFEE7201DFFF7F7F8E06A06
:104BD0002969884200D9286100EB8000064901EB71
:104BE0008000211DFFF73FF9DDE7002070BD0000C8
:104BF0004400002054060020CC0100202DE9F0479D
:104C0000002400272D4D286B002807D0FFF738F926
:104C1000286B401E2863286B40B149E0502080F388
:104C20001188BFF34F8FBFF36F8FFEE7A86800288E
:104C30003ED0234E30684FF0010800B3A6F59169CD
:104C4000F068C46804F11800FFF7B8F8201DFFF7FA
:104C5000B5F8E06A2969884200D9286100EB800034
:104C6000211D09EB8000FFF7FEF8E06A2968C96A98
:104C7000884201D3C5F81C8030680028E0D10CB10F
:104C8000FEF758FFAC694CB1FFF7D6FE08B1C5F886
:104C90001C80641E002CF7D10020A861E86938B19F
:104CA0000127084938070860BFF34F8FBFF36F8FA4
:104CB000FFF706F93846BDE8F08700004400002001
:104CC0005406002004ED00E030B587B00024FEF764
:104CD00031FC134D2868B0B100200690059004AA5D
:104CE00005A906A8FFF788F805990222069800236F
:104CF000009202900D48049A01910AA1FFF758FE14
:104D0000686000B1012414B107B0204630BD5020C6
:104D100080F31188BFF34F8FBFF36F8FFEE7000062
:104D200080000020546D7220537663002D3C0008F3
:104D3000F0B585B0844616461F460A9D0022BCF198
:104D4000000F14D0164C206800B300910196CDF8E6
:104D500008C006291BDAFFF75BFE02280FD00023EC
:104D600020681A466946FFF7F1FB024615E050201D
:104D700080F31188BFF34F8FBFF36F8FFEE720687A
:104D800000232A466946FFF7E1FB024605E00023BF
:104D90003A466946FFF792FC024605B01046F0BD60
:104DA000800000204FF04070E1EE100A70470000D4
:104DB00000000102030401020304060708090000C1
:104DC00000000258010000000000000010284058B8
:104DD0007088A0B8000000000404043C3C000008F7
:104DE00000000008000800000100010100040000AC
:104DF000C00F0120C04F01204050012000000000E2
:104E00003A535444494E003A5354444F5554003A8F
:104E10005354444552520000384E00080000002010
:104E2000DC000000D4020008144F0008DC00002061
:104E30008C5B0100F0020008000000000000000090
:104E40000100000010000000000000000090D003EE
:104E50000090D003000000000000000000000000EF
:104E60000000000000000000000000000000000042
:104E70000000000000000000000000000000000032
:104E80000000000000000000000000000000000022
:104E90000000000000000000000000000000000012
:104EA0000000000000000000000000000000000002
:104EB00000000000000000000000000000000000F2
:104EC00000000000000000000000000000000000E2
:104ED00000000000000000000000000000000000D2
:104EE00000000000000000000000000000000000C2
:104EF00000000000AAAAAAAA00000000000000000A
:104F000000000000000000000000000000000000A1
:044F1000000000009D
:040000050800029954
:00000001FF
