:020000040800F2
:10000000B8150020BD030008D51B000875170008AF
:100010007119000819130008051F000800000000EE
:10002000000000000000000000000000DB1B0008D2
:100030001D13000800000000D91B0008DD1B00088C
:10004000D7030008D7030008D7030008D703000828
:10005000D7030008D7030008D7030008D703000818
:10006000D7030008D7030008D7030008D703000808
:10007000D7030008D7030008D7030008D7030008F8
:10008000D7030008D7030008D7030008D7030008E8
:10009000D7030008D7030008D7030008D7030008D8
:1000A000D7030008D7030008D7030008D7030008C8
:1000B000D7030008D7030008D7030008D7030008B8
:1000C000D7030008D7030008D7030008D7030008A8
:1000D000D7030008D7030008D7030008D703000898
:1000E000D7030008D703000800000000D70300086A
:1000F000D7030008D7030008D7030008D703000878
:10010000D7030008D7030008D7030008D703000867
:10011000D7030008D7030008D7030008D703000857
:10012000D7030008D7030008D7030008D703000847
:10013000D7030008D7030008D7030008D703000837
:1001400000000000000000000000000000000000AF
:10015000D7030008D7030008D7030008D703000817
:10016000D7030008D7030008D7030008D703000807
:10017000D7030008D7030008D703000800000000D9
:10018000D7030008D7030008D7030008D7030008E7
:10019000D7030008D7030008D7030008D7030008D7
:1001A000D7030008D7030008D7030008D7030008C7
:1001B000D7030008D7030008D7030008D7030008B7
:1001C000D7030008D7030008D7030008D7030008A7
:1001D000D7030008D7030008D7030008D703000897
:1001E000D7030008D7030008D7030008D703000887
:1001F000D7030008D7030008D7030008D703000877
:10020000D7030008D7030008D7030008D703000866
:10021000D7030008D7030008D7030008D703000856
:10022000D7030008D7030008D70300080000000028
:10023000D7030008D703000800000000D703000818
:10024000D7030008D7030008D7030008D703000826
:10025000D7030008D7030008D7030008D703000816
:10026000D7030008D7030008D7030008D703000806
:10027000D7030008D7030008D703000800000000D8
:10028000D7030008D7030008D703000800000000C8
:1002900000000000D703000800F002F800F044F866
:1002A0000AA090E8000C82448344AAF10107DA45D1
:1002B00001D100F039F8AFF2090EBAE80F0013F0DF
:1002C000010F18BFFB1A43F001031847EC1E000092
:1002D0000C1F0000103A24BF78C878C1FAD8520722
:1002E00024BF30C830C144BF04680C6070470000B0
:1002F0000023002400250026103A28BF78C1FBD82F
:10030000520728BF30C148BF0B6070471FB501F0CE
:100310002BFF9DE8030000F057FC00F07FF91FBDA4
:1003200010B500F0E4F910BD00F014FA1146FFF723
:10033000EDFF01F0BDFE00F017FC03B4FFF7F0FF86
:1003400003BC00F0B3FD00000246D2E84F0F411C91
:10035000C2E8431F03B1F8E77047024652E8000FB6
:10036000411C42E8001303B1F8E77047024652E827
:10037000000F42E8001303B1F9E77047024652E864
:10038000000F830103D3BFF32F8F0020704700F0CD
:100390000040084342E8000303B1F0E7704702461B
:1003A00052E8000F800103D2BFF32F8F0020704767
:1003B00042E8001303B1F3E7012070470948804782
:1003C00009480047FEE7FEE7FEE7FEE7FEE7FEE737
:1003D000FEE7FEE7FEE7FEE704480549054A064B4F
:1003E00070470000091E000899020008B8010020AB
:1003F000B8150020B8110020B81100200FB404492E
:1004000010B503AA029800F0A9F810BC5DF814FB1F
:10041000AC000020032A40F2308010F0030C00F002
:10042000158011F8013BBCF1020F624498BF11F82E
:1004300001CB00F8013B38BF11F8013BA2F10402E7
:1004400098BF00F801CB38BF00F8013B11F003035F
:1004500000F09680083AC0F0088051F8043B083A52
:1004600051F804CBA0E80810F5E7121D5CBF51F865
:10047000043B40F8043BAFF30080D20724BF11F8DF
:10048000013B11F801CB48BF11F8012B24BF00F844
:10049000013B00F801CB48BF00F8012B70474FF03B
:1004A000000200B5134694469646203922BFA0E8C4
:1004B0000C50A0E80C50B1F12001BFF4F7AF0907D0
:1004C00028BFA0E80C5048BF0CC05DF804EB8900C1
:1004D00028BF40F8042B08BF704748BF20F8022B04
:1004E00011F0804F18BF00F8012B70474FF0013C0E
:1004F00050F8042B51F8043B9A4215D1A2EB0C039F
:10050000934313EACC130BD150F8042B51F8043B5E
:100510009A4209D1A2EB0C03934313EACC13E7D020
:100520004FF00000704700BFD01A01BAB1FA81F154
:1005300001F0180122FA01F0CB40C1F12001DBB239
:10054000C0B2C01A2CFA01F3D11A914311EAC311B7
:10055000E6D170477047704770470000074B70B591
:100560000D467B4400F043F80446284600F052F85C
:1005700010B14FF0FF3070BD204670BD2F1B000042
:1005800010B5203AC0F00B80B1E81850203AA0E82E
:100590001850B1E81850A0E81850BFF4F5AF5FEA62
:1005A000027C24BFB1E81850A0E8185044BF18C915
:1005B00018C0BDE810405FEA827C24BF51F8043BBC
:1005C00040F8043B08BF7047D20728BF31F8023B10
:1005D00048BF11F8012B28BF20F8023B48BF00F8A4
:1005E000012B704701694A1C02610878704700B509
:1005F0008FB0CDE901310021059105497944CDE95C
:1006000003101146684600F0F1F80FB000BD00007D
:10061000E5FFFFFF007B00F08000704710B5424807
:100620005421FFF73CFF41485421FFF738FF404871
:100630005421FFF734FF3F493B483C4A3F4B086099
:100640003D490A603A491960531C0365481C10650E
:10065000012008653B48344A39A1784400F0E8F9A4
:1006600020B9384878440A3800F087FA37482F4ACA
:1006700035A1784400F0DCF920B9344878440A38D0
:1006800000F07BFA32482A4A2FA1784400F0D0F9D2
:1006900020B92F4878440A3800F06FFA40232248E6
:1006A000DC000021224600F0A0F920B12548784462
:1006B000543800F062FA1D4822464023002100F021
:1006C00094F920B121487844543800F056FA18487B
:1006D00022461023002100F088F9002806D01C488B
:1006E0007844BDE81040563800F047BA10BD1048B5
:1006F00070B5006D20F001040B4800F00FFA0B48B4
:1007000000F00CFA0A4800F009FA09E0206D20F028
:100710000105204600F002FA204600F040F82C4681
:10072000002CF3D170BD000058000020AC00002068
:1007300000010020200000202400002028000020CC
:1007400072000000421B000077000000311B000017
:10075000211B0000754600F017FAAE4605006946F9
:10076000534620F00700854618B020B5FFF734FE49
:10077000BDE820404FF000064FF000074FF00008A2
:100780004FF0000B21F00701AC46ACE8C009ACE823
:10079000C009ACE8C009ACE8C0098D46704770B527
:1007A0000446051F00F0F4F90068002C14BF4468EB
:1007B00070BD002C18BFAC423CBF20466468F8D323
:1007C00001680A18AA4218BF456003D12A68054685
:1007D0001144016028684119A1421CBF6C6070BDC2
:1007E0006168696021680844286070BD2DE9F041A6
:1007F00006460024D6E90170F5688046304603E0DD
:100800004146B847641C3046A8470028F8D1204626
:10081000BDE8F0812DE9F04705460C46C86820F494
:10082000201040F48000C860800602D5084600F021
:10083000FCFAE06841F282014FF0FF3901400229E1
:1008400003D0204600F09AFAB5E000F42041B1F55B
:10085000004F0FD1C00306D56168E06A884200D816
:100860000846606006E02069E0626060606901F04F
:100870005EFBA061A0680022EEB200280DDAE168FC
:100880008B050AD4C043A06041F490302260E06040
:100890006068411C61600670A5E0E06890462260D7
:1008A00040F40050E060206968BB606901F051FBD2
:1008B000012704F12405A0B1A08910F4407F08D0DD
:1008C000E06900F0B0F9206118B1E06840F4006020
:1008D00016E0E7612561E06820F4407040F4806034
:1008E0000EE0E06900F09FF900282061F1D0E06897
:1008F00040F4006010F4407FE06002D140F480706A
:10090000E06020696060E06825696FF0010AC10558
:100910001FD56168E06A884200D80846411B04D0B0
:100920002246284600F034FAF0BBE068010203D505
:10093000E562C4E9015854E0691CE1626160E16963
:1009400040F48030491EC4E9021030462E70BDE8E4
:10095000F087010202D500F480320AE06068411C91
:1009600061600670E0680A2E40F48030E06006D0D6
:100970000022E16A6068814203D90B4602E001224D
:10098000F7E70346A7895B1B7F0503D4E7699F420E
:1009900000DDE2B1814200D80146E5620F1AC4E9E8
:1009A0000158002B09DD00E005E0224619462846E3
:1009B00000F0EEF908B14846C9E747B1A069E56221
:1009C0006560C01BA061E06840F01000E060E06876
:1009D000000208D56168A069E562491B08446560AA
:1009E000A0615046B3E73046B1E770B5C468A507CB
:1009F00013D0650211D4B2F5807F09D0B2F5007F23
:100A000006D0B2F5806F08D1012300F1240106E081
:100A10005D1E6FF07F46B54201D3012070BD0161BC
:100A2000C361416024F470611143C160002070BD56
:100A30002DE9F0410C4607461646104600F06EF8C8
:100A40002078611C61280AD0722802D077283CD116
:100A500002E00125002405E00225042402E0082428
:100A600048F2020511F8010B2B2806D0622809D0A4
:100A700011F8010C74280AD00BE045F0030544F08E
:100A80000204EFE745F0040544F00104EAE744F00E
:100A900010043846214601F06FFA411C15D00021A0
:100AA000316171604FF40071F560F1617061200790
:100AB00004D530460222002100F0E4F8306D40F009
:100AC000010030653046BDE8F0810020FBE72DE9EC
:100AD000F0410D460646104C206DC10704D0410878
:100AE00004D020F00104F7E722460EE0542000F085
:100AF0009AF807000ED0206D47F0010108435421F9
:100B000020653846FFF7CBFC3A4629463046BDE81B
:100B1000F0418DE70020D6E7580000202DE9F0478E
:100B200004464FF000094FF0FF37C568D4E904864A
:100B3000A80707D0204600F055F9304601F0E4F947
:100B4000002802DA3846BDE8F087280502D540467D
:100B5000FFF725FE4C212046FFF7A1FC206D20F079
:100B6000010020654846EEE710B50446AFF300806B
:100B70002046BDE81040FFF7E0BB10B500F07CF95F
:100B8000BDE8104000F072B90048704754010020E1
:100B9000004870475C0100207047704770477047FD
:100BA00038B504460A4600206946AFF300800028A5
:100BB00008BF38BD02460099204600F084F90120A4
:100BC00038BD012000F0D3B9F8B5AFF30080054679
:100BD00000200C46102000BF0646A819A0420DD9DF
:100BE000324669460020AFF30080070008BF00F0DE
:100BF000BEF90098A04218BF0546C419FFF7C8FF08
:100C000005600746F01D20F007004619284600F051
:100C100053F9B44208BFF8BDA21B31463868BDE89D
:100C2000F84000F050B970B50646FFF7B1FF05680F
:100C300006F10B0020F00704B4429CBF002070BDF9
:100C40002B466A68BAB11068A04210D304F10801BB
:100C500088423CBF5068586007D351681019416002
:100C60001168091B016058601460101D70BD1346A7
:100C70005268002AE7D121462846FFF791FF002855
:100C8000DED170BD2DE9F041044616460D46476998
:100C9000007B80072ED0384601F05BF950BB3EB395
:100CA000012E02D0022E25D104E0204600F025F9C5
:100CB00005441DE0384601F03AF9E168002841F0AA
:100CC0001001E16005DA204600F058F80120BDE887
:100CD000F081C9030BD56268E16A914200D81146E0
:100CE000A26911442269891A814200DD084605443F
:100CF000002D01DA0220EAE7E16A6068E2688142D9
:100D000006D29103E06203D522F4003141F01002D3
:100D1000A6690027AE4213DCE16A814201D90B4685
:100D200000E0034603EB060C2369ACEB030CAC4577
:100D300006DD814201D98C4600E084469C4505D100
:100D4000A760276042F02000A5620DE0AD1BE669B8
:100D5000AE1B8142A66000D90846C01A281A20603E
:100D60005819606022F0200003490840E06000202C
:100D700084F84870ABE70000BFCFD7FFC16821F40B
:100D8000001141F08001C160002181600160704765
:100D90002DE9F047814614460E464FF0FF383248A1
:100DA000D5685769054209D03846A16901F018F99C
:100DB000002811DB2C48C0430540E5602B46324635
:100DC0004946384601F022F9A16920F00042B21AE2
:100DD00011440028A16103D02046FFF7CFFF404611
:100DE000BDE8F08770B504460569C06A616888424D
:100DF00000D80846E16821F42011E160C90312D54A
:100E0000A84208D02246411B2846FFF7C1FF10B177
:100E10004FF0FF3070BD0020E562C4E90150E0688A
:100E200020F48030E060002070BD10B50446C0683A
:100E300020F02000E060A16AA06988420DD0204621
:100E4000FFF7D0FFE06820F4405040F01000E06071
:100E5000A06AA0612069E062606044F24001E0683D
:100E60008843E06010BD000010000200002801D09F
:100E700000F01CB87047000010B5014602A000F059
:100E80005DF8012010BD00005349475254524544BB
:100E90003A2052656469726563743A2063616E2713
:100EA00074206F70656E3A20000000000149182020
:100EB000ABBEFEE72600020000210160C0E9011080
:100EC000704710207047034640688C46002818BFC2
:100ED00088423CBF03464068F8D3186818448842EB
:100EE00007D00CF1030020F00700001D411A521A30
:100EF0000146081D0A60FFF752BC10B50146C268E2
:100F0000900703D0900607D5886A0AE000F03EF803
:100F100001210160881E10BD8B69486818440B6967
:100F2000C01A91F848301BB191F84910401A10BD11
:100F30001103FCD50028FADD401E10BD70B5054632
:100F40000C460A2000E06D1C00F018F835B1287836
:100F50000028F8D102E0641C00F010F814B12078E9
:100F60000028F8D1BDE870400A2000F007B810B59D
:100F700000F010F8BDE81040FFF778BF08B56946EB
:100F80008DF800000320ABBE08BD704700487047D5
:100F90005401002010B5012805D0002103A0FFF75F
:100FA000CDFF012010BD09A1F8E7000053494752C9
:100FB000544D454D3A204F7574206F662068656129
:100FC00070206D656D6F7279000000003A204865F1
:100FD0006170206D656D6F727920636F72727570CC
:100FE00074656400004870477C21000810B586B025
:100FF00018216846FFF753FA012000F0BDFB0020DE
:101000000190012004900220029000240CE004EBE7
:101010004400074901EB8000406800900868694679
:1010200000F0B8FB601CC4B2012CF0DB06B010BDB0
:101030007C21000800B587B0182101A8FFF72FFA1E
:10104000042000F099FB4FF400500849886100BF6C
:10105000019001200290002003900490059001A9C6
:10106000024800F097FB07B000BD000000080258DE
:1010700010B5802000F080FB012000F07DFB10BD4A
:101080002DE9F84300F036FC00BF7C48006800F40E
:10109000003000B139E000BF00BF00BFBFF34F8F89
:1010A00000BF00BF00BF00BF00BF00BFBFF36F8F16
:1010B00000BF00BF00BF00207149086000BF00BF33
:1010C00000BFBFF34F8F00BF00BF00BF00BF00BF16
:1010D00000BFBFF36F8F00BF00BF00BF674800684D
:1010E00040F400306549086000BF00BF00BFBFF397
:1010F0004F8F00BF00BF00BF00BF00BF00BFBFF3E6
:101100006F8F00BF00BF00BF00BF00BF5B4B1B68FD
:1011100003F4803303B148E00023584C703423605B
:1011200000BF00BF00BFBFF34F8F00BF00BF00BFB5
:10113000231F1868C0F34E3100BFC0F3C90200BFBF
:1011400043F6E07303EA41134FF0404404EA82742B
:1011500023434B4C1034236000BF00BF131EA2F189
:101160000102EDD10B1EA1F10101E6D100BF00BFCC
:1011700000BFBFF34F8F00BF00BF00BF3F4B1B68D6
:1011800043F480333D4C236000BF00BF00BFBFF37A
:101190004F8F00BF00BF00BF00BF00BF00BFBFF345
:1011A0006F8F00BF00BF00BF00BF02203549096834
:1011B0000143344A1160114609680140009100BFA3
:1011C00000BF032002462D4B083B19684FF6FF0372
:1011D00019402D4B0B4343EA0221284B083B196071
:1011E00000BF011F1B68C3F302200F240025034624
:1011F000C3F1070CBCF1040F02D94FF0040C01E05D
:10120000C3F1070C674603F1040CBCF1070F02D2CF
:101210004FF0000C01E0A3F1030C66464FF0010C07
:101220000CFA07FCACF1010C0CEA040C0CFA06FCFD
:101230004FF0010808FA06F8A8F1010808EA0508C5
:101240004CEA080200BF002904DB1007030E0F4818
:10125000435407E01007040E0848001D01F00F0377
:101260001B1FC45400BF00F0BDFC00F025F8FFF7C1
:10127000FFFEFFF7DFFEBDE8F883000014ED00E09D
:1012800050EF00E0F44402580000FA0500E400E0EA
:101290007047000010B507480078401CC0B20549EF
:1012A00008700A2805DB00200870FFF7F1FF00F046
:1012B000A7FB10BD0800002030B5144800684FF4AB
:1012C0007A72B0FBF2F1481EB0F1807F00D31BE0D0
:1012D000481E4FF0E022506150170F22002804DB17
:1012E00013071C0E0A4B1C5406E013071D0E094B76
:1012F00000F00F04241F1D5500BF00204FF0E02216
:1013000090610720106100BF30BD00000000002088
:1013100000E400E018ED00E000BFFEE770470000C9
:101320000146074A12780AB9002008E0054AC1F3CD
:10133000C623D25CC1F30223DA4002F001007047F9
:10134000808001200080012070B500BF0C488669B4
:1013500000F0EAF9054600BF294609481830FFF7B2
:1013600005F8044600BFB442F0D1A54206D200BF42
:1013700003481030FEF7F1FF00BF00BF284670BDE4
:10138000808001202DE9FC47044688461546B8F1C7
:10139000000F02D0B5F5807F02D90020BDE8FC87A0
:1013A0002046FFF7BDFF08B90120F7E7FFF7CCFFA4
:1013B0008246A4B200BFEFF3058010B14FF40020C5
:1013C00000E000200443464645B900231A46514632
:1013D000204600F063F807463846DFE7082D16D8A8
:1013E0000020009001902A4631466846FFF712F827
:1013F0004FF4E02000EA0540044344F040705146B9
:10140000DDE9002300F04AF807463846C6E700F059
:10141000A9F94FF4E02101EA0049306800907068B2
:1014200001900836083D44EA090444F080705146B2
:10143000DDE9002300F032F807460FB90020ADE7E0
:101440004FF6017049EA000410E0306800907068BF
:1014500001900836083D51462046DDE9002300F0A2
:101460001DF80746641C0FB9002097E7082DECD83B
:101470000020009001902A4631466846FEF7CAFFD8
:1014800024F47F4444EA052444F000705146DDE929
:10149000002300F003F8074638467FE72DE9FF4FA9
:1014A00081B0884691469A464FF0070B51E000BF45
:1014B0002E48FEF752FF0646C6F30A002C4901EB00
:1014C0000014F00A4FF4700101EA00510091DDE9C7
:1014D000001008434FF0805101EAD80108434FF053
:1014E000005101EA990108434FF0804101EA5A0195
:1014F000084340F04065294604F10C00FEF73EFF2A
:10150000054605F0806010B385F0806585F00045E4
:1015100005F0004728F000403843206029F00040E3
:10152000384360602AF000403843A060294604F147
:101530000C00FEF734FF48B100BF0C48001DFEF759
:101540000CFF00BF012005B0BDE8F08F04E0ABF157
:10155000010BBBF1000FAAD100BF00BF0348083048
:10156000FEF7FBFE00BF0020EDE7000084800120B5
:1015700000000120F0B506460C461546FF2C01D2AE
:10158000FF2D01D30020F0BD002200231AE001202E
:1015900098403040A0B1214610E002EBD1000B4F43
:1015A000385C01F0070C012707FA0CF7384302EB0F
:1015B000D107DFF818C00CF80700491CA942ECD984
:1015C00020325B1C042BE2D30120DCE700800120E9
:1015D0002DE9F05F8246894600204149087080214C
:1015E0004048FEF75CFF18213F4800F032FD80467E
:1015F0003B48006A3D49884208D00846384908629D
:101600000846A0F802800120C8610FE034484088F5
:10161000404506D03248A0F8028001203049C86118
:1016200004E02F48C069401C2D49C8612C48C0699E
:1016300001280BD100202A49487048608860C860A2
:101640004FF400412A48FEF72AFF10E000270BE084
:10165000274800EB0715E86800F0806018B1E868DB
:1016600020F04060E8607F1CB7F5006FF0D31C48A5
:10167000C06901280FD100F063F804461CB100F0E6
:1016800059F8064600E00026154846610020144936
:101690008861086102E000F053F80446ECB1FE22D4
:1016A00000215046FFF766FFEF2211460F20FFF79B
:1016B00061FFFE2211460420FFF75CFFFFF744FEA6
:1016C0008346074800235946C2690A48FFF7E6FEE9
:1016D000B9F1000F01D000F00FF82046BDE8F09FEF
:1016E0008080012000800120882100086B27A5E16F
:1016F0000000012000FF000310B50948007808B180
:10170000012010BD012006490870FFF71DFE0446A8
:1017100000231A4621460348FFF7C0FE0120F0E7E8
:101720008080012001FF00030148406870470000ED
:10173000001000E001480068704700000000002031
:101740000648006840F0807004490860044800685A
:1017500040F001000249086001207047FCED00E004
:10176000001000E010B50248FEF7EEFD10BD0000CD
:101770008180012000BFFEE708B5054909680143E3
:10178000034A1160114609680140009100BF08BD7D
:10179000E0440258F0B502460B46186890FAA0F0F3
:1017A000B0FA80F46DE00125A540186800EA050153
:1017B000002965D05868012802D05868022816D13F
:1017C0009868956801FB01F606EB4606B54301FBF8
:1017D00001F646433543956000BFDD6818685668DA
:1017E000864300FB05F73E43566000BF00BF186903
:1017F000D56801FB01F606EB4606B54301FB01F691
:1018000046433543D56000BF586802282AD1FF29D6
:1018100012D85869166A01FB01F54D434D43C5EBDB
:10182000051526EA050501FB01F64E434E434643E6
:101830003543156200BF15E058690D0A6D430E0A65
:1018400075430E0A7543C5EB0516556AB5430E0A76
:1018500076430F0A7E430F0A7E4346433543556263
:1018600000BF00BF5868156801FB01F606EB46068D
:10187000B54301FB01F646433543156000BF00BF89
:10188000641C1868E04000288DD1F0BD4FF47A71D7
:10189000B0FBF1F2521E4FF0E0235A6100229A6130
:1018A00005221A6100BF70470349096821F00F0142
:1018B0000143014A11607047184402580149086009
:1018C000704700000000002008B5014608464FF0B0
:1018D000E0221269009200BF421C02B1401C06E0E7
:1018E0004FF0E022126902F4803202B1401E00285B
:1018F000F6D108BD30B500BF00BF00BF00BF00BFBC
:10190000BFF35F8F00BF00BF00BF00201649086013
:1019100000BF01464FF01052144B134C241D2060A1
:1019200022F01F04104D08352C6043F0010444EAF6
:1019300001242D1D2C6000BF042040F001010A4A43
:10194000116000BF00BF00BF00BFBFF34F8F00BFDB
:1019500000BF00BF00BF00BF00BFBFF36F8F00BF5D
:1019600000BF00BF00BF30BD94ED00E024000B03BA
:1019700000BFFEE710B501210F20FFF729FEFFF79A
:10198000BBFE00F031F810BD0021144A9172D172F3
:1019900000201DE0642100EB8002114B03EB4202AA
:1019A0009180022100EB800203F81210002100EB6D
:1019B000800203EB4202917100EB800203EB4202D2
:1019C000D17100EB800203EB42021172411CC8B2DC
:1019D000044909788842DDDB704700004A00002096
:1019E0002C0000201000002010B5FFF7CDFFFFF7FE
:1019F000FDFAFFF7F7FA0149086010BD0C0000205E
:101A000010B500F0D7F810BD70B5054605EB8500A0
:101A1000304901EB4004284600F09CF800283ED0F5
:101A20002078052802DA0520207052E020780A2864
:101A300003DA2078401C20704BE0A07938B90120EF
:101A4000A07105EB4501491CC8B200F0A3F8A088BD
:101A500000283EDD6088A18888420DDA6088401C3D
:101A600080B26080A188884233D105EB4501C91C52
:101A7000C8B200F08FF82CE0E079002829DD207A48
:101A8000401CC0B22072E179884222DB0020207223
:101A900005EB4501491CC8B200F07CF819E020783C
:101AA000052802DD0520207010E0207818B120788C
:101AB000401E20700AE0A079012807D10020A07103
:101AC00005EB4501891CC8B200F064F80020608075
:101AD000207270BD2C0000200B48807A0A4AD27A0E
:101AE000904201D1002070470748807A064A115C75
:101AF0001046807A401CC0B290720A2801DB002098
:101B000090720846EFE700004A00002010B5014639
:101B100001EB41000E4B1B6853F82000006901EBFC
:101B200041030B4C246804EB83035B68184008B93D
:101B3000002200E0012201EB4100054B1B6803EB92
:101B40008000007A904201D1012010BD0020FCE706
:101B50000C0000202DE9F0410546012D17DA002682
:101B6000FF27002408E02046FFF7D0FF10B1701CCB
:101B7000C6B22746601CC4B2012CF4DB012E04D18E
:101B8000AF4202D10120BDE8F0810020FBE7002038
:101B9000F9E700000649C97A054A50541146C97A46
:101BA000491CC9B2D1720A2901DB0021D1727047E8
:101BB0004A00002010B5002404E02046FFF724FF6F
:101BC000601CC4B2024800788442F6DB10BD0000FD
:101BD0001000002000BFFEE77047704710B5FFF708
:101BE00059FB10BD10B504208349096821F00F018D
:101BF0000143814A116000BF00BF00BF7E480068FA
:101C000000F00F000428F8D102207C49096821F077
:101C100007010143794A116000BF4FF44040774902
:101C20000C31096821F440410143744A0C321160BF
:101C300000BF00BF00BF71480C300068C0F34030E7
:101C40000028F7D000BF6E48006840F480306C492F
:101C5000086000BF00BF00BF69480068C0F3404093
:101C60000028F8D0022066492831096821F00301D4
:101C70000143634A2832116000BF00BF101D006895
:101C800040F48030111D086000BF00BF08460068A6
:101C900040F48020086000BF0220096821F00C0198
:101CA00041EA8001121D116000BF00201146096841
:101CB00021F0020141EA4001116000BF0520111F1F
:101CC000096821F47C7141EA0011121F116000BF04
:101CD000C0204B49303109686FF30801421E11439F
:101CE000474A3032116000BF02201146096821F4D2
:101CF0007E42411E42EA4121414A3032116000BF1A
:101D000000BF1146096821F4FE02411E42EA01416A
:101D10003B4A3032116000BF00BF1146096821F014
:101D2000FE42411E42EA0161354A3032116000BF75
:101D300000BF3348006840F080703149086000BF40
:101D400000BF00BF2E480068C0F340600028F8D0F4
:101D50000820FFF7A9FD032029491031096821F067
:101D600007010143264A1032116000BF00BF00BFC7
:101D700023481030006800F038001828F7D1002000
:101D80001F491831096821F4706101431C4A183257
:101D9000116000BF0820FFF787FD402018491C3163
:101DA000096821F070010143154A1C32116000BF1F
:101DB00000011146096821F4E0610143116000BF90
:101DC0004020111F096821F070010143121F1160AA
:101DD00000BF00BF0A492031096821F070010143AA
:101DE000074A2032116000BF0648FFF74FFD054843
:101DF000FFF764FD10BD0000002000520C4802589F
:101E00000044025800389C1C3448006840F47000BC
:101E1000324908603248006800F00F00072806D2F7
:101E20002F48006820F00F00C01D2D4908602D4884
:101E3000006840F001002B4908600020294910315A
:101E40000860284800682849084026490860244856
:101E5000006800F00F00072806D92148006820F02C
:101E60000F00C01D1E49086000201E49183108607F
:101E7000091D0860091D08601C481A4928310860BE
:101E80001B48091D08601B48091D08600020091D2A
:101E900008601848091D08600020091D08601548E1
:101EA000091D08600020091D08600E48006820F424
:101EB00080200C49086000200A49603108600E4803
:101EC00000686FF30F00B0F1005F02D201200B49F0
:101ED000086043F2D2000A490860704788ED00E0CC
:101EE00000200052004402587FEDF6EA0002020290
:101EF0000000FF01800201010010005C0881005118
:101F00000040005200BFFEE701466FF40040084465
:101F100020B1012804D0022806D103E00020704738
:101F20000020FCE70020FAE74FF0FF30F7E701461A
:101F30006FF40040084420B1012804D0022806D1E3
:101F400003E0002070470020FCE70020FAE70020B3
:101F5000F8E701466FF40040084420B1012804D09E
:101F6000022806D103E0012070470120FCE7012090
:101F7000FAE70020F8E7000070B504460D4614B9F2
:101F80004FF0FF3070BD20783A281AD10EA12046BC
:101F9000FEF7ACFA10B948F20100F3E70CA12046B5
:101FA000FEF7A4FA10B948F20200EBE70AA12046B6
:101FB000FEF79CFA10B948F20300E3E74FF0FF3058
:101FC000E0E74FF0FF30DDE73A535444494E00005C
:101FD0003A5354444F5554003A53544445525200D6
:101FE00002466FF40040104420B1012805D00228B9
:101FF00009D105E04FF0FF3070474FF0FF30FBE7AD
:102000004FF0FF30F8E74FF0FF30F5E72DE9F041F2
:1020100006460C46154698466FF40040304420B101
:10202000012806D0022811D10EE04FF0FF30BDE8A4
:10203000F08105E014F8017B384600F06DF86D1E64
:10204000002DF7D10020F2E70020F0E74FF0FF303D
:10205000EDE730B502464FF6FF7018E012F8015B6D
:1020600080EA052008230FE000F400443CB14FF65D
:10207000FF7404EA400041F22104604003E04FF69F
:10208000FF7404EA40005B1E002BEDD1491E0029BD
:10209000E4D130BD8A68002A01DCFEF7BBBB521ECA
:1020A0008A604A68C0B2531C4B60107070470000D1
:1020B000FEF7E6FFFFF75EFC1CE0FFF70DFD0446B0
:1020C000A4B1012C04D0022C06D0032C0CD107E0C3
:1020D00009A0FEF793F908E00AA0FEF78FF904E0E3
:1020E0000AA0FEF78BF900E000BF00BF0A20FFF74F
:1020F000EBFB00BFE1E700004B315F446F776D0DF4
:102100000A0000004B315F55700D0A004B315F4CE7
:102110006F6E670D0A00000010B504460F48006896
:10212000082802D34FF0FF3010BD0C480268006849
:10213000401C0A4B18600A48845418460068082856
:1021400001D00A2C08D10548054902680548FFF767
:1021500019F90020014908602046E5E71400002035
:102160001800002000FE02004FF04070E1EE100A5F
:1021700070470000102840587088A0B8000002582E
:102180000100000000000000010001010008000043
:10219000000001200080012080800120000000005C
:1021A0003A535444494E003A5354444F5554003A1C
:1021B0005354444552520000D8210008000000202A
:1021C0002C000000D4020008042200082C0000208B
:1021D0008C150000F00200080090D0030090D0039E
:1021E00000000000000000000300000000000000EC
:1021F00000000000000000000000000000000000DF
:0422000000000000DA
:040000050800029954
:00000001FF
