:020000040800F2
:10000000600600241D0300086F050008270400088F
:100010006D050008230400085506000800000000D4
:100020000000000000000000000000007305000850
:10003000250400080000000071050008750500088F
:1000400037030008370300083703000837030008A8
:100050003703000837030008370300083703000898
:100060003703000837030008370300083703000888
:100070003703000837030008370300083703000878
:100080003703000837030008370300083703000868
:100090003703000837030008370300083703000858
:1000A0003703000837030008370300083703000848
:1000B0003703000837030008370300083703000838
:1000C0003703000837030008370300083703000828
:1000D0003703000837030008370300083703000818
:1000E000370300083703000800000000370300084A
:1000F00037030008370300083703000837030008F8
:1001000037030008370300083703000837030008E7
:1001100037030008370300083703000837030008D7
:1001200037030008370300083703000837030008C7
:1001300037030008370300083703000837030008B7
:1001400000000000000000000000000000000000AF
:100150003703000837030008370300083703000897
:100160003703000837030008370300083703000887
:1001700037030008370300083703000800000000B9
:100180003703000837030008370300083703000867
:100190003703000837030008370300083703000857
:1001A0003703000837030008370300083703000847
:1001B0003703000837030008370300083703000837
:1001C0003703000837030008370300083703000827
:1001D0003703000837030008370300083703000817
:1001E0003703000837030008370300083703000807
:1001F00037030008370300083703000837030008F7
:1002000037030008370300083703000837030008E6
:1002100037030008370300083703000837030008D6
:100220003703000837030008370300080000000008
:1002300037030008370300080000000037030008F8
:1002400037030008370300083703000837030008A6
:100250003703000837030008370300083703000896
:100260003703000837030008370300083703000886
:1002700037030008370300083703000800000000B8
:1002800037030008370300083703000800000000A8
:10029000000000003703000800F002F800F02EF81C
:1002A0000AA090E8000C82448344AAF10107DA45D1
:1002B00001D100F023F8AFF2090EBAE80F0013F0F5
:1002C000010F18BFFB1A43F0010318478C0400000C
:1002D0009C0400000023002400250026103A28BFBB
:1002E00078C1FBD8520728BF30C148BF0B607047A8
:1002F0001FB500F02BFA1FBD10B510BD00F058F867
:100300001146FFF7F5FF00F0A7F900F076F803B407
:10031000FFF7F2FF03BC00F07DF8000009488047BA
:1003200009480047FEE7FEE7FEE7FEE7FEE7FEE7D7
:10033000FEE7FEE7FEE7FEE704480549054A064BEF
:100340007047000079050008990200086000002449
:100350006006002460020024600200244FF00002C6
:1003600000B5134694469646203922BFA0E80C50AB
:10037000A0E80C50B1F12001BFF4F7AF090728BF86
:10038000A0E80C5048BF0CC05DF804EB890028BF02
:1003900040F8042B08BF704748BF20F8022B11F02B
:1003A000804F18BF00F8012B7047704770477047A7
:1003B000754600F02BF8AE4605006946534620F01E
:1003C0000700854618B020B5FFF7B6FFBDE820400E
:1003D0004FF000064FF000074FF000084FF0000B01
:1003E00021F00701AC46ACE8C009ACE8C009ACE8B4
:1003F000C009ACE8C0098D46704710B50446AFF39C
:1004000000802046BDE81040FFF781BF00487047DC
:100410000000002401491820ABBEFEE726000200C0
:100420007047FEE77047FEE7044908B50A680243D3
:100430000A6009680140009108BD0000E0440258CC
:10044000F0B50A6892FAA2F2B2FA82F44CE0012501
:10045000A54013EA050246D04B68012B01D0022BC0
:1004600010D1856802FB02F38E685E4303EB430301
:100470009D43354385604568CE680B689D435E4368
:1004800035434560C56802FB02F30E6903FB06F7BE
:1004900003EB4306B5433D43C5604D68022D1CD1B7
:1004A000FF2A0BD803FB02F5076A55434A696A43E2
:1004B000C5EB0515AF43174307620EE0476A120A02
:1004C000D1F814C002FB02F55543554305FB0CF26D
:1004D000C5EB0515AF431743476205684A68B54346
:1004E00053431D430560641C0A681346E240AED1C5
:1004F0000020F0BD70B5BFF35F8F09480022026095
:10050000031D084D1C1D261D4FF010511A6021605F
:10051000356005210160BFF34F8FBFF36F8F70BD52
:1005200094ED00E025000B0300B587B01821684664
:10053000FFF714FF0420FFF777FF8020FFF774FF19
:100540000120FFF771FF08484FF40052826100213B
:1005500001230092CDE90131039104916946FFF72F
:100560006FFF07B000BD000000080258FEE7FEE77D
:1005700070477047704770472C48F0B52C4A0168A7
:1005800041F470010160106800F00F00072804D2E8
:10059000106820F00F00C01D106026490020254C77
:1005A00010340B68244D43F001030B6020600B688E
:1005B0002B400B60136803F00F03072B04D913685B
:1005C00023F00F03DB1D13601A4C1C4A18341C4B1C
:1005D000261D371D2060174C1A4D28343060261D0B
:1005E0003860371D23603B1D35601C1D3A60251D9A
:1005F0002E1D1860331D22602860326018600A6862
:100600000C4B114C22F4802260330A601860206881
:100610006FF30F00B0F1005F03D20C490120C1F865
:10062000080143F2D2000A490860F0BD88ED00E0FD
:1006300000200052004402587FEDF6EA80020101DA
:10064000000202020000FF010010005C0080005167
:1006500000400052FEE7000008B5FFF74BFF3649A7
:1006600000200A68920311D4BFF34F8FBFF36F8F3E
:10067000324A1060BFF34F8FBFF36F8F0A6842F4A6
:1006800000320A60BFF34F8FBFF36F8F0A68D20347
:1006900023D4294A70321060BFF34F8F101F43F6E6
:1006A000FF740068254B1033C0F34E32C0F3C90508
:1006B00004EA4216284600BF46EA80771F60401EC3
:1006C000FAD2521EF4D2BFF34F8F086840F4803044
:1006D0000860BFF34F8FBFF36F8F1948016841F077
:1006E0000201016000684FF6FF03164A00F00200A5
:1006F0000090114808380168194041F440711143D5
:1007000001600068C0F30220C0F10702042A00D98A
:100710000422011D072901D2002000E0C01E012192
:100720009140094A491E8140080182F8140DFFF7E3
:1007300022FFFFF7F9FEFEE714ED00E050EF00E0C6
:10074000F44402580000FA050FE000E04FF040705A
:10075000E1EE100A7047000068070008000000245E
:0807600060060000D40200084D
:040000050800029954
:00000001FF
