:020000040800F2
:10000000F8070024390300088F0000242D00002485
:100010008D00002429000024970000240000000027
:100020000000000000000000000000009300002419
:100030002B00002400000000910000249500002403
:100040005303000853030008530300085303000838
:100050005303000853030008530300085303000828
:100060005303000853030008530300085303000818
:100070005303000853030008530300085303000808
:1000800053030008530300085303000853030008F8
:1000900053030008530300085303000853030008E8
:1000A00053030008530300085303000853030008D8
:1000B00053030008530300085303000853030008C8
:1000C00053030008530300085303000853030008B8
:1000D00053030008530300085303000853030008A8
:1000E00053030008530300080000000053030008F6
:1000F0005303000853030008530300085303000888
:100100005303000853030008530300085303000877
:100110005303000853030008530300085303000867
:100120005303000853030008530300085303000857
:100130005303000853030008530300085303000847
:1001400000000000000000000000000000000000AF
:100150005303000853030008530300085303000827
:100160005303000853030008530300085303000817
:100170005303000853030008530300080000000065
:1001800053030008530300085303000853030008F7
:1001900053030008530300085303000853030008E7
:1001A00053030008530300085303000853030008D7
:1001B00053030008530300085303000853030008C7
:1001C00053030008530300085303000853030008B7
:1001D00053030008530300085303000853030008A7
:1001E0005303000853030008530300085303000897
:1001F0005303000853030008530300085303000887
:100200005303000853030008530300085303000876
:100210005303000853030008530300085303000866
:1002200053030008530300085303000800000000B4
:1002300053030008530300080000000053030008A4
:100240005303000853030008530300085303000836
:100250005303000853030008530300085303000826
:100260005303000853030008530300085303000816
:100270005303000853030008530300080000000064
:100280005303000853030008530300080000000054
:10029000000000005303000800F002F800F03CF8F2
:1002A0000AA090E8000C82448344AAF10107DA45D1
:1002B00001D100F031F8AFF2090EBAE80F0013F0E7
:1002C000010F18BFFB1A43F001031847EC040000AC
:1002D0001C050000103A24BF78C878C1FAD852072C
:1002E00024BF30C830C144BF04680C6070470000B0
:1002F0000023002400250026103A28BF78C1FBD82F
:10030000520728BF30C148BF0B6070471FB500F0CF
:100310004DFA1FBD10B510BD00F058F81146FFF79B
:10032000F5FF00F08CF800F076F803B4FFF7F2FF69
:1003300003BC00F07DF800000948804709480047E9
:10034000FEE7FEE7FEE7FEE7FEE7FEE7FEE7FEE785
:10035000FEE7FEE704480549054A064B70470000E2
:10036000D106000899020008F8010024F8070024CB
:10037000F8030024F80300244FF0000200B51346F0
:1003800094469646203922BFA0E80C50A0E80C50B5
:10039000B1F12001BFF4F7AF090728BFA0E80C5066
:1003A00048BF0CC05DF804EB890028BF40F8042B5F
:1003B00008BF704748BF20F8022B11F0804F18BFCC
:1003C00000F8012B7047704770477047754600F082
:1003D0002BF8AE4605006946534620F007008546D7
:1003E00018B020B5FFF7B6FFBDE820404FF000067B
:1003F0004FF000074FF000084FF0000B21F007010D
:10040000AC46ACE8C009ACE8C009ACE8C009ACE84F
:10041000C0098D46704710B50446AFF300802046F2
:10042000BDE81040FFF781BF0048704794010024E9
:1004300001491820ABBEFEE726000200704740F2DB
:10044000990CC2F2004C6047F0B50A6892FAA2F229
:10045000B2FA82F44CE00125A54013EA050246D029
:100460004B68012B01D0022B10D1856802FB02F3EF
:100470008E685E4303EB43039D43354385604568C7
:10048000CE680B689D435E4335434560C56802FBFB
:1004900002F30E6903FB06F703EB4306B5433D4346
:1004A000C5604D68022D1CD1FF2A0BD803FB02F555
:1004B000076A55434A696A43C5EB0515AF431743BD
:1004C00007620EE0476A120AD1F814C002FB02F577
:1004D0005543554305FB0CF2C5EB0515AF431743D8
:1004E000476205684A68B54353431D430560641C71
:1004F0000A681346E240AED10020F0BD4FF47A7294
:100500004FF0E021B0FBF2F000230522401E4861CD
:100510008B610A617047000003490A6822F00F02EC
:1005200002430A60704700001844025801490860FD
:10053000704700008C01002470B5BFF35F8F09483D
:1005400000220260031D084D1C1D261D4FF0105196
:100550001A602160356005210160BFF34F8FBFF342
:100560006F8F70BD94ED00E025000B03544810B56B
:10057000016821F00F0141F004010160016801F000
:100580000F010429FAD14F48016821F0070141F019
:10059000020101604B480C30016841F440410160A8
:1005A0000168C1F340310029FAD04748016841F49D
:1005B000803101600168C1F340410029FAD0424A0C
:1005C0002832116821F0030141F002011160111D70
:1005D0000B6843F480330B600B6843F480230B609B
:1005E0000B6823F00C0343F008030B600B6823F047
:1005F00002030B60116821F47C7141F0500111601D
:10060000314930310A686FF3080242F0BF020A60D4
:100610000A6822F47E4242F400720A600A6822F4F8
:10062000FE0242F480320A600A6822F0FE4242F082
:1006300080720A60016841F0807101600168C1F355
:1006400040610029FAD00820FFF766FF1E481030ED
:10065000016821F0070141F003010160016801F028
:1006600038011829FAD1184C1834206820F4706029
:1006700020600820FFF750FF201D016821F0700165
:1006800041F040010160016821F4E06141F48061C2
:100690000160206820F0700040F0400020600A48AF
:1006A0002030016821F0700141F040010160074CE9
:1006B0002046FFF723FF2046BDE81040FFF736BF76
:1006C000002000520C4802580044025800389C1C7C
:1006D0002C48F0B52C4A016841F4700101601068A3
:1006E00000F00F00072804D2106820F00F00C01D92
:1006F000106026490020254C10340B68244D43F02F
:1007000001030B6020600B682B400B60136803F043
:100710000F03072B04D9136823F00F03DB1D1360AD
:100720001A4C1C4A18341C4B261D371D2060174CD0
:100730001A4D28343060261D3860371D23603B1D5C
:1007400035601C1D3A60251D2E1D1860331D22606A
:100750002860326018600A680C4B114C22F4802229
:1007600060330A60186020686FF30F00B0F1005F1B
:1007700003D20C490120C1F8080143F2D2000A4912
:100780000860F0BD88ED00E00020005200440258EF
:100790007FEDF6EA80020101000202020000FF0183
:1007A0000010005C00800051004000524FF040708B
:1007B000E1EE100A70470000E8070008000000247E
:1007C0008C010000D4020008740900088C01002488
:1007D00008000000D40200087C09000894010024ED
:1007E00064060000F002000840F2793CC0F6000CFC
:1007F000604740F2494CC0F6000C604740F2395C5B
:10080000C0F6000C604740F26D5CC0F6000C60471B
:10081000FEE77047FEE70000044908B50A68024396
:100820000A6009680140009108BD0000E0440258D8
:1008300000B587B018216846FFF7D6FF0420FFF700
:10084000EBFF8020FFF7E8FF0120FFF7E5FF0848F6
:100850004FF400528261002101230092CDE9013161
:10086000039104916946FFF7C4FF07B000BD000083
:1008700000080258FEE7FEE7704770477047FEE742
:1008800008B5FFF7BBFF364900200A68920311D470
:10089000BFF34F8FBFF36F8F324A1060BFF34F8F9C
:1008A000BFF36F8F0A6842F400320A60BFF34F8FC4
:1008B000BFF36F8F0A68D20323D4294A70321060C5
:1008C000BFF34F8F101F43F6FF740068254B1033A2
:1008D000C0F34E32C0F3C90504EA4216284600BFF1
:1008E00046EA80771F60401EFAD2521EF4D2BFF350
:1008F0004F8F086840F480300860BFF34F8FBFF31C
:100900006F8F1948016841F00201016000684FF6DD
:10091000FF03164A00F002000090114808380168F1
:10092000194041F44071114301600068C0F3022096
:10093000C0F10702042A00D90422011D072901D2AF
:10094000002000E0C01E01219140094A491E81405B
:10095000080182F8140DFFF756FFFFF769FFFEE765
:1009600014ED00E050EF00E0F44402580000FA05F6
:0C0970000FE000E00090D0030090D003E6
:040000050800029954
:00000001FF
